{
  "contractName": "erc20",
  "abi": [
    {
      "inputs": [
        {
          "internalType": "string",
          "name": "_name",
          "type": "string"
        },
        {
          "internalType": "string",
          "name": "_symbol",
          "type": "string"
        },
        {
          "internalType": "uint8",
          "name": "_decimals",
          "type": "uint8"
        },
        {
          "internalType": "uint256",
          "name": "_totalSupply",
          "type": "uint256"
        }
      ],
      "stateMutability": "nonpayable",
      "type": "constructor"
    },
    {
      "anonymous": false,
      "inputs": [
        {
          "indexed": true,
          "internalType": "address",
          "name": "_owner",
          "type": "address"
        },
        {
          "indexed": true,
          "internalType": "address",
          "name": "_spender",
          "type": "address"
        },
        {
          "indexed": false,
          "internalType": "uint256",
          "name": "_value",
          "type": "uint256"
        }
      ],
      "name": "Approval",
      "type": "event"
    },
    {
      "anonymous": false,
      "inputs": [
        {
          "indexed": true,
          "internalType": "address",
          "name": "_from",
          "type": "address"
        },
        {
          "indexed": true,
          "internalType": "address",
          "name": "_to",
          "type": "address"
        },
        {
          "indexed": false,
          "internalType": "uint256",
          "name": "_value",
          "type": "uint256"
        }
      ],
      "name": "Transfer",
      "type": "event"
    },
    {
      "inputs": [
        {
          "internalType": "address",
          "name": "",
          "type": "address"
        },
        {
          "internalType": "address",
          "name": "",
          "type": "address"
        }
      ],
      "name": "_allowances",
      "outputs": [
        {
          "internalType": "uint256",
          "name": "",
          "type": "uint256"
        }
      ],
      "stateMutability": "view",
      "type": "function",
      "constant": true
    },
    {
      "inputs": [
        {
          "internalType": "address",
          "name": "",
          "type": "address"
        }
      ],
      "name": "balanceOf",
      "outputs": [
        {
          "internalType": "uint256",
          "name": "",
          "type": "uint256"
        }
      ],
      "stateMutability": "view",
      "type": "function",
      "constant": true
    },
    {
      "inputs": [],
      "name": "decimals",
      "outputs": [
        {
          "internalType": "uint8",
          "name": "",
          "type": "uint8"
        }
      ],
      "stateMutability": "view",
      "type": "function",
      "constant": true
    },
    {
      "inputs": [],
      "name": "name",
      "outputs": [
        {
          "internalType": "string",
          "name": "",
          "type": "string"
        }
      ],
      "stateMutability": "view",
      "type": "function",
      "constant": true
    },
    {
      "inputs": [],
      "name": "symbol",
      "outputs": [
        {
          "internalType": "string",
          "name": "",
          "type": "string"
        }
      ],
      "stateMutability": "view",
      "type": "function",
      "constant": true
    },
    {
      "inputs": [],
      "name": "totalSupply",
      "outputs": [
        {
          "internalType": "uint256",
          "name": "",
          "type": "uint256"
        }
      ],
      "stateMutability": "view",
      "type": "function",
      "constant": true
    },
    {
      "inputs": [
        {
          "internalType": "address",
          "name": "recipient",
          "type": "address"
        },
        {
          "internalType": "uint256",
          "name": "amount",
          "type": "uint256"
        }
      ],
      "name": "transfer",
      "outputs": [
        {
          "internalType": "bool",
          "name": "",
          "type": "bool"
        }
      ],
      "stateMutability": "nonpayable",
      "type": "function"
    },
    {
      "inputs": [
        {
          "internalType": "address",
          "name": "sender",
          "type": "address"
        },
        {
          "internalType": "address",
          "name": "recipient",
          "type": "address"
        },
        {
          "internalType": "uint256",
          "name": "amount",
          "type": "uint256"
        }
      ],
      "name": "transferFrom",
      "outputs": [
        {
          "internalType": "bool",
          "name": "",
          "type": "bool"
        }
      ],
      "stateMutability": "nonpayable",
      "type": "function"
    },
    {
      "inputs": [
        {
          "internalType": "address",
          "name": "owner",
          "type": "address"
        },
        {
          "internalType": "address",
          "name": "spender",
          "type": "address"
        }
      ],
      "name": "allowance",
      "outputs": [
        {
          "internalType": "uint256",
          "name": "",
          "type": "uint256"
        }
      ],
      "stateMutability": "view",
      "type": "function",
      "constant": true
    },
    {
      "inputs": [
        {
          "internalType": "address",
          "name": "spender",
          "type": "address"
        },
        {
          "internalType": "uint256",
          "name": "value",
          "type": "uint256"
        }
      ],
      "name": "approve",
      "outputs": [
        {
          "internalType": "bool",
          "name": "",
          "type": "bool"
        }
      ],
      "stateMutability": "nonpayable",
      "type": "function"
    }
  ],
  "bytecode": "0x60806040523480156200001157600080fd5b50604051620010a5380380620010a583398181016040528101906200003791906200040a565b83600090805190602001906200004f92919062000144565b5082600190805190602001906200006892919062000144565b5081600260006101000a81548160ff021916908360ff16021790555080600381905550600354600460003373ffffffffffffffffffffffffffffffffffffffff1673ffffffffffffffffffffffffffffffffffffffff168152602001908152602001600020819055503373ffffffffffffffffffffffffffffffffffffffff163073ffffffffffffffffffffffffffffffffffffffff167fddf252ad1be2c89b69c2b068fc378daa952ba7f163c4a11628f55a4df523b3ef600354604051620001329190620004cb565b60405180910390a3505050506200054d565b828054620001529062000517565b90600052602060002090601f016020900481019282620001765760008555620001c2565b82601f106200019157805160ff1916838001178555620001c2565b82800160010185558215620001c2579182015b82811115620001c1578251825591602001919060010190620001a4565b5b509050620001d19190620001d5565b5090565b5b80821115620001f0576000816000905550600101620001d6565b5090565b6000604051905090565b600080fd5b600080fd5b600080fd5b600080fd5b6000601f19601f8301169050919050565b7f4e487b7100000000000000000000000000000000000000000000000000000000600052604160045260246000fd5b6200025d8262000212565b810181811067ffffffffffffffff821117156200027f576200027e62000223565b5b80604052505050565b600062000294620001f4565b9050620002a2828262000252565b919050565b600067ffffffffffffffff821115620002c557620002c462000223565b5b620002d08262000212565b9050602081019050919050565b60005b83811015620002fd578082015181840152602081019050620002e0565b838111156200030d576000848401525b50505050565b60006200032a6200032484620002a7565b62000288565b9050828152602081018484840111156200034957620003486200020d565b5b62000356848285620002dd565b509392505050565b600082601f83011262000376576200037562000208565b5b81516200038884826020860162000313565b91505092915050565b600060ff82169050919050565b620003a98162000391565b8114620003b557600080fd5b50565b600081519050620003c9816200039e565b92915050565b6000819050919050565b620003e481620003cf565b8114620003f057600080fd5b50565b6000815190506200040481620003d9565b92915050565b60008060008060808587031215620004275762000426620001fe565b5b600085015167ffffffffffffffff81111562000448576200044762000203565b5b62000456878288016200035e565b945050602085015167ffffffffffffffff8111156200047a576200047962000203565b5b62000488878288016200035e565b93505060406200049b87828801620003b8565b9250506060620004ae87828801620003f3565b91505092959194509250565b620004c581620003cf565b82525050565b6000602082019050620004e26000830184620004ba565b92915050565b7f4e487b7100000000000000000000000000000000000000000000000000000000600052602260045260246000fd5b600060028204905060018216806200053057607f821691505b60208210811415620005475762000546620004e8565b5b50919050565b610b48806200055d6000396000f3fe608060405234801561001057600080fd5b506004361061009e5760003560e01c8063313ce56711610066578063313ce5671461016f57806370a082311461018d57806395d89b41146101bd578063a9059cbb146101db578063dd62ed3e1461020b5761009e565b8063024c2ddd146100a357806306fdde03146100d3578063095ea7b3146100f157806318160ddd1461012157806323b872dd1461013f575b600080fd5b6100bd60048036038101906100b89190610770565b61023b565b6040516100ca91906107c9565b60405180910390f35b6100db610260565b6040516100e8919061087d565b60405180910390f35b61010b600480360381019061010691906108cb565b6102ee565b6040516101189190610926565b60405180910390f35b610129610305565b60405161013691906107c9565b60405180910390f35b61015960048036038101906101549190610941565b61030b565b6040516101669190610926565b60405180910390f35b6101776103b5565b60405161018491906109b0565b60405180910390f35b6101a760048036038101906101a291906109cb565b6103c8565b6040516101b491906107c9565b60405180910390f35b6101c56103e0565b6040516101d2919061087d565b60405180910390f35b6101f560048036038101906101f091906108cb565b61046e565b6040516102029190610926565b60405180910390f35b61022560048036038101906102209190610770565b610485565b60405161023291906107c9565b60405180910390f35b6005602052816000526040600020602052806000526040600020600091509150505481565b6000805461026d90610a27565b80601f016020809104026020016040519081016040528092919081815260200182805461029990610a27565b80156102e65780601f106102bb576101008083540402835291602001916102e6565b820191906000526020600020905b8154815290600101906020018083116102c957829003601f168201915b505050505081565b60006102fb33848461050c565b6001905092915050565b60035481565b60006103188484846105f7565b6103aa843384600560008973ffffffffffffffffffffffffffffffffffffffff1673ffffffffffffffffffffffffffffffffffffffff16815260200190815260200160002060003373ffffffffffffffffffffffffffffffffffffffff1673ffffffffffffffffffffffffffffffffffffffff168152602001908152602001600020546103a59190610a88565b61050c565b600190509392505050565b600260009054906101000a900460ff1681565b60046020528060005260406000206000915090505481565b600180546103ed90610a27565b80601f016020809104026020016040519081016040528092919081815260200182805461041990610a27565b80156104665780601f1061043b57610100808354040283529160200191610466565b820191906000526020600020905b81548152906001019060200180831161044957829003601f168201915b505050505081565b600061047b3384846105f7565b6001905092915050565b6000600560008473ffffffffffffffffffffffffffffffffffffffff1673ffffffffffffffffffffffffffffffffffffffff16815260200190815260200160002060008373ffffffffffffffffffffffffffffffffffffffff1673ffffffffffffffffffffffffffffffffffffffff16815260200190815260200160002054905092915050565b80600560008573ffffffffffffffffffffffffffffffffffffffff1673ffffffffffffffffffffffffffffffffffffffff16815260200190815260200160002060008473ffffffffffffffffffffffffffffffffffffffff1673ffffffffffffffffffffffffffffffffffffffff168152602001908152602001600020819055508173ffffffffffffffffffffffffffffffffffffffff168373ffffffffffffffffffffffffffffffffffffffff167f8c5be1e5ebec7d5bd14f71427d1e84f3dd0314c0f7b2291e5b200ac8c7c3b925836040516105ea91906107c9565b60405180910390a3505050565b80600460008573ffffffffffffffffffffffffffffffffffffffff1673ffffffffffffffffffffffffffffffffffffffff16815260200190815260200160002060008282546106469190610a88565b9250508190555080600460008473ffffffffffffffffffffffffffffffffffffffff1673ffffffffffffffffffffffffffffffffffffffff168152602001908152602001600020600082825461069c9190610abc565b925050819055508173ffffffffffffffffffffffffffffffffffffffff168373ffffffffffffffffffffffffffffffffffffffff167fddf252ad1be2c89b69c2b068fc378daa952ba7f163c4a11628f55a4df523b3ef8360405161070091906107c9565b60405180910390a3505050565b600080fd5b600073ffffffffffffffffffffffffffffffffffffffff82169050919050565b600061073d82610712565b9050919050565b61074d81610732565b811461075857600080fd5b50565b60008135905061076a81610744565b92915050565b600080604083850312156107875761078661070d565b5b60006107958582860161075b565b92505060206107a68582860161075b565b9150509250929050565b6000819050919050565b6107c3816107b0565b82525050565b60006020820190506107de60008301846107ba565b92915050565b600081519050919050565b600082825260208201905092915050565b60005b8381101561081e578082015181840152602081019050610803565b8381111561082d576000848401525b50505050565b6000601f19601f8301169050919050565b600061084f826107e4565b61085981856107ef565b9350610869818560208601610800565b61087281610833565b840191505092915050565b600060208201905081810360008301526108978184610844565b905092915050565b6108a8816107b0565b81146108b357600080fd5b50565b6000813590506108c58161089f565b92915050565b600080604083850312156108e2576108e161070d565b5b60006108f08582860161075b565b9250506020610901858286016108b6565b9150509250929050565b60008115159050919050565b6109208161090b565b82525050565b600060208201905061093b6000830184610917565b92915050565b60008060006060848603121561095a5761095961070d565b5b60006109688682870161075b565b93505060206109798682870161075b565b925050604061098a868287016108b6565b9150509250925092565b600060ff82169050919050565b6109aa81610994565b82525050565b60006020820190506109c560008301846109a1565b92915050565b6000602082840312156109e1576109e061070d565b5b60006109ef8482850161075b565b91505092915050565b7f4e487b7100000000000000000000000000000000000000000000000000000000600052602260045260246000fd5b60006002820490506001821680610a3f57607f821691505b60208210811415610a5357610a526109f8565b5b50919050565b7f4e487b7100000000000000000000000000000000000000000000000000000000600052601160045260246000fd5b6000610a93826107b0565b9150610a9e836107b0565b925082821015610ab157610ab0610a59565b5b828203905092915050565b6000610ac7826107b0565b9150610ad2836107b0565b9250827fffffffffffffffffffffffffffffffffffffffffffffffffffffffffffffffff03821115610b0757610b06610a59565b5b82820190509291505056fea26469706673582212200ca21ac4a97c2a1c2bba2a93a4aec284480498feb8d8c1c0fda6cff40915947764736f6c634300080a0033",
  "immutableReferences": {},
  "source": "// SPDX-License-Identifier: UNLICENSED\r\npragma solidity 0.8.10;\r\n\r\ncontract erc20 {\r\n  event Transfer(address indexed _from, address indexed _to, uint256 _value);\r\n  event Approval(address indexed _owner, address indexed _spender, uint256 _value);\r\n\r\n  string public name;\r\n  string public symbol;\r\n  uint8 public decimals;\r\n  uint public totalSupply;\r\n\r\n  mapping(address => uint) public balanceOf;\r\n  mapping(address => mapping(address => uint)) public _allowances;\r\n  \r\n  constructor (\r\n    string memory _name,\r\n    string memory _symbol,\r\n    uint8 _decimals,\r\n    uint _totalSupply\r\n  ) {\r\n    name = _name;\r\n    symbol = _symbol;\r\n    decimals = _decimals;\r\n    totalSupply = _totalSupply;\r\n\r\n    balanceOf[msg.sender] = totalSupply;\r\n    emit Transfer(address(this), msg.sender, totalSupply);\r\n  }\r\n\r\n  function transfer(address recipient, uint256 amount) public returns (bool) {\r\n    _transfer(msg.sender, recipient, amount);\r\n    return true;\r\n  }\r\n  function transferFrom(address sender, address recipient, uint256 amount) public returns (bool) {\r\n    _transfer(sender, recipient, amount);\r\n    _approve(sender, msg.sender, _allowances[sender][msg.sender] - amount);\r\n    return true;\r\n  }\r\n  function allowance(address owner, address spender) public view returns (uint256) {\r\n    return _allowances[owner][spender];\r\n  }\r\n  function approve(address spender, uint256 value) public returns (bool) {\r\n    _approve(msg.sender, spender, value);\r\n    return true;\r\n  }\r\n\r\n  function _transfer(address sender, address recipient, uint256 amount) internal {\r\n    balanceOf[sender] -= amount;\r\n    balanceOf[recipient] += amount;\r\n\r\n    emit Transfer(sender, recipient, amount);\r\n  }\r\n\r\n  function _approve(address owner, address spender, uint256 value) internal {\r\n    _allowances[owner][spender] = value;\r\n\r\n    emit Approval(owner, spender, value);\r\n  }\r\n}",
  "sourcePath": "C:\\ljs\\solidity\\erc20\\contracts\\erc20.sol",
  "compiler": {
    "name": "solc",
    "version": "0.8.10+commit.fc410830.Emscripten.clang"
  },
  "schemaVersion": "3.4.16",
  "updatedAt": "2025-01-03T00:47:36.499Z",
  "networkType": "ethereum",
  "devdoc": {
    "kind": "dev",
    "methods": {},
    "version": 1
  },
  "userdoc": {
    "kind": "user",
    "methods": {},
    "version": 1
  }
}