{
  "contractName": "ImageNFT",
  "abi": [
    {
      "inputs": [
        {
          "internalType": "string",
          "name": "_name",
          "type": "string"
        },
        {
          "internalType": "string",
          "name": "_symbol",
          "type": "string"
        }
      ],
      "stateMutability": "nonpayable",
      "type": "constructor"
    },
    {
      "inputs": [
        {
          "internalType": "address",
          "name": "sender",
          "type": "address"
        },
        {
          "internalType": "uint256",
          "name": "tokenId",
          "type": "uint256"
        },
        {
          "internalType": "address",
          "name": "owner",
          "type": "address"
        }
      ],
      "name": "ERC721IncorrectOwner",
      "type": "error"
    },
    {
      "inputs": [
        {
          "internalType": "address",
          "name": "operator",
          "type": "address"
        },
        {
          "internalType": "uint256",
          "name": "tokenId",
          "type": "uint256"
        }
      ],
      "name": "ERC721InsufficientApproval",
      "type": "error"
    },
    {
      "inputs": [
        {
          "internalType": "address",
          "name": "approver",
          "type": "address"
        }
      ],
      "name": "ERC721InvalidApprover",
      "type": "error"
    },
    {
      "inputs": [
        {
          "internalType": "address",
          "name": "operator",
          "type": "address"
        }
      ],
      "name": "ERC721InvalidOperator",
      "type": "error"
    },
    {
      "inputs": [
        {
          "internalType": "address",
          "name": "owner",
          "type": "address"
        }
      ],
      "name": "ERC721InvalidOwner",
      "type": "error"
    },
    {
      "inputs": [
        {
          "internalType": "address",
          "name": "receiver",
          "type": "address"
        }
      ],
      "name": "ERC721InvalidReceiver",
      "type": "error"
    },
    {
      "inputs": [
        {
          "internalType": "address",
          "name": "sender",
          "type": "address"
        }
      ],
      "name": "ERC721InvalidSender",
      "type": "error"
    },
    {
      "inputs": [
        {
          "internalType": "uint256",
          "name": "tokenId",
          "type": "uint256"
        }
      ],
      "name": "ERC721NonexistentToken",
      "type": "error"
    },
    {
      "anonymous": false,
      "inputs": [
        {
          "indexed": true,
          "internalType": "address",
          "name": "owner",
          "type": "address"
        },
        {
          "indexed": true,
          "internalType": "address",
          "name": "approved",
          "type": "address"
        },
        {
          "indexed": true,
          "internalType": "uint256",
          "name": "tokenId",
          "type": "uint256"
        }
      ],
      "name": "Approval",
      "type": "event"
    },
    {
      "anonymous": false,
      "inputs": [
        {
          "indexed": true,
          "internalType": "address",
          "name": "owner",
          "type": "address"
        },
        {
          "indexed": true,
          "internalType": "address",
          "name": "operator",
          "type": "address"
        },
        {
          "indexed": false,
          "internalType": "bool",
          "name": "approved",
          "type": "bool"
        }
      ],
      "name": "ApprovalForAll",
      "type": "event"
    },
    {
      "anonymous": false,
      "inputs": [
        {
          "indexed": true,
          "internalType": "address",
          "name": "from",
          "type": "address"
        },
        {
          "indexed": true,
          "internalType": "address",
          "name": "to",
          "type": "address"
        },
        {
          "indexed": true,
          "internalType": "uint256",
          "name": "tokenId",
          "type": "uint256"
        }
      ],
      "name": "Transfer",
      "type": "event"
    },
    {
      "inputs": [
        {
          "internalType": "address",
          "name": "to",
          "type": "address"
        },
        {
          "internalType": "uint256",
          "name": "tokenId",
          "type": "uint256"
        }
      ],
      "name": "approve",
      "outputs": [],
      "stateMutability": "nonpayable",
      "type": "function"
    },
    {
      "inputs": [
        {
          "internalType": "address",
          "name": "owner",
          "type": "address"
        }
      ],
      "name": "balanceOf",
      "outputs": [
        {
          "internalType": "uint256",
          "name": "",
          "type": "uint256"
        }
      ],
      "stateMutability": "view",
      "type": "function"
    },
    {
      "inputs": [
        {
          "internalType": "uint256",
          "name": "tokenId",
          "type": "uint256"
        }
      ],
      "name": "getApproved",
      "outputs": [
        {
          "internalType": "address",
          "name": "",
          "type": "address"
        }
      ],
      "stateMutability": "view",
      "type": "function"
    },
    {
      "inputs": [
        {
          "internalType": "uint256",
          "name": "",
          "type": "uint256"
        }
      ],
      "name": "images",
      "outputs": [
        {
          "internalType": "string",
          "name": "name",
          "type": "string"
        },
        {
          "internalType": "string",
          "name": "url",
          "type": "string"
        }
      ],
      "stateMutability": "view",
      "type": "function"
    },
    {
      "inputs": [
        {
          "internalType": "address",
          "name": "owner",
          "type": "address"
        },
        {
          "internalType": "address",
          "name": "operator",
          "type": "address"
        }
      ],
      "name": "isApprovedForAll",
      "outputs": [
        {
          "internalType": "bool",
          "name": "",
          "type": "bool"
        }
      ],
      "stateMutability": "view",
      "type": "function"
    },
    {
      "inputs": [],
      "name": "name",
      "outputs": [
        {
          "internalType": "string",
          "name": "",
          "type": "string"
        }
      ],
      "stateMutability": "view",
      "type": "function"
    },
    {
      "inputs": [
        {
          "internalType": "uint256",
          "name": "tokenId",
          "type": "uint256"
        }
      ],
      "name": "ownerOf",
      "outputs": [
        {
          "internalType": "address",
          "name": "",
          "type": "address"
        }
      ],
      "stateMutability": "view",
      "type": "function"
    },
    {
      "inputs": [
        {
          "internalType": "address",
          "name": "from",
          "type": "address"
        },
        {
          "internalType": "address",
          "name": "to",
          "type": "address"
        },
        {
          "internalType": "uint256",
          "name": "tokenId",
          "type": "uint256"
        }
      ],
      "name": "safeTransferFrom",
      "outputs": [],
      "stateMutability": "nonpayable",
      "type": "function"
    },
    {
      "inputs": [
        {
          "internalType": "address",
          "name": "from",
          "type": "address"
        },
        {
          "internalType": "address",
          "name": "to",
          "type": "address"
        },
        {
          "internalType": "uint256",
          "name": "tokenId",
          "type": "uint256"
        },
        {
          "internalType": "bytes",
          "name": "data",
          "type": "bytes"
        }
      ],
      "name": "safeTransferFrom",
      "outputs": [],
      "stateMutability": "nonpayable",
      "type": "function"
    },
    {
      "inputs": [
        {
          "internalType": "address",
          "name": "operator",
          "type": "address"
        },
        {
          "internalType": "bool",
          "name": "approved",
          "type": "bool"
        }
      ],
      "name": "setApprovalForAll",
      "outputs": [],
      "stateMutability": "nonpayable",
      "type": "function"
    },
    {
      "inputs": [
        {
          "internalType": "bytes4",
          "name": "interfaceId",
          "type": "bytes4"
        }
      ],
      "name": "supportsInterface",
      "outputs": [
        {
          "internalType": "bool",
          "name": "",
          "type": "bool"
        }
      ],
      "stateMutability": "view",
      "type": "function"
    },
    {
      "inputs": [],
      "name": "symbol",
      "outputs": [
        {
          "internalType": "string",
          "name": "",
          "type": "string"
        }
      ],
      "stateMutability": "view",
      "type": "function"
    },
    {
      "inputs": [
        {
          "internalType": "uint256",
          "name": "tokenId",
          "type": "uint256"
        }
      ],
      "name": "tokenURI",
      "outputs": [
        {
          "internalType": "string",
          "name": "",
          "type": "string"
        }
      ],
      "stateMutability": "view",
      "type": "function"
    },
    {
      "inputs": [
        {
          "internalType": "address",
          "name": "from",
          "type": "address"
        },
        {
          "internalType": "address",
          "name": "to",
          "type": "address"
        },
        {
          "internalType": "uint256",
          "name": "tokenId",
          "type": "uint256"
        }
      ],
      "name": "transferFrom",
      "outputs": [],
      "stateMutability": "nonpayable",
      "type": "function"
    },
    {
      "inputs": [
        {
          "internalType": "address",
          "name": "_to",
          "type": "address"
        },
        {
          "internalType": "string",
          "name": "_name",
          "type": "string"
        },
        {
          "internalType": "string",
          "name": "_url",
          "type": "string"
        }
      ],
      "name": "mint",
      "outputs": [],
      "stateMutability": "nonpayable",
      "type": "function"
    },
    {
      "inputs": [
        {
          "internalType": "uint256",
          "name": "tokenId",
          "type": "uint256"
        }
      ],
      "name": "exists",
      "outputs": [
        {
          "internalType": "bool",
          "name": "",
          "type": "bool"
        }
      ],
      "stateMutability": "view",
      "type": "function"
    }
  ],
  "bytecode": "0x608060405234801562000010575f80fd5b50604051620029c3380380620029c38339818101604052810190620000369190620001ea565b8181815f9081620000489190620004a4565b5080600190816200005a9190620004a4565b505050505062000588565b5f604051905090565b5f80fd5b5f80fd5b5f80fd5b5f80fd5b5f601f19601f8301169050919050565b7f4e487b71000000000000000000000000000000000000000000000000000000005f52604160045260245ffd5b620000c6826200007e565b810181811067ffffffffffffffff82111715620000e857620000e76200008e565b5b80604052505050565b5f620000fc62000065565b90506200010a8282620000bb565b919050565b5f67ffffffffffffffff8211156200012c576200012b6200008e565b5b62000137826200007e565b9050602081019050919050565b5f5b838110156200016357808201518184015260208101905062000146565b5f8484015250505050565b5f620001846200017e846200010f565b620000f1565b905082815260208101848484011115620001a357620001a26200007a565b5b620001b084828562000144565b509392505050565b5f82601f830112620001cf57620001ce62000076565b5b8151620001e18482602086016200016e565b91505092915050565b5f80604083850312156200020357620002026200006e565b5b5f83015167ffffffffffffffff81111562000223576200022262000072565b5b6200023185828601620001b8565b925050602083015167ffffffffffffffff81111562000255576200025462000072565b5b6200026385828601620001b8565b9150509250929050565b5f81519050919050565b7f4e487b71000000000000000000000000000000000000000000000000000000005f52602260045260245ffd5b5f6002820490506001821680620002bc57607f821691505b602082108103620002d257620002d162000277565b5b50919050565b5f819050815f5260205f209050919050565b5f6020601f8301049050919050565b5f82821b905092915050565b5f60088302620003367fffffffffffffffffffffffffffffffffffffffffffffffffffffffffffffffff82620002f9565b620003428683620002f9565b95508019841693508086168417925050509392505050565b5f819050919050565b5f819050919050565b5f6200038c6200038662000380846200035a565b62000363565b6200035a565b9050919050565b5f819050919050565b620003a7836200036c565b620003bf620003b68262000393565b84845462000305565b825550505050565b5f90565b620003d5620003c7565b620003e28184846200039c565b505050565b5b818110156200040957620003fd5f82620003cb565b600181019050620003e8565b5050565b601f82111562000458576200042281620002d8565b6200042d84620002ea565b810160208510156200043d578190505b620004556200044c85620002ea565b830182620003e7565b50505b505050565b5f82821c905092915050565b5f6200047a5f19846008026200045d565b1980831691505092915050565b5f62000494838362000469565b9150826002028217905092915050565b620004af826200026d565b67ffffffffffffffff811115620004cb57620004ca6200008e565b5b620004d78254620002a4565b620004e48282856200040d565b5f60209050601f8311600181146200051a575f841562000505578287015190505b62000511858262000487565b86555062000580565b601f1984166200052a86620002d8565b5f5b8281101562000553578489015182556001820191506020850194506020810190506200052c565b868310156200057357848901516200056f601f89168262000469565b8355505b6001600288020188555050505b505050505050565b61242d80620005965f395ff3fe608060405234801561000f575f80fd5b50600436106100fe575f3560e01c806370a0823111610095578063a22cb46511610064578063a22cb465146102cf578063b88d4fde146102eb578063c87b56dd14610307578063e985e9c514610337576100fe565b806370a0823114610234578063848564821461026457806395d89b411461029557806399071190146102b3576100fe565b806323b872dd116100d157806323b872dd1461019c57806342842e0e146101b85780634f558e79146101d45780636352211e14610204576100fe565b806301ffc9a71461010257806306fdde0314610132578063081812fc14610150578063095ea7b314610180575b5f80fd5b61011c6004803603810190610117919061188f565b610367565b60405161012991906118d4565b60405180910390f35b61013a610448565b6040516101479190611977565b60405180910390f35b61016a600480360381019061016591906119ca565b6104d7565b6040516101779190611a34565b60405180910390f35b61019a60048036038101906101959190611a77565b6104f2565b005b6101b660048036038101906101b19190611ab5565b610508565b005b6101d260048036038101906101cd9190611ab5565b610607565b005b6101ee60048036038101906101e991906119ca565b610626565b6040516101fb91906118d4565b60405180910390f35b61021e600480360381019061021991906119ca565b610666565b60405161022b9190611a34565b60405180910390f35b61024e60048036038101906102499190611b05565b610677565b60405161025b9190611b3f565b60405180910390f35b61027e600480360381019061027991906119ca565b61072d565b60405161028c929190611b58565b60405180910390f35b61029d610868565b6040516102aa9190611977565b60405180910390f35b6102cd60048036038101906102c89190611cb9565b6108f8565b005b6102e960048036038101906102e49190611d6b565b6109fa565b005b61030560048036038101906103009190611e47565b610a10565b005b610321600480360381019061031c91906119ca565b610a35565b60405161032e9190611977565b60405180910390f35b610351600480360381019061034c9190611ec7565b610a9b565b60405161035e91906118d4565b60405180910390f35b5f7f80ac58cd000000000000000000000000000000000000000000000000000000007bffffffffffffffffffffffffffffffffffffffffffffffffffffffff1916827bffffffffffffffffffffffffffffffffffffffffffffffffffffffff1916148061043157507f5b5e139f000000000000000000000000000000000000000000000000000000007bffffffffffffffffffffffffffffffffffffffffffffffffffffffff1916827bffffffffffffffffffffffffffffffffffffffffffffffffffffffff1916145b80610441575061044082610b29565b5b9050919050565b60605f805461045690611f32565b80601f016020809104026020016040519081016040528092919081815260200182805461048290611f32565b80156104cd5780601f106104a4576101008083540402835291602001916104cd565b820191905f5260205f20905b8154815290600101906020018083116104b057829003601f168201915b5050505050905090565b5f6104e182610b92565b506104eb82610c18565b9050919050565b61050482826104ff610c51565b610c58565b5050565b5f73ffffffffffffffffffffffffffffffffffffffff168273ffffffffffffffffffffffffffffffffffffffff1603610578575f6040517f64a0ae9200000000000000000000000000000000000000000000000000000000815260040161056f9190611a34565b60405180910390fd5b5f61058b8383610586610c51565b610c6a565b90508373ffffffffffffffffffffffffffffffffffffffff168173ffffffffffffffffffffffffffffffffffffffff1614610601578382826040517f64283d7b0000000000000000000000000000000000000000000000000000000081526004016105f893929190611f62565b60405180910390fd5b50505050565b61062183838360405180602001604052805f815250610a10565b505050565b5f8073ffffffffffffffffffffffffffffffffffffffff1661064783610e75565b73ffffffffffffffffffffffffffffffffffffffff1614159050919050565b5f61067082610b92565b9050919050565b5f8073ffffffffffffffffffffffffffffffffffffffff168273ffffffffffffffffffffffffffffffffffffffff16036106e8575f6040517f89c62b640000000000000000000000000000000000000000000000000000000081526004016106df9190611a34565b60405180910390fd5b60035f8373ffffffffffffffffffffffffffffffffffffffff1673ffffffffffffffffffffffffffffffffffffffff1681526020019081526020015f20549050919050565b6006818154811061073c575f80fd5b905f5260205f2090600202015f91509050805f01805461075b90611f32565b80601f016020809104026020016040519081016040528092919081815260200182805461078790611f32565b80156107d25780601f106107a9576101008083540402835291602001916107d2565b820191905f5260205f20905b8154815290600101906020018083116107b557829003601f168201915b5050505050908060010180546107e790611f32565b80601f016020809104026020016040519081016040528092919081815260200182805461081390611f32565b801561085e5780601f106108355761010080835404028352916020019161085e565b820191905f5260205f20905b81548152906001019060200180831161084157829003601f168201915b5050505050905082565b60606001805461087790611f32565b80601f01602080910402602001604051908101604052809291908181526020018280546108a390611f32565b80156108ee5780601f106108c5576101008083540402835291602001916108ee565b820191905f5260205f20905b8154815290600101906020018083116108d157829003601f168201915b5050505050905090565b5f73ffffffffffffffffffffffffffffffffffffffff168373ffffffffffffffffffffffffffffffffffffffff160361092f575f80fd5b5f60068054905090506006604051806040016040528085815260200184815250908060018154018082558091505060019003905f5260205f2090600202015f909190919091505f820151815f0190816109889190612134565b50602082015181600101908161099e9190612134565b5050506109aa81610626565b156109ea576040517f08c379a00000000000000000000000000000000000000000000000000000000081526004016109e19061224d565b60405180910390fd5b6109f48482610eae565b50505050565b610a0c610a05610c51565b8383610fa1565b5050565b610a1b848484610508565b610a2f610a26610c51565b8585858561110a565b50505050565b6060610a4082610b92565b505f610a4a6112b6565b90505f815111610a685760405180602001604052805f815250610a93565b80610a72846112cc565b604051602001610a839291906122a5565b6040516020818303038152906040525b915050919050565b5f60055f8473ffffffffffffffffffffffffffffffffffffffff1673ffffffffffffffffffffffffffffffffffffffff1681526020019081526020015f205f8373ffffffffffffffffffffffffffffffffffffffff1673ffffffffffffffffffffffffffffffffffffffff1681526020019081526020015f205f9054906101000a900460ff16905092915050565b5f7f01ffc9a7000000000000000000000000000000000000000000000000000000007bffffffffffffffffffffffffffffffffffffffffffffffffffffffff1916827bffffffffffffffffffffffffffffffffffffffffffffffffffffffff1916149050919050565b5f80610b9d83610e75565b90505f73ffffffffffffffffffffffffffffffffffffffff168173ffffffffffffffffffffffffffffffffffffffff1603610c0f57826040517f7e273289000000000000000000000000000000000000000000000000000000008152600401610c069190611b3f565b60405180910390fd5b80915050919050565b5f60045f8381526020019081526020015f205f9054906101000a900473ffffffffffffffffffffffffffffffffffffffff169050919050565b5f33905090565b610c658383836001611396565b505050565b5f80610c7584610e75565b90505f73ffffffffffffffffffffffffffffffffffffffff168373ffffffffffffffffffffffffffffffffffffffff1614610cb657610cb5818486611555565b5b5f73ffffffffffffffffffffffffffffffffffffffff168173ffffffffffffffffffffffffffffffffffffffff1614610d4157610cf55f855f80611396565b600160035f8373ffffffffffffffffffffffffffffffffffffffff1673ffffffffffffffffffffffffffffffffffffffff1681526020019081526020015f205f82825403925050819055505b5f73ffffffffffffffffffffffffffffffffffffffff168573ffffffffffffffffffffffffffffffffffffffff1614610dc057600160035f8773ffffffffffffffffffffffffffffffffffffffff1673ffffffffffffffffffffffffffffffffffffffff1681526020019081526020015f205f82825401925050819055505b8460025f8681526020019081526020015f205f6101000a81548173ffffffffffffffffffffffffffffffffffffffff021916908373ffffffffffffffffffffffffffffffffffffffff160217905550838573ffffffffffffffffffffffffffffffffffffffff168273ffffffffffffffffffffffffffffffffffffffff167fddf252ad1be2c89b69c2b068fc378daa952ba7f163c4a11628f55a4df523b3ef60405160405180910390a4809150509392505050565b5f60025f8381526020019081526020015f205f9054906101000a900473ffffffffffffffffffffffffffffffffffffffff169050919050565b5f73ffffffffffffffffffffffffffffffffffffffff168273ffffffffffffffffffffffffffffffffffffffff1603610f1e575f6040517f64a0ae92000000000000000000000000000000000000000000000000000000008152600401610f159190611a34565b60405180910390fd5b5f610f2a83835f610c6a565b90505f73ffffffffffffffffffffffffffffffffffffffff168173ffffffffffffffffffffffffffffffffffffffff1614610f9c575f6040517f73c6ac6e000000000000000000000000000000000000000000000000000000008152600401610f939190611a34565b60405180910390fd5b505050565b5f73ffffffffffffffffffffffffffffffffffffffff168273ffffffffffffffffffffffffffffffffffffffff160361101157816040517f5b08ba180000000000000000000000000000000000000000000000000000000081526004016110089190611a34565b60405180910390fd5b8060055f8573ffffffffffffffffffffffffffffffffffffffff1673ffffffffffffffffffffffffffffffffffffffff1681526020019081526020015f205f8473ffffffffffffffffffffffffffffffffffffffff1673ffffffffffffffffffffffffffffffffffffffff1681526020019081526020015f205f6101000a81548160ff0219169083151502179055508173ffffffffffffffffffffffffffffffffffffffff168373ffffffffffffffffffffffffffffffffffffffff167f17307eab39ab6107e8899845ad3d59bd9653f200f220920489ca2b5937696c31836040516110fd91906118d4565b60405180910390a3505050565b5f8373ffffffffffffffffffffffffffffffffffffffff163b11156112af578273ffffffffffffffffffffffffffffffffffffffff1663150b7a02868685856040518563ffffffff1660e01b8152600401611168949392919061231a565b6020604051808303815f875af19250505080156111a357506040513d601f19601f820116820180604052508101906111a09190612378565b60015b611224573d805f81146111d1576040519150601f19603f3d011682016040523d82523d5f602084013e6111d6565b606091505b505f81510361121c57836040517f64a0ae920000000000000000000000000000000000000000000000000000000081526004016112139190611a34565b60405180910390fd5b805181602001fd5b63150b7a0260e01b7bffffffffffffffffffffffffffffffffffffffffffffffffffffffff1916817bffffffffffffffffffffffffffffffffffffffffffffffffffffffff1916146112ad57836040517f64a0ae920000000000000000000000000000000000000000000000000000000081526004016112a49190611a34565b60405180910390fd5b505b5050505050565b606060405180602001604052805f815250905090565b60605f60016112da84611618565b0190505f8167ffffffffffffffff8111156112f8576112f7611b95565b5b6040519080825280601f01601f19166020018201604052801561132a5781602001600182028036833780820191505090505b5090505f82602001820190505b60011561138b578080600190039150507f3031323334353637383961626364656600000000000000000000000000000000600a86061a8153600a85816113805761137f6123a3565b5b0494505f8503611337575b819350505050919050565b80806113ce57505f73ffffffffffffffffffffffffffffffffffffffff168273ffffffffffffffffffffffffffffffffffffffff1614155b15611500575f6113dd84610b92565b90505f73ffffffffffffffffffffffffffffffffffffffff168373ffffffffffffffffffffffffffffffffffffffff161415801561144757508273ffffffffffffffffffffffffffffffffffffffff168173ffffffffffffffffffffffffffffffffffffffff1614155b801561145a57506114588184610a9b565b155b1561149c57826040517fa9fbf51f0000000000000000000000000000000000000000000000000000000081526004016114939190611a34565b60405180910390fd5b81156114fe57838573ffffffffffffffffffffffffffffffffffffffff168273ffffffffffffffffffffffffffffffffffffffff167f8c5be1e5ebec7d5bd14f71427d1e84f3dd0314c0f7b2291e5b200ac8c7c3b92560405160405180910390a45b505b8360045f8581526020019081526020015f205f6101000a81548173ffffffffffffffffffffffffffffffffffffffff021916908373ffffffffffffffffffffffffffffffffffffffff16021790555050505050565b611560838383611769565b611613575f73ffffffffffffffffffffffffffffffffffffffff168373ffffffffffffffffffffffffffffffffffffffff16036115d457806040517f7e2732890000000000000000000000000000000000000000000000000000000081526004016115cb9190611b3f565b60405180910390fd5b81816040517f177e802f00000000000000000000000000000000000000000000000000000000815260040161160a9291906123d0565b60405180910390fd5b505050565b5f805f90507a184f03e93ff9f4daa797ed6e38ed64bf6a1f0100000000000000008310611674577a184f03e93ff9f4daa797ed6e38ed64bf6a1f010000000000000000838161166a576116696123a3565b5b0492506040810190505b6d04ee2d6d415b85acef810000000083106116b1576d04ee2d6d415b85acef810000000083816116a7576116a66123a3565b5b0492506020810190505b662386f26fc1000083106116e057662386f26fc1000083816116d6576116d56123a3565b5b0492506010810190505b6305f5e1008310611709576305f5e10083816116ff576116fe6123a3565b5b0492506008810190505b612710831061172e576127108381611724576117236123a3565b5b0492506004810190505b606483106117515760648381611747576117466123a3565b5b0492506002810190505b600a8310611760576001810190505b80915050919050565b5f8073ffffffffffffffffffffffffffffffffffffffff168373ffffffffffffffffffffffffffffffffffffffff161415801561182057508273ffffffffffffffffffffffffffffffffffffffff168473ffffffffffffffffffffffffffffffffffffffff1614806117e157506117e08484610a9b565b5b8061181f57508273ffffffffffffffffffffffffffffffffffffffff1661180783610c18565b73ffffffffffffffffffffffffffffffffffffffff16145b5b90509392505050565b5f604051905090565b5f80fd5b5f80fd5b5f7fffffffff0000000000000000000000000000000000000000000000000000000082169050919050565b61186e8161183a565b8114611878575f80fd5b50565b5f8135905061188981611865565b92915050565b5f602082840312156118a4576118a3611832565b5b5f6118b18482850161187b565b91505092915050565b5f8115159050919050565b6118ce816118ba565b82525050565b5f6020820190506118e75f8301846118c5565b92915050565b5f81519050919050565b5f82825260208201905092915050565b5f5b83811015611924578082015181840152602081019050611909565b5f8484015250505050565b5f601f19601f8301169050919050565b5f611949826118ed565b61195381856118f7565b9350611963818560208601611907565b61196c8161192f565b840191505092915050565b5f6020820190508181035f83015261198f818461193f565b905092915050565b5f819050919050565b6119a981611997565b81146119b3575f80fd5b50565b5f813590506119c4816119a0565b92915050565b5f602082840312156119df576119de611832565b5b5f6119ec848285016119b6565b91505092915050565b5f73ffffffffffffffffffffffffffffffffffffffff82169050919050565b5f611a1e826119f5565b9050919050565b611a2e81611a14565b82525050565b5f602082019050611a475f830184611a25565b92915050565b611a5681611a14565b8114611a60575f80fd5b50565b5f81359050611a7181611a4d565b92915050565b5f8060408385031215611a8d57611a8c611832565b5b5f611a9a85828601611a63565b9250506020611aab858286016119b6565b9150509250929050565b5f805f60608486031215611acc57611acb611832565b5b5f611ad986828701611a63565b9350506020611aea86828701611a63565b9250506040611afb868287016119b6565b9150509250925092565b5f60208284031215611b1a57611b19611832565b5b5f611b2784828501611a63565b91505092915050565b611b3981611997565b82525050565b5f602082019050611b525f830184611b30565b92915050565b5f6040820190508181035f830152611b70818561193f565b90508181036020830152611b84818461193f565b90509392505050565b5f80fd5b5f80fd5b7f4e487b71000000000000000000000000000000000000000000000000000000005f52604160045260245ffd5b611bcb8261192f565b810181811067ffffffffffffffff82111715611bea57611be9611b95565b5b80604052505050565b5f611bfc611829565b9050611c088282611bc2565b919050565b5f67ffffffffffffffff821115611c2757611c26611b95565b5b611c308261192f565b9050602081019050919050565b828183375f83830152505050565b5f611c5d611c5884611c0d565b611bf3565b905082815260208101848484011115611c7957611c78611b91565b5b611c84848285611c3d565b509392505050565b5f82601f830112611ca057611c9f611b8d565b5b8135611cb0848260208601611c4b565b91505092915050565b5f805f60608486031215611cd057611ccf611832565b5b5f611cdd86828701611a63565b935050602084013567ffffffffffffffff811115611cfe57611cfd611836565b5b611d0a86828701611c8c565b925050604084013567ffffffffffffffff811115611d2b57611d2a611836565b5b611d3786828701611c8c565b9150509250925092565b611d4a816118ba565b8114611d54575f80fd5b50565b5f81359050611d6581611d41565b92915050565b5f8060408385031215611d8157611d80611832565b5b5f611d8e85828601611a63565b9250506020611d9f85828601611d57565b9150509250929050565b5f67ffffffffffffffff821115611dc357611dc2611b95565b5b611dcc8261192f565b9050602081019050919050565b5f611deb611de684611da9565b611bf3565b905082815260208101848484011115611e0757611e06611b91565b5b611e12848285611c3d565b509392505050565b5f82601f830112611e2e57611e2d611b8d565b5b8135611e3e848260208601611dd9565b91505092915050565b5f805f8060808587031215611e5f57611e5e611832565b5b5f611e6c87828801611a63565b9450506020611e7d87828801611a63565b9350506040611e8e878288016119b6565b925050606085013567ffffffffffffffff811115611eaf57611eae611836565b5b611ebb87828801611e1a565b91505092959194509250565b5f8060408385031215611edd57611edc611832565b5b5f611eea85828601611a63565b9250506020611efb85828601611a63565b9150509250929050565b7f4e487b71000000000000000000000000000000000000000000000000000000005f52602260045260245ffd5b5f6002820490506001821680611f4957607f821691505b602082108103611f5c57611f5b611f05565b5b50919050565b5f606082019050611f755f830186611a25565b611f826020830185611b30565b611f8f6040830184611a25565b949350505050565b5f819050815f5260205f209050919050565b5f6020601f8301049050919050565b5f82821b905092915050565b5f60088302611ff37fffffffffffffffffffffffffffffffffffffffffffffffffffffffffffffffff82611fb8565b611ffd8683611fb8565b95508019841693508086168417925050509392505050565b5f819050919050565b5f61203861203361202e84611997565b612015565b611997565b9050919050565b5f819050919050565b6120518361201e565b61206561205d8261203f565b848454611fc4565b825550505050565b5f90565b61207961206d565b612084818484612048565b505050565b5b818110156120a75761209c5f82612071565b60018101905061208a565b5050565b601f8211156120ec576120bd81611f97565b6120c684611fa9565b810160208510156120d5578190505b6120e96120e185611fa9565b830182612089565b50505b505050565b5f82821c905092915050565b5f61210c5f19846008026120f1565b1980831691505092915050565b5f61212483836120fd565b9150826002028217905092915050565b61213d826118ed565b67ffffffffffffffff81111561215657612155611b95565b5b6121608254611f32565b61216b8282856120ab565b5f60209050601f83116001811461219c575f841561218a578287015190505b6121948582612119565b8655506121fb565b601f1984166121aa86611f97565b5f5b828110156121d1578489015182556001820191506020850194506020810190506121ac565b868310156121ee57848901516121ea601f8916826120fd565b8355505b6001600288020188555050505b505050505050565b7f546f6b656e20616c7265616479206578697374730000000000000000000000005f82015250565b5f6122376014836118f7565b915061224282612203565b602082019050919050565b5f6020820190508181035f8301526122648161222b565b9050919050565b5f81905092915050565b5f61227f826118ed565b612289818561226b565b9350612299818560208601611907565b80840191505092915050565b5f6122b08285612275565b91506122bc8284612275565b91508190509392505050565b5f81519050919050565b5f82825260208201905092915050565b5f6122ec826122c8565b6122f681856122d2565b9350612306818560208601611907565b61230f8161192f565b840191505092915050565b5f60808201905061232d5f830187611a25565b61233a6020830186611a25565b6123476040830185611b30565b818103606083015261235981846122e2565b905095945050505050565b5f8151905061237281611865565b92915050565b5f6020828403121561238d5761238c611832565b5b5f61239a84828501612364565b91505092915050565b7f4e487b71000000000000000000000000000000000000000000000000000000005f52601260045260245ffd5b5f6040820190506123e35f830185611a25565b6123f06020830184611b30565b939250505056fea2646970667358221220457ffd63a7383ec0f26f6f337bd5c52231ceeb3c398fc31f44af2c2b7f784c3364736f6c63430008140033",
  "immutableReferences": {},
  "source": "// SPDX-License-Identifier: UNLICENSED\r\npragma solidity ^0.8.20;\r\n\r\nimport \"@openzeppelin/contracts/token/ERC721/ERC721.sol\";\r\n\r\ncontract ImageNFT is ERC721 {\r\n    //    \r\n    struct Image {\r\n        string name;\r\n        string url;\r\n    }\r\n\r\n    Image[] public images;\r\n\r\n    constructor(string memory _name, string memory _symbol)\r\n        ERC721(_name, _symbol)\r\n    {}\r\n\r\n    function mint(\r\n        address _to,\r\n        string memory _name,\r\n        string memory _url\r\n    ) public {\r\n        require(_to != address(0));\r\n        uint256 _tokenId = images.length;\r\n        images.push(Image(_name, _url));\r\n        require(!exists(_tokenId), \"Token already exists\");\r\n        _mint(_to, _tokenId);\r\n    }\r\n\r\n    function exists(uint256 tokenId) public view returns (bool) {\r\n        return _ownerOf(tokenId) != address(0);\r\n    }\r\n}\r\n",
  "sourcePath": "C:\\ljs\\solidity\\nft_generator\\contracts\\ImageNFT.sol",
  "compiler": {
    "name": "solc",
    "version": "0.8.20+commit.a1b79de6.Emscripten.clang"
  },
  "schemaVersion": "3.4.16",
  "updatedAt": "2025-01-03T07:49:31.137Z",
  "devdoc": {
    "errors": {
      "ERC721IncorrectOwner(address,uint256,address)": [
        {
          "details": "Indicates an error related to the ownership over a particular token. Used in transfers.",
          "params": {
            "owner": "Address of the current owner of a token.",
            "sender": "Address whose tokens are being transferred.",
            "tokenId": "Identifier number of a token."
          }
        }
      ],
      "ERC721InsufficientApproval(address,uint256)": [
        {
          "details": "Indicates a failure with the `operator`s approval. Used in transfers.",
          "params": {
            "operator": "Address that may be allowed to operate on tokens without being their owner.",
            "tokenId": "Identifier number of a token."
          }
        }
      ],
      "ERC721InvalidApprover(address)": [
        {
          "details": "Indicates a failure with the `approver` of a token to be approved. Used in approvals.",
          "params": {
            "approver": "Address initiating an approval operation."
          }
        }
      ],
      "ERC721InvalidOperator(address)": [
        {
          "details": "Indicates a failure with the `operator` to be approved. Used in approvals.",
          "params": {
            "operator": "Address that may be allowed to operate on tokens without being their owner."
          }
        }
      ],
      "ERC721InvalidOwner(address)": [
        {
          "details": "Indicates that an address can't be an owner. For example, `address(0)` is a forbidden owner in ERC-20. Used in balance queries.",
          "params": {
            "owner": "Address of the current owner of a token."
          }
        }
      ],
      "ERC721InvalidReceiver(address)": [
        {
          "details": "Indicates a failure with the token `receiver`. Used in transfers.",
          "params": {
            "receiver": "Address to which tokens are being transferred."
          }
        }
      ],
      "ERC721InvalidSender(address)": [
        {
          "details": "Indicates a failure with the token `sender`. Used in transfers.",
          "params": {
            "sender": "Address whose tokens are being transferred."
          }
        }
      ],
      "ERC721NonexistentToken(uint256)": [
        {
          "details": "Indicates a `tokenId` whose `owner` is the zero address.",
          "params": {
            "tokenId": "Identifier number of a token."
          }
        }
      ]
    },
    "events": {
      "Approval(address,address,uint256)": {
        "details": "Emitted when `owner` enables `approved` to manage the `tokenId` token."
      },
      "ApprovalForAll(address,address,bool)": {
        "details": "Emitted when `owner` enables or disables (`approved`) `operator` to manage all of its assets."
      },
      "Transfer(address,address,uint256)": {
        "details": "Emitted when `tokenId` token is transferred from `from` to `to`."
      }
    },
    "kind": "dev",
    "methods": {
      "approve(address,uint256)": {
        "details": "See {IERC721-approve}."
      },
      "balanceOf(address)": {
        "details": "See {IERC721-balanceOf}."
      },
      "getApproved(uint256)": {
        "details": "See {IERC721-getApproved}."
      },
      "isApprovedForAll(address,address)": {
        "details": "See {IERC721-isApprovedForAll}."
      },
      "name()": {
        "details": "See {IERC721Metadata-name}."
      },
      "ownerOf(uint256)": {
        "details": "See {IERC721-ownerOf}."
      },
      "safeTransferFrom(address,address,uint256)": {
        "details": "See {IERC721-safeTransferFrom}."
      },
      "safeTransferFrom(address,address,uint256,bytes)": {
        "details": "See {IERC721-safeTransferFrom}."
      },
      "setApprovalForAll(address,bool)": {
        "details": "See {IERC721-setApprovalForAll}."
      },
      "supportsInterface(bytes4)": {
        "details": "See {IERC165-supportsInterface}."
      },
      "symbol()": {
        "details": "See {IERC721Metadata-symbol}."
      },
      "tokenURI(uint256)": {
        "details": "See {IERC721Metadata-tokenURI}."
      },
      "transferFrom(address,address,uint256)": {
        "details": "See {IERC721-transferFrom}."
      }
    },
    "version": 1
  },
  "userdoc": {
    "kind": "user",
    "methods": {},
    "version": 1
  }
}