{
  "contractName": "Puchase",
  "abi": [
    {
      "inputs": [],
      "stateMutability": "nonpayable",
      "type": "constructor"
    },
    {
      "inputs": [
        {
          "internalType": "address",
          "name": "",
          "type": "address"
        }
      ],
      "name": "balances",
      "outputs": [
        {
          "internalType": "uint256",
          "name": "",
          "type": "uint256"
        }
      ],
      "stateMutability": "view",
      "type": "function",
      "constant": true
    },
    {
      "inputs": [],
      "name": "owner",
      "outputs": [
        {
          "internalType": "address",
          "name": "",
          "type": "address"
        }
      ],
      "stateMutability": "view",
      "type": "function",
      "constant": true
    },
    {
      "inputs": [],
      "name": "buy",
      "outputs": [],
      "stateMutability": "payable",
      "type": "function",
      "payable": true
    },
    {
      "inputs": [],
      "name": "withdraw",
      "outputs": [],
      "stateMutability": "nonpayable",
      "type": "function"
    }
  ],
  "bytecode": "0x608060405234801561001057600080fd5b50336000806101000a81548173ffffffffffffffffffffffffffffffffffffffff021916908373ffffffffffffffffffffffffffffffffffffffff16021790555061050b806100606000396000f3fe60806040526004361061003f5760003560e01c806327e235e3146100445780633ccfd60b146100815780638da5cb5b14610098578063a6f2ae3a146100c3575b600080fd5b34801561005057600080fd5b5061006b600480360381019061006691906102fe565b6100cd565b6040516100789190610344565b60405180910390f35b34801561008d57600080fd5b506100966100e5565b005b3480156100a457600080fd5b506100ad6101dc565b6040516100ba919061036e565b60405180910390f35b6100cb610200565b005b60016020528060005260406000206000915090505481565b60008054906101000a900473ffffffffffffffffffffffffffffffffffffffff1673ffffffffffffffffffffffffffffffffffffffff163373ffffffffffffffffffffffffffffffffffffffff1614610173576040517f08c379a000000000000000000000000000000000000000000000000000000000815260040161016a906103e6565b60405180910390fd5b60008054906101000a900473ffffffffffffffffffffffffffffffffffffffff1673ffffffffffffffffffffffffffffffffffffffff166108fc479081150290604051600060405180830381858888f193505050501580156101d9573d6000803e3d6000fd5b50565b60008054906101000a900473ffffffffffffffffffffffffffffffffffffffff1681565b60003411610243576040517f08c379a000000000000000000000000000000000000000000000000000000000815260040161023a90610452565b60405180910390fd5b34600160003373ffffffffffffffffffffffffffffffffffffffff1673ffffffffffffffffffffffffffffffffffffffff168152602001908152602001600020600082825461029291906104a1565b92505081905550565b600080fd5b600073ffffffffffffffffffffffffffffffffffffffff82169050919050565b60006102cb826102a0565b9050919050565b6102db816102c0565b81146102e657600080fd5b50565b6000813590506102f8816102d2565b92915050565b6000602082840312156103145761031361029b565b5b6000610322848285016102e9565b91505092915050565b6000819050919050565b61033e8161032b565b82525050565b60006020820190506103596000830184610335565b92915050565b610368816102c0565b82525050565b6000602082019050610383600083018461035f565b92915050565b600082825260208201905092915050565b7f4f6e6c7920746865206f776e65722063616e2077697468647261770000000000600082015250565b60006103d0601b83610389565b91506103db8261039a565b602082019050919050565b600060208201905081810360008301526103ff816103c3565b9050919050565b7f596f75206d7573742073656e6420457468657220746f20627579000000000000600082015250565b600061043c601a83610389565b915061044782610406565b602082019050919050565b6000602082019050818103600083015261046b8161042f565b9050919050565b7f4e487b7100000000000000000000000000000000000000000000000000000000600052601160045260246000fd5b60006104ac8261032b565b91506104b78361032b565b92508282019050808211156104cf576104ce610472565b5b9291505056fea2646970667358221220fe6b2c77f3976c0ffcfddbdc2379d7d7188cfaeb1da6aa4af86c9890b3fed36f64736f6c63430008130033",
  "immutableReferences": {},
  "source": "// SPDX-License-Identifier: MIT\r\npragma solidity ^0.8.0;\r\n\r\ncontract Puchase {\r\n    address public owner;\r\n    mapping(address => uint) public balances;\r\n\r\n    constructor(){\r\n        owner = msg.sender;\r\n    }\r\n\r\n    function buy() public payable {\r\n        require(msg.value > 0, \"You must send Ether to buy\");\r\n        balances[msg.sender] += msg.value;\r\n    }\r\n\r\n    function withdraw() public {\r\n        require(msg.sender == owner, \"Only the owner can withdraw\");\r\n        payable(owner).transfer(address(this).balance);\r\n    }\r\n}",
  "sourcePath": "C:\\ljs\\d\\contracts\\Purchase.sol",
  "compiler": {
    "name": "solc",
    "version": "0.8.19+commit.7dd6d404.Emscripten.clang"
  },
  "schemaVersion": "3.4.16",
  "updatedAt": "2024-12-26T05:22:45.296Z",
  "networkType": "ethereum",
  "devdoc": {
    "kind": "dev",
    "methods": {},
    "version": 1
  },
  "userdoc": {
    "kind": "user",
    "methods": {},
    "version": 1
  }
}