{
  "contractName": "AppleShop",
  "abi": [
    {
      "inputs": [],
      "stateMutability": "nonpayable",
      "type": "constructor"
    },
    {
      "inputs": [],
      "name": "appleCount",
      "outputs": [
        {
          "internalType": "uint256",
          "name": "",
          "type": "uint256"
        }
      ],
      "stateMutability": "view",
      "type": "function",
      "constant": true
    },
    {
      "inputs": [],
      "name": "owner",
      "outputs": [
        {
          "internalType": "address",
          "name": "",
          "type": "address"
        }
      ],
      "stateMutability": "view",
      "type": "function",
      "constant": true
    },
    {
      "inputs": [],
      "name": "buyApple",
      "outputs": [],
      "stateMutability": "payable",
      "type": "function",
      "payable": true
    },
    {
      "inputs": [
        {
          "internalType": "uint256",
          "name": "amount",
          "type": "uint256"
        }
      ],
      "name": "sellApple",
      "outputs": [],
      "stateMutability": "nonpayable",
      "type": "function"
    },
    {
      "inputs": [],
      "name": "getApple",
      "outputs": [
        {
          "internalType": "uint256",
          "name": "",
          "type": "uint256"
        }
      ],
      "stateMutability": "view",
      "type": "function",
      "constant": true
    }
  ],
  "bytecode": "0x608060405234801561001057600080fd5b5033600160006101000a81548173ffffffffffffffffffffffffffffffffffffffff021916908373ffffffffffffffffffffffffffffffffffffffff1602179055506000808190555061065b806100686000396000f3fe60806040526004361061004a5760003560e01c8063143fe5a51461004f578063284131c71461007a57806352eb8c5e146100845780638da5cb5b146100af578063db54b74c146100da575b600080fd5b34801561005b57600080fd5b50610064610103565b6040516100719190610322565b60405180910390f35b61008261010c565b005b34801561009057600080fd5b50610099610171565b6040516100a69190610322565b60405180910390f35b3480156100bb57600080fd5b506100c4610177565b6040516100d1919061037e565b60405180910390f35b3480156100e657600080fd5b5061010160048036038101906100fc91906103ca565b61019d565b005b60008054905090565b670de0b6b3a76400003414610156576040517f08c379a000000000000000000000000000000000000000000000000000000000815260040161014d90610454565b60405180910390fd5b600160008082825461016891906104a3565b92505081905550565b60005481565b600160009054906101000a900473ffffffffffffffffffffffffffffffffffffffff1681565b600160009054906101000a900473ffffffffffffffffffffffffffffffffffffffff1673ffffffffffffffffffffffffffffffffffffffff163373ffffffffffffffffffffffffffffffffffffffff161461022d576040517f08c379a000000000000000000000000000000000000000000000000000000000815260040161022490610523565b60405180910390fd5b600054811115610272576040517f08c379a00000000000000000000000000000000000000000000000000000000081526004016102699061058f565b60405180910390fd5b8060008082825461028391906105af565b92505081905550600160009054906101000a900473ffffffffffffffffffffffffffffffffffffffff1673ffffffffffffffffffffffffffffffffffffffff166108fc670de0b6b3a7640000836102da91906105e3565b9081150290604051600060405180830381858888f19350505050158015610305573d6000803e3d6000fd5b5050565b6000819050919050565b61031c81610309565b82525050565b60006020820190506103376000830184610313565b92915050565b600073ffffffffffffffffffffffffffffffffffffffff82169050919050565b60006103688261033d565b9050919050565b6103788161035d565b82525050565b6000602082019050610393600083018461036f565b92915050565b600080fd5b6103a781610309565b81146103b257600080fd5b50565b6000813590506103c48161039e565b92915050565b6000602082840312156103e0576103df610399565b5b60006103ee848285016103b5565b91505092915050565b600082825260208201905092915050565b7f5072696365206f66206f6e65206170706c652069732031204554480000000000600082015250565b600061043e601b836103f7565b915061044982610408565b602082019050919050565b6000602082019050818103600083015261046d81610431565b9050919050565b7f4e487b7100000000000000000000000000000000000000000000000000000000600052601160045260246000fd5b60006104ae82610309565b91506104b983610309565b92508282019050808211156104d1576104d0610474565b5b92915050565b7f4f6e6c7920746865206f776e65722063616e2073656c6c206170706c65730000600082015250565b600061050d601e836103f7565b9150610518826104d7565b602082019050919050565b6000602082019050818103600083015261053c81610500565b9050919050565b7f4e6f7420656e6f756768206170706c6573000000000000000000000000000000600082015250565b60006105796011836103f7565b915061058482610543565b602082019050919050565b600060208201905081810360008301526105a88161056c565b9050919050565b60006105ba82610309565b91506105c583610309565b92508282039050818111156105dd576105dc610474565b5b92915050565b60006105ee82610309565b91506105f983610309565b925082820261060781610309565b9150828204841483151761061e5761061d610474565b5b509291505056fea2646970667358221220333605ebd6eb829b88f61499a32026658aac7808db0ae624d4060976910ee14164736f6c63430008130033",
  "immutableReferences": {},
  "source": "// SPDX-License-Identifier: MIT\npragma solidity >=0.4.22 <0.9.0;\n\ncontract AppleShop {\n    uint256 public appleCount;\n    address public owner;\n\n    constructor() {\n        owner = msg.sender;\n        appleCount = 0; //   \n    }\n\n    function buyApple() public payable {\n        require(msg.value == 1 ether, \"Price of one apple is 1 ETH\");\n        appleCount += 1;\n    }\n\n    function sellApple(uint256 amount) public {\n      require(msg.sender == owner, \"Only the owner can sell apples\");\n      require(amount <= appleCount, \"Not enough apples\");\n\n      appleCount -= amount;\n      payable(owner).transfer(amount * 1 ether);\n    }\n\n    function getApple() public view returns(uint256) {\n      return appleCount;\n    }\n}\n",
  "sourcePath": "C:\\ljs\\a\\contracts\\AppleShop.sol",
  "compiler": {
    "name": "solc",
    "version": "0.8.19+commit.7dd6d404.Emscripten.clang"
  },
  "schemaVersion": "3.4.16",
  "updatedAt": "2024-12-26T02:06:23.395Z",
  "networkType": "ethereum",
  "devdoc": {
    "kind": "dev",
    "methods": {},
    "version": 1
  },
  "userdoc": {
    "kind": "user",
    "methods": {},
    "version": 1
  }
}