{
  "contractName": "ProductMarketplace",
  "abi": [
    {
      "anonymous": false,
      "inputs": [
        {
          "indexed": false,
          "internalType": "uint256",
          "name": "id",
          "type": "uint256"
        },
        {
          "indexed": false,
          "internalType": "string",
          "name": "name",
          "type": "string"
        },
        {
          "indexed": false,
          "internalType": "uint256",
          "name": "price",
          "type": "uint256"
        },
        {
          "indexed": false,
          "internalType": "address",
          "name": "owner",
          "type": "address"
        }
      ],
      "name": "ProductCreated",
      "type": "event"
    },
    {
      "anonymous": false,
      "inputs": [
        {
          "indexed": false,
          "internalType": "uint256",
          "name": "id",
          "type": "uint256"
        },
        {
          "indexed": false,
          "internalType": "address",
          "name": "buyer",
          "type": "address"
        }
      ],
      "name": "ProductPurchased",
      "type": "event"
    },
    {
      "inputs": [],
      "name": "productCount",
      "outputs": [
        {
          "internalType": "uint256",
          "name": "",
          "type": "uint256"
        }
      ],
      "stateMutability": "view",
      "type": "function",
      "constant": true
    },
    {
      "inputs": [
        {
          "internalType": "uint256",
          "name": "",
          "type": "uint256"
        }
      ],
      "name": "products",
      "outputs": [
        {
          "internalType": "uint256",
          "name": "id",
          "type": "uint256"
        },
        {
          "internalType": "string",
          "name": "name",
          "type": "string"
        },
        {
          "internalType": "uint256",
          "name": "price",
          "type": "uint256"
        },
        {
          "internalType": "address payable",
          "name": "owner",
          "type": "address"
        },
        {
          "internalType": "bool",
          "name": "purchased",
          "type": "bool"
        }
      ],
      "stateMutability": "view",
      "type": "function",
      "constant": true
    },
    {
      "inputs": [
        {
          "internalType": "string",
          "name": "_name",
          "type": "string"
        },
        {
          "internalType": "uint256",
          "name": "_price",
          "type": "uint256"
        }
      ],
      "name": "createProduct",
      "outputs": [],
      "stateMutability": "nonpayable",
      "type": "function"
    },
    {
      "inputs": [
        {
          "internalType": "uint256",
          "name": "_id",
          "type": "uint256"
        }
      ],
      "name": "purchaseProduct",
      "outputs": [],
      "stateMutability": "payable",
      "type": "function",
      "payable": true
    }
  ],
  "bytecode": "0x608060405234801561001057600080fd5b506110c4806100206000396000f3fe60806040526004361061003f5760003560e01c806338e76a03146100445780637acc0b2014610060578063e0f6ef87146100a1578063e9300c6c146100cc575b600080fd5b61005e60048036038101906100599190610759565b6100f5565b005b34801561006c57600080fd5b5061008760048036038101906100829190610759565b610452565b604051610098959493929190610881565b60405180910390f35b3480156100ad57600080fd5b506100b661053d565b6040516100c391906108db565b60405180910390f35b3480156100d857600080fd5b506100f360048036038101906100ee9190610a2b565b610543565b005b60008060008381526020019081526020016000206040518060a00160405290816000820154815260200160018201805461012e90610ab6565b80601f016020809104026020016040519081016040528092919081815260200182805461015a90610ab6565b80156101a75780601f1061017c576101008083540402835291602001916101a7565b820191906000526020600020905b81548152906001019060200180831161018a57829003601f168201915b50505050508152602001600282015481526020016003820160009054906101000a900473ffffffffffffffffffffffffffffffffffffffff1673ffffffffffffffffffffffffffffffffffffffff1673ffffffffffffffffffffffffffffffffffffffff1681526020016003820160149054906101000a900460ff1615151515815250509050600081600001511180156102475750600154816000015111155b610286576040517f08c379a000000000000000000000000000000000000000000000000000000000815260040161027d90610b33565b60405180910390fd5b80604001513410156102cd576040517f08c379a00000000000000000000000000000000000000000000000000000000081526004016102c490610b9f565b60405180910390fd5b806080015115610312576040517f08c379a000000000000000000000000000000000000000000000000000000000815260040161030990610c0b565b60405180910390fd5b806060015173ffffffffffffffffffffffffffffffffffffffff166108fc349081150290604051600060405180830381858888f1935050505015801561035c573d6000803e3d6000fd5b506001816080019015159081151581525050806000808481526020019081526020016000206000820151816000015560208201518160010190816103a09190610dd7565b506040820151816002015560608201518160030160006101000a81548173ffffffffffffffffffffffffffffffffffffffff021916908373ffffffffffffffffffffffffffffffffffffffff16021790555060808201518160030160146101000a81548160ff0219169083151502179055509050507f9ad4ecfaf27ea0cbeebee0ed92fe15c8a84975f1e3d45ccfc526d7751dcf98ff8233604051610446929190610eca565b60405180910390a15050565b600060205280600052604060002060009150905080600001549080600101805461047b90610ab6565b80601f01602080910402602001604051908101604052809291908181526020018280546104a790610ab6565b80156104f45780601f106104c9576101008083540402835291602001916104f4565b820191906000526020600020905b8154815290600101906020018083116104d757829003601f168201915b5050505050908060020154908060030160009054906101000a900473ffffffffffffffffffffffffffffffffffffffff16908060030160149054906101000a900460ff16905085565b60015481565b6000825111610587576040517f08c379a000000000000000000000000000000000000000000000000000000000815260040161057e90610f3f565b60405180910390fd5b600081116105ca576040517f08c379a00000000000000000000000000000000000000000000000000000000081526004016105c190610fab565b60405180910390fd5b600160008154809291906105dd90610ffa565b91905055506040518060a0016040528060015481526020018381526020018281526020013373ffffffffffffffffffffffffffffffffffffffff1681526020016000151581525060008060015481526020019081526020016000206000820151816000015560208201518160010190816106579190610dd7565b506040820151816002015560608201518160030160006101000a81548173ffffffffffffffffffffffffffffffffffffffff021916908373ffffffffffffffffffffffffffffffffffffffff16021790555060808201518160030160146101000a81548160ff0219169083151502179055509050507f2e87df3c8f53fb06266ed52023929f5fab9f24130224ef6538b665d9cac825306001548383336040516107039493929190611042565b60405180910390a15050565b6000604051905090565b600080fd5b600080fd5b6000819050919050565b61073681610723565b811461074157600080fd5b50565b6000813590506107538161072d565b92915050565b60006020828403121561076f5761076e610719565b5b600061077d84828501610744565b91505092915050565b61078f81610723565b82525050565b600081519050919050565b600082825260208201905092915050565b60005b838110156107cf5780820151818401526020810190506107b4565b60008484015250505050565b6000601f19601f8301169050919050565b60006107f782610795565b61080181856107a0565b93506108118185602086016107b1565b61081a816107db565b840191505092915050565b600073ffffffffffffffffffffffffffffffffffffffff82169050919050565b600061085082610825565b9050919050565b61086081610845565b82525050565b60008115159050919050565b61087b81610866565b82525050565b600060a0820190506108966000830188610786565b81810360208301526108a881876107ec565b90506108b76040830186610786565b6108c46060830185610857565b6108d16080830184610872565b9695505050505050565b60006020820190506108f06000830184610786565b92915050565b600080fd5b600080fd5b7f4e487b7100000000000000000000000000000000000000000000000000000000600052604160045260246000fd5b610938826107db565b810181811067ffffffffffffffff8211171561095757610956610900565b5b80604052505050565b600061096a61070f565b9050610976828261092f565b919050565b600067ffffffffffffffff82111561099657610995610900565b5b61099f826107db565b9050602081019050919050565b82818337600083830152505050565b60006109ce6109c98461097b565b610960565b9050828152602081018484840111156109ea576109e96108fb565b5b6109f58482856109ac565b509392505050565b600082601f830112610a1257610a116108f6565b5b8135610a228482602086016109bb565b91505092915050565b60008060408385031215610a4257610a41610719565b5b600083013567ffffffffffffffff811115610a6057610a5f61071e565b5b610a6c858286016109fd565b9250506020610a7d85828601610744565b9150509250929050565b7f4e487b7100000000000000000000000000000000000000000000000000000000600052602260045260246000fd5b60006002820490506001821680610ace57607f821691505b602082108103610ae157610ae0610a87565b5b50919050565b7f50726f64756374206e6f7420666f756e64000000000000000000000000000000600082015250565b6000610b1d6011836107a0565b9150610b2882610ae7565b602082019050919050565b60006020820190508181036000830152610b4c81610b10565b9050919050565b7f4e6f7420656e6f75676820457468657200000000000000000000000000000000600082015250565b6000610b896010836107a0565b9150610b9482610b53565b602082019050919050565b60006020820190508181036000830152610bb881610b7c565b9050919050565b7f50726f6475637420616c72656164792070757263686173656400000000000000600082015250565b6000610bf56019836107a0565b9150610c0082610bbf565b602082019050919050565b60006020820190508181036000830152610c2481610be8565b9050919050565b60008190508160005260206000209050919050565b60006020601f8301049050919050565b600082821b905092915050565b600060088302610c8d7fffffffffffffffffffffffffffffffffffffffffffffffffffffffffffffffff82610c50565b610c978683610c50565b95508019841693508086168417925050509392505050565b6000819050919050565b6000610cd4610ccf610cca84610723565b610caf565b610723565b9050919050565b6000819050919050565b610cee83610cb9565b610d02610cfa82610cdb565b848454610c5d565b825550505050565b600090565b610d17610d0a565b610d22818484610ce5565b505050565b5b81811015610d4657610d3b600082610d0f565b600181019050610d28565b5050565b601f821115610d8b57610d5c81610c2b565b610d6584610c40565b81016020851015610d74578190505b610d88610d8085610c40565b830182610d27565b50505b505050565b600082821c905092915050565b6000610dae60001984600802610d90565b1980831691505092915050565b6000610dc78383610d9d565b9150826002028217905092915050565b610de082610795565b67ffffffffffffffff811115610df957610df8610900565b5b610e038254610ab6565b610e0e828285610d4a565b600060209050601f831160018114610e415760008415610e2f578287015190505b610e398582610dbb565b865550610ea1565b601f198416610e4f86610c2b565b60005b82811015610e7757848901518255600182019150602085019450602081019050610e52565b86831015610e945784890151610e90601f891682610d9d565b8355505b6001600288020188555050505b505050505050565b6000610eb482610825565b9050919050565b610ec481610ea9565b82525050565b6000604082019050610edf6000830185610786565b610eec6020830184610ebb565b9392505050565b7f50726f64756374206e616d652069732072657175697265640000000000000000600082015250565b6000610f296018836107a0565b9150610f3482610ef3565b602082019050919050565b60006020820190508181036000830152610f5881610f1c565b9050919050565b7f5072696365206d7573742062652067726561746572207468616e203000000000600082015250565b6000610f95601c836107a0565b9150610fa082610f5f565b602082019050919050565b60006020820190508181036000830152610fc481610f88565b9050919050565b7f4e487b7100000000000000000000000000000000000000000000000000000000600052601160045260246000fd5b600061100582610723565b91507fffffffffffffffffffffffffffffffffffffffffffffffffffffffffffffffff820361103757611036610fcb565b5b600182019050919050565b60006080820190506110576000830187610786565b818103602083015261106981866107ec565b90506110786040830185610786565b6110856060830184610ebb565b9594505050505056fea264697066735822122051a8a604bb5706bf96751ff70fcd292bcf7ae21eaa8d9cc8166c3dafb97ac9fa64736f6c63430008130033",
  "immutableReferences": {},
  "source": "//SPDX-License-Identifier: MIT\r\npragma solidity ^0.8.0;\r\n\r\ncontract ProductMarketplace{\r\n    struct Product{\r\n        uint id;\r\n        string name;\r\n        uint price;\r\n        address payable owner;\r\n        bool purchased;\r\n    }\r\n\r\n    mapping(uint => Product) public products;\r\n    uint public productCount;\r\n\r\n    event ProductCreated(uint id, string name, uint price, address owner);\r\n    event ProductPurchased(uint id, address buyer);\r\n\r\n    function createProduct(string memory _name, uint _price) public{\r\n        require(bytes(_name).length > 0, \"Product name is required\");\r\n        require(_price > 0, \"Price must be greater than 0\");\r\n\r\n        productCount++;\r\n        products[productCount] = Product(productCount, _name, _price, payable(msg.sender), false);\r\n        emit ProductCreated(productCount, _name, _price, msg.sender);\r\n    }\r\n\r\n    function purchaseProduct(uint _id) public payable{\r\n        Product memory _product = products[_id];\r\n        \r\n        require(_product.id > 0 && _product.id <= productCount, \"Product not found\");\r\n        require(msg.value >= _product.price, \"Not enough Ether\");\r\n        require(!_product.purchased, \"Product already purchased\");\r\n\r\n        _product.owner.transfer(msg.value);\r\n        _product.purchased = true;\r\n        products[_id] = _product;\r\n\r\n        emit ProductPurchased(_id, msg.sender);\r\n    }\r\n\r\n}",
  "sourcePath": "C:\\ljs\\solidity\\purchase\\contracts\\ProductMarketplace.sol",
  "compiler": {
    "name": "solc",
    "version": "0.8.19+commit.7dd6d404.Emscripten.clang"
  },
  "schemaVersion": "3.4.16",
  "updatedAt": "2025-01-16T06:19:47.789Z",
  "networkType": "ethereum",
  "devdoc": {
    "kind": "dev",
    "methods": {},
    "version": 1
  },
  "userdoc": {
    "kind": "user",
    "methods": {},
    "version": 1
  }
}