{
	"data": {
		"bytecode": {
			"linkReferences": {},
			"object": "608060405234801561000f575f80fd5b5060405161291a38038061291a833981810160405281019061003191906101a8565b8181815f9081610041919061042b565b508060019081610051919061042b565b50505050506104fa565b5f604051905090565b5f80fd5b5f80fd5b5f80fd5b5f80fd5b5f601f19601f8301169050919050565b7f4e487b71000000000000000000000000000000000000000000000000000000005f52604160045260245ffd5b6100ba82610074565b810181811067ffffffffffffffff821117156100d9576100d8610084565b5b80604052505050565b5f6100eb61005b565b90506100f782826100b1565b919050565b5f67ffffffffffffffff82111561011657610115610084565b5b61011f82610074565b9050602081019050919050565b8281835e5f83830152505050565b5f61014c610147846100fc565b6100e2565b90508281526020810184848401111561016857610167610070565b5b61017384828561012c565b509392505050565b5f82601f83011261018f5761018e61006c565b5b815161019f84826020860161013a565b91505092915050565b5f80604083850312156101be576101bd610064565b5b5f83015167ffffffffffffffff8111156101db576101da610068565b5b6101e78582860161017b565b925050602083015167ffffffffffffffff81111561020857610207610068565b5b6102148582860161017b565b9150509250929050565b5f81519050919050565b7f4e487b71000000000000000000000000000000000000000000000000000000005f52602260045260245ffd5b5f600282049050600182168061026c57607f821691505b60208210810361027f5761027e610228565b5b50919050565b5f819050815f5260205f209050919050565b5f6020601f8301049050919050565b5f82821b905092915050565b5f600883026102e17fffffffffffffffffffffffffffffffffffffffffffffffffffffffffffffffff826102a6565b6102eb86836102a6565b95508019841693508086168417925050509392505050565b5f819050919050565b5f819050919050565b5f61032f61032a61032584610303565b61030c565b610303565b9050919050565b5f819050919050565b61034883610315565b61035c61035482610336565b8484546102b2565b825550505050565b5f90565b610370610364565b61037b81848461033f565b505050565b5b8181101561039e576103935f82610368565b600181019050610381565b5050565b601f8211156103e3576103b481610285565b6103bd84610297565b810160208510156103cc578190505b6103e06103d885610297565b830182610380565b50505b505050565b5f82821c905092915050565b5f6104035f19846008026103e8565b1980831691505092915050565b5f61041b83836103f4565b9150826002028217905092915050565b6104348261021e565b67ffffffffffffffff81111561044d5761044c610084565b5b6104578254610255565b6104628282856103a2565b5f60209050601f831160018114610493575f8415610481578287015190505b61048b8582610410565b8655506104f2565b601f1984166104a186610285565b5f5b828110156104c8578489015182556001820191506020850194506020810190506104a3565b868310156104e557848901516104e1601f8916826103f4565b8355505b6001600288020188555050505b505050505050565b612413806105075f395ff3fe608060405234801561000f575f80fd5b50600436106100fe575f3560e01c806370a0823111610095578063a22cb46511610064578063a22cb465146102cf578063b88d4fde146102eb578063c87b56dd14610307578063e985e9c514610337576100fe565b806370a0823114610234578063848564821461026457806395d89b411461029557806399071190146102b3576100fe565b806323b872dd116100d157806323b872dd1461019c57806342842e0e146101b85780634f558e79146101d45780636352211e14610204576100fe565b806301ffc9a71461010257806306fdde0314610132578063081812fc14610150578063095ea7b314610180575b5f80fd5b61011c6004803603810190610117919061188f565b610367565b60405161012991906118d4565b60405180910390f35b61013a610448565b604051610147919061195d565b60405180910390f35b61016a600480360381019061016591906119b0565b6104d7565b6040516101779190611a1a565b60405180910390f35b61019a60048036038101906101959190611a5d565b6104f2565b005b6101b660048036038101906101b19190611a9b565b610508565b005b6101d260048036038101906101cd9190611a9b565b610607565b005b6101ee60048036038101906101e991906119b0565b610626565b6040516101fb91906118d4565b60405180910390f35b61021e600480360381019061021991906119b0565b610666565b60405161022b9190611a1a565b60405180910390f35b61024e60048036038101906102499190611aeb565b610677565b60405161025b9190611b25565b60405180910390f35b61027e600480360381019061027991906119b0565b61072d565b60405161028c929190611b3e565b60405180910390f35b61029d610868565b6040516102aa919061195d565b60405180910390f35b6102cd60048036038101906102c89190611c9f565b6108f8565b005b6102e960048036038101906102e49190611d51565b6109fa565b005b61030560048036038101906103009190611e2d565b610a10565b005b610321600480360381019061031c91906119b0565b610a35565b60405161032e919061195d565b60405180910390f35b610351600480360381019061034c9190611ead565b610a9b565b60405161035e91906118d4565b60405180910390f35b5f7f80ac58cd000000000000000000000000000000000000000000000000000000007bffffffffffffffffffffffffffffffffffffffffffffffffffffffff1916827bffffffffffffffffffffffffffffffffffffffffffffffffffffffff1916148061043157507f5b5e139f000000000000000000000000000000000000000000000000000000007bffffffffffffffffffffffffffffffffffffffffffffffffffffffff1916827bffffffffffffffffffffffffffffffffffffffffffffffffffffffff1916145b80610441575061044082610b29565b5b9050919050565b60605f805461045690611f18565b80601f016020809104026020016040519081016040528092919081815260200182805461048290611f18565b80156104cd5780601f106104a4576101008083540402835291602001916104cd565b820191905f5260205f20905b8154815290600101906020018083116104b057829003601f168201915b5050505050905090565b5f6104e182610b92565b506104eb82610c18565b9050919050565b61050482826104ff610c51565b610c58565b5050565b5f73ffffffffffffffffffffffffffffffffffffffff168273ffffffffffffffffffffffffffffffffffffffff1603610578575f6040517f64a0ae9200000000000000000000000000000000000000000000000000000000815260040161056f9190611a1a565b60405180910390fd5b5f61058b8383610586610c51565b610c6a565b90508373ffffffffffffffffffffffffffffffffffffffff168173ffffffffffffffffffffffffffffffffffffffff1614610601578382826040517f64283d7b0000000000000000000000000000000000000000000000000000000081526004016105f893929190611f48565b60405180910390fd5b50505050565b61062183838360405180602001604052805f815250610a10565b505050565b5f8073ffffffffffffffffffffffffffffffffffffffff1661064783610e75565b73ffffffffffffffffffffffffffffffffffffffff1614159050919050565b5f61067082610b92565b9050919050565b5f8073ffffffffffffffffffffffffffffffffffffffff168273ffffffffffffffffffffffffffffffffffffffff16036106e8575f6040517f89c62b640000000000000000000000000000000000000000000000000000000081526004016106df9190611a1a565b60405180910390fd5b60035f8373ffffffffffffffffffffffffffffffffffffffff1673ffffffffffffffffffffffffffffffffffffffff1681526020019081526020015f20549050919050565b6006818154811061073c575f80fd5b905f5260205f2090600202015f91509050805f01805461075b90611f18565b80601f016020809104026020016040519081016040528092919081815260200182805461078790611f18565b80156107d25780601f106107a9576101008083540402835291602001916107d2565b820191905f5260205f20905b8154815290600101906020018083116107b557829003601f168201915b5050505050908060010180546107e790611f18565b80601f016020809104026020016040519081016040528092919081815260200182805461081390611f18565b801561085e5780601f106108355761010080835404028352916020019161085e565b820191905f5260205f20905b81548152906001019060200180831161084157829003601f168201915b5050505050905082565b60606001805461087790611f18565b80601f01602080910402602001604051908101604052809291908181526020018280546108a390611f18565b80156108ee5780601f106108c5576101008083540402835291602001916108ee565b820191905f5260205f20905b8154815290600101906020018083116108d157829003601f168201915b5050505050905090565b5f73ffffffffffffffffffffffffffffffffffffffff168373ffffffffffffffffffffffffffffffffffffffff160361092f575f80fd5b5f60068054905090506006604051806040016040528085815260200184815250908060018154018082558091505060019003905f5260205f2090600202015f909190919091505f820151815f019081610988919061211a565b50602082015181600101908161099e919061211a565b5050506109aa81610626565b156109ea576040517f08c379a00000000000000000000000000000000000000000000000000000000081526004016109e190612233565b60405180910390fd5b6109f48482610eae565b50505050565b610a0c610a05610c51565b8383610fa1565b5050565b610a1b848484610508565b610a2f610a26610c51565b8585858561110a565b50505050565b6060610a4082610b92565b505f610a4a6112b6565b90505f815111610a685760405180602001604052805f815250610a93565b80610a72846112cc565b604051602001610a8392919061228b565b6040516020818303038152906040525b915050919050565b5f60055f8473ffffffffffffffffffffffffffffffffffffffff1673ffffffffffffffffffffffffffffffffffffffff1681526020019081526020015f205f8373ffffffffffffffffffffffffffffffffffffffff1673ffffffffffffffffffffffffffffffffffffffff1681526020019081526020015f205f9054906101000a900460ff16905092915050565b5f7f01ffc9a7000000000000000000000000000000000000000000000000000000007bffffffffffffffffffffffffffffffffffffffffffffffffffffffff1916827bffffffffffffffffffffffffffffffffffffffffffffffffffffffff1916149050919050565b5f80610b9d83610e75565b90505f73ffffffffffffffffffffffffffffffffffffffff168173ffffffffffffffffffffffffffffffffffffffff1603610c0f57826040517f7e273289000000000000000000000000000000000000000000000000000000008152600401610c069190611b25565b60405180910390fd5b80915050919050565b5f60045f8381526020019081526020015f205f9054906101000a900473ffffffffffffffffffffffffffffffffffffffff169050919050565b5f33905090565b610c658383836001611396565b505050565b5f80610c7584610e75565b90505f73ffffffffffffffffffffffffffffffffffffffff168373ffffffffffffffffffffffffffffffffffffffff1614610cb657610cb5818486611555565b5b5f73ffffffffffffffffffffffffffffffffffffffff168173ffffffffffffffffffffffffffffffffffffffff1614610d4157610cf55f855f80611396565b600160035f8373ffffffffffffffffffffffffffffffffffffffff1673ffffffffffffffffffffffffffffffffffffffff1681526020019081526020015f205f82825403925050819055505b5f73ffffffffffffffffffffffffffffffffffffffff168573ffffffffffffffffffffffffffffffffffffffff1614610dc057600160035f8773ffffffffffffffffffffffffffffffffffffffff1673ffffffffffffffffffffffffffffffffffffffff1681526020019081526020015f205f82825401925050819055505b8460025f8681526020019081526020015f205f6101000a81548173ffffffffffffffffffffffffffffffffffffffff021916908373ffffffffffffffffffffffffffffffffffffffff160217905550838573ffffffffffffffffffffffffffffffffffffffff168273ffffffffffffffffffffffffffffffffffffffff167fddf252ad1be2c89b69c2b068fc378daa952ba7f163c4a11628f55a4df523b3ef60405160405180910390a4809150509392505050565b5f60025f8381526020019081526020015f205f9054906101000a900473ffffffffffffffffffffffffffffffffffffffff169050919050565b5f73ffffffffffffffffffffffffffffffffffffffff168273ffffffffffffffffffffffffffffffffffffffff1603610f1e575f6040517f64a0ae92000000000000000000000000000000000000000000000000000000008152600401610f159190611a1a565b60405180910390fd5b5f610f2a83835f610c6a565b90505f73ffffffffffffffffffffffffffffffffffffffff168173ffffffffffffffffffffffffffffffffffffffff1614610f9c575f6040517f73c6ac6e000000000000000000000000000000000000000000000000000000008152600401610f939190611a1a565b60405180910390fd5b505050565b5f73ffffffffffffffffffffffffffffffffffffffff168273ffffffffffffffffffffffffffffffffffffffff160361101157816040517f5b08ba180000000000000000000000000000000000000000000000000000000081526004016110089190611a1a565b60405180910390fd5b8060055f8573ffffffffffffffffffffffffffffffffffffffff1673ffffffffffffffffffffffffffffffffffffffff1681526020019081526020015f205f8473ffffffffffffffffffffffffffffffffffffffff1673ffffffffffffffffffffffffffffffffffffffff1681526020019081526020015f205f6101000a81548160ff0219169083151502179055508173ffffffffffffffffffffffffffffffffffffffff168373ffffffffffffffffffffffffffffffffffffffff167f17307eab39ab6107e8899845ad3d59bd9653f200f220920489ca2b5937696c31836040516110fd91906118d4565b60405180910390a3505050565b5f8373ffffffffffffffffffffffffffffffffffffffff163b11156112af578273ffffffffffffffffffffffffffffffffffffffff1663150b7a02868685856040518563ffffffff1660e01b81526004016111689493929190612300565b6020604051808303815f875af19250505080156111a357506040513d601f19601f820116820180604052508101906111a0919061235e565b60015b611224573d805f81146111d1576040519150601f19603f3d011682016040523d82523d5f602084013e6111d6565b606091505b505f81510361121c57836040517f64a0ae920000000000000000000000000000000000000000000000000000000081526004016112139190611a1a565b60405180910390fd5b805181602001fd5b63150b7a0260e01b7bffffffffffffffffffffffffffffffffffffffffffffffffffffffff1916817bffffffffffffffffffffffffffffffffffffffffffffffffffffffff1916146112ad57836040517f64a0ae920000000000000000000000000000000000000000000000000000000081526004016112a49190611a1a565b60405180910390fd5b505b5050505050565b606060405180602001604052805f815250905090565b60605f60016112da84611618565b0190505f8167ffffffffffffffff8111156112f8576112f7611b7b565b5b6040519080825280601f01601f19166020018201604052801561132a5781602001600182028036833780820191505090505b5090505f82602001820190505b60011561138b578080600190039150507f3031323334353637383961626364656600000000000000000000000000000000600a86061a8153600a85816113805761137f612389565b5b0494505f8503611337575b819350505050919050565b80806113ce57505f73ffffffffffffffffffffffffffffffffffffffff168273ffffffffffffffffffffffffffffffffffffffff1614155b15611500575f6113dd84610b92565b90505f73ffffffffffffffffffffffffffffffffffffffff168373ffffffffffffffffffffffffffffffffffffffff161415801561144757508273ffffffffffffffffffffffffffffffffffffffff168173ffffffffffffffffffffffffffffffffffffffff1614155b801561145a57506114588184610a9b565b155b1561149c57826040517fa9fbf51f0000000000000000000000000000000000000000000000000000000081526004016114939190611a1a565b60405180910390fd5b81156114fe57838573ffffffffffffffffffffffffffffffffffffffff168273ffffffffffffffffffffffffffffffffffffffff167f8c5be1e5ebec7d5bd14f71427d1e84f3dd0314c0f7b2291e5b200ac8c7c3b92560405160405180910390a45b505b8360045f8581526020019081526020015f205f6101000a81548173ffffffffffffffffffffffffffffffffffffffff021916908373ffffffffffffffffffffffffffffffffffffffff16021790555050505050565b611560838383611769565b611613575f73ffffffffffffffffffffffffffffffffffffffff168373ffffffffffffffffffffffffffffffffffffffff16036115d457806040517f7e2732890000000000000000000000000000000000000000000000000000000081526004016115cb9190611b25565b60405180910390fd5b81816040517f177e802f00000000000000000000000000000000000000000000000000000000815260040161160a9291906123b6565b60405180910390fd5b505050565b5f805f90507a184f03e93ff9f4daa797ed6e38ed64bf6a1f0100000000000000008310611674577a184f03e93ff9f4daa797ed6e38ed64bf6a1f010000000000000000838161166a57611669612389565b5b0492506040810190505b6d04ee2d6d415b85acef810000000083106116b1576d04ee2d6d415b85acef810000000083816116a7576116a6612389565b5b0492506020810190505b662386f26fc1000083106116e057662386f26fc1000083816116d6576116d5612389565b5b0492506010810190505b6305f5e1008310611709576305f5e10083816116ff576116fe612389565b5b0492506008810190505b612710831061172e57612710838161172457611723612389565b5b0492506004810190505b60648310611751576064838161174757611746612389565b5b0492506002810190505b600a8310611760576001810190505b80915050919050565b5f8073ffffffffffffffffffffffffffffffffffffffff168373ffffffffffffffffffffffffffffffffffffffff161415801561182057508273ffffffffffffffffffffffffffffffffffffffff168473ffffffffffffffffffffffffffffffffffffffff1614806117e157506117e08484610a9b565b5b8061181f57508273ffffffffffffffffffffffffffffffffffffffff1661180783610c18565b73ffffffffffffffffffffffffffffffffffffffff16145b5b90509392505050565b5f604051905090565b5f80fd5b5f80fd5b5f7fffffffff0000000000000000000000000000000000000000000000000000000082169050919050565b61186e8161183a565b8114611878575f80fd5b50565b5f8135905061188981611865565b92915050565b5f602082840312156118a4576118a3611832565b5b5f6118b18482850161187b565b91505092915050565b5f8115159050919050565b6118ce816118ba565b82525050565b5f6020820190506118e75f8301846118c5565b92915050565b5f81519050919050565b5f82825260208201905092915050565b8281835e5f83830152505050565b5f601f19601f8301169050919050565b5f61192f826118ed565b61193981856118f7565b9350611949818560208601611907565b61195281611915565b840191505092915050565b5f6020820190508181035f8301526119758184611925565b905092915050565b5f819050919050565b61198f8161197d565b8114611999575f80fd5b50565b5f813590506119aa81611986565b92915050565b5f602082840312156119c5576119c4611832565b5b5f6119d28482850161199c565b91505092915050565b5f73ffffffffffffffffffffffffffffffffffffffff82169050919050565b5f611a04826119db565b9050919050565b611a14816119fa565b82525050565b5f602082019050611a2d5f830184611a0b565b92915050565b611a3c816119fa565b8114611a46575f80fd5b50565b5f81359050611a5781611a33565b92915050565b5f8060408385031215611a7357611a72611832565b5b5f611a8085828601611a49565b9250506020611a918582860161199c565b9150509250929050565b5f805f60608486031215611ab257611ab1611832565b5b5f611abf86828701611a49565b9350506020611ad086828701611a49565b9250506040611ae18682870161199c565b9150509250925092565b5f60208284031215611b0057611aff611832565b5b5f611b0d84828501611a49565b91505092915050565b611b1f8161197d565b82525050565b5f602082019050611b385f830184611b16565b92915050565b5f6040820190508181035f830152611b568185611925565b90508181036020830152611b6a8184611925565b90509392505050565b5f80fd5b5f80fd5b7f4e487b71000000000000000000000000000000000000000000000000000000005f52604160045260245ffd5b611bb182611915565b810181811067ffffffffffffffff82111715611bd057611bcf611b7b565b5b80604052505050565b5f611be2611829565b9050611bee8282611ba8565b919050565b5f67ffffffffffffffff821115611c0d57611c0c611b7b565b5b611c1682611915565b9050602081019050919050565b828183375f83830152505050565b5f611c43611c3e84611bf3565b611bd9565b905082815260208101848484011115611c5f57611c5e611b77565b5b611c6a848285611c23565b509392505050565b5f82601f830112611c8657611c85611b73565b5b8135611c96848260208601611c31565b91505092915050565b5f805f60608486031215611cb657611cb5611832565b5b5f611cc386828701611a49565b935050602084013567ffffffffffffffff811115611ce457611ce3611836565b5b611cf086828701611c72565b925050604084013567ffffffffffffffff811115611d1157611d10611836565b5b611d1d86828701611c72565b9150509250925092565b611d30816118ba565b8114611d3a575f80fd5b50565b5f81359050611d4b81611d27565b92915050565b5f8060408385031215611d6757611d66611832565b5b5f611d7485828601611a49565b9250506020611d8585828601611d3d565b9150509250929050565b5f67ffffffffffffffff821115611da957611da8611b7b565b5b611db282611915565b9050602081019050919050565b5f611dd1611dcc84611d8f565b611bd9565b905082815260208101848484011115611ded57611dec611b77565b5b611df8848285611c23565b509392505050565b5f82601f830112611e1457611e13611b73565b5b8135611e24848260208601611dbf565b91505092915050565b5f805f8060808587031215611e4557611e44611832565b5b5f611e5287828801611a49565b9450506020611e6387828801611a49565b9350506040611e748782880161199c565b925050606085013567ffffffffffffffff811115611e9557611e94611836565b5b611ea187828801611e00565b91505092959194509250565b5f8060408385031215611ec357611ec2611832565b5b5f611ed085828601611a49565b9250506020611ee185828601611a49565b9150509250929050565b7f4e487b71000000000000000000000000000000000000000000000000000000005f52602260045260245ffd5b5f6002820490506001821680611f2f57607f821691505b602082108103611f4257611f41611eeb565b5b50919050565b5f606082019050611f5b5f830186611a0b565b611f686020830185611b16565b611f756040830184611a0b565b949350505050565b5f819050815f5260205f209050919050565b5f6020601f8301049050919050565b5f82821b905092915050565b5f60088302611fd97fffffffffffffffffffffffffffffffffffffffffffffffffffffffffffffffff82611f9e565b611fe38683611f9e565b95508019841693508086168417925050509392505050565b5f819050919050565b5f61201e6120196120148461197d565b611ffb565b61197d565b9050919050565b5f819050919050565b61203783612004565b61204b61204382612025565b848454611faa565b825550505050565b5f90565b61205f612053565b61206a81848461202e565b505050565b5b8181101561208d576120825f82612057565b600181019050612070565b5050565b601f8211156120d2576120a381611f7d565b6120ac84611f8f565b810160208510156120bb578190505b6120cf6120c785611f8f565b83018261206f565b50505b505050565b5f82821c905092915050565b5f6120f25f19846008026120d7565b1980831691505092915050565b5f61210a83836120e3565b9150826002028217905092915050565b612123826118ed565b67ffffffffffffffff81111561213c5761213b611b7b565b5b6121468254611f18565b612151828285612091565b5f60209050601f831160018114612182575f8415612170578287015190505b61217a85826120ff565b8655506121e1565b601f19841661219086611f7d565b5f5b828110156121b757848901518255600182019150602085019450602081019050612192565b868310156121d457848901516121d0601f8916826120e3565b8355505b6001600288020188555050505b505050505050565b7f546f6b656e20616c7265616479206578697374730000000000000000000000005f82015250565b5f61221d6014836118f7565b9150612228826121e9565b602082019050919050565b5f6020820190508181035f83015261224a81612211565b9050919050565b5f81905092915050565b5f612265826118ed565b61226f8185612251565b935061227f818560208601611907565b80840191505092915050565b5f612296828561225b565b91506122a2828461225b565b91508190509392505050565b5f81519050919050565b5f82825260208201905092915050565b5f6122d2826122ae565b6122dc81856122b8565b93506122ec818560208601611907565b6122f581611915565b840191505092915050565b5f6080820190506123135f830187611a0b565b6123206020830186611a0b565b61232d6040830185611b16565b818103606083015261233f81846122c8565b905095945050505050565b5f8151905061235881611865565b92915050565b5f6020828403121561237357612372611832565b5b5f6123808482850161234a565b91505092915050565b7f4e487b71000000000000000000000000000000000000000000000000000000005f52601260045260245ffd5b5f6040820190506123c95f830185611a0b565b6123d66020830184611b16565b939250505056fea264697066735822122036825507f92fdad46fcc5863d81a5a14db947f15c7d93eaddd66b9964e47e57564736f6c634300081a0033",
			"opcodes": "PUSH1 0x80 PUSH1 0x40 MSTORE CALLVALUE DUP1 ISZERO PUSH2 0xF JUMPI PUSH0 DUP1 REVERT JUMPDEST POP PUSH1 0x40 MLOAD PUSH2 0x291A CODESIZE SUB DUP1 PUSH2 0x291A DUP4 CODECOPY DUP2 DUP2 ADD PUSH1 0x40 MSTORE DUP2 ADD SWAP1 PUSH2 0x31 SWAP2 SWAP1 PUSH2 0x1A8 JUMP JUMPDEST DUP2 DUP2 DUP2 PUSH0 SWAP1 DUP2 PUSH2 0x41 SWAP2 SWAP1 PUSH2 0x42B JUMP JUMPDEST POP DUP1 PUSH1 0x1 SWAP1 DUP2 PUSH2 0x51 SWAP2 SWAP1 PUSH2 0x42B JUMP JUMPDEST POP POP POP POP POP PUSH2 0x4FA JUMP JUMPDEST PUSH0 PUSH1 0x40 MLOAD SWAP1 POP SWAP1 JUMP JUMPDEST PUSH0 DUP1 REVERT JUMPDEST PUSH0 DUP1 REVERT JUMPDEST PUSH0 DUP1 REVERT JUMPDEST PUSH0 DUP1 REVERT JUMPDEST PUSH0 PUSH1 0x1F NOT PUSH1 0x1F DUP4 ADD AND SWAP1 POP SWAP2 SWAP1 POP JUMP JUMPDEST PUSH32 0x4E487B7100000000000000000000000000000000000000000000000000000000 PUSH0 MSTORE PUSH1 0x41 PUSH1 0x4 MSTORE PUSH1 0x24 PUSH0 REVERT JUMPDEST PUSH2 0xBA DUP3 PUSH2 0x74 JUMP JUMPDEST DUP2 ADD DUP2 DUP2 LT PUSH8 0xFFFFFFFFFFFFFFFF DUP3 GT OR ISZERO PUSH2 0xD9 JUMPI PUSH2 0xD8 PUSH2 0x84 JUMP JUMPDEST JUMPDEST DUP1 PUSH1 0x40 MSTORE POP POP POP JUMP JUMPDEST PUSH0 PUSH2 0xEB PUSH2 0x5B JUMP JUMPDEST SWAP1 POP PUSH2 0xF7 DUP3 DUP3 PUSH2 0xB1 JUMP JUMPDEST SWAP2 SWAP1 POP JUMP JUMPDEST PUSH0 PUSH8 0xFFFFFFFFFFFFFFFF DUP3 GT ISZERO PUSH2 0x116 JUMPI PUSH2 0x115 PUSH2 0x84 JUMP JUMPDEST JUMPDEST PUSH2 0x11F DUP3 PUSH2 0x74 JUMP JUMPDEST SWAP1 POP PUSH1 0x20 DUP2 ADD SWAP1 POP SWAP2 SWAP1 POP JUMP JUMPDEST DUP3 DUP2 DUP4 MCOPY PUSH0 DUP4 DUP4 ADD MSTORE POP POP POP JUMP JUMPDEST PUSH0 PUSH2 0x14C PUSH2 0x147 DUP5 PUSH2 0xFC JUMP JUMPDEST PUSH2 0xE2 JUMP JUMPDEST SWAP1 POP DUP3 DUP2 MSTORE PUSH1 0x20 DUP2 ADD DUP5 DUP5 DUP5 ADD GT ISZERO PUSH2 0x168 JUMPI PUSH2 0x167 PUSH2 0x70 JUMP JUMPDEST JUMPDEST PUSH2 0x173 DUP5 DUP3 DUP6 PUSH2 0x12C JUMP JUMPDEST POP SWAP4 SWAP3 POP POP POP JUMP JUMPDEST PUSH0 DUP3 PUSH1 0x1F DUP4 ADD SLT PUSH2 0x18F JUMPI PUSH2 0x18E PUSH2 0x6C JUMP JUMPDEST JUMPDEST DUP2 MLOAD PUSH2 0x19F DUP5 DUP3 PUSH1 0x20 DUP7 ADD PUSH2 0x13A JUMP JUMPDEST SWAP2 POP POP SWAP3 SWAP2 POP POP JUMP JUMPDEST PUSH0 DUP1 PUSH1 0x40 DUP4 DUP6 SUB SLT ISZERO PUSH2 0x1BE JUMPI PUSH2 0x1BD PUSH2 0x64 JUMP JUMPDEST JUMPDEST PUSH0 DUP4 ADD MLOAD PUSH8 0xFFFFFFFFFFFFFFFF DUP2 GT ISZERO PUSH2 0x1DB JUMPI PUSH2 0x1DA PUSH2 0x68 JUMP JUMPDEST JUMPDEST PUSH2 0x1E7 DUP6 DUP3 DUP7 ADD PUSH2 0x17B JUMP JUMPDEST SWAP3 POP POP PUSH1 0x20 DUP4 ADD MLOAD PUSH8 0xFFFFFFFFFFFFFFFF DUP2 GT ISZERO PUSH2 0x208 JUMPI PUSH2 0x207 PUSH2 0x68 JUMP JUMPDEST JUMPDEST PUSH2 0x214 DUP6 DUP3 DUP7 ADD PUSH2 0x17B JUMP JUMPDEST SWAP2 POP POP SWAP3 POP SWAP3 SWAP1 POP JUMP JUMPDEST PUSH0 DUP2 MLOAD SWAP1 POP SWAP2 SWAP1 POP JUMP JUMPDEST PUSH32 0x4E487B7100000000000000000000000000000000000000000000000000000000 PUSH0 MSTORE PUSH1 0x22 PUSH1 0x4 MSTORE PUSH1 0x24 PUSH0 REVERT JUMPDEST PUSH0 PUSH1 0x2 DUP3 DIV SWAP1 POP PUSH1 0x1 DUP3 AND DUP1 PUSH2 0x26C JUMPI PUSH1 0x7F DUP3 AND SWAP2 POP JUMPDEST PUSH1 0x20 DUP3 LT DUP2 SUB PUSH2 0x27F JUMPI PUSH2 0x27E PUSH2 0x228 JUMP JUMPDEST JUMPDEST POP SWAP2 SWAP1 POP JUMP JUMPDEST PUSH0 DUP2 SWAP1 POP DUP2 PUSH0 MSTORE PUSH1 0x20 PUSH0 KECCAK256 SWAP1 POP SWAP2 SWAP1 POP JUMP JUMPDEST PUSH0 PUSH1 0x20 PUSH1 0x1F DUP4 ADD DIV SWAP1 POP SWAP2 SWAP1 POP JUMP JUMPDEST PUSH0 DUP3 DUP3 SHL SWAP1 POP SWAP3 SWAP2 POP POP JUMP JUMPDEST PUSH0 PUSH1 0x8 DUP4 MUL PUSH2 0x2E1 PUSH32 0xFFFFFFFFFFFFFFFFFFFFFFFFFFFFFFFFFFFFFFFFFFFFFFFFFFFFFFFFFFFFFFFF DUP3 PUSH2 0x2A6 JUMP JUMPDEST PUSH2 0x2EB DUP7 DUP4 PUSH2 0x2A6 JUMP JUMPDEST SWAP6 POP DUP1 NOT DUP5 AND SWAP4 POP DUP1 DUP7 AND DUP5 OR SWAP3 POP POP POP SWAP4 SWAP3 POP POP POP JUMP JUMPDEST PUSH0 DUP2 SWAP1 POP SWAP2 SWAP1 POP JUMP JUMPDEST PUSH0 DUP2 SWAP1 POP SWAP2 SWAP1 POP JUMP JUMPDEST PUSH0 PUSH2 0x32F PUSH2 0x32A PUSH2 0x325 DUP5 PUSH2 0x303 JUMP JUMPDEST PUSH2 0x30C JUMP JUMPDEST PUSH2 0x303 JUMP JUMPDEST SWAP1 POP SWAP2 SWAP1 POP JUMP JUMPDEST PUSH0 DUP2 SWAP1 POP SWAP2 SWAP1 POP JUMP JUMPDEST PUSH2 0x348 DUP4 PUSH2 0x315 JUMP JUMPDEST PUSH2 0x35C PUSH2 0x354 DUP3 PUSH2 0x336 JUMP JUMPDEST DUP5 DUP5 SLOAD PUSH2 0x2B2 JUMP JUMPDEST DUP3 SSTORE POP POP POP POP JUMP JUMPDEST PUSH0 SWAP1 JUMP JUMPDEST PUSH2 0x370 PUSH2 0x364 JUMP JUMPDEST PUSH2 0x37B DUP2 DUP5 DUP5 PUSH2 0x33F JUMP JUMPDEST POP POP POP JUMP JUMPDEST JUMPDEST DUP2 DUP2 LT ISZERO PUSH2 0x39E JUMPI PUSH2 0x393 PUSH0 DUP3 PUSH2 0x368 JUMP JUMPDEST PUSH1 0x1 DUP2 ADD SWAP1 POP PUSH2 0x381 JUMP JUMPDEST POP POP JUMP JUMPDEST PUSH1 0x1F DUP3 GT ISZERO PUSH2 0x3E3 JUMPI PUSH2 0x3B4 DUP2 PUSH2 0x285 JUMP JUMPDEST PUSH2 0x3BD DUP5 PUSH2 0x297 JUMP JUMPDEST DUP2 ADD PUSH1 0x20 DUP6 LT ISZERO PUSH2 0x3CC JUMPI DUP2 SWAP1 POP JUMPDEST PUSH2 0x3E0 PUSH2 0x3D8 DUP6 PUSH2 0x297 JUMP JUMPDEST DUP4 ADD DUP3 PUSH2 0x380 JUMP JUMPDEST POP POP JUMPDEST POP POP POP JUMP JUMPDEST PUSH0 DUP3 DUP3 SHR SWAP1 POP SWAP3 SWAP2 POP POP JUMP JUMPDEST PUSH0 PUSH2 0x403 PUSH0 NOT DUP5 PUSH1 0x8 MUL PUSH2 0x3E8 JUMP JUMPDEST NOT DUP1 DUP4 AND SWAP2 POP POP SWAP3 SWAP2 POP POP JUMP JUMPDEST PUSH0 PUSH2 0x41B DUP4 DUP4 PUSH2 0x3F4 JUMP JUMPDEST SWAP2 POP DUP3 PUSH1 0x2 MUL DUP3 OR SWAP1 POP SWAP3 SWAP2 POP POP JUMP JUMPDEST PUSH2 0x434 DUP3 PUSH2 0x21E JUMP JUMPDEST PUSH8 0xFFFFFFFFFFFFFFFF DUP2 GT ISZERO PUSH2 0x44D JUMPI PUSH2 0x44C PUSH2 0x84 JUMP JUMPDEST JUMPDEST PUSH2 0x457 DUP3 SLOAD PUSH2 0x255 JUMP JUMPDEST PUSH2 0x462 DUP3 DUP3 DUP6 PUSH2 0x3A2 JUMP JUMPDEST PUSH0 PUSH1 0x20 SWAP1 POP PUSH1 0x1F DUP4 GT PUSH1 0x1 DUP2 EQ PUSH2 0x493 JUMPI PUSH0 DUP5 ISZERO PUSH2 0x481 JUMPI DUP3 DUP8 ADD MLOAD SWAP1 POP JUMPDEST PUSH2 0x48B DUP6 DUP3 PUSH2 0x410 JUMP JUMPDEST DUP7 SSTORE POP PUSH2 0x4F2 JUMP JUMPDEST PUSH1 0x1F NOT DUP5 AND PUSH2 0x4A1 DUP7 PUSH2 0x285 JUMP JUMPDEST PUSH0 JUMPDEST DUP3 DUP2 LT ISZERO PUSH2 0x4C8 JUMPI DUP5 DUP10 ADD MLOAD DUP3 SSTORE PUSH1 0x1 DUP3 ADD SWAP2 POP PUSH1 0x20 DUP6 ADD SWAP5 POP PUSH1 0x20 DUP2 ADD SWAP1 POP PUSH2 0x4A3 JUMP JUMPDEST DUP7 DUP4 LT ISZERO PUSH2 0x4E5 JUMPI DUP5 DUP10 ADD MLOAD PUSH2 0x4E1 PUSH1 0x1F DUP10 AND DUP3 PUSH2 0x3F4 JUMP JUMPDEST DUP4 SSTORE POP JUMPDEST PUSH1 0x1 PUSH1 0x2 DUP9 MUL ADD DUP9 SSTORE POP POP POP JUMPDEST POP POP POP POP POP POP JUMP JUMPDEST PUSH2 0x2413 DUP1 PUSH2 0x507 PUSH0 CODECOPY PUSH0 RETURN INVALID PUSH1 0x80 PUSH1 0x40 MSTORE CALLVALUE DUP1 ISZERO PUSH2 0xF JUMPI PUSH0 DUP1 REVERT JUMPDEST POP PUSH1 0x4 CALLDATASIZE LT PUSH2 0xFE JUMPI PUSH0 CALLDATALOAD PUSH1 0xE0 SHR DUP1 PUSH4 0x70A08231 GT PUSH2 0x95 JUMPI DUP1 PUSH4 0xA22CB465 GT PUSH2 0x64 JUMPI DUP1 PUSH4 0xA22CB465 EQ PUSH2 0x2CF JUMPI DUP1 PUSH4 0xB88D4FDE EQ PUSH2 0x2EB JUMPI DUP1 PUSH4 0xC87B56DD EQ PUSH2 0x307 JUMPI DUP1 PUSH4 0xE985E9C5 EQ PUSH2 0x337 JUMPI PUSH2 0xFE JUMP JUMPDEST DUP1 PUSH4 0x70A08231 EQ PUSH2 0x234 JUMPI DUP1 PUSH4 0x84856482 EQ PUSH2 0x264 JUMPI DUP1 PUSH4 0x95D89B41 EQ PUSH2 0x295 JUMPI DUP1 PUSH4 0x99071190 EQ PUSH2 0x2B3 JUMPI PUSH2 0xFE JUMP JUMPDEST DUP1 PUSH4 0x23B872DD GT PUSH2 0xD1 JUMPI DUP1 PUSH4 0x23B872DD EQ PUSH2 0x19C JUMPI DUP1 PUSH4 0x42842E0E EQ PUSH2 0x1B8 JUMPI DUP1 PUSH4 0x4F558E79 EQ PUSH2 0x1D4 JUMPI DUP1 PUSH4 0x6352211E EQ PUSH2 0x204 JUMPI PUSH2 0xFE JUMP JUMPDEST DUP1 PUSH4 0x1FFC9A7 EQ PUSH2 0x102 JUMPI DUP1 PUSH4 0x6FDDE03 EQ PUSH2 0x132 JUMPI DUP1 PUSH4 0x81812FC EQ PUSH2 0x150 JUMPI DUP1 PUSH4 0x95EA7B3 EQ PUSH2 0x180 JUMPI JUMPDEST PUSH0 DUP1 REVERT JUMPDEST PUSH2 0x11C PUSH1 0x4 DUP1 CALLDATASIZE SUB DUP2 ADD SWAP1 PUSH2 0x117 SWAP2 SWAP1 PUSH2 0x188F JUMP JUMPDEST PUSH2 0x367 JUMP JUMPDEST PUSH1 0x40 MLOAD PUSH2 0x129 SWAP2 SWAP1 PUSH2 0x18D4 JUMP JUMPDEST PUSH1 0x40 MLOAD DUP1 SWAP2 SUB SWAP1 RETURN JUMPDEST PUSH2 0x13A PUSH2 0x448 JUMP JUMPDEST PUSH1 0x40 MLOAD PUSH2 0x147 SWAP2 SWAP1 PUSH2 0x195D JUMP JUMPDEST PUSH1 0x40 MLOAD DUP1 SWAP2 SUB SWAP1 RETURN JUMPDEST PUSH2 0x16A PUSH1 0x4 DUP1 CALLDATASIZE SUB DUP2 ADD SWAP1 PUSH2 0x165 SWAP2 SWAP1 PUSH2 0x19B0 JUMP JUMPDEST PUSH2 0x4D7 JUMP JUMPDEST PUSH1 0x40 MLOAD PUSH2 0x177 SWAP2 SWAP1 PUSH2 0x1A1A JUMP JUMPDEST PUSH1 0x40 MLOAD DUP1 SWAP2 SUB SWAP1 RETURN JUMPDEST PUSH2 0x19A PUSH1 0x4 DUP1 CALLDATASIZE SUB DUP2 ADD SWAP1 PUSH2 0x195 SWAP2 SWAP1 PUSH2 0x1A5D JUMP JUMPDEST PUSH2 0x4F2 JUMP JUMPDEST STOP JUMPDEST PUSH2 0x1B6 PUSH1 0x4 DUP1 CALLDATASIZE SUB DUP2 ADD SWAP1 PUSH2 0x1B1 SWAP2 SWAP1 PUSH2 0x1A9B JUMP JUMPDEST PUSH2 0x508 JUMP JUMPDEST STOP JUMPDEST PUSH2 0x1D2 PUSH1 0x4 DUP1 CALLDATASIZE SUB DUP2 ADD SWAP1 PUSH2 0x1CD SWAP2 SWAP1 PUSH2 0x1A9B JUMP JUMPDEST PUSH2 0x607 JUMP JUMPDEST STOP JUMPDEST PUSH2 0x1EE PUSH1 0x4 DUP1 CALLDATASIZE SUB DUP2 ADD SWAP1 PUSH2 0x1E9 SWAP2 SWAP1 PUSH2 0x19B0 JUMP JUMPDEST PUSH2 0x626 JUMP JUMPDEST PUSH1 0x40 MLOAD PUSH2 0x1FB SWAP2 SWAP1 PUSH2 0x18D4 JUMP JUMPDEST PUSH1 0x40 MLOAD DUP1 SWAP2 SUB SWAP1 RETURN JUMPDEST PUSH2 0x21E PUSH1 0x4 DUP1 CALLDATASIZE SUB DUP2 ADD SWAP1 PUSH2 0x219 SWAP2 SWAP1 PUSH2 0x19B0 JUMP JUMPDEST PUSH2 0x666 JUMP JUMPDEST PUSH1 0x40 MLOAD PUSH2 0x22B SWAP2 SWAP1 PUSH2 0x1A1A JUMP JUMPDEST PUSH1 0x40 MLOAD DUP1 SWAP2 SUB SWAP1 RETURN JUMPDEST PUSH2 0x24E PUSH1 0x4 DUP1 CALLDATASIZE SUB DUP2 ADD SWAP1 PUSH2 0x249 SWAP2 SWAP1 PUSH2 0x1AEB JUMP JUMPDEST PUSH2 0x677 JUMP JUMPDEST PUSH1 0x40 MLOAD PUSH2 0x25B SWAP2 SWAP1 PUSH2 0x1B25 JUMP JUMPDEST PUSH1 0x40 MLOAD DUP1 SWAP2 SUB SWAP1 RETURN JUMPDEST PUSH2 0x27E PUSH1 0x4 DUP1 CALLDATASIZE SUB DUP2 ADD SWAP1 PUSH2 0x279 SWAP2 SWAP1 PUSH2 0x19B0 JUMP JUMPDEST PUSH2 0x72D JUMP JUMPDEST PUSH1 0x40 MLOAD PUSH2 0x28C SWAP3 SWAP2 SWAP1 PUSH2 0x1B3E JUMP JUMPDEST PUSH1 0x40 MLOAD DUP1 SWAP2 SUB SWAP1 RETURN JUMPDEST PUSH2 0x29D PUSH2 0x868 JUMP JUMPDEST PUSH1 0x40 MLOAD PUSH2 0x2AA SWAP2 SWAP1 PUSH2 0x195D JUMP JUMPDEST PUSH1 0x40 MLOAD DUP1 SWAP2 SUB SWAP1 RETURN JUMPDEST PUSH2 0x2CD PUSH1 0x4 DUP1 CALLDATASIZE SUB DUP2 ADD SWAP1 PUSH2 0x2C8 SWAP2 SWAP1 PUSH2 0x1C9F JUMP JUMPDEST PUSH2 0x8F8 JUMP JUMPDEST STOP JUMPDEST PUSH2 0x2E9 PUSH1 0x4 DUP1 CALLDATASIZE SUB DUP2 ADD SWAP1 PUSH2 0x2E4 SWAP2 SWAP1 PUSH2 0x1D51 JUMP JUMPDEST PUSH2 0x9FA JUMP JUMPDEST STOP JUMPDEST PUSH2 0x305 PUSH1 0x4 DUP1 CALLDATASIZE SUB DUP2 ADD SWAP1 PUSH2 0x300 SWAP2 SWAP1 PUSH2 0x1E2D JUMP JUMPDEST PUSH2 0xA10 JUMP JUMPDEST STOP JUMPDEST PUSH2 0x321 PUSH1 0x4 DUP1 CALLDATASIZE SUB DUP2 ADD SWAP1 PUSH2 0x31C SWAP2 SWAP1 PUSH2 0x19B0 JUMP JUMPDEST PUSH2 0xA35 JUMP JUMPDEST PUSH1 0x40 MLOAD PUSH2 0x32E SWAP2 SWAP1 PUSH2 0x195D JUMP JUMPDEST PUSH1 0x40 MLOAD DUP1 SWAP2 SUB SWAP1 RETURN JUMPDEST PUSH2 0x351 PUSH1 0x4 DUP1 CALLDATASIZE SUB DUP2 ADD SWAP1 PUSH2 0x34C SWAP2 SWAP1 PUSH2 0x1EAD JUMP JUMPDEST PUSH2 0xA9B JUMP JUMPDEST PUSH1 0x40 MLOAD PUSH2 0x35E SWAP2 SWAP1 PUSH2 0x18D4 JUMP JUMPDEST PUSH1 0x40 MLOAD DUP1 SWAP2 SUB SWAP1 RETURN JUMPDEST PUSH0 PUSH32 0x80AC58CD00000000000000000000000000000000000000000000000000000000 PUSH28 0xFFFFFFFFFFFFFFFFFFFFFFFFFFFFFFFFFFFFFFFFFFFFFFFFFFFFFFFF NOT AND DUP3 PUSH28 0xFFFFFFFFFFFFFFFFFFFFFFFFFFFFFFFFFFFFFFFFFFFFFFFFFFFFFFFF NOT AND EQ DUP1 PUSH2 0x431 JUMPI POP PUSH32 0x5B5E139F00000000000000000000000000000000000000000000000000000000 PUSH28 0xFFFFFFFFFFFFFFFFFFFFFFFFFFFFFFFFFFFFFFFFFFFFFFFFFFFFFFFF NOT AND DUP3 PUSH28 0xFFFFFFFFFFFFFFFFFFFFFFFFFFFFFFFFFFFFFFFFFFFFFFFFFFFFFFFF NOT AND EQ JUMPDEST DUP1 PUSH2 0x441 JUMPI POP PUSH2 0x440 DUP3 PUSH2 0xB29 JUMP JUMPDEST JUMPDEST SWAP1 POP SWAP2 SWAP1 POP JUMP JUMPDEST PUSH1 0x60 PUSH0 DUP1 SLOAD PUSH2 0x456 SWAP1 PUSH2 0x1F18 JUMP JUMPDEST DUP1 PUSH1 0x1F ADD PUSH1 0x20 DUP1 SWAP2 DIV MUL PUSH1 0x20 ADD PUSH1 0x40 MLOAD SWAP1 DUP2 ADD PUSH1 0x40 MSTORE DUP1 SWAP3 SWAP2 SWAP1 DUP2 DUP2 MSTORE PUSH1 0x20 ADD DUP3 DUP1 SLOAD PUSH2 0x482 SWAP1 PUSH2 0x1F18 JUMP JUMPDEST DUP1 ISZERO PUSH2 0x4CD JUMPI DUP1 PUSH1 0x1F LT PUSH2 0x4A4 JUMPI PUSH2 0x100 DUP1 DUP4 SLOAD DIV MUL DUP4 MSTORE SWAP2 PUSH1 0x20 ADD SWAP2 PUSH2 0x4CD JUMP JUMPDEST DUP3 ADD SWAP2 SWAP1 PUSH0 MSTORE PUSH1 0x20 PUSH0 KECCAK256 SWAP1 JUMPDEST DUP2 SLOAD DUP2 MSTORE SWAP1 PUSH1 0x1 ADD SWAP1 PUSH1 0x20 ADD DUP1 DUP4 GT PUSH2 0x4B0 JUMPI DUP3 SWAP1 SUB PUSH1 0x1F AND DUP3 ADD SWAP2 JUMPDEST POP POP POP POP POP SWAP1 POP SWAP1 JUMP JUMPDEST PUSH0 PUSH2 0x4E1 DUP3 PUSH2 0xB92 JUMP JUMPDEST POP PUSH2 0x4EB DUP3 PUSH2 0xC18 JUMP JUMPDEST SWAP1 POP SWAP2 SWAP1 POP JUMP JUMPDEST PUSH2 0x504 DUP3 DUP3 PUSH2 0x4FF PUSH2 0xC51 JUMP JUMPDEST PUSH2 0xC58 JUMP JUMPDEST POP POP JUMP JUMPDEST PUSH0 PUSH20 0xFFFFFFFFFFFFFFFFFFFFFFFFFFFFFFFFFFFFFFFF AND DUP3 PUSH20 0xFFFFFFFFFFFFFFFFFFFFFFFFFFFFFFFFFFFFFFFF AND SUB PUSH2 0x578 JUMPI PUSH0 PUSH1 0x40 MLOAD PUSH32 0x64A0AE9200000000000000000000000000000000000000000000000000000000 DUP2 MSTORE PUSH1 0x4 ADD PUSH2 0x56F SWAP2 SWAP1 PUSH2 0x1A1A JUMP JUMPDEST PUSH1 0x40 MLOAD DUP1 SWAP2 SUB SWAP1 REVERT JUMPDEST PUSH0 PUSH2 0x58B DUP4 DUP4 PUSH2 0x586 PUSH2 0xC51 JUMP JUMPDEST PUSH2 0xC6A JUMP JUMPDEST SWAP1 POP DUP4 PUSH20 0xFFFFFFFFFFFFFFFFFFFFFFFFFFFFFFFFFFFFFFFF AND DUP2 PUSH20 0xFFFFFFFFFFFFFFFFFFFFFFFFFFFFFFFFFFFFFFFF AND EQ PUSH2 0x601 JUMPI DUP4 DUP3 DUP3 PUSH1 0x40 MLOAD PUSH32 0x64283D7B00000000000000000000000000000000000000000000000000000000 DUP2 MSTORE PUSH1 0x4 ADD PUSH2 0x5F8 SWAP4 SWAP3 SWAP2 SWAP1 PUSH2 0x1F48 JUMP JUMPDEST PUSH1 0x40 MLOAD DUP1 SWAP2 SUB SWAP1 REVERT JUMPDEST POP POP POP POP JUMP JUMPDEST PUSH2 0x621 DUP4 DUP4 DUP4 PUSH1 0x40 MLOAD DUP1 PUSH1 0x20 ADD PUSH1 0x40 MSTORE DUP1 PUSH0 DUP2 MSTORE POP PUSH2 0xA10 JUMP JUMPDEST POP POP POP JUMP JUMPDEST PUSH0 DUP1 PUSH20 0xFFFFFFFFFFFFFFFFFFFFFFFFFFFFFFFFFFFFFFFF AND PUSH2 0x647 DUP4 PUSH2 0xE75 JUMP JUMPDEST PUSH20 0xFFFFFFFFFFFFFFFFFFFFFFFFFFFFFFFFFFFFFFFF AND EQ ISZERO SWAP1 POP SWAP2 SWAP1 POP JUMP JUMPDEST PUSH0 PUSH2 0x670 DUP3 PUSH2 0xB92 JUMP JUMPDEST SWAP1 POP SWAP2 SWAP1 POP JUMP JUMPDEST PUSH0 DUP1 PUSH20 0xFFFFFFFFFFFFFFFFFFFFFFFFFFFFFFFFFFFFFFFF AND DUP3 PUSH20 0xFFFFFFFFFFFFFFFFFFFFFFFFFFFFFFFFFFFFFFFF AND SUB PUSH2 0x6E8 JUMPI PUSH0 PUSH1 0x40 MLOAD PUSH32 0x89C62B6400000000000000000000000000000000000000000000000000000000 DUP2 MSTORE PUSH1 0x4 ADD PUSH2 0x6DF SWAP2 SWAP1 PUSH2 0x1A1A JUMP JUMPDEST PUSH1 0x40 MLOAD DUP1 SWAP2 SUB SWAP1 REVERT JUMPDEST PUSH1 0x3 PUSH0 DUP4 PUSH20 0xFFFFFFFFFFFFFFFFFFFFFFFFFFFFFFFFFFFFFFFF AND PUSH20 0xFFFFFFFFFFFFFFFFFFFFFFFFFFFFFFFFFFFFFFFF AND DUP2 MSTORE PUSH1 0x20 ADD SWAP1 DUP2 MSTORE PUSH1 0x20 ADD PUSH0 KECCAK256 SLOAD SWAP1 POP SWAP2 SWAP1 POP JUMP JUMPDEST PUSH1 0x6 DUP2 DUP2 SLOAD DUP2 LT PUSH2 0x73C JUMPI PUSH0 DUP1 REVERT JUMPDEST SWAP1 PUSH0 MSTORE PUSH1 0x20 PUSH0 KECCAK256 SWAP1 PUSH1 0x2 MUL ADD PUSH0 SWAP2 POP SWAP1 POP DUP1 PUSH0 ADD DUP1 SLOAD PUSH2 0x75B SWAP1 PUSH2 0x1F18 JUMP JUMPDEST DUP1 PUSH1 0x1F ADD PUSH1 0x20 DUP1 SWAP2 DIV MUL PUSH1 0x20 ADD PUSH1 0x40 MLOAD SWAP1 DUP2 ADD PUSH1 0x40 MSTORE DUP1 SWAP3 SWAP2 SWAP1 DUP2 DUP2 MSTORE PUSH1 0x20 ADD DUP3 DUP1 SLOAD PUSH2 0x787 SWAP1 PUSH2 0x1F18 JUMP JUMPDEST DUP1 ISZERO PUSH2 0x7D2 JUMPI DUP1 PUSH1 0x1F LT PUSH2 0x7A9 JUMPI PUSH2 0x100 DUP1 DUP4 SLOAD DIV MUL DUP4 MSTORE SWAP2 PUSH1 0x20 ADD SWAP2 PUSH2 0x7D2 JUMP JUMPDEST DUP3 ADD SWAP2 SWAP1 PUSH0 MSTORE PUSH1 0x20 PUSH0 KECCAK256 SWAP1 JUMPDEST DUP2 SLOAD DUP2 MSTORE SWAP1 PUSH1 0x1 ADD SWAP1 PUSH1 0x20 ADD DUP1 DUP4 GT PUSH2 0x7B5 JUMPI DUP3 SWAP1 SUB PUSH1 0x1F AND DUP3 ADD SWAP2 JUMPDEST POP POP POP POP POP SWAP1 DUP1 PUSH1 0x1 ADD DUP1 SLOAD PUSH2 0x7E7 SWAP1 PUSH2 0x1F18 JUMP JUMPDEST DUP1 PUSH1 0x1F ADD PUSH1 0x20 DUP1 SWAP2 DIV MUL PUSH1 0x20 ADD PUSH1 0x40 MLOAD SWAP1 DUP2 ADD PUSH1 0x40 MSTORE DUP1 SWAP3 SWAP2 SWAP1 DUP2 DUP2 MSTORE PUSH1 0x20 ADD DUP3 DUP1 SLOAD PUSH2 0x813 SWAP1 PUSH2 0x1F18 JUMP JUMPDEST DUP1 ISZERO PUSH2 0x85E JUMPI DUP1 PUSH1 0x1F LT PUSH2 0x835 JUMPI PUSH2 0x100 DUP1 DUP4 SLOAD DIV MUL DUP4 MSTORE SWAP2 PUSH1 0x20 ADD SWAP2 PUSH2 0x85E JUMP JUMPDEST DUP3 ADD SWAP2 SWAP1 PUSH0 MSTORE PUSH1 0x20 PUSH0 KECCAK256 SWAP1 JUMPDEST DUP2 SLOAD DUP2 MSTORE SWAP1 PUSH1 0x1 ADD SWAP1 PUSH1 0x20 ADD DUP1 DUP4 GT PUSH2 0x841 JUMPI DUP3 SWAP1 SUB PUSH1 0x1F AND DUP3 ADD SWAP2 JUMPDEST POP POP POP POP POP SWAP1 POP DUP3 JUMP JUMPDEST PUSH1 0x60 PUSH1 0x1 DUP1 SLOAD PUSH2 0x877 SWAP1 PUSH2 0x1F18 JUMP JUMPDEST DUP1 PUSH1 0x1F ADD PUSH1 0x20 DUP1 SWAP2 DIV MUL PUSH1 0x20 ADD PUSH1 0x40 MLOAD SWAP1 DUP2 ADD PUSH1 0x40 MSTORE DUP1 SWAP3 SWAP2 SWAP1 DUP2 DUP2 MSTORE PUSH1 0x20 ADD DUP3 DUP1 SLOAD PUSH2 0x8A3 SWAP1 PUSH2 0x1F18 JUMP JUMPDEST DUP1 ISZERO PUSH2 0x8EE JUMPI DUP1 PUSH1 0x1F LT PUSH2 0x8C5 JUMPI PUSH2 0x100 DUP1 DUP4 SLOAD DIV MUL DUP4 MSTORE SWAP2 PUSH1 0x20 ADD SWAP2 PUSH2 0x8EE JUMP JUMPDEST DUP3 ADD SWAP2 SWAP1 PUSH0 MSTORE PUSH1 0x20 PUSH0 KECCAK256 SWAP1 JUMPDEST DUP2 SLOAD DUP2 MSTORE SWAP1 PUSH1 0x1 ADD SWAP1 PUSH1 0x20 ADD DUP1 DUP4 GT PUSH2 0x8D1 JUMPI DUP3 SWAP1 SUB PUSH1 0x1F AND DUP3 ADD SWAP2 JUMPDEST POP POP POP POP POP SWAP1 POP SWAP1 JUMP JUMPDEST PUSH0 PUSH20 0xFFFFFFFFFFFFFFFFFFFFFFFFFFFFFFFFFFFFFFFF AND DUP4 PUSH20 0xFFFFFFFFFFFFFFFFFFFFFFFFFFFFFFFFFFFFFFFF AND SUB PUSH2 0x92F JUMPI PUSH0 DUP1 REVERT JUMPDEST PUSH0 PUSH1 0x6 DUP1 SLOAD SWAP1 POP SWAP1 POP PUSH1 0x6 PUSH1 0x40 MLOAD DUP1 PUSH1 0x40 ADD PUSH1 0x40 MSTORE DUP1 DUP6 DUP2 MSTORE PUSH1 0x20 ADD DUP5 DUP2 MSTORE POP SWAP1 DUP1 PUSH1 0x1 DUP2 SLOAD ADD DUP1 DUP3 SSTORE DUP1 SWAP2 POP POP PUSH1 0x1 SWAP1 SUB SWAP1 PUSH0 MSTORE PUSH1 0x20 PUSH0 KECCAK256 SWAP1 PUSH1 0x2 MUL ADD PUSH0 SWAP1 SWAP2 SWAP1 SWAP2 SWAP1 SWAP2 POP PUSH0 DUP3 ADD MLOAD DUP2 PUSH0 ADD SWAP1 DUP2 PUSH2 0x988 SWAP2 SWAP1 PUSH2 0x211A JUMP JUMPDEST POP PUSH1 0x20 DUP3 ADD MLOAD DUP2 PUSH1 0x1 ADD SWAP1 DUP2 PUSH2 0x99E SWAP2 SWAP1 PUSH2 0x211A JUMP JUMPDEST POP POP POP PUSH2 0x9AA DUP2 PUSH2 0x626 JUMP JUMPDEST ISZERO PUSH2 0x9EA JUMPI PUSH1 0x40 MLOAD PUSH32 0x8C379A000000000000000000000000000000000000000000000000000000000 DUP2 MSTORE PUSH1 0x4 ADD PUSH2 0x9E1 SWAP1 PUSH2 0x2233 JUMP JUMPDEST PUSH1 0x40 MLOAD DUP1 SWAP2 SUB SWAP1 REVERT JUMPDEST PUSH2 0x9F4 DUP5 DUP3 PUSH2 0xEAE JUMP JUMPDEST POP POP POP POP JUMP JUMPDEST PUSH2 0xA0C PUSH2 0xA05 PUSH2 0xC51 JUMP JUMPDEST DUP4 DUP4 PUSH2 0xFA1 JUMP JUMPDEST POP POP JUMP JUMPDEST PUSH2 0xA1B DUP5 DUP5 DUP5 PUSH2 0x508 JUMP JUMPDEST PUSH2 0xA2F PUSH2 0xA26 PUSH2 0xC51 JUMP JUMPDEST DUP6 DUP6 DUP6 DUP6 PUSH2 0x110A JUMP JUMPDEST POP POP POP POP JUMP JUMPDEST PUSH1 0x60 PUSH2 0xA40 DUP3 PUSH2 0xB92 JUMP JUMPDEST POP PUSH0 PUSH2 0xA4A PUSH2 0x12B6 JUMP JUMPDEST SWAP1 POP PUSH0 DUP2 MLOAD GT PUSH2 0xA68 JUMPI PUSH1 0x40 MLOAD DUP1 PUSH1 0x20 ADD PUSH1 0x40 MSTORE DUP1 PUSH0 DUP2 MSTORE POP PUSH2 0xA93 JUMP JUMPDEST DUP1 PUSH2 0xA72 DUP5 PUSH2 0x12CC JUMP JUMPDEST PUSH1 0x40 MLOAD PUSH1 0x20 ADD PUSH2 0xA83 SWAP3 SWAP2 SWAP1 PUSH2 0x228B JUMP JUMPDEST PUSH1 0x40 MLOAD PUSH1 0x20 DUP2 DUP4 SUB SUB DUP2 MSTORE SWAP1 PUSH1 0x40 MSTORE JUMPDEST SWAP2 POP POP SWAP2 SWAP1 POP JUMP JUMPDEST PUSH0 PUSH1 0x5 PUSH0 DUP5 PUSH20 0xFFFFFFFFFFFFFFFFFFFFFFFFFFFFFFFFFFFFFFFF AND PUSH20 0xFFFFFFFFFFFFFFFFFFFFFFFFFFFFFFFFFFFFFFFF AND DUP2 MSTORE PUSH1 0x20 ADD SWAP1 DUP2 MSTORE PUSH1 0x20 ADD PUSH0 KECCAK256 PUSH0 DUP4 PUSH20 0xFFFFFFFFFFFFFFFFFFFFFFFFFFFFFFFFFFFFFFFF AND PUSH20 0xFFFFFFFFFFFFFFFFFFFFFFFFFFFFFFFFFFFFFFFF AND DUP2 MSTORE PUSH1 0x20 ADD SWAP1 DUP2 MSTORE PUSH1 0x20 ADD PUSH0 KECCAK256 PUSH0 SWAP1 SLOAD SWAP1 PUSH2 0x100 EXP SWAP1 DIV PUSH1 0xFF AND SWAP1 POP SWAP3 SWAP2 POP POP JUMP JUMPDEST PUSH0 PUSH32 0x1FFC9A700000000000000000000000000000000000000000000000000000000 PUSH28 0xFFFFFFFFFFFFFFFFFFFFFFFFFFFFFFFFFFFFFFFFFFFFFFFFFFFFFFFF NOT AND DUP3 PUSH28 0xFFFFFFFFFFFFFFFFFFFFFFFFFFFFFFFFFFFFFFFFFFFFFFFFFFFFFFFF NOT AND EQ SWAP1 POP SWAP2 SWAP1 POP JUMP JUMPDEST PUSH0 DUP1 PUSH2 0xB9D DUP4 PUSH2 0xE75 JUMP JUMPDEST SWAP1 POP PUSH0 PUSH20 0xFFFFFFFFFFFFFFFFFFFFFFFFFFFFFFFFFFFFFFFF AND DUP2 PUSH20 0xFFFFFFFFFFFFFFFFFFFFFFFFFFFFFFFFFFFFFFFF AND SUB PUSH2 0xC0F JUMPI DUP3 PUSH1 0x40 MLOAD PUSH32 0x7E27328900000000000000000000000000000000000000000000000000000000 DUP2 MSTORE PUSH1 0x4 ADD PUSH2 0xC06 SWAP2 SWAP1 PUSH2 0x1B25 JUMP JUMPDEST PUSH1 0x40 MLOAD DUP1 SWAP2 SUB SWAP1 REVERT JUMPDEST DUP1 SWAP2 POP POP SWAP2 SWAP1 POP JUMP JUMPDEST PUSH0 PUSH1 0x4 PUSH0 DUP4 DUP2 MSTORE PUSH1 0x20 ADD SWAP1 DUP2 MSTORE PUSH1 0x20 ADD PUSH0 KECCAK256 PUSH0 SWAP1 SLOAD SWAP1 PUSH2 0x100 EXP SWAP1 DIV PUSH20 0xFFFFFFFFFFFFFFFFFFFFFFFFFFFFFFFFFFFFFFFF AND SWAP1 POP SWAP2 SWAP1 POP JUMP JUMPDEST PUSH0 CALLER SWAP1 POP SWAP1 JUMP JUMPDEST PUSH2 0xC65 DUP4 DUP4 DUP4 PUSH1 0x1 PUSH2 0x1396 JUMP JUMPDEST POP POP POP JUMP JUMPDEST PUSH0 DUP1 PUSH2 0xC75 DUP5 PUSH2 0xE75 JUMP JUMPDEST SWAP1 POP PUSH0 PUSH20 0xFFFFFFFFFFFFFFFFFFFFFFFFFFFFFFFFFFFFFFFF AND DUP4 PUSH20 0xFFFFFFFFFFFFFFFFFFFFFFFFFFFFFFFFFFFFFFFF AND EQ PUSH2 0xCB6 JUMPI PUSH2 0xCB5 DUP2 DUP5 DUP7 PUSH2 0x1555 JUMP JUMPDEST JUMPDEST PUSH0 PUSH20 0xFFFFFFFFFFFFFFFFFFFFFFFFFFFFFFFFFFFFFFFF AND DUP2 PUSH20 0xFFFFFFFFFFFFFFFFFFFFFFFFFFFFFFFFFFFFFFFF AND EQ PUSH2 0xD41 JUMPI PUSH2 0xCF5 PUSH0 DUP6 PUSH0 DUP1 PUSH2 0x1396 JUMP JUMPDEST PUSH1 0x1 PUSH1 0x3 PUSH0 DUP4 PUSH20 0xFFFFFFFFFFFFFFFFFFFFFFFFFFFFFFFFFFFFFFFF AND PUSH20 0xFFFFFFFFFFFFFFFFFFFFFFFFFFFFFFFFFFFFFFFF AND DUP2 MSTORE PUSH1 0x20 ADD SWAP1 DUP2 MSTORE PUSH1 0x20 ADD PUSH0 KECCAK256 PUSH0 DUP3 DUP3 SLOAD SUB SWAP3 POP POP DUP2 SWAP1 SSTORE POP JUMPDEST PUSH0 PUSH20 0xFFFFFFFFFFFFFFFFFFFFFFFFFFFFFFFFFFFFFFFF AND DUP6 PUSH20 0xFFFFFFFFFFFFFFFFFFFFFFFFFFFFFFFFFFFFFFFF AND EQ PUSH2 0xDC0 JUMPI PUSH1 0x1 PUSH1 0x3 PUSH0 DUP8 PUSH20 0xFFFFFFFFFFFFFFFFFFFFFFFFFFFFFFFFFFFFFFFF AND PUSH20 0xFFFFFFFFFFFFFFFFFFFFFFFFFFFFFFFFFFFFFFFF AND DUP2 MSTORE PUSH1 0x20 ADD SWAP1 DUP2 MSTORE PUSH1 0x20 ADD PUSH0 KECCAK256 PUSH0 DUP3 DUP3 SLOAD ADD SWAP3 POP POP DUP2 SWAP1 SSTORE POP JUMPDEST DUP5 PUSH1 0x2 PUSH0 DUP7 DUP2 MSTORE PUSH1 0x20 ADD SWAP1 DUP2 MSTORE PUSH1 0x20 ADD PUSH0 KECCAK256 PUSH0 PUSH2 0x100 EXP DUP2 SLOAD DUP2 PUSH20 0xFFFFFFFFFFFFFFFFFFFFFFFFFFFFFFFFFFFFFFFF MUL NOT AND SWAP1 DUP4 PUSH20 0xFFFFFFFFFFFFFFFFFFFFFFFFFFFFFFFFFFFFFFFF AND MUL OR SWAP1 SSTORE POP DUP4 DUP6 PUSH20 0xFFFFFFFFFFFFFFFFFFFFFFFFFFFFFFFFFFFFFFFF AND DUP3 PUSH20 0xFFFFFFFFFFFFFFFFFFFFFFFFFFFFFFFFFFFFFFFF AND PUSH32 0xDDF252AD1BE2C89B69C2B068FC378DAA952BA7F163C4A11628F55A4DF523B3EF PUSH1 0x40 MLOAD PUSH1 0x40 MLOAD DUP1 SWAP2 SUB SWAP1 LOG4 DUP1 SWAP2 POP POP SWAP4 SWAP3 POP POP POP JUMP JUMPDEST PUSH0 PUSH1 0x2 PUSH0 DUP4 DUP2 MSTORE PUSH1 0x20 ADD SWAP1 DUP2 MSTORE PUSH1 0x20 ADD PUSH0 KECCAK256 PUSH0 SWAP1 SLOAD SWAP1 PUSH2 0x100 EXP SWAP1 DIV PUSH20 0xFFFFFFFFFFFFFFFFFFFFFFFFFFFFFFFFFFFFFFFF AND SWAP1 POP SWAP2 SWAP1 POP JUMP JUMPDEST PUSH0 PUSH20 0xFFFFFFFFFFFFFFFFFFFFFFFFFFFFFFFFFFFFFFFF AND DUP3 PUSH20 0xFFFFFFFFFFFFFFFFFFFFFFFFFFFFFFFFFFFFFFFF AND SUB PUSH2 0xF1E JUMPI PUSH0 PUSH1 0x40 MLOAD PUSH32 0x64A0AE9200000000000000000000000000000000000000000000000000000000 DUP2 MSTORE PUSH1 0x4 ADD PUSH2 0xF15 SWAP2 SWAP1 PUSH2 0x1A1A JUMP JUMPDEST PUSH1 0x40 MLOAD DUP1 SWAP2 SUB SWAP1 REVERT JUMPDEST PUSH0 PUSH2 0xF2A DUP4 DUP4 PUSH0 PUSH2 0xC6A JUMP JUMPDEST SWAP1 POP PUSH0 PUSH20 0xFFFFFFFFFFFFFFFFFFFFFFFFFFFFFFFFFFFFFFFF AND DUP2 PUSH20 0xFFFFFFFFFFFFFFFFFFFFFFFFFFFFFFFFFFFFFFFF AND EQ PUSH2 0xF9C JUMPI PUSH0 PUSH1 0x40 MLOAD PUSH32 0x73C6AC6E00000000000000000000000000000000000000000000000000000000 DUP2 MSTORE PUSH1 0x4 ADD PUSH2 0xF93 SWAP2 SWAP1 PUSH2 0x1A1A JUMP JUMPDEST PUSH1 0x40 MLOAD DUP1 SWAP2 SUB SWAP1 REVERT JUMPDEST POP POP POP JUMP JUMPDEST PUSH0 PUSH20 0xFFFFFFFFFFFFFFFFFFFFFFFFFFFFFFFFFFFFFFFF AND DUP3 PUSH20 0xFFFFFFFFFFFFFFFFFFFFFFFFFFFFFFFFFFFFFFFF AND SUB PUSH2 0x1011 JUMPI DUP2 PUSH1 0x40 MLOAD PUSH32 0x5B08BA1800000000000000000000000000000000000000000000000000000000 DUP2 MSTORE PUSH1 0x4 ADD PUSH2 0x1008 SWAP2 SWAP1 PUSH2 0x1A1A JUMP JUMPDEST PUSH1 0x40 MLOAD DUP1 SWAP2 SUB SWAP1 REVERT JUMPDEST DUP1 PUSH1 0x5 PUSH0 DUP6 PUSH20 0xFFFFFFFFFFFFFFFFFFFFFFFFFFFFFFFFFFFFFFFF AND PUSH20 0xFFFFFFFFFFFFFFFFFFFFFFFFFFFFFFFFFFFFFFFF AND DUP2 MSTORE PUSH1 0x20 ADD SWAP1 DUP2 MSTORE PUSH1 0x20 ADD PUSH0 KECCAK256 PUSH0 DUP5 PUSH20 0xFFFFFFFFFFFFFFFFFFFFFFFFFFFFFFFFFFFFFFFF AND PUSH20 0xFFFFFFFFFFFFFFFFFFFFFFFFFFFFFFFFFFFFFFFF AND DUP2 MSTORE PUSH1 0x20 ADD SWAP1 DUP2 MSTORE PUSH1 0x20 ADD PUSH0 KECCAK256 PUSH0 PUSH2 0x100 EXP DUP2 SLOAD DUP2 PUSH1 0xFF MUL NOT AND SWAP1 DUP4 ISZERO ISZERO MUL OR SWAP1 SSTORE POP DUP2 PUSH20 0xFFFFFFFFFFFFFFFFFFFFFFFFFFFFFFFFFFFFFFFF AND DUP4 PUSH20 0xFFFFFFFFFFFFFFFFFFFFFFFFFFFFFFFFFFFFFFFF AND PUSH32 0x17307EAB39AB6107E8899845AD3D59BD9653F200F220920489CA2B5937696C31 DUP4 PUSH1 0x40 MLOAD PUSH2 0x10FD SWAP2 SWAP1 PUSH2 0x18D4 JUMP JUMPDEST PUSH1 0x40 MLOAD DUP1 SWAP2 SUB SWAP1 LOG3 POP POP POP JUMP JUMPDEST PUSH0 DUP4 PUSH20 0xFFFFFFFFFFFFFFFFFFFFFFFFFFFFFFFFFFFFFFFF AND EXTCODESIZE GT ISZERO PUSH2 0x12AF JUMPI DUP3 PUSH20 0xFFFFFFFFFFFFFFFFFFFFFFFFFFFFFFFFFFFFFFFF AND PUSH4 0x150B7A02 DUP7 DUP7 DUP6 DUP6 PUSH1 0x40 MLOAD DUP6 PUSH4 0xFFFFFFFF AND PUSH1 0xE0 SHL DUP2 MSTORE PUSH1 0x4 ADD PUSH2 0x1168 SWAP5 SWAP4 SWAP3 SWAP2 SWAP1 PUSH2 0x2300 JUMP JUMPDEST PUSH1 0x20 PUSH1 0x40 MLOAD DUP1 DUP4 SUB DUP2 PUSH0 DUP8 GAS CALL SWAP3 POP POP POP DUP1 ISZERO PUSH2 0x11A3 JUMPI POP PUSH1 0x40 MLOAD RETURNDATASIZE PUSH1 0x1F NOT PUSH1 0x1F DUP3 ADD AND DUP3 ADD DUP1 PUSH1 0x40 MSTORE POP DUP2 ADD SWAP1 PUSH2 0x11A0 SWAP2 SWAP1 PUSH2 0x235E JUMP JUMPDEST PUSH1 0x1 JUMPDEST PUSH2 0x1224 JUMPI RETURNDATASIZE DUP1 PUSH0 DUP2 EQ PUSH2 0x11D1 JUMPI PUSH1 0x40 MLOAD SWAP2 POP PUSH1 0x1F NOT PUSH1 0x3F RETURNDATASIZE ADD AND DUP3 ADD PUSH1 0x40 MSTORE RETURNDATASIZE DUP3 MSTORE RETURNDATASIZE PUSH0 PUSH1 0x20 DUP5 ADD RETURNDATACOPY PUSH2 0x11D6 JUMP JUMPDEST PUSH1 0x60 SWAP2 POP JUMPDEST POP PUSH0 DUP2 MLOAD SUB PUSH2 0x121C JUMPI DUP4 PUSH1 0x40 MLOAD PUSH32 0x64A0AE9200000000000000000000000000000000000000000000000000000000 DUP2 MSTORE PUSH1 0x4 ADD PUSH2 0x1213 SWAP2 SWAP1 PUSH2 0x1A1A JUMP JUMPDEST PUSH1 0x40 MLOAD DUP1 SWAP2 SUB SWAP1 REVERT JUMPDEST DUP1 MLOAD DUP2 PUSH1 0x20 ADD REVERT JUMPDEST PUSH4 0x150B7A02 PUSH1 0xE0 SHL PUSH28 0xFFFFFFFFFFFFFFFFFFFFFFFFFFFFFFFFFFFFFFFFFFFFFFFFFFFFFFFF NOT AND DUP2 PUSH28 0xFFFFFFFFFFFFFFFFFFFFFFFFFFFFFFFFFFFFFFFFFFFFFFFFFFFFFFFF NOT AND EQ PUSH2 0x12AD JUMPI DUP4 PUSH1 0x40 MLOAD PUSH32 0x64A0AE9200000000000000000000000000000000000000000000000000000000 DUP2 MSTORE PUSH1 0x4 ADD PUSH2 0x12A4 SWAP2 SWAP1 PUSH2 0x1A1A JUMP JUMPDEST PUSH1 0x40 MLOAD DUP1 SWAP2 SUB SWAP1 REVERT JUMPDEST POP JUMPDEST POP POP POP POP POP JUMP JUMPDEST PUSH1 0x60 PUSH1 0x40 MLOAD DUP1 PUSH1 0x20 ADD PUSH1 0x40 MSTORE DUP1 PUSH0 DUP2 MSTORE POP SWAP1 POP SWAP1 JUMP JUMPDEST PUSH1 0x60 PUSH0 PUSH1 0x1 PUSH2 0x12DA DUP5 PUSH2 0x1618 JUMP JUMPDEST ADD SWAP1 POP PUSH0 DUP2 PUSH8 0xFFFFFFFFFFFFFFFF DUP2 GT ISZERO PUSH2 0x12F8 JUMPI PUSH2 0x12F7 PUSH2 0x1B7B JUMP JUMPDEST JUMPDEST PUSH1 0x40 MLOAD SWAP1 DUP1 DUP3 MSTORE DUP1 PUSH1 0x1F ADD PUSH1 0x1F NOT AND PUSH1 0x20 ADD DUP3 ADD PUSH1 0x40 MSTORE DUP1 ISZERO PUSH2 0x132A JUMPI DUP2 PUSH1 0x20 ADD PUSH1 0x1 DUP3 MUL DUP1 CALLDATASIZE DUP4 CALLDATACOPY DUP1 DUP3 ADD SWAP2 POP POP SWAP1 POP JUMPDEST POP SWAP1 POP PUSH0 DUP3 PUSH1 0x20 ADD DUP3 ADD SWAP1 POP JUMPDEST PUSH1 0x1 ISZERO PUSH2 0x138B JUMPI DUP1 DUP1 PUSH1 0x1 SWAP1 SUB SWAP2 POP POP PUSH32 0x3031323334353637383961626364656600000000000000000000000000000000 PUSH1 0xA DUP7 MOD BYTE DUP2 MSTORE8 PUSH1 0xA DUP6 DUP2 PUSH2 0x1380 JUMPI PUSH2 0x137F PUSH2 0x2389 JUMP JUMPDEST JUMPDEST DIV SWAP5 POP PUSH0 DUP6 SUB PUSH2 0x1337 JUMPI JUMPDEST DUP2 SWAP4 POP POP POP POP SWAP2 SWAP1 POP JUMP JUMPDEST DUP1 DUP1 PUSH2 0x13CE JUMPI POP PUSH0 PUSH20 0xFFFFFFFFFFFFFFFFFFFFFFFFFFFFFFFFFFFFFFFF AND DUP3 PUSH20 0xFFFFFFFFFFFFFFFFFFFFFFFFFFFFFFFFFFFFFFFF AND EQ ISZERO JUMPDEST ISZERO PUSH2 0x1500 JUMPI PUSH0 PUSH2 0x13DD DUP5 PUSH2 0xB92 JUMP JUMPDEST SWAP1 POP PUSH0 PUSH20 0xFFFFFFFFFFFFFFFFFFFFFFFFFFFFFFFFFFFFFFFF AND DUP4 PUSH20 0xFFFFFFFFFFFFFFFFFFFFFFFFFFFFFFFFFFFFFFFF AND EQ ISZERO DUP1 ISZERO PUSH2 0x1447 JUMPI POP DUP3 PUSH20 0xFFFFFFFFFFFFFFFFFFFFFFFFFFFFFFFFFFFFFFFF AND DUP2 PUSH20 0xFFFFFFFFFFFFFFFFFFFFFFFFFFFFFFFFFFFFFFFF AND EQ ISZERO JUMPDEST DUP1 ISZERO PUSH2 0x145A JUMPI POP PUSH2 0x1458 DUP2 DUP5 PUSH2 0xA9B JUMP JUMPDEST ISZERO JUMPDEST ISZERO PUSH2 0x149C JUMPI DUP3 PUSH1 0x40 MLOAD PUSH32 0xA9FBF51F00000000000000000000000000000000000000000000000000000000 DUP2 MSTORE PUSH1 0x4 ADD PUSH2 0x1493 SWAP2 SWAP1 PUSH2 0x1A1A JUMP JUMPDEST PUSH1 0x40 MLOAD DUP1 SWAP2 SUB SWAP1 REVERT JUMPDEST DUP2 ISZERO PUSH2 0x14FE JUMPI DUP4 DUP6 PUSH20 0xFFFFFFFFFFFFFFFFFFFFFFFFFFFFFFFFFFFFFFFF AND DUP3 PUSH20 0xFFFFFFFFFFFFFFFFFFFFFFFFFFFFFFFFFFFFFFFF AND PUSH32 0x8C5BE1E5EBEC7D5BD14F71427D1E84F3DD0314C0F7B2291E5B200AC8C7C3B925 PUSH1 0x40 MLOAD PUSH1 0x40 MLOAD DUP1 SWAP2 SUB SWAP1 LOG4 JUMPDEST POP JUMPDEST DUP4 PUSH1 0x4 PUSH0 DUP6 DUP2 MSTORE PUSH1 0x20 ADD SWAP1 DUP2 MSTORE PUSH1 0x20 ADD PUSH0 KECCAK256 PUSH0 PUSH2 0x100 EXP DUP2 SLOAD DUP2 PUSH20 0xFFFFFFFFFFFFFFFFFFFFFFFFFFFFFFFFFFFFFFFF MUL NOT AND SWAP1 DUP4 PUSH20 0xFFFFFFFFFFFFFFFFFFFFFFFFFFFFFFFFFFFFFFFF AND MUL OR SWAP1 SSTORE POP POP POP POP POP JUMP JUMPDEST PUSH2 0x1560 DUP4 DUP4 DUP4 PUSH2 0x1769 JUMP JUMPDEST PUSH2 0x1613 JUMPI PUSH0 PUSH20 0xFFFFFFFFFFFFFFFFFFFFFFFFFFFFFFFFFFFFFFFF AND DUP4 PUSH20 0xFFFFFFFFFFFFFFFFFFFFFFFFFFFFFFFFFFFFFFFF AND SUB PUSH2 0x15D4 JUMPI DUP1 PUSH1 0x40 MLOAD PUSH32 0x7E27328900000000000000000000000000000000000000000000000000000000 DUP2 MSTORE PUSH1 0x4 ADD PUSH2 0x15CB SWAP2 SWAP1 PUSH2 0x1B25 JUMP JUMPDEST PUSH1 0x40 MLOAD DUP1 SWAP2 SUB SWAP1 REVERT JUMPDEST DUP2 DUP2 PUSH1 0x40 MLOAD PUSH32 0x177E802F00000000000000000000000000000000000000000000000000000000 DUP2 MSTORE PUSH1 0x4 ADD PUSH2 0x160A SWAP3 SWAP2 SWAP1 PUSH2 0x23B6 JUMP JUMPDEST PUSH1 0x40 MLOAD DUP1 SWAP2 SUB SWAP1 REVERT JUMPDEST POP POP POP JUMP JUMPDEST PUSH0 DUP1 PUSH0 SWAP1 POP PUSH27 0x184F03E93FF9F4DAA797ED6E38ED64BF6A1F010000000000000000 DUP4 LT PUSH2 0x1674 JUMPI PUSH27 0x184F03E93FF9F4DAA797ED6E38ED64BF6A1F010000000000000000 DUP4 DUP2 PUSH2 0x166A JUMPI PUSH2 0x1669 PUSH2 0x2389 JUMP JUMPDEST JUMPDEST DIV SWAP3 POP PUSH1 0x40 DUP2 ADD SWAP1 POP JUMPDEST PUSH14 0x4EE2D6D415B85ACEF8100000000 DUP4 LT PUSH2 0x16B1 JUMPI PUSH14 0x4EE2D6D415B85ACEF8100000000 DUP4 DUP2 PUSH2 0x16A7 JUMPI PUSH2 0x16A6 PUSH2 0x2389 JUMP JUMPDEST JUMPDEST DIV SWAP3 POP PUSH1 0x20 DUP2 ADD SWAP1 POP JUMPDEST PUSH7 0x2386F26FC10000 DUP4 LT PUSH2 0x16E0 JUMPI PUSH7 0x2386F26FC10000 DUP4 DUP2 PUSH2 0x16D6 JUMPI PUSH2 0x16D5 PUSH2 0x2389 JUMP JUMPDEST JUMPDEST DIV SWAP3 POP PUSH1 0x10 DUP2 ADD SWAP1 POP JUMPDEST PUSH4 0x5F5E100 DUP4 LT PUSH2 0x1709 JUMPI PUSH4 0x5F5E100 DUP4 DUP2 PUSH2 0x16FF JUMPI PUSH2 0x16FE PUSH2 0x2389 JUMP JUMPDEST JUMPDEST DIV SWAP3 POP PUSH1 0x8 DUP2 ADD SWAP1 POP JUMPDEST PUSH2 0x2710 DUP4 LT PUSH2 0x172E JUMPI PUSH2 0x2710 DUP4 DUP2 PUSH2 0x1724 JUMPI PUSH2 0x1723 PUSH2 0x2389 JUMP JUMPDEST JUMPDEST DIV SWAP3 POP PUSH1 0x4 DUP2 ADD SWAP1 POP JUMPDEST PUSH1 0x64 DUP4 LT PUSH2 0x1751 JUMPI PUSH1 0x64 DUP4 DUP2 PUSH2 0x1747 JUMPI PUSH2 0x1746 PUSH2 0x2389 JUMP JUMPDEST JUMPDEST DIV SWAP3 POP PUSH1 0x2 DUP2 ADD SWAP1 POP JUMPDEST PUSH1 0xA DUP4 LT PUSH2 0x1760 JUMPI PUSH1 0x1 DUP2 ADD SWAP1 POP JUMPDEST DUP1 SWAP2 POP POP SWAP2 SWAP1 POP JUMP JUMPDEST PUSH0 DUP1 PUSH20 0xFFFFFFFFFFFFFFFFFFFFFFFFFFFFFFFFFFFFFFFF AND DUP4 PUSH20 0xFFFFFFFFFFFFFFFFFFFFFFFFFFFFFFFFFFFFFFFF AND EQ ISZERO DUP1 ISZERO PUSH2 0x1820 JUMPI POP DUP3 PUSH20 0xFFFFFFFFFFFFFFFFFFFFFFFFFFFFFFFFFFFFFFFF AND DUP5 PUSH20 0xFFFFFFFFFFFFFFFFFFFFFFFFFFFFFFFFFFFFFFFF AND EQ DUP1 PUSH2 0x17E1 JUMPI POP PUSH2 0x17E0 DUP5 DUP5 PUSH2 0xA9B JUMP JUMPDEST JUMPDEST DUP1 PUSH2 0x181F JUMPI POP DUP3 PUSH20 0xFFFFFFFFFFFFFFFFFFFFFFFFFFFFFFFFFFFFFFFF AND PUSH2 0x1807 DUP4 PUSH2 0xC18 JUMP JUMPDEST PUSH20 0xFFFFFFFFFFFFFFFFFFFFFFFFFFFFFFFFFFFFFFFF AND EQ JUMPDEST JUMPDEST SWAP1 POP SWAP4 SWAP3 POP POP POP JUMP JUMPDEST PUSH0 PUSH1 0x40 MLOAD SWAP1 POP SWAP1 JUMP JUMPDEST PUSH0 DUP1 REVERT JUMPDEST PUSH0 DUP1 REVERT JUMPDEST PUSH0 PUSH32 0xFFFFFFFF00000000000000000000000000000000000000000000000000000000 DUP3 AND SWAP1 POP SWAP2 SWAP1 POP JUMP JUMPDEST PUSH2 0x186E DUP2 PUSH2 0x183A JUMP JUMPDEST DUP2 EQ PUSH2 0x1878 JUMPI PUSH0 DUP1 REVERT JUMPDEST POP JUMP JUMPDEST PUSH0 DUP2 CALLDATALOAD SWAP1 POP PUSH2 0x1889 DUP2 PUSH2 0x1865 JUMP JUMPDEST SWAP3 SWAP2 POP POP JUMP JUMPDEST PUSH0 PUSH1 0x20 DUP3 DUP5 SUB SLT ISZERO PUSH2 0x18A4 JUMPI PUSH2 0x18A3 PUSH2 0x1832 JUMP JUMPDEST JUMPDEST PUSH0 PUSH2 0x18B1 DUP5 DUP3 DUP6 ADD PUSH2 0x187B JUMP JUMPDEST SWAP2 POP POP SWAP3 SWAP2 POP POP JUMP JUMPDEST PUSH0 DUP2 ISZERO ISZERO SWAP1 POP SWAP2 SWAP1 POP JUMP JUMPDEST PUSH2 0x18CE DUP2 PUSH2 0x18BA JUMP JUMPDEST DUP3 MSTORE POP POP JUMP JUMPDEST PUSH0 PUSH1 0x20 DUP3 ADD SWAP1 POP PUSH2 0x18E7 PUSH0 DUP4 ADD DUP5 PUSH2 0x18C5 JUMP JUMPDEST SWAP3 SWAP2 POP POP JUMP JUMPDEST PUSH0 DUP2 MLOAD SWAP1 POP SWAP2 SWAP1 POP JUMP JUMPDEST PUSH0 DUP3 DUP3 MSTORE PUSH1 0x20 DUP3 ADD SWAP1 POP SWAP3 SWAP2 POP POP JUMP JUMPDEST DUP3 DUP2 DUP4 MCOPY PUSH0 DUP4 DUP4 ADD MSTORE POP POP POP JUMP JUMPDEST PUSH0 PUSH1 0x1F NOT PUSH1 0x1F DUP4 ADD AND SWAP1 POP SWAP2 SWAP1 POP JUMP JUMPDEST PUSH0 PUSH2 0x192F DUP3 PUSH2 0x18ED JUMP JUMPDEST PUSH2 0x1939 DUP2 DUP6 PUSH2 0x18F7 JUMP JUMPDEST SWAP4 POP PUSH2 0x1949 DUP2 DUP6 PUSH1 0x20 DUP7 ADD PUSH2 0x1907 JUMP JUMPDEST PUSH2 0x1952 DUP2 PUSH2 0x1915 JUMP JUMPDEST DUP5 ADD SWAP2 POP POP SWAP3 SWAP2 POP POP JUMP JUMPDEST PUSH0 PUSH1 0x20 DUP3 ADD SWAP1 POP DUP2 DUP2 SUB PUSH0 DUP4 ADD MSTORE PUSH2 0x1975 DUP2 DUP5 PUSH2 0x1925 JUMP JUMPDEST SWAP1 POP SWAP3 SWAP2 POP POP JUMP JUMPDEST PUSH0 DUP2 SWAP1 POP SWAP2 SWAP1 POP JUMP JUMPDEST PUSH2 0x198F DUP2 PUSH2 0x197D JUMP JUMPDEST DUP2 EQ PUSH2 0x1999 JUMPI PUSH0 DUP1 REVERT JUMPDEST POP JUMP JUMPDEST PUSH0 DUP2 CALLDATALOAD SWAP1 POP PUSH2 0x19AA DUP2 PUSH2 0x1986 JUMP JUMPDEST SWAP3 SWAP2 POP POP JUMP JUMPDEST PUSH0 PUSH1 0x20 DUP3 DUP5 SUB SLT ISZERO PUSH2 0x19C5 JUMPI PUSH2 0x19C4 PUSH2 0x1832 JUMP JUMPDEST JUMPDEST PUSH0 PUSH2 0x19D2 DUP5 DUP3 DUP6 ADD PUSH2 0x199C JUMP JUMPDEST SWAP2 POP POP SWAP3 SWAP2 POP POP JUMP JUMPDEST PUSH0 PUSH20 0xFFFFFFFFFFFFFFFFFFFFFFFFFFFFFFFFFFFFFFFF DUP3 AND SWAP1 POP SWAP2 SWAP1 POP JUMP JUMPDEST PUSH0 PUSH2 0x1A04 DUP3 PUSH2 0x19DB JUMP JUMPDEST SWAP1 POP SWAP2 SWAP1 POP JUMP JUMPDEST PUSH2 0x1A14 DUP2 PUSH2 0x19FA JUMP JUMPDEST DUP3 MSTORE POP POP JUMP JUMPDEST PUSH0 PUSH1 0x20 DUP3 ADD SWAP1 POP PUSH2 0x1A2D PUSH0 DUP4 ADD DUP5 PUSH2 0x1A0B JUMP JUMPDEST SWAP3 SWAP2 POP POP JUMP JUMPDEST PUSH2 0x1A3C DUP2 PUSH2 0x19FA JUMP JUMPDEST DUP2 EQ PUSH2 0x1A46 JUMPI PUSH0 DUP1 REVERT JUMPDEST POP JUMP JUMPDEST PUSH0 DUP2 CALLDATALOAD SWAP1 POP PUSH2 0x1A57 DUP2 PUSH2 0x1A33 JUMP JUMPDEST SWAP3 SWAP2 POP POP JUMP JUMPDEST PUSH0 DUP1 PUSH1 0x40 DUP4 DUP6 SUB SLT ISZERO PUSH2 0x1A73 JUMPI PUSH2 0x1A72 PUSH2 0x1832 JUMP JUMPDEST JUMPDEST PUSH0 PUSH2 0x1A80 DUP6 DUP3 DUP7 ADD PUSH2 0x1A49 JUMP JUMPDEST SWAP3 POP POP PUSH1 0x20 PUSH2 0x1A91 DUP6 DUP3 DUP7 ADD PUSH2 0x199C JUMP JUMPDEST SWAP2 POP POP SWAP3 POP SWAP3 SWAP1 POP JUMP JUMPDEST PUSH0 DUP1 PUSH0 PUSH1 0x60 DUP5 DUP7 SUB SLT ISZERO PUSH2 0x1AB2 JUMPI PUSH2 0x1AB1 PUSH2 0x1832 JUMP JUMPDEST JUMPDEST PUSH0 PUSH2 0x1ABF DUP7 DUP3 DUP8 ADD PUSH2 0x1A49 JUMP JUMPDEST SWAP4 POP POP PUSH1 0x20 PUSH2 0x1AD0 DUP7 DUP3 DUP8 ADD PUSH2 0x1A49 JUMP JUMPDEST SWAP3 POP POP PUSH1 0x40 PUSH2 0x1AE1 DUP7 DUP3 DUP8 ADD PUSH2 0x199C JUMP JUMPDEST SWAP2 POP POP SWAP3 POP SWAP3 POP SWAP3 JUMP JUMPDEST PUSH0 PUSH1 0x20 DUP3 DUP5 SUB SLT ISZERO PUSH2 0x1B00 JUMPI PUSH2 0x1AFF PUSH2 0x1832 JUMP JUMPDEST JUMPDEST PUSH0 PUSH2 0x1B0D DUP5 DUP3 DUP6 ADD PUSH2 0x1A49 JUMP JUMPDEST SWAP2 POP POP SWAP3 SWAP2 POP POP JUMP JUMPDEST PUSH2 0x1B1F DUP2 PUSH2 0x197D JUMP JUMPDEST DUP3 MSTORE POP POP JUMP JUMPDEST PUSH0 PUSH1 0x20 DUP3 ADD SWAP1 POP PUSH2 0x1B38 PUSH0 DUP4 ADD DUP5 PUSH2 0x1B16 JUMP JUMPDEST SWAP3 SWAP2 POP POP JUMP JUMPDEST PUSH0 PUSH1 0x40 DUP3 ADD SWAP1 POP DUP2 DUP2 SUB PUSH0 DUP4 ADD MSTORE PUSH2 0x1B56 DUP2 DUP6 PUSH2 0x1925 JUMP JUMPDEST SWAP1 POP DUP2 DUP2 SUB PUSH1 0x20 DUP4 ADD MSTORE PUSH2 0x1B6A DUP2 DUP5 PUSH2 0x1925 JUMP JUMPDEST SWAP1 POP SWAP4 SWAP3 POP POP POP JUMP JUMPDEST PUSH0 DUP1 REVERT JUMPDEST PUSH0 DUP1 REVERT JUMPDEST PUSH32 0x4E487B7100000000000000000000000000000000000000000000000000000000 PUSH0 MSTORE PUSH1 0x41 PUSH1 0x4 MSTORE PUSH1 0x24 PUSH0 REVERT JUMPDEST PUSH2 0x1BB1 DUP3 PUSH2 0x1915 JUMP JUMPDEST DUP2 ADD DUP2 DUP2 LT PUSH8 0xFFFFFFFFFFFFFFFF DUP3 GT OR ISZERO PUSH2 0x1BD0 JUMPI PUSH2 0x1BCF PUSH2 0x1B7B JUMP JUMPDEST JUMPDEST DUP1 PUSH1 0x40 MSTORE POP POP POP JUMP JUMPDEST PUSH0 PUSH2 0x1BE2 PUSH2 0x1829 JUMP JUMPDEST SWAP1 POP PUSH2 0x1BEE DUP3 DUP3 PUSH2 0x1BA8 JUMP JUMPDEST SWAP2 SWAP1 POP JUMP JUMPDEST PUSH0 PUSH8 0xFFFFFFFFFFFFFFFF DUP3 GT ISZERO PUSH2 0x1C0D JUMPI PUSH2 0x1C0C PUSH2 0x1B7B JUMP JUMPDEST JUMPDEST PUSH2 0x1C16 DUP3 PUSH2 0x1915 JUMP JUMPDEST SWAP1 POP PUSH1 0x20 DUP2 ADD SWAP1 POP SWAP2 SWAP1 POP JUMP JUMPDEST DUP3 DUP2 DUP4 CALLDATACOPY PUSH0 DUP4 DUP4 ADD MSTORE POP POP POP JUMP JUMPDEST PUSH0 PUSH2 0x1C43 PUSH2 0x1C3E DUP5 PUSH2 0x1BF3 JUMP JUMPDEST PUSH2 0x1BD9 JUMP JUMPDEST SWAP1 POP DUP3 DUP2 MSTORE PUSH1 0x20 DUP2 ADD DUP5 DUP5 DUP5 ADD GT ISZERO PUSH2 0x1C5F JUMPI PUSH2 0x1C5E PUSH2 0x1B77 JUMP JUMPDEST JUMPDEST PUSH2 0x1C6A DUP5 DUP3 DUP6 PUSH2 0x1C23 JUMP JUMPDEST POP SWAP4 SWAP3 POP POP POP JUMP JUMPDEST PUSH0 DUP3 PUSH1 0x1F DUP4 ADD SLT PUSH2 0x1C86 JUMPI PUSH2 0x1C85 PUSH2 0x1B73 JUMP JUMPDEST JUMPDEST DUP2 CALLDATALOAD PUSH2 0x1C96 DUP5 DUP3 PUSH1 0x20 DUP7 ADD PUSH2 0x1C31 JUMP JUMPDEST SWAP2 POP POP SWAP3 SWAP2 POP POP JUMP JUMPDEST PUSH0 DUP1 PUSH0 PUSH1 0x60 DUP5 DUP7 SUB SLT ISZERO PUSH2 0x1CB6 JUMPI PUSH2 0x1CB5 PUSH2 0x1832 JUMP JUMPDEST JUMPDEST PUSH0 PUSH2 0x1CC3 DUP7 DUP3 DUP8 ADD PUSH2 0x1A49 JUMP JUMPDEST SWAP4 POP POP PUSH1 0x20 DUP5 ADD CALLDATALOAD PUSH8 0xFFFFFFFFFFFFFFFF DUP2 GT ISZERO PUSH2 0x1CE4 JUMPI PUSH2 0x1CE3 PUSH2 0x1836 JUMP JUMPDEST JUMPDEST PUSH2 0x1CF0 DUP7 DUP3 DUP8 ADD PUSH2 0x1C72 JUMP JUMPDEST SWAP3 POP POP PUSH1 0x40 DUP5 ADD CALLDATALOAD PUSH8 0xFFFFFFFFFFFFFFFF DUP2 GT ISZERO PUSH2 0x1D11 JUMPI PUSH2 0x1D10 PUSH2 0x1836 JUMP JUMPDEST JUMPDEST PUSH2 0x1D1D DUP7 DUP3 DUP8 ADD PUSH2 0x1C72 JUMP JUMPDEST SWAP2 POP POP SWAP3 POP SWAP3 POP SWAP3 JUMP JUMPDEST PUSH2 0x1D30 DUP2 PUSH2 0x18BA JUMP JUMPDEST DUP2 EQ PUSH2 0x1D3A JUMPI PUSH0 DUP1 REVERT JUMPDEST POP JUMP JUMPDEST PUSH0 DUP2 CALLDATALOAD SWAP1 POP PUSH2 0x1D4B DUP2 PUSH2 0x1D27 JUMP JUMPDEST SWAP3 SWAP2 POP POP JUMP JUMPDEST PUSH0 DUP1 PUSH1 0x40 DUP4 DUP6 SUB SLT ISZERO PUSH2 0x1D67 JUMPI PUSH2 0x1D66 PUSH2 0x1832 JUMP JUMPDEST JUMPDEST PUSH0 PUSH2 0x1D74 DUP6 DUP3 DUP7 ADD PUSH2 0x1A49 JUMP JUMPDEST SWAP3 POP POP PUSH1 0x20 PUSH2 0x1D85 DUP6 DUP3 DUP7 ADD PUSH2 0x1D3D JUMP JUMPDEST SWAP2 POP POP SWAP3 POP SWAP3 SWAP1 POP JUMP JUMPDEST PUSH0 PUSH8 0xFFFFFFFFFFFFFFFF DUP3 GT ISZERO PUSH2 0x1DA9 JUMPI PUSH2 0x1DA8 PUSH2 0x1B7B JUMP JUMPDEST JUMPDEST PUSH2 0x1DB2 DUP3 PUSH2 0x1915 JUMP JUMPDEST SWAP1 POP PUSH1 0x20 DUP2 ADD SWAP1 POP SWAP2 SWAP1 POP JUMP JUMPDEST PUSH0 PUSH2 0x1DD1 PUSH2 0x1DCC DUP5 PUSH2 0x1D8F JUMP JUMPDEST PUSH2 0x1BD9 JUMP JUMPDEST SWAP1 POP DUP3 DUP2 MSTORE PUSH1 0x20 DUP2 ADD DUP5 DUP5 DUP5 ADD GT ISZERO PUSH2 0x1DED JUMPI PUSH2 0x1DEC PUSH2 0x1B77 JUMP JUMPDEST JUMPDEST PUSH2 0x1DF8 DUP5 DUP3 DUP6 PUSH2 0x1C23 JUMP JUMPDEST POP SWAP4 SWAP3 POP POP POP JUMP JUMPDEST PUSH0 DUP3 PUSH1 0x1F DUP4 ADD SLT PUSH2 0x1E14 JUMPI PUSH2 0x1E13 PUSH2 0x1B73 JUMP JUMPDEST JUMPDEST DUP2 CALLDATALOAD PUSH2 0x1E24 DUP5 DUP3 PUSH1 0x20 DUP7 ADD PUSH2 0x1DBF JUMP JUMPDEST SWAP2 POP POP SWAP3 SWAP2 POP POP JUMP JUMPDEST PUSH0 DUP1 PUSH0 DUP1 PUSH1 0x80 DUP6 DUP8 SUB SLT ISZERO PUSH2 0x1E45 JUMPI PUSH2 0x1E44 PUSH2 0x1832 JUMP JUMPDEST JUMPDEST PUSH0 PUSH2 0x1E52 DUP8 DUP3 DUP9 ADD PUSH2 0x1A49 JUMP JUMPDEST SWAP5 POP POP PUSH1 0x20 PUSH2 0x1E63 DUP8 DUP3 DUP9 ADD PUSH2 0x1A49 JUMP JUMPDEST SWAP4 POP POP PUSH1 0x40 PUSH2 0x1E74 DUP8 DUP3 DUP9 ADD PUSH2 0x199C JUMP JUMPDEST SWAP3 POP POP PUSH1 0x60 DUP6 ADD CALLDATALOAD PUSH8 0xFFFFFFFFFFFFFFFF DUP2 GT ISZERO PUSH2 0x1E95 JUMPI PUSH2 0x1E94 PUSH2 0x1836 JUMP JUMPDEST JUMPDEST PUSH2 0x1EA1 DUP8 DUP3 DUP9 ADD PUSH2 0x1E00 JUMP JUMPDEST SWAP2 POP POP SWAP3 SWAP6 SWAP2 SWAP5 POP SWAP3 POP JUMP JUMPDEST PUSH0 DUP1 PUSH1 0x40 DUP4 DUP6 SUB SLT ISZERO PUSH2 0x1EC3 JUMPI PUSH2 0x1EC2 PUSH2 0x1832 JUMP JUMPDEST JUMPDEST PUSH0 PUSH2 0x1ED0 DUP6 DUP3 DUP7 ADD PUSH2 0x1A49 JUMP JUMPDEST SWAP3 POP POP PUSH1 0x20 PUSH2 0x1EE1 DUP6 DUP3 DUP7 ADD PUSH2 0x1A49 JUMP JUMPDEST SWAP2 POP POP SWAP3 POP SWAP3 SWAP1 POP JUMP JUMPDEST PUSH32 0x4E487B7100000000000000000000000000000000000000000000000000000000 PUSH0 MSTORE PUSH1 0x22 PUSH1 0x4 MSTORE PUSH1 0x24 PUSH0 REVERT JUMPDEST PUSH0 PUSH1 0x2 DUP3 DIV SWAP1 POP PUSH1 0x1 DUP3 AND DUP1 PUSH2 0x1F2F JUMPI PUSH1 0x7F DUP3 AND SWAP2 POP JUMPDEST PUSH1 0x20 DUP3 LT DUP2 SUB PUSH2 0x1F42 JUMPI PUSH2 0x1F41 PUSH2 0x1EEB JUMP JUMPDEST JUMPDEST POP SWAP2 SWAP1 POP JUMP JUMPDEST PUSH0 PUSH1 0x60 DUP3 ADD SWAP1 POP PUSH2 0x1F5B PUSH0 DUP4 ADD DUP7 PUSH2 0x1A0B JUMP JUMPDEST PUSH2 0x1F68 PUSH1 0x20 DUP4 ADD DUP6 PUSH2 0x1B16 JUMP JUMPDEST PUSH2 0x1F75 PUSH1 0x40 DUP4 ADD DUP5 PUSH2 0x1A0B JUMP JUMPDEST SWAP5 SWAP4 POP POP POP POP JUMP JUMPDEST PUSH0 DUP2 SWAP1 POP DUP2 PUSH0 MSTORE PUSH1 0x20 PUSH0 KECCAK256 SWAP1 POP SWAP2 SWAP1 POP JUMP JUMPDEST PUSH0 PUSH1 0x20 PUSH1 0x1F DUP4 ADD DIV SWAP1 POP SWAP2 SWAP1 POP JUMP JUMPDEST PUSH0 DUP3 DUP3 SHL SWAP1 POP SWAP3 SWAP2 POP POP JUMP JUMPDEST PUSH0 PUSH1 0x8 DUP4 MUL PUSH2 0x1FD9 PUSH32 0xFFFFFFFFFFFFFFFFFFFFFFFFFFFFFFFFFFFFFFFFFFFFFFFFFFFFFFFFFFFFFFFF DUP3 PUSH2 0x1F9E JUMP JUMPDEST PUSH2 0x1FE3 DUP7 DUP4 PUSH2 0x1F9E JUMP JUMPDEST SWAP6 POP DUP1 NOT DUP5 AND SWAP4 POP DUP1 DUP7 AND DUP5 OR SWAP3 POP POP POP SWAP4 SWAP3 POP POP POP JUMP JUMPDEST PUSH0 DUP2 SWAP1 POP SWAP2 SWAP1 POP JUMP JUMPDEST PUSH0 PUSH2 0x201E PUSH2 0x2019 PUSH2 0x2014 DUP5 PUSH2 0x197D JUMP JUMPDEST PUSH2 0x1FFB JUMP JUMPDEST PUSH2 0x197D JUMP JUMPDEST SWAP1 POP SWAP2 SWAP1 POP JUMP JUMPDEST PUSH0 DUP2 SWAP1 POP SWAP2 SWAP1 POP JUMP JUMPDEST PUSH2 0x2037 DUP4 PUSH2 0x2004 JUMP JUMPDEST PUSH2 0x204B PUSH2 0x2043 DUP3 PUSH2 0x2025 JUMP JUMPDEST DUP5 DUP5 SLOAD PUSH2 0x1FAA JUMP JUMPDEST DUP3 SSTORE POP POP POP POP JUMP JUMPDEST PUSH0 SWAP1 JUMP JUMPDEST PUSH2 0x205F PUSH2 0x2053 JUMP JUMPDEST PUSH2 0x206A DUP2 DUP5 DUP5 PUSH2 0x202E JUMP JUMPDEST POP POP POP JUMP JUMPDEST JUMPDEST DUP2 DUP2 LT ISZERO PUSH2 0x208D JUMPI PUSH2 0x2082 PUSH0 DUP3 PUSH2 0x2057 JUMP JUMPDEST PUSH1 0x1 DUP2 ADD SWAP1 POP PUSH2 0x2070 JUMP JUMPDEST POP POP JUMP JUMPDEST PUSH1 0x1F DUP3 GT ISZERO PUSH2 0x20D2 JUMPI PUSH2 0x20A3 DUP2 PUSH2 0x1F7D JUMP JUMPDEST PUSH2 0x20AC DUP5 PUSH2 0x1F8F JUMP JUMPDEST DUP2 ADD PUSH1 0x20 DUP6 LT ISZERO PUSH2 0x20BB JUMPI DUP2 SWAP1 POP JUMPDEST PUSH2 0x20CF PUSH2 0x20C7 DUP6 PUSH2 0x1F8F JUMP JUMPDEST DUP4 ADD DUP3 PUSH2 0x206F JUMP JUMPDEST POP POP JUMPDEST POP POP POP JUMP JUMPDEST PUSH0 DUP3 DUP3 SHR SWAP1 POP SWAP3 SWAP2 POP POP JUMP JUMPDEST PUSH0 PUSH2 0x20F2 PUSH0 NOT DUP5 PUSH1 0x8 MUL PUSH2 0x20D7 JUMP JUMPDEST NOT DUP1 DUP4 AND SWAP2 POP POP SWAP3 SWAP2 POP POP JUMP JUMPDEST PUSH0 PUSH2 0x210A DUP4 DUP4 PUSH2 0x20E3 JUMP JUMPDEST SWAP2 POP DUP3 PUSH1 0x2 MUL DUP3 OR SWAP1 POP SWAP3 SWAP2 POP POP JUMP JUMPDEST PUSH2 0x2123 DUP3 PUSH2 0x18ED JUMP JUMPDEST PUSH8 0xFFFFFFFFFFFFFFFF DUP2 GT ISZERO PUSH2 0x213C JUMPI PUSH2 0x213B PUSH2 0x1B7B JUMP JUMPDEST JUMPDEST PUSH2 0x2146 DUP3 SLOAD PUSH2 0x1F18 JUMP JUMPDEST PUSH2 0x2151 DUP3 DUP3 DUP6 PUSH2 0x2091 JUMP JUMPDEST PUSH0 PUSH1 0x20 SWAP1 POP PUSH1 0x1F DUP4 GT PUSH1 0x1 DUP2 EQ PUSH2 0x2182 JUMPI PUSH0 DUP5 ISZERO PUSH2 0x2170 JUMPI DUP3 DUP8 ADD MLOAD SWAP1 POP JUMPDEST PUSH2 0x217A DUP6 DUP3 PUSH2 0x20FF JUMP JUMPDEST DUP7 SSTORE POP PUSH2 0x21E1 JUMP JUMPDEST PUSH1 0x1F NOT DUP5 AND PUSH2 0x2190 DUP7 PUSH2 0x1F7D JUMP JUMPDEST PUSH0 JUMPDEST DUP3 DUP2 LT ISZERO PUSH2 0x21B7 JUMPI DUP5 DUP10 ADD MLOAD DUP3 SSTORE PUSH1 0x1 DUP3 ADD SWAP2 POP PUSH1 0x20 DUP6 ADD SWAP5 POP PUSH1 0x20 DUP2 ADD SWAP1 POP PUSH2 0x2192 JUMP JUMPDEST DUP7 DUP4 LT ISZERO PUSH2 0x21D4 JUMPI DUP5 DUP10 ADD MLOAD PUSH2 0x21D0 PUSH1 0x1F DUP10 AND DUP3 PUSH2 0x20E3 JUMP JUMPDEST DUP4 SSTORE POP JUMPDEST PUSH1 0x1 PUSH1 0x2 DUP9 MUL ADD DUP9 SSTORE POP POP POP JUMPDEST POP POP POP POP POP POP JUMP JUMPDEST PUSH32 0x546F6B656E20616C726561647920657869737473000000000000000000000000 PUSH0 DUP3 ADD MSTORE POP JUMP JUMPDEST PUSH0 PUSH2 0x221D PUSH1 0x14 DUP4 PUSH2 0x18F7 JUMP JUMPDEST SWAP2 POP PUSH2 0x2228 DUP3 PUSH2 0x21E9 JUMP JUMPDEST PUSH1 0x20 DUP3 ADD SWAP1 POP SWAP2 SWAP1 POP JUMP JUMPDEST PUSH0 PUSH1 0x20 DUP3 ADD SWAP1 POP DUP2 DUP2 SUB PUSH0 DUP4 ADD MSTORE PUSH2 0x224A DUP2 PUSH2 0x2211 JUMP JUMPDEST SWAP1 POP SWAP2 SWAP1 POP JUMP JUMPDEST PUSH0 DUP2 SWAP1 POP SWAP3 SWAP2 POP POP JUMP JUMPDEST PUSH0 PUSH2 0x2265 DUP3 PUSH2 0x18ED JUMP JUMPDEST PUSH2 0x226F DUP2 DUP6 PUSH2 0x2251 JUMP JUMPDEST SWAP4 POP PUSH2 0x227F DUP2 DUP6 PUSH1 0x20 DUP7 ADD PUSH2 0x1907 JUMP JUMPDEST DUP1 DUP5 ADD SWAP2 POP POP SWAP3 SWAP2 POP POP JUMP JUMPDEST PUSH0 PUSH2 0x2296 DUP3 DUP6 PUSH2 0x225B JUMP JUMPDEST SWAP2 POP PUSH2 0x22A2 DUP3 DUP5 PUSH2 0x225B JUMP JUMPDEST SWAP2 POP DUP2 SWAP1 POP SWAP4 SWAP3 POP POP POP JUMP JUMPDEST PUSH0 DUP2 MLOAD SWAP1 POP SWAP2 SWAP1 POP JUMP JUMPDEST PUSH0 DUP3 DUP3 MSTORE PUSH1 0x20 DUP3 ADD SWAP1 POP SWAP3 SWAP2 POP POP JUMP JUMPDEST PUSH0 PUSH2 0x22D2 DUP3 PUSH2 0x22AE JUMP JUMPDEST PUSH2 0x22DC DUP2 DUP6 PUSH2 0x22B8 JUMP JUMPDEST SWAP4 POP PUSH2 0x22EC DUP2 DUP6 PUSH1 0x20 DUP7 ADD PUSH2 0x1907 JUMP JUMPDEST PUSH2 0x22F5 DUP2 PUSH2 0x1915 JUMP JUMPDEST DUP5 ADD SWAP2 POP POP SWAP3 SWAP2 POP POP JUMP JUMPDEST PUSH0 PUSH1 0x80 DUP3 ADD SWAP1 POP PUSH2 0x2313 PUSH0 DUP4 ADD DUP8 PUSH2 0x1A0B JUMP JUMPDEST PUSH2 0x2320 PUSH1 0x20 DUP4 ADD DUP7 PUSH2 0x1A0B JUMP JUMPDEST PUSH2 0x232D PUSH1 0x40 DUP4 ADD DUP6 PUSH2 0x1B16 JUMP JUMPDEST DUP2 DUP2 SUB PUSH1 0x60 DUP4 ADD MSTORE PUSH2 0x233F DUP2 DUP5 PUSH2 0x22C8 JUMP JUMPDEST SWAP1 POP SWAP6 SWAP5 POP POP POP POP POP JUMP JUMPDEST PUSH0 DUP2 MLOAD SWAP1 POP PUSH2 0x2358 DUP2 PUSH2 0x1865 JUMP JUMPDEST SWAP3 SWAP2 POP POP JUMP JUMPDEST PUSH0 PUSH1 0x20 DUP3 DUP5 SUB SLT ISZERO PUSH2 0x2373 JUMPI PUSH2 0x2372 PUSH2 0x1832 JUMP JUMPDEST JUMPDEST PUSH0 PUSH2 0x2380 DUP5 DUP3 DUP6 ADD PUSH2 0x234A JUMP JUMPDEST SWAP2 POP POP SWAP3 SWAP2 POP POP JUMP JUMPDEST PUSH32 0x4E487B7100000000000000000000000000000000000000000000000000000000 PUSH0 MSTORE PUSH1 0x12 PUSH1 0x4 MSTORE PUSH1 0x24 PUSH0 REVERT JUMPDEST PUSH0 PUSH1 0x40 DUP3 ADD SWAP1 POP PUSH2 0x23C9 PUSH0 DUP4 ADD DUP6 PUSH2 0x1A0B JUMP JUMPDEST PUSH2 0x23D6 PUSH1 0x20 DUP4 ADD DUP5 PUSH2 0x1B16 JUMP JUMPDEST SWAP4 SWAP3 POP POP POP JUMP INVALID LOG2 PUSH5 0x6970667358 0x22 SLT KECCAK256 CALLDATASIZE DUP3 SSTORE SMOD 0xF9 0x2F 0xDA 0xD4 PUSH16 0xCC5863D81A5A14DB947F15C7D93EADDD PUSH7 0xB9964E47E57564 PUSH20 0x6F6C634300081A00330000000000000000000000 "
		},
		"gasEstimates": {
			"creation": {
				"codeDepositCost": "1847000",
				"executionCost": "infinite",
				"totalCost": "infinite"
			},
			"external": {
				"approve(address,uint256)": "infinite",
				"balanceOf(address)": "infinite",
				"exists(uint256)": "2940",
				"getApproved(uint256)": "infinite",
				"images(uint256)": "infinite",
				"isApprovedForAll(address,address)": "infinite",
				"mint(address,string,string)": "infinite",
				"name()": "infinite",
				"ownerOf(uint256)": "infinite",
				"safeTransferFrom(address,address,uint256)": "infinite",
				"safeTransferFrom(address,address,uint256,bytes)": "infinite",
				"setApprovalForAll(address,bool)": "infinite",
				"supportsInterface(bytes4)": "787",
				"symbol()": "infinite",
				"tokenURI(uint256)": "infinite",
				"transferFrom(address,address,uint256)": "infinite"
			}
		},
		"methodIdentifiers": {
			"approve(address,uint256)": "095ea7b3",
			"balanceOf(address)": "70a08231",
			"exists(uint256)": "4f558e79",
			"getApproved(uint256)": "081812fc",
			"images(uint256)": "84856482",
			"isApprovedForAll(address,address)": "e985e9c5",
			"mint(address,string,string)": "99071190",
			"name()": "06fdde03",
			"ownerOf(uint256)": "6352211e",
			"safeTransferFrom(address,address,uint256)": "42842e0e",
			"safeTransferFrom(address,address,uint256,bytes)": "b88d4fde",
			"setApprovalForAll(address,bool)": "a22cb465",
			"supportsInterface(bytes4)": "01ffc9a7",
			"symbol()": "95d89b41",
			"tokenURI(uint256)": "c87b56dd",
			"transferFrom(address,address,uint256)": "23b872dd"
		}
	},
	"abi": [
		{
			"inputs": [
				{
					"internalType": "string",
					"name": "_name",
					"type": "string"
				},
				{
					"internalType": "string",
					"name": "_symbol",
					"type": "string"
				}
			],
			"stateMutability": "nonpayable",
			"type": "constructor"
		},
		{
			"inputs": [
				{
					"internalType": "address",
					"name": "sender",
					"type": "address"
				},
				{
					"internalType": "uint256",
					"name": "tokenId",
					"type": "uint256"
				},
				{
					"internalType": "address",
					"name": "owner",
					"type": "address"
				}
			],
			"name": "ERC721IncorrectOwner",
			"type": "error"
		},
		{
			"inputs": [
				{
					"internalType": "address",
					"name": "operator",
					"type": "address"
				},
				{
					"internalType": "uint256",
					"name": "tokenId",
					"type": "uint256"
				}
			],
			"name": "ERC721InsufficientApproval",
			"type": "error"
		},
		{
			"inputs": [
				{
					"internalType": "address",
					"name": "approver",
					"type": "address"
				}
			],
			"name": "ERC721InvalidApprover",
			"type": "error"
		},
		{
			"inputs": [
				{
					"internalType": "address",
					"name": "operator",
					"type": "address"
				}
			],
			"name": "ERC721InvalidOperator",
			"type": "error"
		},
		{
			"inputs": [
				{
					"internalType": "address",
					"name": "owner",
					"type": "address"
				}
			],
			"name": "ERC721InvalidOwner",
			"type": "error"
		},
		{
			"inputs": [
				{
					"internalType": "address",
					"name": "receiver",
					"type": "address"
				}
			],
			"name": "ERC721InvalidReceiver",
			"type": "error"
		},
		{
			"inputs": [
				{
					"internalType": "address",
					"name": "sender",
					"type": "address"
				}
			],
			"name": "ERC721InvalidSender",
			"type": "error"
		},
		{
			"inputs": [
				{
					"internalType": "uint256",
					"name": "tokenId",
					"type": "uint256"
				}
			],
			"name": "ERC721NonexistentToken",
			"type": "error"
		},
		{
			"anonymous": false,
			"inputs": [
				{
					"indexed": true,
					"internalType": "address",
					"name": "owner",
					"type": "address"
				},
				{
					"indexed": true,
					"internalType": "address",
					"name": "approved",
					"type": "address"
				},
				{
					"indexed": true,
					"internalType": "uint256",
					"name": "tokenId",
					"type": "uint256"
				}
			],
			"name": "Approval",
			"type": "event"
		},
		{
			"anonymous": false,
			"inputs": [
				{
					"indexed": true,
					"internalType": "address",
					"name": "owner",
					"type": "address"
				},
				{
					"indexed": true,
					"internalType": "address",
					"name": "operator",
					"type": "address"
				},
				{
					"indexed": false,
					"internalType": "bool",
					"name": "approved",
					"type": "bool"
				}
			],
			"name": "ApprovalForAll",
			"type": "event"
		},
		{
			"anonymous": false,
			"inputs": [
				{
					"indexed": true,
					"internalType": "address",
					"name": "from",
					"type": "address"
				},
				{
					"indexed": true,
					"internalType": "address",
					"name": "to",
					"type": "address"
				},
				{
					"indexed": true,
					"internalType": "uint256",
					"name": "tokenId",
					"type": "uint256"
				}
			],
			"name": "Transfer",
			"type": "event"
		},
		{
			"inputs": [
				{
					"internalType": "address",
					"name": "to",
					"type": "address"
				},
				{
					"internalType": "uint256",
					"name": "tokenId",
					"type": "uint256"
				}
			],
			"name": "approve",
			"outputs": [],
			"stateMutability": "nonpayable",
			"type": "function"
		},
		{
			"inputs": [
				{
					"internalType": "address",
					"name": "owner",
					"type": "address"
				}
			],
			"name": "balanceOf",
			"outputs": [
				{
					"internalType": "uint256",
					"name": "",
					"type": "uint256"
				}
			],
			"stateMutability": "view",
			"type": "function"
		},
		{
			"inputs": [
				{
					"internalType": "uint256",
					"name": "tokenId",
					"type": "uint256"
				}
			],
			"name": "exists",
			"outputs": [
				{
					"internalType": "bool",
					"name": "",
					"type": "bool"
				}
			],
			"stateMutability": "view",
			"type": "function"
		},
		{
			"inputs": [
				{
					"internalType": "uint256",
					"name": "tokenId",
					"type": "uint256"
				}
			],
			"name": "getApproved",
			"outputs": [
				{
					"internalType": "address",
					"name": "",
					"type": "address"
				}
			],
			"stateMutability": "view",
			"type": "function"
		},
		{
			"inputs": [
				{
					"internalType": "uint256",
					"name": "",
					"type": "uint256"
				}
			],
			"name": "images",
			"outputs": [
				{
					"internalType": "string",
					"name": "name",
					"type": "string"
				},
				{
					"internalType": "string",
					"name": "url",
					"type": "string"
				}
			],
			"stateMutability": "view",
			"type": "function"
		},
		{
			"inputs": [
				{
					"internalType": "address",
					"name": "owner",
					"type": "address"
				},
				{
					"internalType": "address",
					"name": "operator",
					"type": "address"
				}
			],
			"name": "isApprovedForAll",
			"outputs": [
				{
					"internalType": "bool",
					"name": "",
					"type": "bool"
				}
			],
			"stateMutability": "view",
			"type": "function"
		},
		{
			"inputs": [
				{
					"internalType": "address",
					"name": "_to",
					"type": "address"
				},
				{
					"internalType": "string",
					"name": "_name",
					"type": "string"
				},
				{
					"internalType": "string",
					"name": "_url",
					"type": "string"
				}
			],
			"name": "mint",
			"outputs": [],
			"stateMutability": "nonpayable",
			"type": "function"
		},
		{
			"inputs": [],
			"name": "name",
			"outputs": [
				{
					"internalType": "string",
					"name": "",
					"type": "string"
				}
			],
			"stateMutability": "view",
			"type": "function"
		},
		{
			"inputs": [
				{
					"internalType": "uint256",
					"name": "tokenId",
					"type": "uint256"
				}
			],
			"name": "ownerOf",
			"outputs": [
				{
					"internalType": "address",
					"name": "",
					"type": "address"
				}
			],
			"stateMutability": "view",
			"type": "function"
		},
		{
			"inputs": [
				{
					"internalType": "address",
					"name": "from",
					"type": "address"
				},
				{
					"internalType": "address",
					"name": "to",
					"type": "address"
				},
				{
					"internalType": "uint256",
					"name": "tokenId",
					"type": "uint256"
				}
			],
			"name": "safeTransferFrom",
			"outputs": [],
			"stateMutability": "nonpayable",
			"type": "function"
		},
		{
			"inputs": [
				{
					"internalType": "address",
					"name": "from",
					"type": "address"
				},
				{
					"internalType": "address",
					"name": "to",
					"type": "address"
				},
				{
					"internalType": "uint256",
					"name": "tokenId",
					"type": "uint256"
				},
				{
					"internalType": "bytes",
					"name": "data",
					"type": "bytes"
				}
			],
			"name": "safeTransferFrom",
			"outputs": [],
			"stateMutability": "nonpayable",
			"type": "function"
		},
		{
			"inputs": [
				{
					"internalType": "address",
					"name": "operator",
					"type": "address"
				},
				{
					"internalType": "bool",
					"name": "approved",
					"type": "bool"
				}
			],
			"name": "setApprovalForAll",
			"outputs": [],
			"stateMutability": "nonpayable",
			"type": "function"
		},
		{
			"inputs": [
				{
					"internalType": "bytes4",
					"name": "interfaceId",
					"type": "bytes4"
				}
			],
			"name": "supportsInterface",
			"outputs": [
				{
					"internalType": "bool",
					"name": "",
					"type": "bool"
				}
			],
			"stateMutability": "view",
			"type": "function"
		},
		{
			"inputs": [],
			"name": "symbol",
			"outputs": [
				{
					"internalType": "string",
					"name": "",
					"type": "string"
				}
			],
			"stateMutability": "view",
			"type": "function"
		},
		{
			"inputs": [
				{
					"internalType": "uint256",
					"name": "tokenId",
					"type": "uint256"
				}
			],
			"name": "tokenURI",
			"outputs": [
				{
					"internalType": "string",
					"name": "",
					"type": "string"
				}
			],
			"stateMutability": "view",
			"type": "function"
		},
		{
			"inputs": [
				{
					"internalType": "address",
					"name": "from",
					"type": "address"
				},
				{
					"internalType": "address",
					"name": "to",
					"type": "address"
				},
				{
					"internalType": "uint256",
					"name": "tokenId",
					"type": "uint256"
				}
			],
			"name": "transferFrom",
			"outputs": [],
			"stateMutability": "nonpayable",
			"type": "function"
		}
	]
}