{
  "contractName": "CarReservation",
  "abi": [
    {
      "inputs": [],
      "stateMutability": "nonpayable",
      "type": "constructor"
    },
    {
      "inputs": [
        {
          "internalType": "uint256",
          "name": "",
          "type": "uint256"
        }
      ],
      "name": "cars",
      "outputs": [
        {
          "internalType": "uint256",
          "name": "id",
          "type": "uint256"
        },
        {
          "internalType": "string",
          "name": "name",
          "type": "string"
        },
        {
          "internalType": "bool",
          "name": "isReserved",
          "type": "bool"
        },
        {
          "internalType": "address",
          "name": "reservedBy",
          "type": "address"
        }
      ],
      "stateMutability": "view",
      "type": "function",
      "constant": true
    },
    {
      "inputs": [],
      "name": "carsCount",
      "outputs": [
        {
          "internalType": "uint256",
          "name": "",
          "type": "uint256"
        }
      ],
      "stateMutability": "view",
      "type": "function",
      "constant": true
    },
    {
      "inputs": [
        {
          "internalType": "uint256",
          "name": "carId",
          "type": "uint256"
        }
      ],
      "name": "reserveCar",
      "outputs": [],
      "stateMutability": "nonpayable",
      "type": "function"
    },
    {
      "inputs": [
        {
          "internalType": "uint256",
          "name": "carId",
          "type": "uint256"
        }
      ],
      "name": "getCar",
      "outputs": [
        {
          "internalType": "string",
          "name": "",
          "type": "string"
        },
        {
          "internalType": "bool",
          "name": "",
          "type": "bool"
        },
        {
          "internalType": "address",
          "name": "",
          "type": "address"
        }
      ],
      "stateMutability": "view",
      "type": "function",
      "constant": true
    }
  ],
  "bytecode": "0x60806040523480156200001157600080fd5b50620000586040518060400160405280600681526020017f536f6e6174610000000000000000000000000000000000000000000000000000815250620001bc60201b60201c565b6200009e6040518060400160405280600381526020017f5261790000000000000000000000000000000000000000000000000000000000815250620001bc60201b60201c565b620000e46040518060400160405280600581526020017f424d573573000000000000000000000000000000000000000000000000000000815250620001bc60201b60201c565b6200012a6040518060400160405280600881526020017f4772616e64756572000000000000000000000000000000000000000000000000815250620001bc60201b60201c565b620001706040518060400160405280600581526020017f424d573573000000000000000000000000000000000000000000000000000000815250620001bc60201b60201c565b620001b66040518060400160405280600881526020017f4772616e64756572000000000000000000000000000000000000000000000000815250620001bc60201b60201c565b62000693565b60016000815480929190620001d190620002ef565b919050555060405180608001604052806001548152602001828152602001600015158152602001600073ffffffffffffffffffffffffffffffffffffffff168152506000806001548152602001908152602001600020600082015181600001556020820151816001019081620002489190620005ac565b5060408201518160020160006101000a81548160ff02191690831515021790555060608201518160020160016101000a81548173ffffffffffffffffffffffffffffffffffffffff021916908373ffffffffffffffffffffffffffffffffffffffff16021790555090505050565b7f4e487b7100000000000000000000000000000000000000000000000000000000600052601160045260246000fd5b6000819050919050565b6000620002fc82620002e5565b91507fffffffffffffffffffffffffffffffffffffffffffffffffffffffffffffffff8203620003315762000330620002b6565b5b600182019050919050565b600081519050919050565b7f4e487b7100000000000000000000000000000000000000000000000000000000600052604160045260246000fd5b7f4e487b7100000000000000000000000000000000000000000000000000000000600052602260045260246000fd5b60006002820490506001821680620003be57607f821691505b602082108103620003d457620003d362000376565b5b50919050565b60008190508160005260206000209050919050565b60006020601f8301049050919050565b600082821b905092915050565b6000600883026200043e7fffffffffffffffffffffffffffffffffffffffffffffffffffffffffffffffff82620003ff565b6200044a8683620003ff565b95508019841693508086168417925050509392505050565b6000819050919050565b60006200048d620004876200048184620002e5565b62000462565b620002e5565b9050919050565b6000819050919050565b620004a9836200046c565b620004c1620004b88262000494565b8484546200040c565b825550505050565b600090565b620004d8620004c9565b620004e58184846200049e565b505050565b5b818110156200050d5762000501600082620004ce565b600181019050620004eb565b5050565b601f8211156200055c576200052681620003da565b6200053184620003ef565b8101602085101562000541578190505b620005596200055085620003ef565b830182620004ea565b50505b505050565b600082821c905092915050565b6000620005816000198460080262000561565b1980831691505092915050565b60006200059c83836200056e565b9150826002028217905092915050565b620005b7826200033c565b67ffffffffffffffff811115620005d357620005d262000347565b5b620005df8254620003a5565b620005ec82828562000511565b600060209050601f8311600181146200062457600084156200060f578287015190505b6200061b85826200058e565b8655506200068b565b601f1984166200063486620003da565b60005b828110156200065e5784890151825560018201915060208501945060208101905062000637565b868310156200067e57848901516200067a601f8916826200056e565b8355505b6001600288020188555050505b505050505050565b6107da80620006a36000396000f3fe608060405234801561001057600080fd5b506004361061004c5760003560e01c806350ab1a01146100515780635e8be1901461006d578063c3d97a271461009f578063f7746e36146100bd575b600080fd5b61006b6004803603810190610066919061049f565b6100f0565b005b6100876004803603810190610082919061049f565b610229565b604051610096939291906105b8565b60405180910390f35b6100a7610379565b6040516100b49190610605565b60405180910390f35b6100d760048036038101906100d2919061049f565b61037f565b6040516100e79493929190610620565b60405180910390f35b60008111801561010257506001548111155b610141576040517f08c379a0000000000000000000000000000000000000000000000000000000008152600401610138906106b8565b60405180910390fd5b60008082815260200190815260200160002060020160009054906101000a900460ff16156101a4576040517f08c379a000000000000000000000000000000000000000000000000000000000815260040161019b90610724565b60405180910390fd5b600160008083815260200190815260200160002060020160006101000a81548160ff0219169083151502179055503360008083815260200190815260200160002060020160016101000a81548173ffffffffffffffffffffffffffffffffffffffff021916908373ffffffffffffffffffffffffffffffffffffffff16021790555050565b606060008060008060008681526020019081526020016000206040518060800160405290816000820154815260200160018201805461026790610773565b80601f016020809104026020016040519081016040528092919081815260200182805461029390610773565b80156102e05780601f106102b5576101008083540402835291602001916102e0565b820191906000526020600020905b8154815290600101906020018083116102c357829003601f168201915b505050505081526020016002820160009054906101000a900460ff161515151581526020016002820160019054906101000a900473ffffffffffffffffffffffffffffffffffffffff1673ffffffffffffffffffffffffffffffffffffffff1673ffffffffffffffffffffffffffffffffffffffff16815250509050806020015181604001518260600151935093509350509193909250565b60015481565b60006020528060005260406000206000915090508060000154908060010180546103a890610773565b80601f01602080910402602001604051908101604052809291908181526020018280546103d490610773565b80156104215780601f106103f657610100808354040283529160200191610421565b820191906000526020600020905b81548152906001019060200180831161040457829003601f168201915b5050505050908060020160009054906101000a900460ff16908060020160019054906101000a900473ffffffffffffffffffffffffffffffffffffffff16905084565b600080fd5b6000819050919050565b61047c81610469565b811461048757600080fd5b50565b60008135905061049981610473565b92915050565b6000602082840312156104b5576104b4610464565b5b60006104c38482850161048a565b91505092915050565b600081519050919050565b600082825260208201905092915050565b60005b838110156105065780820151818401526020810190506104eb565b60008484015250505050565b6000601f19601f8301169050919050565b600061052e826104cc565b61053881856104d7565b93506105488185602086016104e8565b61055181610512565b840191505092915050565b60008115159050919050565b6105718161055c565b82525050565b600073ffffffffffffffffffffffffffffffffffffffff82169050919050565b60006105a282610577565b9050919050565b6105b281610597565b82525050565b600060608201905081810360008301526105d28186610523565b90506105e16020830185610568565b6105ee60408301846105a9565b949350505050565b6105ff81610469565b82525050565b600060208201905061061a60008301846105f6565b92915050565b600060808201905061063560008301876105f6565b81810360208301526106478186610523565b90506106566040830185610568565b61066360608301846105a9565b95945050505050565b7f496e76616c696420636172204944000000000000000000000000000000000000600082015250565b60006106a2600e836104d7565b91506106ad8261066c565b602082019050919050565b600060208201905081810360008301526106d181610695565b9050919050565b7f43617220697320616c7265616479207265736572766564000000000000000000600082015250565b600061070e6017836104d7565b9150610719826106d8565b602082019050919050565b6000602082019050818103600083015261073d81610701565b9050919050565b7f4e487b7100000000000000000000000000000000000000000000000000000000600052602260045260246000fd5b6000600282049050600182168061078b57607f821691505b60208210810361079e5761079d610744565b5b5091905056fea2646970667358221220b411c14a0a0fc6e9bcc8ed99af8cadcabbc6aee05fa77f56928398bca350b9db64736f6c63430008130033",
  "immutableReferences": {},
  "source": "// SPDX-License-Identifier: MIT\r\npragma solidity ^0.8.0;\r\n\r\ncontract CarReservation{\r\n\r\n    struct Car{\r\n        uint id;\r\n        string name;\r\n        bool isReserved; // false\r\n        address reservedBy;\r\n    }\r\n\r\n    mapping (uint => Car) public cars;\r\n    \r\n    uint public carsCount;\r\n\r\n    constructor(){\r\n        addCar(\"Sonata\");\r\n        addCar(\"Ray\");\r\n        addCar(\"BMW5s\");\r\n        addCar(\"Granduer\");\r\n        addCar(\"BMW5s\");\r\n        addCar(\"Granduer\");\r\n    }\r\n\r\n\r\n    function addCar(string memory name) private {\r\n        carsCount++;\r\n        cars[carsCount] = Car(carsCount, name, false, address(0));\r\n    }\r\n\r\n    function reserveCar(uint carId) public {\r\n        require(carId > 0 && carId <= carsCount, \"Invalid car ID\");\r\n        require(!cars[carId].isReserved, \"Car is already reserved\");\r\n        \r\n        cars[carId].isReserved = true;\r\n        cars[carId].reservedBy = msg.sender;\r\n    }\r\n\r\n    function getCar(uint carId) public view returns (string memory, bool, address) {\r\n        Car memory car = cars[carId];\r\n        return(car.name, car.isReserved, car.reservedBy);\r\n    }\r\n\r\n\r\n}",
  "sourcePath": "C:\\ljs\\solidity\\car\\contracts\\CarReservation.sol",
  "compiler": {
    "name": "solc",
    "version": "0.8.19+commit.7dd6d404.Emscripten.clang"
  },
  "schemaVersion": "3.4.16",
  "updatedAt": "2024-12-27T02:29:49.568Z",
  "networkType": "ethereum",
  "devdoc": {
    "kind": "dev",
    "methods": {},
    "version": 1
  },
  "userdoc": {
    "kind": "user",
    "methods": {},
    "version": 1
  }
}