{
  "contractName": "MyERC721Token",
  "abi": [
    {
      "inputs": [],
      "stateMutability": "nonpayable",
      "type": "constructor"
    },
    {
      "inputs": [
        {
          "internalType": "address",
          "name": "sender",
          "type": "address"
        },
        {
          "internalType": "uint256",
          "name": "tokenId",
          "type": "uint256"
        },
        {
          "internalType": "address",
          "name": "owner",
          "type": "address"
        }
      ],
      "name": "ERC721IncorrectOwner",
      "type": "error"
    },
    {
      "inputs": [
        {
          "internalType": "address",
          "name": "operator",
          "type": "address"
        },
        {
          "internalType": "uint256",
          "name": "tokenId",
          "type": "uint256"
        }
      ],
      "name": "ERC721InsufficientApproval",
      "type": "error"
    },
    {
      "inputs": [
        {
          "internalType": "address",
          "name": "approver",
          "type": "address"
        }
      ],
      "name": "ERC721InvalidApprover",
      "type": "error"
    },
    {
      "inputs": [
        {
          "internalType": "address",
          "name": "operator",
          "type": "address"
        }
      ],
      "name": "ERC721InvalidOperator",
      "type": "error"
    },
    {
      "inputs": [
        {
          "internalType": "address",
          "name": "owner",
          "type": "address"
        }
      ],
      "name": "ERC721InvalidOwner",
      "type": "error"
    },
    {
      "inputs": [
        {
          "internalType": "address",
          "name": "receiver",
          "type": "address"
        }
      ],
      "name": "ERC721InvalidReceiver",
      "type": "error"
    },
    {
      "inputs": [
        {
          "internalType": "address",
          "name": "sender",
          "type": "address"
        }
      ],
      "name": "ERC721InvalidSender",
      "type": "error"
    },
    {
      "inputs": [
        {
          "internalType": "uint256",
          "name": "tokenId",
          "type": "uint256"
        }
      ],
      "name": "ERC721NonexistentToken",
      "type": "error"
    },
    {
      "anonymous": false,
      "inputs": [
        {
          "indexed": true,
          "internalType": "address",
          "name": "owner",
          "type": "address"
        },
        {
          "indexed": true,
          "internalType": "address",
          "name": "approved",
          "type": "address"
        },
        {
          "indexed": true,
          "internalType": "uint256",
          "name": "tokenId",
          "type": "uint256"
        }
      ],
      "name": "Approval",
      "type": "event"
    },
    {
      "anonymous": false,
      "inputs": [
        {
          "indexed": true,
          "internalType": "address",
          "name": "owner",
          "type": "address"
        },
        {
          "indexed": true,
          "internalType": "address",
          "name": "operator",
          "type": "address"
        },
        {
          "indexed": false,
          "internalType": "bool",
          "name": "approved",
          "type": "bool"
        }
      ],
      "name": "ApprovalForAll",
      "type": "event"
    },
    {
      "anonymous": false,
      "inputs": [
        {
          "indexed": true,
          "internalType": "address",
          "name": "from",
          "type": "address"
        },
        {
          "indexed": true,
          "internalType": "address",
          "name": "to",
          "type": "address"
        },
        {
          "indexed": true,
          "internalType": "uint256",
          "name": "tokenId",
          "type": "uint256"
        }
      ],
      "name": "Transfer",
      "type": "event"
    },
    {
      "inputs": [
        {
          "internalType": "address",
          "name": "to",
          "type": "address"
        },
        {
          "internalType": "uint256",
          "name": "tokenId",
          "type": "uint256"
        }
      ],
      "name": "approve",
      "outputs": [],
      "stateMutability": "nonpayable",
      "type": "function"
    },
    {
      "inputs": [
        {
          "internalType": "address",
          "name": "owner",
          "type": "address"
        }
      ],
      "name": "balanceOf",
      "outputs": [
        {
          "internalType": "uint256",
          "name": "",
          "type": "uint256"
        }
      ],
      "stateMutability": "view",
      "type": "function"
    },
    {
      "inputs": [
        {
          "internalType": "uint256",
          "name": "tokenId",
          "type": "uint256"
        }
      ],
      "name": "getApproved",
      "outputs": [
        {
          "internalType": "address",
          "name": "",
          "type": "address"
        }
      ],
      "stateMutability": "view",
      "type": "function"
    },
    {
      "inputs": [
        {
          "internalType": "address",
          "name": "owner",
          "type": "address"
        },
        {
          "internalType": "address",
          "name": "operator",
          "type": "address"
        }
      ],
      "name": "isApprovedForAll",
      "outputs": [
        {
          "internalType": "bool",
          "name": "",
          "type": "bool"
        }
      ],
      "stateMutability": "view",
      "type": "function"
    },
    {
      "inputs": [],
      "name": "name",
      "outputs": [
        {
          "internalType": "string",
          "name": "",
          "type": "string"
        }
      ],
      "stateMutability": "view",
      "type": "function"
    },
    {
      "inputs": [
        {
          "internalType": "uint256",
          "name": "tokenId",
          "type": "uint256"
        }
      ],
      "name": "ownerOf",
      "outputs": [
        {
          "internalType": "address",
          "name": "",
          "type": "address"
        }
      ],
      "stateMutability": "view",
      "type": "function"
    },
    {
      "inputs": [
        {
          "internalType": "address",
          "name": "from",
          "type": "address"
        },
        {
          "internalType": "address",
          "name": "to",
          "type": "address"
        },
        {
          "internalType": "uint256",
          "name": "tokenId",
          "type": "uint256"
        }
      ],
      "name": "safeTransferFrom",
      "outputs": [],
      "stateMutability": "nonpayable",
      "type": "function"
    },
    {
      "inputs": [
        {
          "internalType": "address",
          "name": "from",
          "type": "address"
        },
        {
          "internalType": "address",
          "name": "to",
          "type": "address"
        },
        {
          "internalType": "uint256",
          "name": "tokenId",
          "type": "uint256"
        },
        {
          "internalType": "bytes",
          "name": "data",
          "type": "bytes"
        }
      ],
      "name": "safeTransferFrom",
      "outputs": [],
      "stateMutability": "nonpayable",
      "type": "function"
    },
    {
      "inputs": [
        {
          "internalType": "address",
          "name": "operator",
          "type": "address"
        },
        {
          "internalType": "bool",
          "name": "approved",
          "type": "bool"
        }
      ],
      "name": "setApprovalForAll",
      "outputs": [],
      "stateMutability": "nonpayable",
      "type": "function"
    },
    {
      "inputs": [
        {
          "internalType": "bytes4",
          "name": "interfaceId",
          "type": "bytes4"
        }
      ],
      "name": "supportsInterface",
      "outputs": [
        {
          "internalType": "bool",
          "name": "",
          "type": "bool"
        }
      ],
      "stateMutability": "view",
      "type": "function"
    },
    {
      "inputs": [],
      "name": "symbol",
      "outputs": [
        {
          "internalType": "string",
          "name": "",
          "type": "string"
        }
      ],
      "stateMutability": "view",
      "type": "function"
    },
    {
      "inputs": [
        {
          "internalType": "uint256",
          "name": "tokenId",
          "type": "uint256"
        }
      ],
      "name": "tokenURI",
      "outputs": [
        {
          "internalType": "string",
          "name": "",
          "type": "string"
        }
      ],
      "stateMutability": "view",
      "type": "function"
    },
    {
      "inputs": [
        {
          "internalType": "address",
          "name": "from",
          "type": "address"
        },
        {
          "internalType": "address",
          "name": "to",
          "type": "address"
        },
        {
          "internalType": "uint256",
          "name": "tokenId",
          "type": "uint256"
        }
      ],
      "name": "transferFrom",
      "outputs": [],
      "stateMutability": "nonpayable",
      "type": "function"
    },
    {
      "inputs": [
        {
          "internalType": "address",
          "name": "_to",
          "type": "address"
        },
        {
          "internalType": "uint256",
          "name": "_grade",
          "type": "uint256"
        },
        {
          "internalType": "string",
          "name": "_name",
          "type": "string"
        }
      ],
      "name": "mint",
      "outputs": [],
      "stateMutability": "nonpayable",
      "type": "function"
    }
  ],
  "bytecode": "0x608060405234801562000010575f80fd5b506040518060400160405280600a81526020017f4d79546f6b656e373231000000000000000000000000000000000000000000008152506040518060400160405280600581526020017f4d54373231000000000000000000000000000000000000000000000000000000815250815f90816200008d91906200030c565b5080600190816200009f91906200030c565b505050620003f0565b5f81519050919050565b7f4e487b71000000000000000000000000000000000000000000000000000000005f52604160045260245ffd5b7f4e487b71000000000000000000000000000000000000000000000000000000005f52602260045260245ffd5b5f60028204905060018216806200012457607f821691505b6020821081036200013a5762000139620000df565b5b50919050565b5f819050815f5260205f209050919050565b5f6020601f8301049050919050565b5f82821b905092915050565b5f600883026200019e7fffffffffffffffffffffffffffffffffffffffffffffffffffffffffffffffff8262000161565b620001aa868362000161565b95508019841693508086168417925050509392505050565b5f819050919050565b5f819050919050565b5f620001f4620001ee620001e884620001c2565b620001cb565b620001c2565b9050919050565b5f819050919050565b6200020f83620001d4565b620002276200021e82620001fb565b8484546200016d565b825550505050565b5f90565b6200023d6200022f565b6200024a81848462000204565b505050565b5b818110156200027157620002655f8262000233565b60018101905062000250565b5050565b601f821115620002c0576200028a8162000140565b620002958462000152565b81016020851015620002a5578190505b620002bd620002b48562000152565b8301826200024f565b50505b505050565b5f82821c905092915050565b5f620002e25f1984600802620002c5565b1980831691505092915050565b5f620002fc8383620002d1565b9150826002028217905092915050565b6200031782620000a8565b67ffffffffffffffff811115620003335762000332620000b2565b5b6200033f82546200010c565b6200034c82828562000275565b5f60209050601f83116001811462000382575f84156200036d578287015190505b620003798582620002ef565b865550620003e8565b601f198416620003928662000140565b5f5b82811015620003bb5784890151825560018201915060208501945060208101905062000394565b86831015620003db5784890151620003d7601f891682620002d1565b8355505b6001600288020188555050505b505050505050565b61212d80620003fe5f395ff3fe608060405234801561000f575f80fd5b50600436106100e8575f3560e01c806370a082311161008a578063b88d4fde11610064578063b88d4fde14610258578063c87b56dd14610274578063d3fc9864146102a4578063e985e9c5146102c0576100e8565b806370a08231146101ee57806395d89b411461021e578063a22cb4651461023c576100e8565b8063095ea7b3116100c6578063095ea7b31461016a57806323b872dd1461018657806342842e0e146101a25780636352211e146101be576100e8565b806301ffc9a7146100ec57806306fdde031461011c578063081812fc1461013a575b5f80fd5b61010660048036038101906101019190611648565b6102f0565b604051610113919061168d565b60405180910390f35b6101246103d1565b6040516101319190611730565b60405180910390f35b610154600480360381019061014f9190611783565b610460565b60405161016191906117ed565b60405180910390f35b610184600480360381019061017f9190611830565b61047b565b005b6101a0600480360381019061019b919061186e565b610491565b005b6101bc60048036038101906101b7919061186e565b610590565b005b6101d860048036038101906101d39190611783565b6105af565b6040516101e591906117ed565b60405180910390f35b610208600480360381019061020391906118be565b6105c0565b60405161021591906118f8565b60405180910390f35b610226610676565b6040516102339190611730565b60405180910390f35b6102566004803603810190610251919061193b565b610706565b005b610272600480360381019061026d9190611aa5565b61071c565b005b61028e60048036038101906102899190611783565b610741565b60405161029b9190611730565b60405180910390f35b6102be60048036038101906102b99190611bc3565b6107a7565b005b6102da60048036038101906102d59190611c2f565b610854565b6040516102e7919061168d565b60405180910390f35b5f7f80ac58cd000000000000000000000000000000000000000000000000000000007bffffffffffffffffffffffffffffffffffffffffffffffffffffffff1916827bffffffffffffffffffffffffffffffffffffffffffffffffffffffff191614806103ba57507f5b5e139f000000000000000000000000000000000000000000000000000000007bffffffffffffffffffffffffffffffffffffffffffffffffffffffff1916827bffffffffffffffffffffffffffffffffffffffffffffffffffffffff1916145b806103ca57506103c9826108e2565b5b9050919050565b60605f80546103df90611c9a565b80601f016020809104026020016040519081016040528092919081815260200182805461040b90611c9a565b80156104565780601f1061042d57610100808354040283529160200191610456565b820191905f5260205f20905b81548152906001019060200180831161043957829003601f168201915b5050505050905090565b5f61046a8261094b565b50610474826109d1565b9050919050565b61048d8282610488610a0a565b610a11565b5050565b5f73ffffffffffffffffffffffffffffffffffffffff168273ffffffffffffffffffffffffffffffffffffffff1603610501575f6040517f64a0ae920000000000000000000000000000000000000000000000000000000081526004016104f891906117ed565b60405180910390fd5b5f610514838361050f610a0a565b610a23565b90508373ffffffffffffffffffffffffffffffffffffffff168173ffffffffffffffffffffffffffffffffffffffff161461058a578382826040517f64283d7b00000000000000000000000000000000000000000000000000000000815260040161058193929190611cca565b60405180910390fd5b50505050565b6105aa83838360405180602001604052805f81525061071c565b505050565b5f6105b98261094b565b9050919050565b5f8073ffffffffffffffffffffffffffffffffffffffff168273ffffffffffffffffffffffffffffffffffffffff1603610631575f6040517f89c62b6400000000000000000000000000000000000000000000000000000000815260040161062891906117ed565b60405180910390fd5b60035f8373ffffffffffffffffffffffffffffffffffffffff1673ffffffffffffffffffffffffffffffffffffffff1681526020019081526020015f20549050919050565b60606001805461068590611c9a565b80601f01602080910402602001604051908101604052809291908181526020018280546106b190611c9a565b80156106fc5780601f106106d3576101008083540402835291602001916106fc565b820191905f5260205f20905b8154815290600101906020018083116106df57829003601f168201915b5050505050905090565b610718610711610a0a565b8383610c2e565b5050565b610727848484610491565b61073b610732610a0a565b85858585610d97565b50505050565b606061074c8261094b565b505f610756610f43565b90505f8151116107745760405180602001604052805f81525061079f565b8061077e84610f59565b60405160200161078f929190611d39565b6040516020818303038152906040525b915050919050565b5f73ffffffffffffffffffffffffffffffffffffffff168373ffffffffffffffffffffffffffffffffffffffff16036107de575f80fd5b5f60068054905090506006604051806040016040528085815260200184815250908060018154018082558091505060019003905f5260205f2090600202015f909190919091505f820151815f015560208201518160010190816108419190611ef9565b50505061084e8482611023565b50505050565b5f60055f8473ffffffffffffffffffffffffffffffffffffffff1673ffffffffffffffffffffffffffffffffffffffff1681526020019081526020015f205f8373ffffffffffffffffffffffffffffffffffffffff1673ffffffffffffffffffffffffffffffffffffffff1681526020019081526020015f205f9054906101000a900460ff16905092915050565b5f7f01ffc9a7000000000000000000000000000000000000000000000000000000007bffffffffffffffffffffffffffffffffffffffffffffffffffffffff1916827bffffffffffffffffffffffffffffffffffffffffffffffffffffffff1916149050919050565b5f8061095683611116565b90505f73ffffffffffffffffffffffffffffffffffffffff168173ffffffffffffffffffffffffffffffffffffffff16036109c857826040517f7e2732890000000000000000000000000000000000000000000000000000000081526004016109bf91906118f8565b60405180910390fd5b80915050919050565b5f60045f8381526020019081526020015f205f9054906101000a900473ffffffffffffffffffffffffffffffffffffffff169050919050565b5f33905090565b610a1e838383600161114f565b505050565b5f80610a2e84611116565b90505f73ffffffffffffffffffffffffffffffffffffffff168373ffffffffffffffffffffffffffffffffffffffff1614610a6f57610a6e81848661130e565b5b5f73ffffffffffffffffffffffffffffffffffffffff168173ffffffffffffffffffffffffffffffffffffffff1614610afa57610aae5f855f8061114f565b600160035f8373ffffffffffffffffffffffffffffffffffffffff1673ffffffffffffffffffffffffffffffffffffffff1681526020019081526020015f205f82825403925050819055505b5f73ffffffffffffffffffffffffffffffffffffffff168573ffffffffffffffffffffffffffffffffffffffff1614610b7957600160035f8773ffffffffffffffffffffffffffffffffffffffff1673ffffffffffffffffffffffffffffffffffffffff1681526020019081526020015f205f82825401925050819055505b8460025f8681526020019081526020015f205f6101000a81548173ffffffffffffffffffffffffffffffffffffffff021916908373ffffffffffffffffffffffffffffffffffffffff160217905550838573ffffffffffffffffffffffffffffffffffffffff168273ffffffffffffffffffffffffffffffffffffffff167fddf252ad1be2c89b69c2b068fc378daa952ba7f163c4a11628f55a4df523b3ef60405160405180910390a4809150509392505050565b5f73ffffffffffffffffffffffffffffffffffffffff168273ffffffffffffffffffffffffffffffffffffffff1603610c9e57816040517f5b08ba18000000000000000000000000000000000000000000000000000000008152600401610c9591906117ed565b60405180910390fd5b8060055f8573ffffffffffffffffffffffffffffffffffffffff1673ffffffffffffffffffffffffffffffffffffffff1681526020019081526020015f205f8473ffffffffffffffffffffffffffffffffffffffff1673ffffffffffffffffffffffffffffffffffffffff1681526020019081526020015f205f6101000a81548160ff0219169083151502179055508173ffffffffffffffffffffffffffffffffffffffff168373ffffffffffffffffffffffffffffffffffffffff167f17307eab39ab6107e8899845ad3d59bd9653f200f220920489ca2b5937696c3183604051610d8a919061168d565b60405180910390a3505050565b5f8373ffffffffffffffffffffffffffffffffffffffff163b1115610f3c578273ffffffffffffffffffffffffffffffffffffffff1663150b7a02868685856040518563ffffffff1660e01b8152600401610df5949392919061201a565b6020604051808303815f875af1925050508015610e3057506040513d601f19601f82011682018060405250810190610e2d9190612078565b60015b610eb1573d805f8114610e5e576040519150601f19603f3d011682016040523d82523d5f602084013e610e63565b606091505b505f815103610ea957836040517f64a0ae92000000000000000000000000000000000000000000000000000000008152600401610ea091906117ed565b60405180910390fd5b805181602001fd5b63150b7a0260e01b7bffffffffffffffffffffffffffffffffffffffffffffffffffffffff1916817bffffffffffffffffffffffffffffffffffffffffffffffffffffffff191614610f3a57836040517f64a0ae92000000000000000000000000000000000000000000000000000000008152600401610f3191906117ed565b60405180910390fd5b505b5050505050565b606060405180602001604052805f815250905090565b60605f6001610f67846113d1565b0190505f8167ffffffffffffffff811115610f8557610f84611981565b5b6040519080825280601f01601f191660200182016040528015610fb75781602001600182028036833780820191505090505b5090505f82602001820190505b600115611018578080600190039150507f3031323334353637383961626364656600000000000000000000000000000000600a86061a8153600a858161100d5761100c6120a3565b5b0494505f8503610fc4575b819350505050919050565b5f73ffffffffffffffffffffffffffffffffffffffff168273ffffffffffffffffffffffffffffffffffffffff1603611093575f6040517f64a0ae9200000000000000000000000000000000000000000000000000000000815260040161108a91906117ed565b60405180910390fd5b5f61109f83835f610a23565b90505f73ffffffffffffffffffffffffffffffffffffffff168173ffffffffffffffffffffffffffffffffffffffff1614611111575f6040517f73c6ac6e00000000000000000000000000000000000000000000000000000000815260040161110891906117ed565b60405180910390fd5b505050565b5f60025f8381526020019081526020015f205f9054906101000a900473ffffffffffffffffffffffffffffffffffffffff169050919050565b808061118757505f73ffffffffffffffffffffffffffffffffffffffff168273ffffffffffffffffffffffffffffffffffffffff1614155b156112b9575f6111968461094b565b90505f73ffffffffffffffffffffffffffffffffffffffff168373ffffffffffffffffffffffffffffffffffffffff161415801561120057508273ffffffffffffffffffffffffffffffffffffffff168173ffffffffffffffffffffffffffffffffffffffff1614155b801561121357506112118184610854565b155b1561125557826040517fa9fbf51f00000000000000000000000000000000000000000000000000000000815260040161124c91906117ed565b60405180910390fd5b81156112b757838573ffffffffffffffffffffffffffffffffffffffff168273ffffffffffffffffffffffffffffffffffffffff167f8c5be1e5ebec7d5bd14f71427d1e84f3dd0314c0f7b2291e5b200ac8c7c3b92560405160405180910390a45b505b8360045f8581526020019081526020015f205f6101000a81548173ffffffffffffffffffffffffffffffffffffffff021916908373ffffffffffffffffffffffffffffffffffffffff16021790555050505050565b611319838383611522565b6113cc575f73ffffffffffffffffffffffffffffffffffffffff168373ffffffffffffffffffffffffffffffffffffffff160361138d57806040517f7e27328900000000000000000000000000000000000000000000000000000000815260040161138491906118f8565b60405180910390fd5b81816040517f177e802f0000000000000000000000000000000000000000000000000000000081526004016113c39291906120d0565b60405180910390fd5b505050565b5f805f90507a184f03e93ff9f4daa797ed6e38ed64bf6a1f010000000000000000831061142d577a184f03e93ff9f4daa797ed6e38ed64bf6a1f0100000000000000008381611423576114226120a3565b5b0492506040810190505b6d04ee2d6d415b85acef8100000000831061146a576d04ee2d6d415b85acef810000000083816114605761145f6120a3565b5b0492506020810190505b662386f26fc10000831061149957662386f26fc10000838161148f5761148e6120a3565b5b0492506010810190505b6305f5e10083106114c2576305f5e10083816114b8576114b76120a3565b5b0492506008810190505b61271083106114e75761271083816114dd576114dc6120a3565b5b0492506004810190505b6064831061150a5760648381611500576114ff6120a3565b5b0492506002810190505b600a8310611519576001810190505b80915050919050565b5f8073ffffffffffffffffffffffffffffffffffffffff168373ffffffffffffffffffffffffffffffffffffffff16141580156115d957508273ffffffffffffffffffffffffffffffffffffffff168473ffffffffffffffffffffffffffffffffffffffff16148061159a57506115998484610854565b5b806115d857508273ffffffffffffffffffffffffffffffffffffffff166115c0836109d1565b73ffffffffffffffffffffffffffffffffffffffff16145b5b90509392505050565b5f604051905090565b5f80fd5b5f80fd5b5f7fffffffff0000000000000000000000000000000000000000000000000000000082169050919050565b611627816115f3565b8114611631575f80fd5b50565b5f813590506116428161161e565b92915050565b5f6020828403121561165d5761165c6115eb565b5b5f61166a84828501611634565b91505092915050565b5f8115159050919050565b61168781611673565b82525050565b5f6020820190506116a05f83018461167e565b92915050565b5f81519050919050565b5f82825260208201905092915050565b5f5b838110156116dd5780820151818401526020810190506116c2565b5f8484015250505050565b5f601f19601f8301169050919050565b5f611702826116a6565b61170c81856116b0565b935061171c8185602086016116c0565b611725816116e8565b840191505092915050565b5f6020820190508181035f83015261174881846116f8565b905092915050565b5f819050919050565b61176281611750565b811461176c575f80fd5b50565b5f8135905061177d81611759565b92915050565b5f60208284031215611798576117976115eb565b5b5f6117a58482850161176f565b91505092915050565b5f73ffffffffffffffffffffffffffffffffffffffff82169050919050565b5f6117d7826117ae565b9050919050565b6117e7816117cd565b82525050565b5f6020820190506118005f8301846117de565b92915050565b61180f816117cd565b8114611819575f80fd5b50565b5f8135905061182a81611806565b92915050565b5f8060408385031215611846576118456115eb565b5b5f6118538582860161181c565b92505060206118648582860161176f565b9150509250929050565b5f805f60608486031215611885576118846115eb565b5b5f6118928682870161181c565b93505060206118a38682870161181c565b92505060406118b48682870161176f565b9150509250925092565b5f602082840312156118d3576118d26115eb565b5b5f6118e08482850161181c565b91505092915050565b6118f281611750565b82525050565b5f60208201905061190b5f8301846118e9565b92915050565b61191a81611673565b8114611924575f80fd5b50565b5f8135905061193581611911565b92915050565b5f8060408385031215611951576119506115eb565b5b5f61195e8582860161181c565b925050602061196f85828601611927565b9150509250929050565b5f80fd5b5f80fd5b7f4e487b71000000000000000000000000000000000000000000000000000000005f52604160045260245ffd5b6119b7826116e8565b810181811067ffffffffffffffff821117156119d6576119d5611981565b5b80604052505050565b5f6119e86115e2565b90506119f482826119ae565b919050565b5f67ffffffffffffffff821115611a1357611a12611981565b5b611a1c826116e8565b9050602081019050919050565b828183375f83830152505050565b5f611a49611a44846119f9565b6119df565b905082815260208101848484011115611a6557611a6461197d565b5b611a70848285611a29565b509392505050565b5f82601f830112611a8c57611a8b611979565b5b8135611a9c848260208601611a37565b91505092915050565b5f805f8060808587031215611abd57611abc6115eb565b5b5f611aca8782880161181c565b9450506020611adb8782880161181c565b9350506040611aec8782880161176f565b925050606085013567ffffffffffffffff811115611b0d57611b0c6115ef565b5b611b1987828801611a78565b91505092959194509250565b5f67ffffffffffffffff821115611b3f57611b3e611981565b5b611b48826116e8565b9050602081019050919050565b5f611b67611b6284611b25565b6119df565b905082815260208101848484011115611b8357611b8261197d565b5b611b8e848285611a29565b509392505050565b5f82601f830112611baa57611ba9611979565b5b8135611bba848260208601611b55565b91505092915050565b5f805f60608486031215611bda57611bd96115eb565b5b5f611be78682870161181c565b9350506020611bf88682870161176f565b925050604084013567ffffffffffffffff811115611c1957611c186115ef565b5b611c2586828701611b96565b9150509250925092565b5f8060408385031215611c4557611c446115eb565b5b5f611c528582860161181c565b9250506020611c638582860161181c565b9150509250929050565b7f4e487b71000000000000000000000000000000000000000000000000000000005f52602260045260245ffd5b5f6002820490506001821680611cb157607f821691505b602082108103611cc457611cc3611c6d565b5b50919050565b5f606082019050611cdd5f8301866117de565b611cea60208301856118e9565b611cf760408301846117de565b949350505050565b5f81905092915050565b5f611d13826116a6565b611d1d8185611cff565b9350611d2d8185602086016116c0565b80840191505092915050565b5f611d448285611d09565b9150611d508284611d09565b91508190509392505050565b5f819050815f5260205f209050919050565b5f6020601f8301049050919050565b5f82821b905092915050565b5f60088302611db87fffffffffffffffffffffffffffffffffffffffffffffffffffffffffffffffff82611d7d565b611dc28683611d7d565b95508019841693508086168417925050509392505050565b5f819050919050565b5f611dfd611df8611df384611750565b611dda565b611750565b9050919050565b5f819050919050565b611e1683611de3565b611e2a611e2282611e04565b848454611d89565b825550505050565b5f90565b611e3e611e32565b611e49818484611e0d565b505050565b5b81811015611e6c57611e615f82611e36565b600181019050611e4f565b5050565b601f821115611eb157611e8281611d5c565b611e8b84611d6e565b81016020851015611e9a578190505b611eae611ea685611d6e565b830182611e4e565b50505b505050565b5f82821c905092915050565b5f611ed15f1984600802611eb6565b1980831691505092915050565b5f611ee98383611ec2565b9150826002028217905092915050565b611f02826116a6565b67ffffffffffffffff811115611f1b57611f1a611981565b5b611f258254611c9a565b611f30828285611e70565b5f60209050601f831160018114611f61575f8415611f4f578287015190505b611f598582611ede565b865550611fc0565b601f198416611f6f86611d5c565b5f5b82811015611f9657848901518255600182019150602085019450602081019050611f71565b86831015611fb35784890151611faf601f891682611ec2565b8355505b6001600288020188555050505b505050505050565b5f81519050919050565b5f82825260208201905092915050565b5f611fec82611fc8565b611ff68185611fd2565b93506120068185602086016116c0565b61200f816116e8565b840191505092915050565b5f60808201905061202d5f8301876117de565b61203a60208301866117de565b61204760408301856118e9565b81810360608301526120598184611fe2565b905095945050505050565b5f815190506120728161161e565b92915050565b5f6020828403121561208d5761208c6115eb565b5b5f61209a84828501612064565b91505092915050565b7f4e487b71000000000000000000000000000000000000000000000000000000005f52601260045260245ffd5b5f6040820190506120e35f8301856117de565b6120f060208301846118e9565b939250505056fea26469706673582212208c82a3afcf7ca66c4ced210f654a1f32ae9d1eaec034da7fb266722275241a8464736f6c63430008150033",
  "immutableReferences": {},
  "source": "// SPDX-License-Identifier: MIT\r\npragma solidity ^0.8.10;\r\n\r\nimport \"@openzeppelin/contracts/token/ERC721/ERC721.sol\";\r\n\r\ncontract MyERC721Token is ERC721 {\r\n\r\n    struct Character{\r\n        uint grade;\r\n        string name;\r\n    }\r\n\r\n    Character[] characters;\r\n\r\n    constructor() ERC721(\"MyToken721\", \"MT721\"){}\r\n\r\n    function mint(address _to, uint _grade, string memory _name) public {\r\n        require(_to != address(0));\r\n        uint _tokenId = characters.length;\r\n        characters.push(Character(_grade, _name));\r\n        //require(!_exists(_tokenId));\r\n        _mint(_to, _tokenId);\r\n    }\r\n    }\r\n",
  "sourcePath": "C:\\ljs\\solidity\\721\\contracts\\MyERC721Token.sol",
  "compiler": {
    "name": "solc",
    "version": "0.8.21+commit.d9974bed.Emscripten.clang"
  },
  "schemaVersion": "3.4.16",
  "updatedAt": "2025-01-03T06:09:55.413Z",
  "devdoc": {
    "errors": {
      "ERC721IncorrectOwner(address,uint256,address)": [
        {
          "details": "Indicates an error related to the ownership over a particular token. Used in transfers.",
          "params": {
            "owner": "Address of the current owner of a token.",
            "sender": "Address whose tokens are being transferred.",
            "tokenId": "Identifier number of a token."
          }
        }
      ],
      "ERC721InsufficientApproval(address,uint256)": [
        {
          "details": "Indicates a failure with the `operator`s approval. Used in transfers.",
          "params": {
            "operator": "Address that may be allowed to operate on tokens without being their owner.",
            "tokenId": "Identifier number of a token."
          }
        }
      ],
      "ERC721InvalidApprover(address)": [
        {
          "details": "Indicates a failure with the `approver` of a token to be approved. Used in approvals.",
          "params": {
            "approver": "Address initiating an approval operation."
          }
        }
      ],
      "ERC721InvalidOperator(address)": [
        {
          "details": "Indicates a failure with the `operator` to be approved. Used in approvals.",
          "params": {
            "operator": "Address that may be allowed to operate on tokens without being their owner."
          }
        }
      ],
      "ERC721InvalidOwner(address)": [
        {
          "details": "Indicates that an address can't be an owner. For example, `address(0)` is a forbidden owner in ERC-20. Used in balance queries.",
          "params": {
            "owner": "Address of the current owner of a token."
          }
        }
      ],
      "ERC721InvalidReceiver(address)": [
        {
          "details": "Indicates a failure with the token `receiver`. Used in transfers.",
          "params": {
            "receiver": "Address to which tokens are being transferred."
          }
        }
      ],
      "ERC721InvalidSender(address)": [
        {
          "details": "Indicates a failure with the token `sender`. Used in transfers.",
          "params": {
            "sender": "Address whose tokens are being transferred."
          }
        }
      ],
      "ERC721NonexistentToken(uint256)": [
        {
          "details": "Indicates a `tokenId` whose `owner` is the zero address.",
          "params": {
            "tokenId": "Identifier number of a token."
          }
        }
      ]
    },
    "events": {
      "Approval(address,address,uint256)": {
        "details": "Emitted when `owner` enables `approved` to manage the `tokenId` token."
      },
      "ApprovalForAll(address,address,bool)": {
        "details": "Emitted when `owner` enables or disables (`approved`) `operator` to manage all of its assets."
      },
      "Transfer(address,address,uint256)": {
        "details": "Emitted when `tokenId` token is transferred from `from` to `to`."
      }
    },
    "kind": "dev",
    "methods": {
      "approve(address,uint256)": {
        "details": "See {IERC721-approve}."
      },
      "balanceOf(address)": {
        "details": "See {IERC721-balanceOf}."
      },
      "getApproved(uint256)": {
        "details": "See {IERC721-getApproved}."
      },
      "isApprovedForAll(address,address)": {
        "details": "See {IERC721-isApprovedForAll}."
      },
      "name()": {
        "details": "See {IERC721Metadata-name}."
      },
      "ownerOf(uint256)": {
        "details": "See {IERC721-ownerOf}."
      },
      "safeTransferFrom(address,address,uint256)": {
        "details": "See {IERC721-safeTransferFrom}."
      },
      "safeTransferFrom(address,address,uint256,bytes)": {
        "details": "See {IERC721-safeTransferFrom}."
      },
      "setApprovalForAll(address,bool)": {
        "details": "See {IERC721-setApprovalForAll}."
      },
      "supportsInterface(bytes4)": {
        "details": "See {IERC165-supportsInterface}."
      },
      "symbol()": {
        "details": "See {IERC721Metadata-symbol}."
      },
      "tokenURI(uint256)": {
        "details": "See {IERC721Metadata-tokenURI}."
      },
      "transferFrom(address,address,uint256)": {
        "details": "See {IERC721-transferFrom}."
      }
    },
    "version": 1
  },
  "userdoc": {
    "kind": "user",
    "methods": {},
    "version": 1
  }
}