{
  "contractName": "MyERC721Token",
  "abi": [
    {
      "inputs": [
        {
          "internalType": "string",
          "name": "_name",
          "type": "string"
        },
        {
          "internalType": "string",
          "name": "_symbol",
          "type": "string"
        }
      ],
      "stateMutability": "nonpayable",
      "type": "constructor"
    },
    {
      "anonymous": false,
      "inputs": [
        {
          "indexed": true,
          "internalType": "address",
          "name": "owner",
          "type": "address"
        },
        {
          "indexed": true,
          "internalType": "address",
          "name": "approved",
          "type": "address"
        },
        {
          "indexed": true,
          "internalType": "uint256",
          "name": "tokenId",
          "type": "uint256"
        }
      ],
      "name": "Approval",
      "type": "event"
    },
    {
      "anonymous": false,
      "inputs": [
        {
          "indexed": true,
          "internalType": "address",
          "name": "owner",
          "type": "address"
        },
        {
          "indexed": true,
          "internalType": "address",
          "name": "operator",
          "type": "address"
        },
        {
          "indexed": false,
          "internalType": "bool",
          "name": "approved",
          "type": "bool"
        }
      ],
      "name": "ApprovalForAll",
      "type": "event"
    },
    {
      "anonymous": false,
      "inputs": [
        {
          "indexed": true,
          "internalType": "address",
          "name": "from",
          "type": "address"
        },
        {
          "indexed": true,
          "internalType": "address",
          "name": "to",
          "type": "address"
        },
        {
          "indexed": true,
          "internalType": "uint256",
          "name": "tokenId",
          "type": "uint256"
        }
      ],
      "name": "Transfer",
      "type": "event"
    },
    {
      "inputs": [
        {
          "internalType": "address",
          "name": "to",
          "type": "address"
        },
        {
          "internalType": "uint256",
          "name": "tokenId",
          "type": "uint256"
        }
      ],
      "name": "approve",
      "outputs": [],
      "stateMutability": "nonpayable",
      "type": "function"
    },
    {
      "inputs": [
        {
          "internalType": "address",
          "name": "owner",
          "type": "address"
        }
      ],
      "name": "balanceOf",
      "outputs": [
        {
          "internalType": "uint256",
          "name": "",
          "type": "uint256"
        }
      ],
      "stateMutability": "view",
      "type": "function",
      "constant": true
    },
    {
      "inputs": [
        {
          "internalType": "uint256",
          "name": "",
          "type": "uint256"
        }
      ],
      "name": "characters",
      "outputs": [
        {
          "internalType": "uint256",
          "name": "grade",
          "type": "uint256"
        },
        {
          "internalType": "string",
          "name": "name",
          "type": "string"
        }
      ],
      "stateMutability": "view",
      "type": "function",
      "constant": true
    },
    {
      "inputs": [
        {
          "internalType": "uint256",
          "name": "tokenId",
          "type": "uint256"
        }
      ],
      "name": "getApproved",
      "outputs": [
        {
          "internalType": "address",
          "name": "",
          "type": "address"
        }
      ],
      "stateMutability": "view",
      "type": "function",
      "constant": true
    },
    {
      "inputs": [
        {
          "internalType": "address",
          "name": "owner",
          "type": "address"
        },
        {
          "internalType": "address",
          "name": "operator",
          "type": "address"
        }
      ],
      "name": "isApprovedForAll",
      "outputs": [
        {
          "internalType": "bool",
          "name": "",
          "type": "bool"
        }
      ],
      "stateMutability": "view",
      "type": "function",
      "constant": true
    },
    {
      "inputs": [],
      "name": "name",
      "outputs": [
        {
          "internalType": "string",
          "name": "",
          "type": "string"
        }
      ],
      "stateMutability": "view",
      "type": "function",
      "constant": true
    },
    {
      "inputs": [
        {
          "internalType": "uint256",
          "name": "tokenId",
          "type": "uint256"
        }
      ],
      "name": "ownerOf",
      "outputs": [
        {
          "internalType": "address",
          "name": "",
          "type": "address"
        }
      ],
      "stateMutability": "view",
      "type": "function",
      "constant": true
    },
    {
      "inputs": [
        {
          "internalType": "address",
          "name": "from",
          "type": "address"
        },
        {
          "internalType": "address",
          "name": "to",
          "type": "address"
        },
        {
          "internalType": "uint256",
          "name": "tokenId",
          "type": "uint256"
        }
      ],
      "name": "safeTransferFrom",
      "outputs": [],
      "stateMutability": "nonpayable",
      "type": "function"
    },
    {
      "inputs": [
        {
          "internalType": "address",
          "name": "from",
          "type": "address"
        },
        {
          "internalType": "address",
          "name": "to",
          "type": "address"
        },
        {
          "internalType": "uint256",
          "name": "tokenId",
          "type": "uint256"
        },
        {
          "internalType": "bytes",
          "name": "data",
          "type": "bytes"
        }
      ],
      "name": "safeTransferFrom",
      "outputs": [],
      "stateMutability": "nonpayable",
      "type": "function"
    },
    {
      "inputs": [
        {
          "internalType": "address",
          "name": "operator",
          "type": "address"
        },
        {
          "internalType": "bool",
          "name": "approved",
          "type": "bool"
        }
      ],
      "name": "setApprovalForAll",
      "outputs": [],
      "stateMutability": "nonpayable",
      "type": "function"
    },
    {
      "inputs": [
        {
          "internalType": "bytes4",
          "name": "interfaceId",
          "type": "bytes4"
        }
      ],
      "name": "supportsInterface",
      "outputs": [
        {
          "internalType": "bool",
          "name": "",
          "type": "bool"
        }
      ],
      "stateMutability": "view",
      "type": "function",
      "constant": true
    },
    {
      "inputs": [],
      "name": "symbol",
      "outputs": [
        {
          "internalType": "string",
          "name": "",
          "type": "string"
        }
      ],
      "stateMutability": "view",
      "type": "function",
      "constant": true
    },
    {
      "inputs": [
        {
          "internalType": "uint256",
          "name": "tokenId",
          "type": "uint256"
        }
      ],
      "name": "tokenURI",
      "outputs": [
        {
          "internalType": "string",
          "name": "",
          "type": "string"
        }
      ],
      "stateMutability": "view",
      "type": "function",
      "constant": true
    },
    {
      "inputs": [
        {
          "internalType": "address",
          "name": "from",
          "type": "address"
        },
        {
          "internalType": "address",
          "name": "to",
          "type": "address"
        },
        {
          "internalType": "uint256",
          "name": "tokenId",
          "type": "uint256"
        }
      ],
      "name": "transferFrom",
      "outputs": [],
      "stateMutability": "nonpayable",
      "type": "function"
    },
    {
      "inputs": [
        {
          "internalType": "address",
          "name": "_to",
          "type": "address"
        },
        {
          "internalType": "uint256",
          "name": "_grade",
          "type": "uint256"
        },
        {
          "internalType": "string",
          "name": "_name",
          "type": "string"
        }
      ],
      "name": "mint",
      "outputs": [],
      "stateMutability": "nonpayable",
      "type": "function"
    }
  ],
  "bytecode": "0x60806040523480156200001157600080fd5b5060405162002da738038062002da78339818101604052810190620000379190620002c2565b818181600090805190602001906200005192919062000075565b5080600190805190602001906200006a92919062000075565b5050505050620003ac565b828054620000839062000376565b90600052602060002090601f016020900481019282620000a75760008555620000f3565b82601f10620000c257805160ff1916838001178555620000f3565b82800160010185558215620000f3579182015b82811115620000f2578251825591602001919060010190620000d5565b5b50905062000102919062000106565b5090565b5b808211156200012157600081600090555060010162000107565b5090565b6000604051905090565b600080fd5b600080fd5b600080fd5b600080fd5b6000601f19601f8301169050919050565b7f4e487b7100000000000000000000000000000000000000000000000000000000600052604160045260246000fd5b6200018e8262000143565b810181811067ffffffffffffffff82111715620001b057620001af62000154565b5b80604052505050565b6000620001c562000125565b9050620001d3828262000183565b919050565b600067ffffffffffffffff821115620001f657620001f562000154565b5b620002018262000143565b9050602081019050919050565b60005b838110156200022e57808201518184015260208101905062000211565b838111156200023e576000848401525b50505050565b60006200025b6200025584620001d8565b620001b9565b9050828152602081018484840111156200027a57620002796200013e565b5b620002878482856200020e565b509392505050565b600082601f830112620002a757620002a662000139565b5b8151620002b984826020860162000244565b91505092915050565b60008060408385031215620002dc57620002db6200012f565b5b600083015167ffffffffffffffff811115620002fd57620002fc62000134565b5b6200030b858286016200028f565b925050602083015167ffffffffffffffff8111156200032f576200032e62000134565b5b6200033d858286016200028f565b9150509250929050565b7f4e487b7100000000000000000000000000000000000000000000000000000000600052602260045260246000fd5b600060028204905060018216806200038f57607f821691505b60208210811415620003a657620003a562000347565b5b50919050565b6129eb80620003bc6000396000f3fe608060405234801561001057600080fd5b50600436106100f55760003560e01c80636352211e11610097578063b88d4fde11610066578063b88d4fde14610297578063c87b56dd146102b3578063d3fc9864146102e3578063e985e9c5146102ff576100f5565b80636352211e146101fd57806370a082311461022d57806395d89b411461025d578063a22cb4651461027b576100f5565b8063095ea7b3116100d3578063095ea7b31461017857806323b872dd1461019457806342842e0e146101b05780634810bc59146101cc576100f5565b806301ffc9a7146100fa57806306fdde031461012a578063081812fc14610148575b600080fd5b610114600480360381019061010f9190611ae4565b61032f565b6040516101219190611b2c565b60405180910390f35b610132610411565b60405161013f9190611be0565b60405180910390f35b610162600480360381019061015d9190611c38565b6104a3565b60405161016f9190611ca6565b60405180910390f35b610192600480360381019061018d9190611ced565b6104e9565b005b6101ae60048036038101906101a99190611d2d565b610601565b005b6101ca60048036038101906101c59190611d2d565b610661565b005b6101e660048036038101906101e19190611c38565b610681565b6040516101f4929190611d8f565b60405180910390f35b61021760048036038101906102129190611c38565b61073d565b6040516102249190611ca6565b60405180910390f35b61024760048036038101906102429190611dbf565b6107c4565b6040516102549190611dec565b60405180910390f35b61026561087c565b6040516102729190611be0565b60405180910390f35b61029560048036038101906102909190611e33565b61090e565b005b6102b160048036038101906102ac9190611fa8565b610924565b005b6102cd60048036038101906102c89190611c38565b610986565b6040516102da9190611be0565b60405180910390f35b6102fd60048036038101906102f891906120cc565b6109ee565b005b6103196004803603810190610314919061213b565b610abe565b6040516103269190611b2c565b60405180910390f35b60007f80ac58cd000000000000000000000000000000000000000000000000000000007bffffffffffffffffffffffffffffffffffffffffffffffffffffffff1916827bffffffffffffffffffffffffffffffffffffffffffffffffffffffff191614806103fa57507f5b5e139f000000000000000000000000000000000000000000000000000000007bffffffffffffffffffffffffffffffffffffffffffffffffffffffff1916827bffffffffffffffffffffffffffffffffffffffffffffffffffffffff1916145b8061040a575061040982610b52565b5b9050919050565b606060008054610420906121aa565b80601f016020809104026020016040519081016040528092919081815260200182805461044c906121aa565b80156104995780601f1061046e57610100808354040283529160200191610499565b820191906000526020600020905b81548152906001019060200180831161047c57829003601f168201915b5050505050905090565b60006104ae82610bbc565b6004600083815260200190815260200160002060009054906101000a900473ffffffffffffffffffffffffffffffffffffffff169050919050565b60006104f48261073d565b90508073ffffffffffffffffffffffffffffffffffffffff168373ffffffffffffffffffffffffffffffffffffffff161415610565576040517f08c379a000000000000000000000000000000000000000000000000000000000815260040161055c9061224e565b60405180910390fd5b8073ffffffffffffffffffffffffffffffffffffffff16610584610c07565b73ffffffffffffffffffffffffffffffffffffffff1614806105b357506105b2816105ad610c07565b610abe565b5b6105f2576040517f08c379a00000000000000000000000000000000000000000000000000000000081526004016105e9906122e0565b60405180910390fd5b6105fc8383610c0f565b505050565b61061261060c610c07565b82610cc8565b610651576040517f08c379a000000000000000000000000000000000000000000000000000000000815260040161064890612372565b60405180910390fd5b61065c838383610d5d565b505050565b61067c83838360405180602001604052806000815250610924565b505050565b6006818154811061069157600080fd5b90600052602060002090600202016000915090508060000154908060010180546106ba906121aa565b80601f01602080910402602001604051908101604052809291908181526020018280546106e6906121aa565b80156107335780601f1061070857610100808354040283529160200191610733565b820191906000526020600020905b81548152906001019060200180831161071657829003601f168201915b5050505050905082565b60008061074983611057565b9050600073ffffffffffffffffffffffffffffffffffffffff168173ffffffffffffffffffffffffffffffffffffffff1614156107bb576040517f08c379a00000000000000000000000000000000000000000000000000000000081526004016107b2906123de565b60405180910390fd5b80915050919050565b60008073ffffffffffffffffffffffffffffffffffffffff168273ffffffffffffffffffffffffffffffffffffffff161415610835576040517f08c379a000000000000000000000000000000000000000000000000000000000815260040161082c90612470565b60405180910390fd5b600360008373ffffffffffffffffffffffffffffffffffffffff1673ffffffffffffffffffffffffffffffffffffffff168152602001908152602001600020549050919050565b60606001805461088b906121aa565b80601f01602080910402602001604051908101604052809291908181526020018280546108b7906121aa565b80156109045780601f106108d957610100808354040283529160200191610904565b820191906000526020600020905b8154815290600101906020018083116108e757829003601f168201915b5050505050905090565b610920610919610c07565b8383611094565b5050565b61093561092f610c07565b83610cc8565b610974576040517f08c379a000000000000000000000000000000000000000000000000000000000815260040161096b90612372565b60405180910390fd5b61098084848484611201565b50505050565b606061099182610bbc565b600061099b61125d565b905060008151116109bb57604051806020016040528060008152506109e6565b806109c584611274565b6040516020016109d69291906124cc565b6040516020818303038152906040525b915050919050565b600073ffffffffffffffffffffffffffffffffffffffff168373ffffffffffffffffffffffffffffffffffffffff161415610a2857600080fd5b6000600680549050905060066040518060400160405280858152602001848152509080600181540180825580915050600190039060005260206000209060020201600090919091909150600082015181600001556020820151816001019080519060200190610a989291906119d5565b505050610aa48161134c565b15610aae57600080fd5b610ab8848261138d565b50505050565b6000600560008473ffffffffffffffffffffffffffffffffffffffff1673ffffffffffffffffffffffffffffffffffffffff16815260200190815260200160002060008373ffffffffffffffffffffffffffffffffffffffff1673ffffffffffffffffffffffffffffffffffffffff16815260200190815260200160002060009054906101000a900460ff16905092915050565b60007f01ffc9a7000000000000000000000000000000000000000000000000000000007bffffffffffffffffffffffffffffffffffffffffffffffffffffffff1916827bffffffffffffffffffffffffffffffffffffffffffffffffffffffff1916149050919050565b610bc58161134c565b610c04576040517f08c379a0000000000000000000000000000000000000000000000000000000008152600401610bfb906123de565b60405180910390fd5b50565b600033905090565b816004600083815260200190815260200160002060006101000a81548173ffffffffffffffffffffffffffffffffffffffff021916908373ffffffffffffffffffffffffffffffffffffffff160217905550808273ffffffffffffffffffffffffffffffffffffffff16610c828361073d565b73ffffffffffffffffffffffffffffffffffffffff167f8c5be1e5ebec7d5bd14f71427d1e84f3dd0314c0f7b2291e5b200ac8c7c3b92560405160405180910390a45050565b600080610cd48361073d565b90508073ffffffffffffffffffffffffffffffffffffffff168473ffffffffffffffffffffffffffffffffffffffff161480610d165750610d158185610abe565b5b80610d5457508373ffffffffffffffffffffffffffffffffffffffff16610d3c846104a3565b73ffffffffffffffffffffffffffffffffffffffff16145b91505092915050565b8273ffffffffffffffffffffffffffffffffffffffff16610d7d8261073d565b73ffffffffffffffffffffffffffffffffffffffff1614610dd3576040517f08c379a0000000000000000000000000000000000000000000000000000000008152600401610dca90612562565b60405180910390fd5b600073ffffffffffffffffffffffffffffffffffffffff168273ffffffffffffffffffffffffffffffffffffffff161415610e43576040517f08c379a0000000000000000000000000000000000000000000000000000000008152600401610e3a906125f4565b60405180910390fd5b610e5083838360016115ab565b8273ffffffffffffffffffffffffffffffffffffffff16610e708261073d565b73ffffffffffffffffffffffffffffffffffffffff1614610ec6576040517f08c379a0000000000000000000000000000000000000000000000000000000008152600401610ebd90612562565b60405180910390fd5b6004600082815260200190815260200160002060006101000a81549073ffffffffffffffffffffffffffffffffffffffff02191690556001600360008573ffffffffffffffffffffffffffffffffffffffff1673ffffffffffffffffffffffffffffffffffffffff168152602001908152602001600020600082825403925050819055506001600360008473ffffffffffffffffffffffffffffffffffffffff1673ffffffffffffffffffffffffffffffffffffffff16815260200190815260200160002060008282540192505081905550816002600083815260200190815260200160002060006101000a81548173ffffffffffffffffffffffffffffffffffffffff021916908373ffffffffffffffffffffffffffffffffffffffff160217905550808273ffffffffffffffffffffffffffffffffffffffff168473ffffffffffffffffffffffffffffffffffffffff167fddf252ad1be2c89b69c2b068fc378daa952ba7f163c4a11628f55a4df523b3ef60405160405180910390a461105283838360016116d1565b505050565b60006002600083815260200190815260200160002060009054906101000a900473ffffffffffffffffffffffffffffffffffffffff169050919050565b8173ffffffffffffffffffffffffffffffffffffffff168373ffffffffffffffffffffffffffffffffffffffff161415611103576040517f08c379a00000000000000000000000000000000000000000000000000000000081526004016110fa90612660565b60405180910390fd5b80600560008573ffffffffffffffffffffffffffffffffffffffff1673ffffffffffffffffffffffffffffffffffffffff16815260200190815260200160002060008473ffffffffffffffffffffffffffffffffffffffff1673ffffffffffffffffffffffffffffffffffffffff16815260200190815260200160002060006101000a81548160ff0219169083151502179055508173ffffffffffffffffffffffffffffffffffffffff168373ffffffffffffffffffffffffffffffffffffffff167f17307eab39ab6107e8899845ad3d59bd9653f200f220920489ca2b5937696c31836040516111f49190611b2c565b60405180910390a3505050565b61120c848484610d5d565b611218848484846116d7565b611257576040517f08c379a000000000000000000000000000000000000000000000000000000000815260040161124e906126f2565b60405180910390fd5b50505050565b606060405180602001604052806000815250905090565b6060600060016112838461185f565b01905060008167ffffffffffffffff8111156112a2576112a1611e7d565b5b6040519080825280601f01601f1916602001820160405280156112d45781602001600182028036833780820191505090505b509050600082602001820190505b600115611341578080600190039150507f3031323334353637383961626364656600000000000000000000000000000000600a86061a8153600a858161132b5761132a612712565b5b049450600085141561133c57611341565b6112e2565b819350505050919050565b60008073ffffffffffffffffffffffffffffffffffffffff1661136e83611057565b73ffffffffffffffffffffffffffffffffffffffff1614159050919050565b600073ffffffffffffffffffffffffffffffffffffffff168273ffffffffffffffffffffffffffffffffffffffff1614156113fd576040517f08c379a00000000000000000000000000000000000000000000000000000000081526004016113f49061278d565b60405180910390fd5b6114068161134c565b15611446576040517f08c379a000000000000000000000000000000000000000000000000000000000815260040161143d906127f9565b60405180910390fd5b6114546000838360016115ab565b61145d8161134c565b1561149d576040517f08c379a0000000000000000000000000000000000000000000000000000000008152600401611494906127f9565b60405180910390fd5b6001600360008473ffffffffffffffffffffffffffffffffffffffff1673ffffffffffffffffffffffffffffffffffffffff16815260200190815260200160002060008282540192505081905550816002600083815260200190815260200160002060006101000a81548173ffffffffffffffffffffffffffffffffffffffff021916908373ffffffffffffffffffffffffffffffffffffffff160217905550808273ffffffffffffffffffffffffffffffffffffffff16600073ffffffffffffffffffffffffffffffffffffffff167fddf252ad1be2c89b69c2b068fc378daa952ba7f163c4a11628f55a4df523b3ef60405160405180910390a46115a76000838360016116d1565b5050565b60018111156116cb57600073ffffffffffffffffffffffffffffffffffffffff168473ffffffffffffffffffffffffffffffffffffffff161461163f5780600360008673ffffffffffffffffffffffffffffffffffffffff1673ffffffffffffffffffffffffffffffffffffffff16815260200190815260200160002060008282546116379190612848565b925050819055505b600073ffffffffffffffffffffffffffffffffffffffff168373ffffffffffffffffffffffffffffffffffffffff16146116ca5780600360008573ffffffffffffffffffffffffffffffffffffffff1673ffffffffffffffffffffffffffffffffffffffff16815260200190815260200160002060008282546116c2919061287c565b925050819055505b5b50505050565b50505050565b60006116f88473ffffffffffffffffffffffffffffffffffffffff166119b2565b15611852578373ffffffffffffffffffffffffffffffffffffffff1663150b7a02611721610c07565b8786866040518563ffffffff1660e01b81526004016117439493929190612927565b6020604051808303816000875af192505050801561177f57506040513d601f19601f8201168201806040525081019061177c9190612988565b60015b611802573d80600081146117af576040519150601f19603f3d011682016040523d82523d6000602084013e6117b4565b606091505b506000815114156117fa576040517f08c379a00000000000000000000000000000000000000000000000000000000081526004016117f1906126f2565b60405180910390fd5b805181602001fd5b63150b7a0260e01b7bffffffffffffffffffffffffffffffffffffffffffffffffffffffff1916817bffffffffffffffffffffffffffffffffffffffffffffffffffffffff191614915050611857565b600190505b949350505050565b600080600090507a184f03e93ff9f4daa797ed6e38ed64bf6a1f01000000000000000083106118bd577a184f03e93ff9f4daa797ed6e38ed64bf6a1f01000000000000000083816118b3576118b2612712565b5b0492506040810190505b6d04ee2d6d415b85acef810000000083106118fa576d04ee2d6d415b85acef810000000083816118f0576118ef612712565b5b0492506020810190505b662386f26fc10000831061192957662386f26fc10000838161191f5761191e612712565b5b0492506010810190505b6305f5e1008310611952576305f5e100838161194857611947612712565b5b0492506008810190505b612710831061197757612710838161196d5761196c612712565b5b0492506004810190505b6064831061199a57606483816119905761198f612712565b5b0492506002810190505b600a83106119a9576001810190505b80915050919050565b6000808273ffffffffffffffffffffffffffffffffffffffff163b119050919050565b8280546119e1906121aa565b90600052602060002090601f016020900481019282611a035760008555611a4a565b82601f10611a1c57805160ff1916838001178555611a4a565b82800160010185558215611a4a579182015b82811115611a49578251825591602001919060010190611a2e565b5b509050611a579190611a5b565b5090565b5b80821115611a74576000816000905550600101611a5c565b5090565b6000604051905090565b600080fd5b600080fd5b60007fffffffff0000000000000000000000000000000000000000000000000000000082169050919050565b611ac181611a8c565b8114611acc57600080fd5b50565b600081359050611ade81611ab8565b92915050565b600060208284031215611afa57611af9611a82565b5b6000611b0884828501611acf565b91505092915050565b60008115159050919050565b611b2681611b11565b82525050565b6000602082019050611b416000830184611b1d565b92915050565b600081519050919050565b600082825260208201905092915050565b60005b83811015611b81578082015181840152602081019050611b66565b83811115611b90576000848401525b50505050565b6000601f19601f8301169050919050565b6000611bb282611b47565b611bbc8185611b52565b9350611bcc818560208601611b63565b611bd581611b96565b840191505092915050565b60006020820190508181036000830152611bfa8184611ba7565b905092915050565b6000819050919050565b611c1581611c02565b8114611c2057600080fd5b50565b600081359050611c3281611c0c565b92915050565b600060208284031215611c4e57611c4d611a82565b5b6000611c5c84828501611c23565b91505092915050565b600073ffffffffffffffffffffffffffffffffffffffff82169050919050565b6000611c9082611c65565b9050919050565b611ca081611c85565b82525050565b6000602082019050611cbb6000830184611c97565b92915050565b611cca81611c85565b8114611cd557600080fd5b50565b600081359050611ce781611cc1565b92915050565b60008060408385031215611d0457611d03611a82565b5b6000611d1285828601611cd8565b9250506020611d2385828601611c23565b9150509250929050565b600080600060608486031215611d4657611d45611a82565b5b6000611d5486828701611cd8565b9350506020611d6586828701611cd8565b9250506040611d7686828701611c23565b9150509250925092565b611d8981611c02565b82525050565b6000604082019050611da46000830185611d80565b8181036020830152611db68184611ba7565b90509392505050565b600060208284031215611dd557611dd4611a82565b5b6000611de384828501611cd8565b91505092915050565b6000602082019050611e016000830184611d80565b92915050565b611e1081611b11565b8114611e1b57600080fd5b50565b600081359050611e2d81611e07565b92915050565b60008060408385031215611e4a57611e49611a82565b5b6000611e5885828601611cd8565b9250506020611e6985828601611e1e565b9150509250929050565b600080fd5b600080fd5b7f4e487b7100000000000000000000000000000000000000000000000000000000600052604160045260246000fd5b611eb582611b96565b810181811067ffffffffffffffff82111715611ed457611ed3611e7d565b5b80604052505050565b6000611ee7611a78565b9050611ef38282611eac565b919050565b600067ffffffffffffffff821115611f1357611f12611e7d565b5b611f1c82611b96565b9050602081019050919050565b82818337600083830152505050565b6000611f4b611f4684611ef8565b611edd565b905082815260208101848484011115611f6757611f66611e78565b5b611f72848285611f29565b509392505050565b600082601f830112611f8f57611f8e611e73565b5b8135611f9f848260208601611f38565b91505092915050565b60008060008060808587031215611fc257611fc1611a82565b5b6000611fd087828801611cd8565b9450506020611fe187828801611cd8565b9350506040611ff287828801611c23565b925050606085013567ffffffffffffffff81111561201357612012611a87565b5b61201f87828801611f7a565b91505092959194509250565b600067ffffffffffffffff82111561204657612045611e7d565b5b61204f82611b96565b9050602081019050919050565b600061206f61206a8461202b565b611edd565b90508281526020810184848401111561208b5761208a611e78565b5b612096848285611f29565b509392505050565b600082601f8301126120b3576120b2611e73565b5b81356120c384826020860161205c565b91505092915050565b6000806000606084860312156120e5576120e4611a82565b5b60006120f386828701611cd8565b935050602061210486828701611c23565b925050604084013567ffffffffffffffff81111561212557612124611a87565b5b6121318682870161209e565b9150509250925092565b6000806040838503121561215257612151611a82565b5b600061216085828601611cd8565b925050602061217185828601611cd8565b9150509250929050565b7f4e487b7100000000000000000000000000000000000000000000000000000000600052602260045260246000fd5b600060028204905060018216806121c257607f821691505b602082108114156121d6576121d561217b565b5b50919050565b7f4552433732313a20617070726f76616c20746f2063757272656e74206f776e6560008201527f7200000000000000000000000000000000000000000000000000000000000000602082015250565b6000612238602183611b52565b9150612243826121dc565b604082019050919050565b600060208201905081810360008301526122678161222b565b9050919050565b7f4552433732313a20617070726f76652063616c6c6572206973206e6f7420746f60008201527f6b656e206f776e6572206f7220617070726f76656420666f7220616c6c000000602082015250565b60006122ca603d83611b52565b91506122d58261226e565b604082019050919050565b600060208201905081810360008301526122f9816122bd565b9050919050565b7f4552433732313a2063616c6c6572206973206e6f7420746f6b656e206f776e6560008201527f72206f7220617070726f76656400000000000000000000000000000000000000602082015250565b600061235c602d83611b52565b915061236782612300565b604082019050919050565b6000602082019050818103600083015261238b8161234f565b9050919050565b7f4552433732313a20696e76616c696420746f6b656e2049440000000000000000600082015250565b60006123c8601883611b52565b91506123d382612392565b602082019050919050565b600060208201905081810360008301526123f7816123bb565b9050919050565b7f4552433732313a2061646472657373207a65726f206973206e6f74206120766160008201527f6c6964206f776e65720000000000000000000000000000000000000000000000602082015250565b600061245a602983611b52565b9150612465826123fe565b604082019050919050565b600060208201905081810360008301526124898161244d565b9050919050565b600081905092915050565b60006124a682611b47565b6124b08185612490565b93506124c0818560208601611b63565b80840191505092915050565b60006124d8828561249b565b91506124e4828461249b565b91508190509392505050565b7f4552433732313a207472616e736665722066726f6d20696e636f72726563742060008201527f6f776e6572000000000000000000000000000000000000000000000000000000602082015250565b600061254c602583611b52565b9150612557826124f0565b604082019050919050565b6000602082019050818103600083015261257b8161253f565b9050919050565b7f4552433732313a207472616e7366657220746f20746865207a65726f2061646460008201527f7265737300000000000000000000000000000000000000000000000000000000602082015250565b60006125de602483611b52565b91506125e982612582565b604082019050919050565b6000602082019050818103600083015261260d816125d1565b9050919050565b7f4552433732313a20617070726f766520746f2063616c6c657200000000000000600082015250565b600061264a601983611b52565b915061265582612614565b602082019050919050565b600060208201905081810360008301526126798161263d565b9050919050565b7f4552433732313a207472616e7366657220746f206e6f6e20455243373231526560008201527f63656976657220696d706c656d656e7465720000000000000000000000000000602082015250565b60006126dc603283611b52565b91506126e782612680565b604082019050919050565b6000602082019050818103600083015261270b816126cf565b9050919050565b7f4e487b7100000000000000000000000000000000000000000000000000000000600052601260045260246000fd5b7f4552433732313a206d696e7420746f20746865207a65726f2061646472657373600082015250565b6000612777602083611b52565b915061278282612741565b602082019050919050565b600060208201905081810360008301526127a68161276a565b9050919050565b7f4552433732313a20746f6b656e20616c7265616479206d696e74656400000000600082015250565b60006127e3601c83611b52565b91506127ee826127ad565b602082019050919050565b60006020820190508181036000830152612812816127d6565b9050919050565b7f4e487b7100000000000000000000000000000000000000000000000000000000600052601160045260246000fd5b600061285382611c02565b915061285e83611c02565b92508282101561287157612870612819565b5b828203905092915050565b600061288782611c02565b915061289283611c02565b9250827fffffffffffffffffffffffffffffffffffffffffffffffffffffffffffffffff038211156128c7576128c6612819565b5b828201905092915050565b600081519050919050565b600082825260208201905092915050565b60006128f9826128d2565b61290381856128dd565b9350612913818560208601611b63565b61291c81611b96565b840191505092915050565b600060808201905061293c6000830187611c97565b6129496020830186611c97565b6129566040830185611d80565b818103606083015261296881846128ee565b905095945050505050565b60008151905061298281611ab8565b92915050565b60006020828403121561299e5761299d611a82565b5b60006129ac84828501612973565b9150509291505056fea264697066735822122012b4a0f089eae39d1902c6b929182ec6b710b5aa334efc4ba801b9ef0ad9696a64736f6c634300080a0033",
  "immutableReferences": {},
  "source": "// SPDX-License-Identifier: UNLICENSED\npragma solidity 0.8.10;\n\nimport \"openzeppelin-solidity/contracts/token/ERC721/ERC721.sol\";\n\ncontract MyERC721Token is ERC721 {\n\n  //    \n  struct Character {\n    uint grade;\n    string name;\n  }\n\n  Character[] public characters; \n\n  constructor(string memory _name, string memory _symbol) ERC721(_name, _symbol) {}\n\n  function mint(address _to, uint _grade, string memory _name) public {\n    require(_to != address(0));\n    uint _tokenId = characters.length;\n    characters.push(Character(_grade, _name));\n    require(!_exists(_tokenId));\n    _mint(_to, _tokenId);\n  }\n}",
  "sourcePath": "C:\\ljs\\solidity\\erc721\\contracts\\MyERC721Token.sol",
  "compiler": {
    "name": "solc",
    "version": "0.8.10+commit.fc410830.Emscripten.clang"
  },
  "schemaVersion": "3.4.16",
  "updatedAt": "2025-01-03T06:18:53.018Z",
  "networkType": "ethereum",
  "devdoc": {
    "kind": "dev",
    "methods": {
      "approve(address,uint256)": {
        "details": "See {IERC721-approve}."
      },
      "balanceOf(address)": {
        "details": "See {IERC721-balanceOf}."
      },
      "getApproved(uint256)": {
        "details": "See {IERC721-getApproved}."
      },
      "isApprovedForAll(address,address)": {
        "details": "See {IERC721-isApprovedForAll}."
      },
      "name()": {
        "details": "See {IERC721Metadata-name}."
      },
      "ownerOf(uint256)": {
        "details": "See {IERC721-ownerOf}."
      },
      "safeTransferFrom(address,address,uint256)": {
        "details": "See {IERC721-safeTransferFrom}."
      },
      "safeTransferFrom(address,address,uint256,bytes)": {
        "details": "See {IERC721-safeTransferFrom}."
      },
      "setApprovalForAll(address,bool)": {
        "details": "See {IERC721-setApprovalForAll}."
      },
      "supportsInterface(bytes4)": {
        "details": "See {IERC165-supportsInterface}."
      },
      "symbol()": {
        "details": "See {IERC721Metadata-symbol}."
      },
      "tokenURI(uint256)": {
        "details": "See {IERC721Metadata-tokenURI}."
      },
      "transferFrom(address,address,uint256)": {
        "details": "See {IERC721-transferFrom}."
      }
    },
    "version": 1
  },
  "userdoc": {
    "kind": "user",
    "methods": {},
    "version": 1
  }
}