{
	"contracts/erc20.sol": {
		"erc20": {
			"abi": [
				{
					"inputs": [
						{
							"internalType": "string",
							"name": "_name",
							"type": "string"
						},
						{
							"internalType": "string",
							"name": "_symbol",
							"type": "string"
						},
						{
							"internalType": "uint8",
							"name": "_decimals",
							"type": "uint8"
						},
						{
							"internalType": "uint256",
							"name": "_totalSupply",
							"type": "uint256"
						}
					],
					"stateMutability": "nonpayable",
					"type": "constructor"
				},
				{
					"anonymous": false,
					"inputs": [
						{
							"indexed": true,
							"internalType": "address",
							"name": "_owner",
							"type": "address"
						},
						{
							"indexed": true,
							"internalType": "address",
							"name": "_spender",
							"type": "address"
						},
						{
							"indexed": false,
							"internalType": "uint256",
							"name": "_value",
							"type": "uint256"
						}
					],
					"name": "Approval",
					"type": "event"
				},
				{
					"anonymous": false,
					"inputs": [
						{
							"indexed": true,
							"internalType": "address",
							"name": "_from",
							"type": "address"
						},
						{
							"indexed": true,
							"internalType": "address",
							"name": "_to",
							"type": "address"
						},
						{
							"indexed": false,
							"internalType": "uint256",
							"name": "_value",
							"type": "uint256"
						}
					],
					"name": "Transfer",
					"type": "event"
				},
				{
					"inputs": [
						{
							"internalType": "address",
							"name": "",
							"type": "address"
						},
						{
							"internalType": "address",
							"name": "",
							"type": "address"
						}
					],
					"name": "_allowances",
					"outputs": [
						{
							"internalType": "uint256",
							"name": "",
							"type": "uint256"
						}
					],
					"stateMutability": "view",
					"type": "function"
				},
				{
					"inputs": [
						{
							"internalType": "address",
							"name": "owner",
							"type": "address"
						},
						{
							"internalType": "address",
							"name": "spender",
							"type": "address"
						}
					],
					"name": "allowance",
					"outputs": [
						{
							"internalType": "uint256",
							"name": "",
							"type": "uint256"
						}
					],
					"stateMutability": "view",
					"type": "function"
				},
				{
					"inputs": [
						{
							"internalType": "address",
							"name": "spender",
							"type": "address"
						},
						{
							"internalType": "uint256",
							"name": "value",
							"type": "uint256"
						}
					],
					"name": "approve",
					"outputs": [
						{
							"internalType": "bool",
							"name": "",
							"type": "bool"
						}
					],
					"stateMutability": "nonpayable",
					"type": "function"
				},
				{
					"inputs": [
						{
							"internalType": "address",
							"name": "",
							"type": "address"
						}
					],
					"name": "balanceOf",
					"outputs": [
						{
							"internalType": "uint256",
							"name": "",
							"type": "uint256"
						}
					],
					"stateMutability": "view",
					"type": "function"
				},
				{
					"inputs": [],
					"name": "decimals",
					"outputs": [
						{
							"internalType": "uint8",
							"name": "",
							"type": "uint8"
						}
					],
					"stateMutability": "view",
					"type": "function"
				},
				{
					"inputs": [],
					"name": "name",
					"outputs": [
						{
							"internalType": "string",
							"name": "",
							"type": "string"
						}
					],
					"stateMutability": "view",
					"type": "function"
				},
				{
					"inputs": [],
					"name": "symbol",
					"outputs": [
						{
							"internalType": "string",
							"name": "",
							"type": "string"
						}
					],
					"stateMutability": "view",
					"type": "function"
				},
				{
					"inputs": [],
					"name": "totalSupply",
					"outputs": [
						{
							"internalType": "uint256",
							"name": "",
							"type": "uint256"
						}
					],
					"stateMutability": "view",
					"type": "function"
				},
				{
					"inputs": [
						{
							"internalType": "address",
							"name": "recipient",
							"type": "address"
						},
						{
							"internalType": "uint256",
							"name": "amount",
							"type": "uint256"
						}
					],
					"name": "transfer",
					"outputs": [
						{
							"internalType": "bool",
							"name": "",
							"type": "bool"
						}
					],
					"stateMutability": "nonpayable",
					"type": "function"
				},
				{
					"inputs": [
						{
							"internalType": "address",
							"name": "sender",
							"type": "address"
						},
						{
							"internalType": "address",
							"name": "recipient",
							"type": "address"
						},
						{
							"internalType": "uint256",
							"name": "amount",
							"type": "uint256"
						}
					],
					"name": "transferFrom",
					"outputs": [
						{
							"internalType": "bool",
							"name": "",
							"type": "bool"
						}
					],
					"stateMutability": "nonpayable",
					"type": "function"
				}
			],
			"devdoc": {
				"kind": "dev",
				"methods": {},
				"version": 1
			},
			"evm": {
				"assembly": "    /* \"contracts/erc20.sol\":68:1862  contract erc20 {... */\n  mstore(0x40, 0x80)\n    /* \"contracts/erc20.sol\":476:806  constructor (... */\n  callvalue\n  dup1\n  iszero\n  tag_1\n  jumpi\n  0x00\n  dup1\n  revert\ntag_1:\n  pop\n  mload(0x40)\n  sub(codesize, bytecodeSize)\n  dup1\n  bytecodeSize\n  dup4\n  codecopy\n  dup2\n  dup2\n  add\n  0x40\n  mstore\n  dup2\n  add\n  swap1\n  tag_2\n  swap2\n  swap1\n  tag_3\n  jump\t// in\ntag_2:\n    /* \"contracts/erc20.sol\":608:613  _name */\n  dup4\n    /* \"contracts/erc20.sol\":601:605  name */\n  0x00\n    /* \"contracts/erc20.sol\":601:613  name = _name */\n  swap1\n  dup2\n  tag_6\n  swap2\n  swap1\n  tag_7\n  jump\t// in\ntag_6:\n  pop\n    /* \"contracts/erc20.sol\":629:636  _symbol */\n  dup3\n    /* \"contracts/erc20.sol\":620:626  symbol */\n  0x01\n    /* \"contracts/erc20.sol\":620:636  symbol = _symbol */\n  swap1\n  dup2\n  tag_8\n  swap2\n  swap1\n  tag_7\n  jump\t// in\ntag_8:\n  pop\n    /* \"contracts/erc20.sol\":654:663  _decimals */\n  dup2\n    /* \"contracts/erc20.sol\":643:651  decimals */\n  0x02\n  0x00\n    /* \"contracts/erc20.sol\":643:663  decimals = _decimals */\n  0x0100\n  exp\n  dup2\n  sload\n  dup2\n  0xff\n  mul\n  not\n  and\n  swap1\n  dup4\n  0xff\n  and\n  mul\n  or\n  swap1\n  sstore\n  pop\n    /* \"contracts/erc20.sol\":684:696  _totalSupply */\n  dup1\n    /* \"contracts/erc20.sol\":670:681  totalSupply */\n  0x03\n    /* \"contracts/erc20.sol\":670:696  totalSupply = _totalSupply */\n  dup2\n  swap1\n  sstore\n  pop\n    /* \"contracts/erc20.sol\":729:740  totalSupply */\n  sload(0x03)\n    /* \"contracts/erc20.sol\":705:714  balanceOf */\n  0x04\n    /* \"contracts/erc20.sol\":705:726  balanceOf[msg.sender] */\n  0x00\n    /* \"contracts/erc20.sol\":715:725  msg.sender */\n  caller\n    /* \"contracts/erc20.sol\":705:726  balanceOf[msg.sender] */\n  0xffffffffffffffffffffffffffffffffffffffff\n  and\n  0xffffffffffffffffffffffffffffffffffffffff\n  and\n  dup2\n  mstore\n  0x20\n  add\n  swap1\n  dup2\n  mstore\n  0x20\n  add\n  0x00\n  keccak256\n    /* \"contracts/erc20.sol\":705:740  balanceOf[msg.sender] = totalSupply */\n  dup2\n  swap1\n  sstore\n  pop\n    /* \"contracts/erc20.sol\":776:786  msg.sender */\n  caller\n    /* \"contracts/erc20.sol\":752:800  Transfer(address(this), msg.sender, totalSupply) */\n  0xffffffffffffffffffffffffffffffffffffffff\n  and\n    /* \"contracts/erc20.sol\":769:773  this */\n  address\n    /* \"contracts/erc20.sol\":752:800  Transfer(address(this), msg.sender, totalSupply) */\n  0xffffffffffffffffffffffffffffffffffffffff\n  and\n  0xddf252ad1be2c89b69c2b068fc378daa952ba7f163c4a11628f55a4df523b3ef\n    /* \"contracts/erc20.sol\":788:799  totalSupply */\n  sload(0x03)\n    /* \"contracts/erc20.sol\":752:800  Transfer(address(this), msg.sender, totalSupply) */\n  mload(0x40)\n  tag_9\n  swap2\n  swap1\n  tag_10\n  jump\t// in\ntag_9:\n  mload(0x40)\n  dup1\n  swap2\n  sub\n  swap1\n  log3\n    /* \"contracts/erc20.sol\":476:806  constructor (... */\n  pop\n  pop\n  pop\n  pop\n    /* \"contracts/erc20.sol\":68:1862  contract erc20 {... */\n  jump(tag_11)\n    /* \"#utility.yul\":7:82   */\ntag_12:\n    /* \"#utility.yul\":40:46   */\n  0x00\n    /* \"#utility.yul\":73:75   */\n  0x40\n    /* \"#utility.yul\":67:76   */\n  mload\n    /* \"#utility.yul\":57:76   */\n  swap1\n  pop\n    /* \"#utility.yul\":7:82   */\n  swap1\n  jump\t// out\n    /* \"#utility.yul\":88:205   */\ntag_13:\n    /* \"#utility.yul\":197:198   */\n  0x00\n    /* \"#utility.yul\":194:195   */\n  dup1\n    /* \"#utility.yul\":187:199   */\n  revert\n    /* \"#utility.yul\":211:328   */\ntag_14:\n    /* \"#utility.yul\":320:321   */\n  0x00\n    /* \"#utility.yul\":317:318   */\n  dup1\n    /* \"#utility.yul\":310:322   */\n  revert\n    /* \"#utility.yul\":334:451   */\ntag_15:\n    /* \"#utility.yul\":443:444   */\n  0x00\n    /* \"#utility.yul\":440:441   */\n  dup1\n    /* \"#utility.yul\":433:445   */\n  revert\n    /* \"#utility.yul\":457:574   */\ntag_16:\n    /* \"#utility.yul\":566:567   */\n  0x00\n    /* \"#utility.yul\":563:564   */\n  dup1\n    /* \"#utility.yul\":556:568   */\n  revert\n    /* \"#utility.yul\":580:682   */\ntag_17:\n    /* \"#utility.yul\":621:627   */\n  0x00\n    /* \"#utility.yul\":672:674   */\n  0x1f\n    /* \"#utility.yul\":668:675   */\n  not\n    /* \"#utility.yul\":663:665   */\n  0x1f\n    /* \"#utility.yul\":656:661   */\n  dup4\n    /* \"#utility.yul\":652:666   */\n  add\n    /* \"#utility.yul\":648:676   */\n  and\n    /* \"#utility.yul\":638:676   */\n  swap1\n  pop\n    /* \"#utility.yul\":580:682   */\n  swap2\n  swap1\n  pop\n  jump\t// out\n    /* \"#utility.yul\":688:868   */\ntag_18:\n    /* \"#utility.yul\":736:813   */\n  0x4e487b7100000000000000000000000000000000000000000000000000000000\n    /* \"#utility.yul\":733:734   */\n  0x00\n    /* \"#utility.yul\":726:814   */\n  mstore\n    /* \"#utility.yul\":833:837   */\n  0x41\n    /* \"#utility.yul\":830:831   */\n  0x04\n    /* \"#utility.yul\":823:838   */\n  mstore\n    /* \"#utility.yul\":857:861   */\n  0x24\n    /* \"#utility.yul\":854:855   */\n  0x00\n    /* \"#utility.yul\":847:862   */\n  revert\n    /* \"#utility.yul\":874:1155   */\ntag_19:\n    /* \"#utility.yul\":957:984   */\n  tag_59\n    /* \"#utility.yul\":979:983   */\n  dup3\n    /* \"#utility.yul\":957:984   */\n  tag_17\n  jump\t// in\ntag_59:\n    /* \"#utility.yul\":949:955   */\n  dup2\n    /* \"#utility.yul\":945:985   */\n  add\n    /* \"#utility.yul\":1087:1093   */\n  dup2\n    /* \"#utility.yul\":1075:1085   */\n  dup2\n    /* \"#utility.yul\":1072:1094   */\n  lt\n    /* \"#utility.yul\":1051:1069   */\n  0xffffffffffffffff\n    /* \"#utility.yul\":1039:1049   */\n  dup3\n    /* \"#utility.yul\":1036:1070   */\n  gt\n    /* \"#utility.yul\":1033:1095   */\n  or\n    /* \"#utility.yul\":1030:1118   */\n  iszero\n  tag_60\n  jumpi\n    /* \"#utility.yul\":1098:1116   */\n  tag_61\n  tag_18\n  jump\t// in\ntag_61:\n    /* \"#utility.yul\":1030:1118   */\ntag_60:\n    /* \"#utility.yul\":1138:1148   */\n  dup1\n    /* \"#utility.yul\":1134:1136   */\n  0x40\n    /* \"#utility.yul\":1127:1149   */\n  mstore\n    /* \"#utility.yul\":917:1155   */\n  pop\n    /* \"#utility.yul\":874:1155   */\n  pop\n  pop\n  jump\t// out\n    /* \"#utility.yul\":1161:1290   */\ntag_20:\n    /* \"#utility.yul\":1195:1201   */\n  0x00\n    /* \"#utility.yul\":1222:1242   */\n  tag_63\n  tag_12\n  jump\t// in\ntag_63:\n    /* \"#utility.yul\":1212:1242   */\n  swap1\n  pop\n    /* \"#utility.yul\":1251:1284   */\n  tag_64\n    /* \"#utility.yul\":1279:1283   */\n  dup3\n    /* \"#utility.yul\":1271:1277   */\n  dup3\n    /* \"#utility.yul\":1251:1284   */\n  tag_19\n  jump\t// in\ntag_64:\n    /* \"#utility.yul\":1161:1290   */\n  swap2\n  swap1\n  pop\n  jump\t// out\n    /* \"#utility.yul\":1296:1604   */\ntag_21:\n    /* \"#utility.yul\":1358:1362   */\n  0x00\n    /* \"#utility.yul\":1448:1466   */\n  0xffffffffffffffff\n    /* \"#utility.yul\":1440:1446   */\n  dup3\n    /* \"#utility.yul\":1437:1467   */\n  gt\n    /* \"#utility.yul\":1434:1490   */\n  iszero\n  tag_66\n  jumpi\n    /* \"#utility.yul\":1470:1488   */\n  tag_67\n  tag_18\n  jump\t// in\ntag_67:\n    /* \"#utility.yul\":1434:1490   */\ntag_66:\n    /* \"#utility.yul\":1508:1537   */\n  tag_68\n    /* \"#utility.yul\":1530:1536   */\n  dup3\n    /* \"#utility.yul\":1508:1537   */\n  tag_17\n  jump\t// in\ntag_68:\n    /* \"#utility.yul\":1500:1537   */\n  swap1\n  pop\n    /* \"#utility.yul\":1592:1596   */\n  0x20\n    /* \"#utility.yul\":1586:1590   */\n  dup2\n    /* \"#utility.yul\":1582:1597   */\n  add\n    /* \"#utility.yul\":1574:1597   */\n  swap1\n  pop\n    /* \"#utility.yul\":1296:1604   */\n  swap2\n  swap1\n  pop\n  jump\t// out\n    /* \"#utility.yul\":1610:1749   */\ntag_22:\n    /* \"#utility.yul\":1699:1705   */\n  dup3\n    /* \"#utility.yul\":1694:1697   */\n  dup2\n    /* \"#utility.yul\":1689:1692   */\n  dup4\n    /* \"#utility.yul\":1683:1706   */\n  mcopy\n    /* \"#utility.yul\":1740:1741   */\n  0x00\n    /* \"#utility.yul\":1731:1737   */\n  dup4\n    /* \"#utility.yul\":1726:1729   */\n  dup4\n    /* \"#utility.yul\":1722:1738   */\n  add\n    /* \"#utility.yul\":1715:1742   */\n  mstore\n    /* \"#utility.yul\":1610:1749   */\n  pop\n  pop\n  pop\n  jump\t// out\n    /* \"#utility.yul\":1755:2189   */\ntag_23:\n    /* \"#utility.yul\":1844:1849   */\n  0x00\n    /* \"#utility.yul\":1869:1935   */\n  tag_71\n    /* \"#utility.yul\":1885:1934   */\n  tag_72\n    /* \"#utility.yul\":1927:1933   */\n  dup5\n    /* \"#utility.yul\":1885:1934   */\n  tag_21\n  jump\t// in\ntag_72:\n    /* \"#utility.yul\":1869:1935   */\n  tag_20\n  jump\t// in\ntag_71:\n    /* \"#utility.yul\":1860:1935   */\n  swap1\n  pop\n    /* \"#utility.yul\":1958:1964   */\n  dup3\n    /* \"#utility.yul\":1951:1956   */\n  dup2\n    /* \"#utility.yul\":1944:1965   */\n  mstore\n    /* \"#utility.yul\":1996:2000   */\n  0x20\n    /* \"#utility.yul\":1989:1994   */\n  dup2\n    /* \"#utility.yul\":1985:2001   */\n  add\n    /* \"#utility.yul\":2034:2037   */\n  dup5\n    /* \"#utility.yul\":2025:2031   */\n  dup5\n    /* \"#utility.yul\":2020:2023   */\n  dup5\n    /* \"#utility.yul\":2016:2032   */\n  add\n    /* \"#utility.yul\":2013:2038   */\n  gt\n    /* \"#utility.yul\":2010:2122   */\n  iszero\n  tag_73\n  jumpi\n    /* \"#utility.yul\":2041:2120   */\n  tag_74\n  tag_16\n  jump\t// in\ntag_74:\n    /* \"#utility.yul\":2010:2122   */\ntag_73:\n    /* \"#utility.yul\":2131:2183   */\n  tag_75\n    /* \"#utility.yul\":2176:2182   */\n  dup5\n    /* \"#utility.yul\":2171:2174   */\n  dup3\n    /* \"#utility.yul\":2166:2169   */\n  dup6\n    /* \"#utility.yul\":2131:2183   */\n  tag_22\n  jump\t// in\ntag_75:\n    /* \"#utility.yul\":1850:2189   */\n  pop\n    /* \"#utility.yul\":1755:2189   */\n  swap4\n  swap3\n  pop\n  pop\n  pop\n  jump\t// out\n    /* \"#utility.yul\":2209:2564   */\ntag_24:\n    /* \"#utility.yul\":2276:2281   */\n  0x00\n    /* \"#utility.yul\":2325:2328   */\n  dup3\n    /* \"#utility.yul\":2318:2322   */\n  0x1f\n    /* \"#utility.yul\":2310:2316   */\n  dup4\n    /* \"#utility.yul\":2306:2323   */\n  add\n    /* \"#utility.yul\":2302:2329   */\n  slt\n    /* \"#utility.yul\":2292:2414   */\n  tag_77\n  jumpi\n    /* \"#utility.yul\":2333:2412   */\n  tag_78\n  tag_15\n  jump\t// in\ntag_78:\n    /* \"#utility.yul\":2292:2414   */\ntag_77:\n    /* \"#utility.yul\":2443:2449   */\n  dup2\n    /* \"#utility.yul\":2437:2450   */\n  mload\n    /* \"#utility.yul\":2468:2558   */\n  tag_79\n    /* \"#utility.yul\":2554:2557   */\n  dup5\n    /* \"#utility.yul\":2546:2552   */\n  dup3\n    /* \"#utility.yul\":2539:2543   */\n  0x20\n    /* \"#utility.yul\":2531:2537   */\n  dup7\n    /* \"#utility.yul\":2527:2544   */\n  add\n    /* \"#utility.yul\":2468:2558   */\n  tag_23\n  jump\t// in\ntag_79:\n    /* \"#utility.yul\":2459:2558   */\n  swap2\n  pop\n    /* \"#utility.yul\":2282:2564   */\n  pop\n    /* \"#utility.yul\":2209:2564   */\n  swap3\n  swap2\n  pop\n  pop\n  jump\t// out\n    /* \"#utility.yul\":2570:2656   */\ntag_25:\n    /* \"#utility.yul\":2605:2612   */\n  0x00\n    /* \"#utility.yul\":2645:2649   */\n  0xff\n    /* \"#utility.yul\":2638:2643   */\n  dup3\n    /* \"#utility.yul\":2634:2650   */\n  and\n    /* \"#utility.yul\":2623:2650   */\n  swap1\n  pop\n    /* \"#utility.yul\":2570:2656   */\n  swap2\n  swap1\n  pop\n  jump\t// out\n    /* \"#utility.yul\":2662:2780   */\ntag_26:\n    /* \"#utility.yul\":2733:2755   */\n  tag_82\n    /* \"#utility.yul\":2749:2754   */\n  dup2\n    /* \"#utility.yul\":2733:2755   */\n  tag_25\n  jump\t// in\ntag_82:\n    /* \"#utility.yul\":2726:2731   */\n  dup2\n    /* \"#utility.yul\":2723:2756   */\n  eq\n    /* \"#utility.yul\":2713:2774   */\n  tag_83\n  jumpi\n    /* \"#utility.yul\":2770:2771   */\n  0x00\n    /* \"#utility.yul\":2767:2768   */\n  dup1\n    /* \"#utility.yul\":2760:2772   */\n  revert\n    /* \"#utility.yul\":2713:2774   */\ntag_83:\n    /* \"#utility.yul\":2662:2780   */\n  pop\n  jump\t// out\n    /* \"#utility.yul\":2786:2925   */\ntag_27:\n    /* \"#utility.yul\":2841:2846   */\n  0x00\n    /* \"#utility.yul\":2872:2878   */\n  dup2\n    /* \"#utility.yul\":2866:2879   */\n  mload\n    /* \"#utility.yul\":2857:2879   */\n  swap1\n  pop\n    /* \"#utility.yul\":2888:2919   */\n  tag_85\n    /* \"#utility.yul\":2913:2918   */\n  dup2\n    /* \"#utility.yul\":2888:2919   */\n  tag_26\n  jump\t// in\ntag_85:\n    /* \"#utility.yul\":2786:2925   */\n  swap3\n  swap2\n  pop\n  pop\n  jump\t// out\n    /* \"#utility.yul\":2931:3008   */\ntag_28:\n    /* \"#utility.yul\":2968:2975   */\n  0x00\n    /* \"#utility.yul\":2997:3002   */\n  dup2\n    /* \"#utility.yul\":2986:3002   */\n  swap1\n  pop\n    /* \"#utility.yul\":2931:3008   */\n  swap2\n  swap1\n  pop\n  jump\t// out\n    /* \"#utility.yul\":3014:3136   */\ntag_29:\n    /* \"#utility.yul\":3087:3111   */\n  tag_88\n    /* \"#utility.yul\":3105:3110   */\n  dup2\n    /* \"#utility.yul\":3087:3111   */\n  tag_28\n  jump\t// in\ntag_88:\n    /* \"#utility.yul\":3080:3085   */\n  dup2\n    /* \"#utility.yul\":3077:3112   */\n  eq\n    /* \"#utility.yul\":3067:3130   */\n  tag_89\n  jumpi\n    /* \"#utility.yul\":3126:3127   */\n  0x00\n    /* \"#utility.yul\":3123:3124   */\n  dup1\n    /* \"#utility.yul\":3116:3128   */\n  revert\n    /* \"#utility.yul\":3067:3130   */\ntag_89:\n    /* \"#utility.yul\":3014:3136   */\n  pop\n  jump\t// out\n    /* \"#utility.yul\":3142:3285   */\ntag_30:\n    /* \"#utility.yul\":3199:3204   */\n  0x00\n    /* \"#utility.yul\":3230:3236   */\n  dup2\n    /* \"#utility.yul\":3224:3237   */\n  mload\n    /* \"#utility.yul\":3215:3237   */\n  swap1\n  pop\n    /* \"#utility.yul\":3246:3279   */\n  tag_91\n    /* \"#utility.yul\":3273:3278   */\n  dup2\n    /* \"#utility.yul\":3246:3279   */\n  tag_29\n  jump\t// in\ntag_91:\n    /* \"#utility.yul\":3142:3285   */\n  swap3\n  swap2\n  pop\n  pop\n  jump\t// out\n    /* \"#utility.yul\":3291:4453   */\ntag_3:\n    /* \"#utility.yul\":3406:3412   */\n  0x00\n    /* \"#utility.yul\":3414:3420   */\n  dup1\n    /* \"#utility.yul\":3422:3428   */\n  0x00\n    /* \"#utility.yul\":3430:3436   */\n  dup1\n    /* \"#utility.yul\":3479:3482   */\n  0x80\n    /* \"#utility.yul\":3467:3476   */\n  dup6\n    /* \"#utility.yul\":3458:3465   */\n  dup8\n    /* \"#utility.yul\":3454:3477   */\n  sub\n    /* \"#utility.yul\":3450:3483   */\n  slt\n    /* \"#utility.yul\":3447:3567   */\n  iszero\n  tag_93\n  jumpi\n    /* \"#utility.yul\":3486:3565   */\n  tag_94\n  tag_13\n  jump\t// in\ntag_94:\n    /* \"#utility.yul\":3447:3567   */\ntag_93:\n    /* \"#utility.yul\":3627:3628   */\n  0x00\n    /* \"#utility.yul\":3616:3625   */\n  dup6\n    /* \"#utility.yul\":3612:3629   */\n  add\n    /* \"#utility.yul\":3606:3630   */\n  mload\n    /* \"#utility.yul\":3657:3675   */\n  0xffffffffffffffff\n    /* \"#utility.yul\":3649:3655   */\n  dup2\n    /* \"#utility.yul\":3646:3676   */\n  gt\n    /* \"#utility.yul\":3643:3760   */\n  iszero\n  tag_95\n  jumpi\n    /* \"#utility.yul\":3679:3758   */\n  tag_96\n  tag_14\n  jump\t// in\ntag_96:\n    /* \"#utility.yul\":3643:3760   */\ntag_95:\n    /* \"#utility.yul\":3784:3858   */\n  tag_97\n    /* \"#utility.yul\":3850:3857   */\n  dup8\n    /* \"#utility.yul\":3841:3847   */\n  dup3\n    /* \"#utility.yul\":3830:3839   */\n  dup9\n    /* \"#utility.yul\":3826:3848   */\n  add\n    /* \"#utility.yul\":3784:3858   */\n  tag_24\n  jump\t// in\ntag_97:\n    /* \"#utility.yul\":3774:3858   */\n  swap5\n  pop\n    /* \"#utility.yul\":3577:3868   */\n  pop\n    /* \"#utility.yul\":3928:3930   */\n  0x20\n    /* \"#utility.yul\":3917:3926   */\n  dup6\n    /* \"#utility.yul\":3913:3931   */\n  add\n    /* \"#utility.yul\":3907:3932   */\n  mload\n    /* \"#utility.yul\":3959:3977   */\n  0xffffffffffffffff\n    /* \"#utility.yul\":3951:3957   */\n  dup2\n    /* \"#utility.yul\":3948:3978   */\n  gt\n    /* \"#utility.yul\":3945:4062   */\n  iszero\n  tag_98\n  jumpi\n    /* \"#utility.yul\":3981:4060   */\n  tag_99\n  tag_14\n  jump\t// in\ntag_99:\n    /* \"#utility.yul\":3945:4062   */\ntag_98:\n    /* \"#utility.yul\":4086:4160   */\n  tag_100\n    /* \"#utility.yul\":4152:4159   */\n  dup8\n    /* \"#utility.yul\":4143:4149   */\n  dup3\n    /* \"#utility.yul\":4132:4141   */\n  dup9\n    /* \"#utility.yul\":4128:4150   */\n  add\n    /* \"#utility.yul\":4086:4160   */\n  tag_24\n  jump\t// in\ntag_100:\n    /* \"#utility.yul\":4076:4160   */\n  swap4\n  pop\n    /* \"#utility.yul\":3878:4170   */\n  pop\n    /* \"#utility.yul\":4209:4211   */\n  0x40\n    /* \"#utility.yul\":4235:4297   */\n  tag_101\n    /* \"#utility.yul\":4289:4296   */\n  dup8\n    /* \"#utility.yul\":4280:4286   */\n  dup3\n    /* \"#utility.yul\":4269:4278   */\n  dup9\n    /* \"#utility.yul\":4265:4287   */\n  add\n    /* \"#utility.yul\":4235:4297   */\n  tag_27\n  jump\t// in\ntag_101:\n    /* \"#utility.yul\":4225:4297   */\n  swap3\n  pop\n    /* \"#utility.yul\":4180:4307   */\n  pop\n    /* \"#utility.yul\":4346:4348   */\n  0x60\n    /* \"#utility.yul\":4372:4436   */\n  tag_102\n    /* \"#utility.yul\":4428:4435   */\n  dup8\n    /* \"#utility.yul\":4419:4425   */\n  dup3\n    /* \"#utility.yul\":4408:4417   */\n  dup9\n    /* \"#utility.yul\":4404:4426   */\n  add\n    /* \"#utility.yul\":4372:4436   */\n  tag_30\n  jump\t// in\ntag_102:\n    /* \"#utility.yul\":4362:4436   */\n  swap2\n  pop\n    /* \"#utility.yul\":4317:4446   */\n  pop\n    /* \"#utility.yul\":3291:4453   */\n  swap3\n  swap6\n  swap2\n  swap5\n  pop\n  swap3\n  pop\n  jump\t// out\n    /* \"#utility.yul\":4459:4558   */\ntag_31:\n    /* \"#utility.yul\":4511:4517   */\n  0x00\n    /* \"#utility.yul\":4545:4550   */\n  dup2\n    /* \"#utility.yul\":4539:4551   */\n  mload\n    /* \"#utility.yul\":4529:4551   */\n  swap1\n  pop\n    /* \"#utility.yul\":4459:4558   */\n  swap2\n  swap1\n  pop\n  jump\t// out\n    /* \"#utility.yul\":4564:4744   */\ntag_32:\n    /* \"#utility.yul\":4612:4689   */\n  0x4e487b7100000000000000000000000000000000000000000000000000000000\n    /* \"#utility.yul\":4609:4610   */\n  0x00\n    /* \"#utility.yul\":4602:4690   */\n  mstore\n    /* \"#utility.yul\":4709:4713   */\n  0x22\n    /* \"#utility.yul\":4706:4707   */\n  0x04\n    /* \"#utility.yul\":4699:4714   */\n  mstore\n    /* \"#utility.yul\":4733:4737   */\n  0x24\n    /* \"#utility.yul\":4730:4731   */\n  0x00\n    /* \"#utility.yul\":4723:4738   */\n  revert\n    /* \"#utility.yul\":4750:5070   */\ntag_33:\n    /* \"#utility.yul\":4794:4800   */\n  0x00\n    /* \"#utility.yul\":4831:4832   */\n  0x02\n    /* \"#utility.yul\":4825:4829   */\n  dup3\n    /* \"#utility.yul\":4821:4833   */\n  div\n    /* \"#utility.yul\":4811:4833   */\n  swap1\n  pop\n    /* \"#utility.yul\":4878:4879   */\n  0x01\n    /* \"#utility.yul\":4872:4876   */\n  dup3\n    /* \"#utility.yul\":4868:4880   */\n  and\n    /* \"#utility.yul\":4899:4917   */\n  dup1\n    /* \"#utility.yul\":4889:4970   */\n  tag_106\n  jumpi\n    /* \"#utility.yul\":4955:4959   */\n  0x7f\n    /* \"#utility.yul\":4947:4953   */\n  dup3\n    /* \"#utility.yul\":4943:4960   */\n  and\n    /* \"#utility.yul\":4933:4960   */\n  swap2\n  pop\n    /* \"#utility.yul\":4889:4970   */\ntag_106:\n    /* \"#utility.yul\":5017:5019   */\n  0x20\n    /* \"#utility.yul\":5009:5015   */\n  dup3\n    /* \"#utility.yul\":5006:5020   */\n  lt\n    /* \"#utility.yul\":4986:5004   */\n  dup2\n    /* \"#utility.yul\":4983:5021   */\n  sub\n    /* \"#utility.yul\":4980:5064   */\n  tag_107\n  jumpi\n    /* \"#utility.yul\":5036:5054   */\n  tag_108\n  tag_32\n  jump\t// in\ntag_108:\n    /* \"#utility.yul\":4980:5064   */\ntag_107:\n    /* \"#utility.yul\":4801:5070   */\n  pop\n    /* \"#utility.yul\":4750:5070   */\n  swap2\n  swap1\n  pop\n  jump\t// out\n    /* \"#utility.yul\":5076:5217   */\ntag_34:\n    /* \"#utility.yul\":5125:5129   */\n  0x00\n    /* \"#utility.yul\":5148:5151   */\n  dup2\n    /* \"#utility.yul\":5140:5151   */\n  swap1\n  pop\n    /* \"#utility.yul\":5171:5174   */\n  dup2\n    /* \"#utility.yul\":5168:5169   */\n  0x00\n    /* \"#utility.yul\":5161:5175   */\n  mstore\n    /* \"#utility.yul\":5205:5209   */\n  0x20\n    /* \"#utility.yul\":5202:5203   */\n  0x00\n    /* \"#utility.yul\":5192:5210   */\n  keccak256\n    /* \"#utility.yul\":5184:5210   */\n  swap1\n  pop\n    /* \"#utility.yul\":5076:5217   */\n  swap2\n  swap1\n  pop\n  jump\t// out\n    /* \"#utility.yul\":5223:5316   */\ntag_35:\n    /* \"#utility.yul\":5260:5266   */\n  0x00\n    /* \"#utility.yul\":5307:5309   */\n  0x20\n    /* \"#utility.yul\":5302:5304   */\n  0x1f\n    /* \"#utility.yul\":5295:5300   */\n  dup4\n    /* \"#utility.yul\":5291:5305   */\n  add\n    /* \"#utility.yul\":5287:5310   */\n  div\n    /* \"#utility.yul\":5277:5310   */\n  swap1\n  pop\n    /* \"#utility.yul\":5223:5316   */\n  swap2\n  swap1\n  pop\n  jump\t// out\n    /* \"#utility.yul\":5322:5429   */\ntag_36:\n    /* \"#utility.yul\":5366:5374   */\n  0x00\n    /* \"#utility.yul\":5416:5421   */\n  dup3\n    /* \"#utility.yul\":5410:5414   */\n  dup3\n    /* \"#utility.yul\":5406:5422   */\n  shl\n    /* \"#utility.yul\":5385:5422   */\n  swap1\n  pop\n    /* \"#utility.yul\":5322:5429   */\n  swap3\n  swap2\n  pop\n  pop\n  jump\t// out\n    /* \"#utility.yul\":5435:5828   */\ntag_37:\n    /* \"#utility.yul\":5504:5510   */\n  0x00\n    /* \"#utility.yul\":5554:5555   */\n  0x08\n    /* \"#utility.yul\":5542:5552   */\n  dup4\n    /* \"#utility.yul\":5538:5556   */\n  mul\n    /* \"#utility.yul\":5577:5674   */\n  tag_113\n    /* \"#utility.yul\":5607:5673   */\n  0xffffffffffffffffffffffffffffffffffffffffffffffffffffffffffffffff\n    /* \"#utility.yul\":5596:5605   */\n  dup3\n    /* \"#utility.yul\":5577:5674   */\n  tag_36\n  jump\t// in\ntag_113:\n    /* \"#utility.yul\":5695:5734   */\n  tag_114\n    /* \"#utility.yul\":5725:5733   */\n  dup7\n    /* \"#utility.yul\":5714:5723   */\n  dup4\n    /* \"#utility.yul\":5695:5734   */\n  tag_36\n  jump\t// in\ntag_114:\n    /* \"#utility.yul\":5683:5734   */\n  swap6\n  pop\n    /* \"#utility.yul\":5767:5771   */\n  dup1\n    /* \"#utility.yul\":5763:5772   */\n  not\n    /* \"#utility.yul\":5756:5761   */\n  dup5\n    /* \"#utility.yul\":5752:5773   */\n  and\n    /* \"#utility.yul\":5743:5773   */\n  swap4\n  pop\n    /* \"#utility.yul\":5816:5820   */\n  dup1\n    /* \"#utility.yul\":5806:5814   */\n  dup7\n    /* \"#utility.yul\":5802:5821   */\n  and\n    /* \"#utility.yul\":5795:5800   */\n  dup5\n    /* \"#utility.yul\":5792:5822   */\n  or\n    /* \"#utility.yul\":5782:5822   */\n  swap3\n  pop\n    /* \"#utility.yul\":5511:5828   */\n  pop\n  pop\n    /* \"#utility.yul\":5435:5828   */\n  swap4\n  swap3\n  pop\n  pop\n  pop\n  jump\t// out\n    /* \"#utility.yul\":5834:5894   */\ntag_38:\n    /* \"#utility.yul\":5862:5865   */\n  0x00\n    /* \"#utility.yul\":5883:5888   */\n  dup2\n    /* \"#utility.yul\":5876:5888   */\n  swap1\n  pop\n    /* \"#utility.yul\":5834:5894   */\n  swap2\n  swap1\n  pop\n  jump\t// out\n    /* \"#utility.yul\":5900:6042   */\ntag_39:\n    /* \"#utility.yul\":5950:5959   */\n  0x00\n    /* \"#utility.yul\":5983:6036   */\n  tag_117\n    /* \"#utility.yul\":6001:6035   */\n  tag_118\n    /* \"#utility.yul\":6010:6034   */\n  tag_119\n    /* \"#utility.yul\":6028:6033   */\n  dup5\n    /* \"#utility.yul\":6010:6034   */\n  tag_28\n  jump\t// in\ntag_119:\n    /* \"#utility.yul\":6001:6035   */\n  tag_38\n  jump\t// in\ntag_118:\n    /* \"#utility.yul\":5983:6036   */\n  tag_28\n  jump\t// in\ntag_117:\n    /* \"#utility.yul\":5970:6036   */\n  swap1\n  pop\n    /* \"#utility.yul\":5900:6042   */\n  swap2\n  swap1\n  pop\n  jump\t// out\n    /* \"#utility.yul\":6048:6123   */\ntag_40:\n    /* \"#utility.yul\":6091:6094   */\n  0x00\n    /* \"#utility.yul\":6112:6117   */\n  dup2\n    /* \"#utility.yul\":6105:6117   */\n  swap1\n  pop\n    /* \"#utility.yul\":6048:6123   */\n  swap2\n  swap1\n  pop\n  jump\t// out\n    /* \"#utility.yul\":6129:6398   */\ntag_41:\n    /* \"#utility.yul\":6239:6278   */\n  tag_122\n    /* \"#utility.yul\":6270:6277   */\n  dup4\n    /* \"#utility.yul\":6239:6278   */\n  tag_39\n  jump\t// in\ntag_122:\n    /* \"#utility.yul\":6300:6391   */\n  tag_123\n    /* \"#utility.yul\":6349:6390   */\n  tag_124\n    /* \"#utility.yul\":6373:6389   */\n  dup3\n    /* \"#utility.yul\":6349:6390   */\n  tag_40\n  jump\t// in\ntag_124:\n    /* \"#utility.yul\":6341:6347   */\n  dup5\n    /* \"#utility.yul\":6334:6338   */\n  dup5\n    /* \"#utility.yul\":6328:6339   */\n  sload\n    /* \"#utility.yul\":6300:6391   */\n  tag_37\n  jump\t// in\ntag_123:\n    /* \"#utility.yul\":6294:6298   */\n  dup3\n    /* \"#utility.yul\":6287:6392   */\n  sstore\n    /* \"#utility.yul\":6205:6398   */\n  pop\n    /* \"#utility.yul\":6129:6398   */\n  pop\n  pop\n  pop\n  jump\t// out\n    /* \"#utility.yul\":6404:6477   */\ntag_42:\n    /* \"#utility.yul\":6449:6452   */\n  0x00\n    /* \"#utility.yul\":6404:6477   */\n  swap1\n  jump\t// out\n    /* \"#utility.yul\":6483:6672   */\ntag_43:\n    /* \"#utility.yul\":6560:6592   */\n  tag_127\n  tag_42\n  jump\t// in\ntag_127:\n    /* \"#utility.yul\":6601:6666   */\n  tag_128\n    /* \"#utility.yul\":6659:6665   */\n  dup2\n    /* \"#utility.yul\":6651:6657   */\n  dup5\n    /* \"#utility.yul\":6645:6649   */\n  dup5\n    /* \"#utility.yul\":6601:6666   */\n  tag_41\n  jump\t// in\ntag_128:\n    /* \"#utility.yul\":6536:6672   */\n  pop\n    /* \"#utility.yul\":6483:6672   */\n  pop\n  pop\n  jump\t// out\n    /* \"#utility.yul\":6678:6864   */\ntag_44:\n    /* \"#utility.yul\":6738:6858   */\ntag_130:\n    /* \"#utility.yul\":6755:6758   */\n  dup2\n    /* \"#utility.yul\":6748:6753   */\n  dup2\n    /* \"#utility.yul\":6745:6759   */\n  lt\n    /* \"#utility.yul\":6738:6858   */\n  iszero\n  tag_132\n  jumpi\n    /* \"#utility.yul\":6809:6848   */\n  tag_133\n    /* \"#utility.yul\":6846:6847   */\n  0x00\n    /* \"#utility.yul\":6839:6844   */\n  dup3\n    /* \"#utility.yul\":6809:6848   */\n  tag_43\n  jump\t// in\ntag_133:\n    /* \"#utility.yul\":6782:6783   */\n  0x01\n    /* \"#utility.yul\":6775:6780   */\n  dup2\n    /* \"#utility.yul\":6771:6784   */\n  add\n    /* \"#utility.yul\":6762:6784   */\n  swap1\n  pop\n    /* \"#utility.yul\":6738:6858   */\n  jump(tag_130)\ntag_132:\n    /* \"#utility.yul\":6678:6864   */\n  pop\n  pop\n  jump\t// out\n    /* \"#utility.yul\":6870:7413   */\ntag_45:\n    /* \"#utility.yul\":6971:6973   */\n  0x1f\n    /* \"#utility.yul\":6966:6969   */\n  dup3\n    /* \"#utility.yul\":6963:6974   */\n  gt\n    /* \"#utility.yul\":6960:7406   */\n  iszero\n  tag_135\n  jumpi\n    /* \"#utility.yul\":7005:7043   */\n  tag_136\n    /* \"#utility.yul\":7037:7042   */\n  dup2\n    /* \"#utility.yul\":7005:7043   */\n  tag_34\n  jump\t// in\ntag_136:\n    /* \"#utility.yul\":7089:7118   */\n  tag_137\n    /* \"#utility.yul\":7107:7117   */\n  dup5\n    /* \"#utility.yul\":7089:7118   */\n  tag_35\n  jump\t// in\ntag_137:\n    /* \"#utility.yul\":7079:7087   */\n  dup2\n    /* \"#utility.yul\":7075:7119   */\n  add\n    /* \"#utility.yul\":7272:7274   */\n  0x20\n    /* \"#utility.yul\":7260:7270   */\n  dup6\n    /* \"#utility.yul\":7257:7275   */\n  lt\n    /* \"#utility.yul\":7254:7303   */\n  iszero\n  tag_138\n  jumpi\n    /* \"#utility.yul\":7293:7301   */\n  dup2\n    /* \"#utility.yul\":7278:7301   */\n  swap1\n  pop\n    /* \"#utility.yul\":7254:7303   */\ntag_138:\n    /* \"#utility.yul\":7316:7396   */\n  tag_139\n    /* \"#utility.yul\":7372:7394   */\n  tag_140\n    /* \"#utility.yul\":7390:7393   */\n  dup6\n    /* \"#utility.yul\":7372:7394   */\n  tag_35\n  jump\t// in\ntag_140:\n    /* \"#utility.yul\":7362:7370   */\n  dup4\n    /* \"#utility.yul\":7358:7395   */\n  add\n    /* \"#utility.yul\":7345:7356   */\n  dup3\n    /* \"#utility.yul\":7316:7396   */\n  tag_44\n  jump\t// in\ntag_139:\n    /* \"#utility.yul\":6975:7406   */\n  pop\n  pop\n    /* \"#utility.yul\":6960:7406   */\ntag_135:\n    /* \"#utility.yul\":6870:7413   */\n  pop\n  pop\n  pop\n  jump\t// out\n    /* \"#utility.yul\":7419:7536   */\ntag_46:\n    /* \"#utility.yul\":7473:7481   */\n  0x00\n    /* \"#utility.yul\":7523:7528   */\n  dup3\n    /* \"#utility.yul\":7517:7521   */\n  dup3\n    /* \"#utility.yul\":7513:7529   */\n  shr\n    /* \"#utility.yul\":7492:7529   */\n  swap1\n  pop\n    /* \"#utility.yul\":7419:7536   */\n  swap3\n  swap2\n  pop\n  pop\n  jump\t// out\n    /* \"#utility.yul\":7542:7711   */\ntag_47:\n    /* \"#utility.yul\":7586:7592   */\n  0x00\n    /* \"#utility.yul\":7619:7670   */\n  tag_143\n    /* \"#utility.yul\":7667:7668   */\n  0x00\n    /* \"#utility.yul\":7663:7669   */\n  not\n    /* \"#utility.yul\":7655:7660   */\n  dup5\n    /* \"#utility.yul\":7652:7653   */\n  0x08\n    /* \"#utility.yul\":7648:7661   */\n  mul\n    /* \"#utility.yul\":7619:7670   */\n  tag_46\n  jump\t// in\ntag_143:\n    /* \"#utility.yul\":7615:7671   */\n  not\n    /* \"#utility.yul\":7700:7704   */\n  dup1\n    /* \"#utility.yul\":7694:7698   */\n  dup4\n    /* \"#utility.yul\":7690:7705   */\n  and\n    /* \"#utility.yul\":7680:7705   */\n  swap2\n  pop\n    /* \"#utility.yul\":7593:7711   */\n  pop\n    /* \"#utility.yul\":7542:7711   */\n  swap3\n  swap2\n  pop\n  pop\n  jump\t// out\n    /* \"#utility.yul\":7716:8011   */\ntag_48:\n    /* \"#utility.yul\":7792:7796   */\n  0x00\n    /* \"#utility.yul\":7938:7967   */\n  tag_145\n    /* \"#utility.yul\":7963:7966   */\n  dup4\n    /* \"#utility.yul\":7957:7961   */\n  dup4\n    /* \"#utility.yul\":7938:7967   */\n  tag_47\n  jump\t// in\ntag_145:\n    /* \"#utility.yul\":7930:7967   */\n  swap2\n  pop\n    /* \"#utility.yul\":8000:8003   */\n  dup3\n    /* \"#utility.yul\":7997:7998   */\n  0x02\n    /* \"#utility.yul\":7993:8004   */\n  mul\n    /* \"#utility.yul\":7987:7991   */\n  dup3\n    /* \"#utility.yul\":7984:8005   */\n  or\n    /* \"#utility.yul\":7976:8005   */\n  swap1\n  pop\n    /* \"#utility.yul\":7716:8011   */\n  swap3\n  swap2\n  pop\n  pop\n  jump\t// out\n    /* \"#utility.yul\":8016:9411   */\ntag_7:\n    /* \"#utility.yul\":8133:8170   */\n  tag_147\n    /* \"#utility.yul\":8166:8169   */\n  dup3\n    /* \"#utility.yul\":8133:8170   */\n  tag_31\n  jump\t// in\ntag_147:\n    /* \"#utility.yul\":8235:8253   */\n  0xffffffffffffffff\n    /* \"#utility.yul\":8227:8233   */\n  dup2\n    /* \"#utility.yul\":8224:8254   */\n  gt\n    /* \"#utility.yul\":8221:8277   */\n  iszero\n  tag_148\n  jumpi\n    /* \"#utility.yul\":8257:8275   */\n  tag_149\n  tag_18\n  jump\t// in\ntag_149:\n    /* \"#utility.yul\":8221:8277   */\ntag_148:\n    /* \"#utility.yul\":8301:8339   */\n  tag_150\n    /* \"#utility.yul\":8333:8337   */\n  dup3\n    /* \"#utility.yul\":8327:8338   */\n  sload\n    /* \"#utility.yul\":8301:8339   */\n  tag_33\n  jump\t// in\ntag_150:\n    /* \"#utility.yul\":8386:8453   */\n  tag_151\n    /* \"#utility.yul\":8446:8452   */\n  dup3\n    /* \"#utility.yul\":8438:8444   */\n  dup3\n    /* \"#utility.yul\":8432:8436   */\n  dup6\n    /* \"#utility.yul\":8386:8453   */\n  tag_45\n  jump\t// in\ntag_151:\n    /* \"#utility.yul\":8480:8481   */\n  0x00\n    /* \"#utility.yul\":8504:8508   */\n  0x20\n    /* \"#utility.yul\":8491:8508   */\n  swap1\n  pop\n    /* \"#utility.yul\":8536:8538   */\n  0x1f\n    /* \"#utility.yul\":8528:8534   */\n  dup4\n    /* \"#utility.yul\":8525:8539   */\n  gt\n    /* \"#utility.yul\":8553:8554   */\n  0x01\n    /* \"#utility.yul\":8548:9166   */\n  dup2\n  eq\n  tag_153\n  jumpi\n    /* \"#utility.yul\":9210:9211   */\n  0x00\n    /* \"#utility.yul\":9227:9233   */\n  dup5\n    /* \"#utility.yul\":9224:9301   */\n  iszero\n  tag_154\n  jumpi\n    /* \"#utility.yul\":9276:9285   */\n  dup3\n    /* \"#utility.yul\":9271:9274   */\n  dup8\n    /* \"#utility.yul\":9267:9286   */\n  add\n    /* \"#utility.yul\":9261:9287   */\n  mload\n    /* \"#utility.yul\":9252:9287   */\n  swap1\n  pop\n    /* \"#utility.yul\":9224:9301   */\ntag_154:\n    /* \"#utility.yul\":9327:9394   */\n  tag_155\n    /* \"#utility.yul\":9387:9393   */\n  dup6\n    /* \"#utility.yul\":9380:9385   */\n  dup3\n    /* \"#utility.yul\":9327:9394   */\n  tag_48\n  jump\t// in\ntag_155:\n    /* \"#utility.yul\":9321:9325   */\n  dup7\n    /* \"#utility.yul\":9314:9395   */\n  sstore\n    /* \"#utility.yul\":9183:9405   */\n  pop\n    /* \"#utility.yul\":8518:9405   */\n  jump(tag_152)\n    /* \"#utility.yul\":8548:9166   */\ntag_153:\n    /* \"#utility.yul\":8600:8604   */\n  0x1f\n    /* \"#utility.yul\":8596:8605   */\n  not\n    /* \"#utility.yul\":8588:8594   */\n  dup5\n    /* \"#utility.yul\":8584:8606   */\n  and\n    /* \"#utility.yul\":8634:8671   */\n  tag_156\n    /* \"#utility.yul\":8666:8670   */\n  dup7\n    /* \"#utility.yul\":8634:8671   */\n  tag_34\n  jump\t// in\ntag_156:\n    /* \"#utility.yul\":8693:8694   */\n  0x00\n    /* \"#utility.yul\":8707:8915   */\ntag_157:\n    /* \"#utility.yul\":8721:8728   */\n  dup3\n    /* \"#utility.yul\":8718:8719   */\n  dup2\n    /* \"#utility.yul\":8715:8729   */\n  lt\n    /* \"#utility.yul\":8707:8915   */\n  iszero\n  tag_159\n  jumpi\n    /* \"#utility.yul\":8800:8809   */\n  dup5\n    /* \"#utility.yul\":8795:8798   */\n  dup10\n    /* \"#utility.yul\":8791:8810   */\n  add\n    /* \"#utility.yul\":8785:8811   */\n  mload\n    /* \"#utility.yul\":8777:8783   */\n  dup3\n    /* \"#utility.yul\":8770:8812   */\n  sstore\n    /* \"#utility.yul\":8851:8852   */\n  0x01\n    /* \"#utility.yul\":8843:8849   */\n  dup3\n    /* \"#utility.yul\":8839:8853   */\n  add\n    /* \"#utility.yul\":8829:8853   */\n  swap2\n  pop\n    /* \"#utility.yul\":8898:8900   */\n  0x20\n    /* \"#utility.yul\":8887:8896   */\n  dup6\n    /* \"#utility.yul\":8883:8901   */\n  add\n    /* \"#utility.yul\":8870:8901   */\n  swap5\n  pop\n    /* \"#utility.yul\":8744:8748   */\n  0x20\n    /* \"#utility.yul\":8741:8742   */\n  dup2\n    /* \"#utility.yul\":8737:8749   */\n  add\n    /* \"#utility.yul\":8732:8749   */\n  swap1\n  pop\n    /* \"#utility.yul\":8707:8915   */\n  jump(tag_157)\ntag_159:\n    /* \"#utility.yul\":8943:8949   */\n  dup7\n    /* \"#utility.yul\":8934:8941   */\n  dup4\n    /* \"#utility.yul\":8931:8950   */\n  lt\n    /* \"#utility.yul\":8928:9107   */\n  iszero\n  tag_160\n  jumpi\n    /* \"#utility.yul\":9001:9010   */\n  dup5\n    /* \"#utility.yul\":8996:8999   */\n  dup10\n    /* \"#utility.yul\":8992:9011   */\n  add\n    /* \"#utility.yul\":8986:9012   */\n  mload\n    /* \"#utility.yul\":9044:9092   */\n  tag_161\n    /* \"#utility.yul\":9086:9090   */\n  0x1f\n    /* \"#utility.yul\":9078:9084   */\n  dup10\n    /* \"#utility.yul\":9074:9091   */\n  and\n    /* \"#utility.yul\":9063:9072   */\n  dup3\n    /* \"#utility.yul\":9044:9092   */\n  tag_47\n  jump\t// in\ntag_161:\n    /* \"#utility.yul\":9036:9042   */\n  dup4\n    /* \"#utility.yul\":9029:9093   */\n  sstore\n    /* \"#utility.yul\":8951:9107   */\n  pop\n    /* \"#utility.yul\":8928:9107   */\ntag_160:\n    /* \"#utility.yul\":9153:9154   */\n  0x01\n    /* \"#utility.yul\":9149:9150   */\n  0x02\n    /* \"#utility.yul\":9141:9147   */\n  dup9\n    /* \"#utility.yul\":9137:9151   */\n  mul\n    /* \"#utility.yul\":9133:9155   */\n  add\n    /* \"#utility.yul\":9127:9131   */\n  dup9\n    /* \"#utility.yul\":9120:9156   */\n  sstore\n    /* \"#utility.yul\":8555:9166   */\n  pop\n  pop\n  pop\n    /* \"#utility.yul\":8518:9405   */\ntag_152:\n  pop\n    /* \"#utility.yul\":8108:9411   */\n  pop\n  pop\n  pop\n    /* \"#utility.yul\":8016:9411   */\n  pop\n  pop\n  jump\t// out\n    /* \"#utility.yul\":9417:9535   */\ntag_49:\n    /* \"#utility.yul\":9504:9528   */\n  tag_163\n    /* \"#utility.yul\":9522:9527   */\n  dup2\n    /* \"#utility.yul\":9504:9528   */\n  tag_28\n  jump\t// in\ntag_163:\n    /* \"#utility.yul\":9499:9502   */\n  dup3\n    /* \"#utility.yul\":9492:9529   */\n  mstore\n    /* \"#utility.yul\":9417:9535   */\n  pop\n  pop\n  jump\t// out\n    /* \"#utility.yul\":9541:9763   */\ntag_10:\n    /* \"#utility.yul\":9634:9638   */\n  0x00\n    /* \"#utility.yul\":9672:9674   */\n  0x20\n    /* \"#utility.yul\":9661:9670   */\n  dup3\n    /* \"#utility.yul\":9657:9675   */\n  add\n    /* \"#utility.yul\":9649:9675   */\n  swap1\n  pop\n    /* \"#utility.yul\":9685:9756   */\n  tag_165\n    /* \"#utility.yul\":9753:9754   */\n  0x00\n    /* \"#utility.yul\":9742:9751   */\n  dup4\n    /* \"#utility.yul\":9738:9755   */\n  add\n    /* \"#utility.yul\":9729:9735   */\n  dup5\n    /* \"#utility.yul\":9685:9756   */\n  tag_49\n  jump\t// in\ntag_165:\n    /* \"#utility.yul\":9541:9763   */\n  swap3\n  swap2\n  pop\n  pop\n  jump\t// out\n    /* \"contracts/erc20.sol\":68:1862  contract erc20 {... */\ntag_11:\n  dataSize(sub_0)\n  dup1\n  dataOffset(sub_0)\n  0x00\n  codecopy\n  0x00\n  return\nstop\n\nsub_0: assembly {\n        /* \"contracts/erc20.sol\":68:1862  contract erc20 {... */\n      mstore(0x40, 0x80)\n      callvalue\n      dup1\n      iszero\n      tag_1\n      jumpi\n      0x00\n      dup1\n      revert\n    tag_1:\n      pop\n      jumpi(tag_2, lt(calldatasize, 0x04))\n      shr(0xe0, calldataload(0x00))\n      dup1\n      0x313ce567\n      gt\n      tag_13\n      jumpi\n      dup1\n      0x313ce567\n      eq\n      tag_8\n      jumpi\n      dup1\n      0x70a08231\n      eq\n      tag_9\n      jumpi\n      dup1\n      0x95d89b41\n      eq\n      tag_10\n      jumpi\n      dup1\n      0xa9059cbb\n      eq\n      tag_11\n      jumpi\n      dup1\n      0xdd62ed3e\n      eq\n      tag_12\n      jumpi\n      jump(tag_2)\n    tag_13:\n      dup1\n      0x024c2ddd\n      eq\n      tag_3\n      jumpi\n      dup1\n      0x06fdde03\n      eq\n      tag_4\n      jumpi\n      dup1\n      0x095ea7b3\n      eq\n      tag_5\n      jumpi\n      dup1\n      0x18160ddd\n      eq\n      tag_6\n      jumpi\n      dup1\n      0x23b872dd\n      eq\n      tag_7\n      jumpi\n    tag_2:\n      0x00\n      dup1\n      revert\n        /* \"contracts/erc20.sol\":404:467  mapping(address => mapping(address => uint)) public _allowances */\n    tag_3:\n      tag_14\n      0x04\n      dup1\n      calldatasize\n      sub\n      dup2\n      add\n      swap1\n      tag_15\n      swap2\n      swap1\n      tag_16\n      jump\t// in\n    tag_15:\n      tag_17\n      jump\t// in\n    tag_14:\n      mload(0x40)\n      tag_18\n      swap2\n      swap1\n      tag_19\n      jump\t// in\n    tag_18:\n      mload(0x40)\n      dup1\n      swap2\n      sub\n      swap1\n      return\n        /* \"contracts/erc20.sol\":254:272  string public name */\n    tag_4:\n      tag_20\n      tag_21\n      jump\t// in\n    tag_20:\n      mload(0x40)\n      tag_22\n      swap2\n      swap1\n      tag_23\n      jump\t// in\n    tag_22:\n      mload(0x40)\n      dup1\n      swap2\n      sub\n      swap1\n      return\n        /* \"contracts/erc20.sol\":1337:1475  function approve(address spender, uint256 value) public returns (bool) {... */\n    tag_5:\n      tag_24\n      0x04\n      dup1\n      calldatasize\n      sub\n      dup2\n      add\n      swap1\n      tag_25\n      swap2\n      swap1\n      tag_26\n      jump\t// in\n    tag_25:\n      tag_27\n      jump\t// in\n    tag_24:\n      mload(0x40)\n      tag_28\n      swap2\n      swap1\n      tag_29\n      jump\t// in\n    tag_28:\n      mload(0x40)\n      dup1\n      swap2\n      sub\n      swap1\n      return\n        /* \"contracts/erc20.sol\":328:351  uint public totalSupply */\n    tag_6:\n      tag_30\n      tag_31\n      jump\t// in\n    tag_30:\n      mload(0x40)\n      tag_32\n      swap2\n      swap1\n      tag_19\n      jump\t// in\n    tag_32:\n      mload(0x40)\n      dup1\n      swap2\n      sub\n      swap1\n      return\n        /* \"contracts/erc20.sol\":962:1201  function transferFrom(address sender, address recipient, uint256 amount) public returns (bool) {... */\n    tag_7:\n      tag_33\n      0x04\n      dup1\n      calldatasize\n      sub\n      dup2\n      add\n      swap1\n      tag_34\n      swap2\n      swap1\n      tag_35\n      jump\t// in\n    tag_34:\n      tag_36\n      jump\t// in\n    tag_33:\n      mload(0x40)\n      tag_37\n      swap2\n      swap1\n      tag_29\n      jump\t// in\n    tag_37:\n      mload(0x40)\n      dup1\n      swap2\n      sub\n      swap1\n      return\n        /* \"contracts/erc20.sol\":302:323  uint8 public decimals */\n    tag_8:\n      tag_38\n      tag_39\n      jump\t// in\n    tag_38:\n      mload(0x40)\n      tag_40\n      swap2\n      swap1\n      tag_41\n      jump\t// in\n    tag_40:\n      mload(0x40)\n      dup1\n      swap2\n      sub\n      swap1\n      return\n        /* \"contracts/erc20.sol\":358:399  mapping(address => uint) public balanceOf */\n    tag_9:\n      tag_42\n      0x04\n      dup1\n      calldatasize\n      sub\n      dup2\n      add\n      swap1\n      tag_43\n      swap2\n      swap1\n      tag_44\n      jump\t// in\n    tag_43:\n      tag_45\n      jump\t// in\n    tag_42:\n      mload(0x40)\n      tag_46\n      swap2\n      swap1\n      tag_19\n      jump\t// in\n    tag_46:\n      mload(0x40)\n      dup1\n      swap2\n      sub\n      swap1\n      return\n        /* \"contracts/erc20.sol\":277:297  string public symbol */\n    tag_10:\n      tag_47\n      tag_48\n      jump\t// in\n    tag_47:\n      mload(0x40)\n      tag_49\n      swap2\n      swap1\n      tag_23\n      jump\t// in\n    tag_49:\n      mload(0x40)\n      dup1\n      swap2\n      sub\n      swap1\n      return\n        /* \"contracts/erc20.sol\":812:958  function transfer(address recipient, uint256 amount) public returns (bool) {... */\n    tag_11:\n      tag_50\n      0x04\n      dup1\n      calldatasize\n      sub\n      dup2\n      add\n      swap1\n      tag_51\n      swap2\n      swap1\n      tag_26\n      jump\t// in\n    tag_51:\n      tag_52\n      jump\t// in\n    tag_50:\n      mload(0x40)\n      tag_53\n      swap2\n      swap1\n      tag_29\n      jump\t// in\n    tag_53:\n      mload(0x40)\n      dup1\n      swap2\n      sub\n      swap1\n      return\n        /* \"contracts/erc20.sol\":1205:1333  function allowance(address owner, address spender) public view returns (uint256) {... */\n    tag_12:\n      tag_54\n      0x04\n      dup1\n      calldatasize\n      sub\n      dup2\n      add\n      swap1\n      tag_55\n      swap2\n      swap1\n      tag_16\n      jump\t// in\n    tag_55:\n      tag_56\n      jump\t// in\n    tag_54:\n      mload(0x40)\n      tag_57\n      swap2\n      swap1\n      tag_19\n      jump\t// in\n    tag_57:\n      mload(0x40)\n      dup1\n      swap2\n      sub\n      swap1\n      return\n        /* \"contracts/erc20.sol\":404:467  mapping(address => mapping(address => uint)) public _allowances */\n    tag_17:\n      mstore(0x20, 0x05)\n      dup2\n      0x00\n      mstore\n      mstore(0x20, keccak256(0x00, 0x40))\n      dup1\n      0x00\n      mstore\n      keccak256(0x00, 0x40)\n      0x00\n      swap2\n      pop\n      swap2\n      pop\n      pop\n      sload\n      dup2\n      jump\t// out\n        /* \"contracts/erc20.sol\":254:272  string public name */\n    tag_21:\n      0x00\n      dup1\n      sload\n      tag_58\n      swap1\n      tag_59\n      jump\t// in\n    tag_58:\n      dup1\n      0x1f\n      add\n      0x20\n      dup1\n      swap2\n      div\n      mul\n      0x20\n      add\n      mload(0x40)\n      swap1\n      dup2\n      add\n      0x40\n      mstore\n      dup1\n      swap3\n      swap2\n      swap1\n      dup2\n      dup2\n      mstore\n      0x20\n      add\n      dup3\n      dup1\n      sload\n      tag_60\n      swap1\n      tag_59\n      jump\t// in\n    tag_60:\n      dup1\n      iszero\n      tag_61\n      jumpi\n      dup1\n      0x1f\n      lt\n      tag_62\n      jumpi\n      0x0100\n      dup1\n      dup4\n      sload\n      div\n      mul\n      dup4\n      mstore\n      swap2\n      0x20\n      add\n      swap2\n      jump(tag_61)\n    tag_62:\n      dup3\n      add\n      swap2\n      swap1\n      0x00\n      mstore\n      keccak256(0x00, 0x20)\n      swap1\n    tag_63:\n      dup2\n      sload\n      dup2\n      mstore\n      swap1\n      0x01\n      add\n      swap1\n      0x20\n      add\n      dup1\n      dup4\n      gt\n      tag_63\n      jumpi\n      dup3\n      swap1\n      sub\n      0x1f\n      and\n      dup3\n      add\n      swap2\n    tag_61:\n      pop\n      pop\n      pop\n      pop\n      pop\n      dup2\n      jump\t// out\n        /* \"contracts/erc20.sol\":1337:1475  function approve(address spender, uint256 value) public returns (bool) {... */\n    tag_27:\n        /* \"contracts/erc20.sol\":1402:1406  bool */\n      0x00\n        /* \"contracts/erc20.sol\":1415:1451  _approve(msg.sender, spender, value) */\n      tag_65\n        /* \"contracts/erc20.sol\":1424:1434  msg.sender */\n      caller\n        /* \"contracts/erc20.sol\":1436:1443  spender */\n      dup5\n        /* \"contracts/erc20.sol\":1445:1450  value */\n      dup5\n        /* \"contracts/erc20.sol\":1415:1423  _approve */\n      tag_66\n        /* \"contracts/erc20.sol\":1415:1451  _approve(msg.sender, spender, value) */\n      jump\t// in\n    tag_65:\n        /* \"contracts/erc20.sol\":1465:1469  true */\n      0x01\n        /* \"contracts/erc20.sol\":1458:1469  return true */\n      swap1\n      pop\n        /* \"contracts/erc20.sol\":1337:1475  function approve(address spender, uint256 value) public returns (bool) {... */\n      swap3\n      swap2\n      pop\n      pop\n      jump\t// out\n        /* \"contracts/erc20.sol\":328:351  uint public totalSupply */\n    tag_31:\n      sload(0x03)\n      dup2\n      jump\t// out\n        /* \"contracts/erc20.sol\":962:1201  function transferFrom(address sender, address recipient, uint256 amount) public returns (bool) {... */\n    tag_36:\n        /* \"contracts/erc20.sol\":1051:1055  bool */\n      0x00\n        /* \"contracts/erc20.sol\":1064:1100  _transfer(sender, recipient, amount) */\n      tag_68\n        /* \"contracts/erc20.sol\":1074:1080  sender */\n      dup5\n        /* \"contracts/erc20.sol\":1082:1091  recipient */\n      dup5\n        /* \"contracts/erc20.sol\":1093:1099  amount */\n      dup5\n        /* \"contracts/erc20.sol\":1064:1073  _transfer */\n      tag_69\n        /* \"contracts/erc20.sol\":1064:1100  _transfer(sender, recipient, amount) */\n      jump\t// in\n    tag_68:\n        /* \"contracts/erc20.sol\":1107:1177  _approve(sender, msg.sender, _allowances[sender][msg.sender] - amount) */\n      tag_70\n        /* \"contracts/erc20.sol\":1116:1122  sender */\n      dup5\n        /* \"contracts/erc20.sol\":1124:1134  msg.sender */\n      caller\n        /* \"contracts/erc20.sol\":1170:1176  amount */\n      dup5\n        /* \"contracts/erc20.sol\":1136:1147  _allowances */\n      0x05\n        /* \"contracts/erc20.sol\":1136:1155  _allowances[sender] */\n      0x00\n        /* \"contracts/erc20.sol\":1148:1154  sender */\n      dup10\n        /* \"contracts/erc20.sol\":1136:1155  _allowances[sender] */\n      0xffffffffffffffffffffffffffffffffffffffff\n      and\n      0xffffffffffffffffffffffffffffffffffffffff\n      and\n      dup2\n      mstore\n      0x20\n      add\n      swap1\n      dup2\n      mstore\n      0x20\n      add\n      0x00\n      keccak256\n        /* \"contracts/erc20.sol\":1136:1167  _allowances[sender][msg.sender] */\n      0x00\n        /* \"contracts/erc20.sol\":1156:1166  msg.sender */\n      caller\n        /* \"contracts/erc20.sol\":1136:1167  _allowances[sender][msg.sender] */\n      0xffffffffffffffffffffffffffffffffffffffff\n      and\n      0xffffffffffffffffffffffffffffffffffffffff\n      and\n      dup2\n      mstore\n      0x20\n      add\n      swap1\n      dup2\n      mstore\n      0x20\n      add\n      0x00\n      keccak256\n      sload\n        /* \"contracts/erc20.sol\":1136:1176  _allowances[sender][msg.sender] - amount */\n      tag_71\n      swap2\n      swap1\n      tag_72\n      jump\t// in\n    tag_71:\n        /* \"contracts/erc20.sol\":1107:1115  _approve */\n      tag_66\n        /* \"contracts/erc20.sol\":1107:1177  _approve(sender, msg.sender, _allowances[sender][msg.sender] - amount) */\n      jump\t// in\n    tag_70:\n        /* \"contracts/erc20.sol\":1191:1195  true */\n      0x01\n        /* \"contracts/erc20.sol\":1184:1195  return true */\n      swap1\n      pop\n        /* \"contracts/erc20.sol\":962:1201  function transferFrom(address sender, address recipient, uint256 amount) public returns (bool) {... */\n      swap4\n      swap3\n      pop\n      pop\n      pop\n      jump\t// out\n        /* \"contracts/erc20.sol\":302:323  uint8 public decimals */\n    tag_39:\n      0x02\n      0x00\n      swap1\n      sload\n      swap1\n      0x0100\n      exp\n      swap1\n      div\n      0xff\n      and\n      dup2\n      jump\t// out\n        /* \"contracts/erc20.sol\":358:399  mapping(address => uint) public balanceOf */\n    tag_45:\n      mstore(0x20, 0x04)\n      dup1\n      0x00\n      mstore\n      keccak256(0x00, 0x40)\n      0x00\n      swap2\n      pop\n      swap1\n      pop\n      sload\n      dup2\n      jump\t// out\n        /* \"contracts/erc20.sol\":277:297  string public symbol */\n    tag_48:\n      0x01\n      dup1\n      sload\n      tag_73\n      swap1\n      tag_59\n      jump\t// in\n    tag_73:\n      dup1\n      0x1f\n      add\n      0x20\n      dup1\n      swap2\n      div\n      mul\n      0x20\n      add\n      mload(0x40)\n      swap1\n      dup2\n      add\n      0x40\n      mstore\n      dup1\n      swap3\n      swap2\n      swap1\n      dup2\n      dup2\n      mstore\n      0x20\n      add\n      dup3\n      dup1\n      sload\n      tag_74\n      swap1\n      tag_59\n      jump\t// in\n    tag_74:\n      dup1\n      iszero\n      tag_75\n      jumpi\n      dup1\n      0x1f\n      lt\n      tag_76\n      jumpi\n      0x0100\n      dup1\n      dup4\n      sload\n      div\n      mul\n      dup4\n      mstore\n      swap2\n      0x20\n      add\n      swap2\n      jump(tag_75)\n    tag_76:\n      dup3\n      add\n      swap2\n      swap1\n      0x00\n      mstore\n      keccak256(0x00, 0x20)\n      swap1\n    tag_77:\n      dup2\n      sload\n      dup2\n      mstore\n      swap1\n      0x01\n      add\n      swap1\n      0x20\n      add\n      dup1\n      dup4\n      gt\n      tag_77\n      jumpi\n      dup3\n      swap1\n      sub\n      0x1f\n      and\n      dup3\n      add\n      swap2\n    tag_75:\n      pop\n      pop\n      pop\n      pop\n      pop\n      dup2\n      jump\t// out\n        /* \"contracts/erc20.sol\":812:958  function transfer(address recipient, uint256 amount) public returns (bool) {... */\n    tag_52:\n        /* \"contracts/erc20.sol\":881:885  bool */\n      0x00\n        /* \"contracts/erc20.sol\":894:934  _transfer(msg.sender, recipient, amount) */\n      tag_79\n        /* \"contracts/erc20.sol\":904:914  msg.sender */\n      caller\n        /* \"contracts/erc20.sol\":916:925  recipient */\n      dup5\n        /* \"contracts/erc20.sol\":927:933  amount */\n      dup5\n        /* \"contracts/erc20.sol\":894:903  _transfer */\n      tag_69\n        /* \"contracts/erc20.sol\":894:934  _transfer(msg.sender, recipient, amount) */\n      jump\t// in\n    tag_79:\n        /* \"contracts/erc20.sol\":948:952  true */\n      0x01\n        /* \"contracts/erc20.sol\":941:952  return true */\n      swap1\n      pop\n        /* \"contracts/erc20.sol\":812:958  function transfer(address recipient, uint256 amount) public returns (bool) {... */\n      swap3\n      swap2\n      pop\n      pop\n      jump\t// out\n        /* \"contracts/erc20.sol\":1205:1333  function allowance(address owner, address spender) public view returns (uint256) {... */\n    tag_56:\n        /* \"contracts/erc20.sol\":1277:1284  uint256 */\n      0x00\n        /* \"contracts/erc20.sol\":1300:1311  _allowances */\n      0x05\n        /* \"contracts/erc20.sol\":1300:1318  _allowances[owner] */\n      0x00\n        /* \"contracts/erc20.sol\":1312:1317  owner */\n      dup5\n        /* \"contracts/erc20.sol\":1300:1318  _allowances[owner] */\n      0xffffffffffffffffffffffffffffffffffffffff\n      and\n      0xffffffffffffffffffffffffffffffffffffffff\n      and\n      dup2\n      mstore\n      0x20\n      add\n      swap1\n      dup2\n      mstore\n      0x20\n      add\n      0x00\n      keccak256\n        /* \"contracts/erc20.sol\":1300:1327  _allowances[owner][spender] */\n      0x00\n        /* \"contracts/erc20.sol\":1319:1326  spender */\n      dup4\n        /* \"contracts/erc20.sol\":1300:1327  _allowances[owner][spender] */\n      0xffffffffffffffffffffffffffffffffffffffff\n      and\n      0xffffffffffffffffffffffffffffffffffffffff\n      and\n      dup2\n      mstore\n      0x20\n      add\n      swap1\n      dup2\n      mstore\n      0x20\n      add\n      0x00\n      keccak256\n      sload\n        /* \"contracts/erc20.sol\":1293:1327  return _allowances[owner][spender] */\n      swap1\n      pop\n        /* \"contracts/erc20.sol\":1205:1333  function allowance(address owner, address spender) public view returns (uint256) {... */\n      swap3\n      swap2\n      pop\n      pop\n      jump\t// out\n        /* \"contracts/erc20.sol\":1692:1859  function _approve(address owner, address spender, uint256 value) internal {... */\n    tag_66:\n        /* \"contracts/erc20.sol\":1803:1808  value */\n      dup1\n        /* \"contracts/erc20.sol\":1773:1784  _allowances */\n      0x05\n        /* \"contracts/erc20.sol\":1773:1791  _allowances[owner] */\n      0x00\n        /* \"contracts/erc20.sol\":1785:1790  owner */\n      dup6\n        /* \"contracts/erc20.sol\":1773:1791  _allowances[owner] */\n      0xffffffffffffffffffffffffffffffffffffffff\n      and\n      0xffffffffffffffffffffffffffffffffffffffff\n      and\n      dup2\n      mstore\n      0x20\n      add\n      swap1\n      dup2\n      mstore\n      0x20\n      add\n      0x00\n      keccak256\n        /* \"contracts/erc20.sol\":1773:1800  _allowances[owner][spender] */\n      0x00\n        /* \"contracts/erc20.sol\":1792:1799  spender */\n      dup5\n        /* \"contracts/erc20.sol\":1773:1800  _allowances[owner][spender] */\n      0xffffffffffffffffffffffffffffffffffffffff\n      and\n      0xffffffffffffffffffffffffffffffffffffffff\n      and\n      dup2\n      mstore\n      0x20\n      add\n      swap1\n      dup2\n      mstore\n      0x20\n      add\n      0x00\n      keccak256\n        /* \"contracts/erc20.sol\":1773:1808  _allowances[owner][spender] = value */\n      dup2\n      swap1\n      sstore\n      pop\n        /* \"contracts/erc20.sol\":1838:1845  spender */\n      dup2\n        /* \"contracts/erc20.sol\":1822:1853  Approval(owner, spender, value) */\n      0xffffffffffffffffffffffffffffffffffffffff\n      and\n        /* \"contracts/erc20.sol\":1831:1836  owner */\n      dup4\n        /* \"contracts/erc20.sol\":1822:1853  Approval(owner, spender, value) */\n      0xffffffffffffffffffffffffffffffffffffffff\n      and\n      0x8c5be1e5ebec7d5bd14f71427d1e84f3dd0314c0f7b2291e5b200ac8c7c3b925\n        /* \"contracts/erc20.sol\":1847:1852  value */\n      dup4\n        /* \"contracts/erc20.sol\":1822:1853  Approval(owner, spender, value) */\n      mload(0x40)\n      tag_82\n      swap2\n      swap1\n      tag_19\n      jump\t// in\n    tag_82:\n      mload(0x40)\n      dup1\n      swap2\n      sub\n      swap1\n      log3\n        /* \"contracts/erc20.sol\":1692:1859  function _approve(address owner, address spender, uint256 value) internal {... */\n      pop\n      pop\n      pop\n      jump\t// out\n        /* \"contracts/erc20.sol\":1481:1686  function _transfer(address sender, address recipient, uint256 amount) internal {... */\n    tag_69:\n        /* \"contracts/erc20.sol\":1588:1594  amount */\n      dup1\n        /* \"contracts/erc20.sol\":1567:1576  balanceOf */\n      0x04\n        /* \"contracts/erc20.sol\":1567:1584  balanceOf[sender] */\n      0x00\n        /* \"contracts/erc20.sol\":1577:1583  sender */\n      dup6\n        /* \"contracts/erc20.sol\":1567:1584  balanceOf[sender] */\n      0xffffffffffffffffffffffffffffffffffffffff\n      and\n      0xffffffffffffffffffffffffffffffffffffffff\n      and\n      dup2\n      mstore\n      0x20\n      add\n      swap1\n      dup2\n      mstore\n      0x20\n      add\n      0x00\n      keccak256\n      0x00\n        /* \"contracts/erc20.sol\":1567:1594  balanceOf[sender] -= amount */\n      dup3\n      dup3\n      sload\n      tag_84\n      swap2\n      swap1\n      tag_72\n      jump\t// in\n    tag_84:\n      swap3\n      pop\n      pop\n      dup2\n      swap1\n      sstore\n      pop\n        /* \"contracts/erc20.sol\":1625:1631  amount */\n      dup1\n        /* \"contracts/erc20.sol\":1601:1610  balanceOf */\n      0x04\n        /* \"contracts/erc20.sol\":1601:1621  balanceOf[recipient] */\n      0x00\n        /* \"contracts/erc20.sol\":1611:1620  recipient */\n      dup5\n        /* \"contracts/erc20.sol\":1601:1621  balanceOf[recipient] */\n      0xffffffffffffffffffffffffffffffffffffffff\n      and\n      0xffffffffffffffffffffffffffffffffffffffff\n      and\n      dup2\n      mstore\n      0x20\n      add\n      swap1\n      dup2\n      mstore\n      0x20\n      add\n      0x00\n      keccak256\n      0x00\n        /* \"contracts/erc20.sol\":1601:1631  balanceOf[recipient] += amount */\n      dup3\n      dup3\n      sload\n      tag_85\n      swap2\n      swap1\n      tag_86\n      jump\t// in\n    tag_85:\n      swap3\n      pop\n      pop\n      dup2\n      swap1\n      sstore\n      pop\n        /* \"contracts/erc20.sol\":1662:1671  recipient */\n      dup2\n        /* \"contracts/erc20.sol\":1645:1680  Transfer(sender, recipient, amount) */\n      0xffffffffffffffffffffffffffffffffffffffff\n      and\n        /* \"contracts/erc20.sol\":1654:1660  sender */\n      dup4\n        /* \"contracts/erc20.sol\":1645:1680  Transfer(sender, recipient, amount) */\n      0xffffffffffffffffffffffffffffffffffffffff\n      and\n      0xddf252ad1be2c89b69c2b068fc378daa952ba7f163c4a11628f55a4df523b3ef\n        /* \"contracts/erc20.sol\":1673:1679  amount */\n      dup4\n        /* \"contracts/erc20.sol\":1645:1680  Transfer(sender, recipient, amount) */\n      mload(0x40)\n      tag_87\n      swap2\n      swap1\n      tag_19\n      jump\t// in\n    tag_87:\n      mload(0x40)\n      dup1\n      swap2\n      sub\n      swap1\n      log3\n        /* \"contracts/erc20.sol\":1481:1686  function _transfer(address sender, address recipient, uint256 amount) internal {... */\n      pop\n      pop\n      pop\n      jump\t// out\n        /* \"#utility.yul\":88:205   */\n    tag_89:\n        /* \"#utility.yul\":197:198   */\n      0x00\n        /* \"#utility.yul\":194:195   */\n      dup1\n        /* \"#utility.yul\":187:199   */\n      revert\n        /* \"#utility.yul\":334:460   */\n    tag_91:\n        /* \"#utility.yul\":371:378   */\n      0x00\n        /* \"#utility.yul\":411:453   */\n      0xffffffffffffffffffffffffffffffffffffffff\n        /* \"#utility.yul\":404:409   */\n      dup3\n        /* \"#utility.yul\":400:454   */\n      and\n        /* \"#utility.yul\":389:454   */\n      swap1\n      pop\n        /* \"#utility.yul\":334:460   */\n      swap2\n      swap1\n      pop\n      jump\t// out\n        /* \"#utility.yul\":466:562   */\n    tag_92:\n        /* \"#utility.yul\":503:510   */\n      0x00\n        /* \"#utility.yul\":532:556   */\n      tag_116\n        /* \"#utility.yul\":550:555   */\n      dup3\n        /* \"#utility.yul\":532:556   */\n      tag_91\n      jump\t// in\n    tag_116:\n        /* \"#utility.yul\":521:556   */\n      swap1\n      pop\n        /* \"#utility.yul\":466:562   */\n      swap2\n      swap1\n      pop\n      jump\t// out\n        /* \"#utility.yul\":568:690   */\n    tag_93:\n        /* \"#utility.yul\":641:665   */\n      tag_118\n        /* \"#utility.yul\":659:664   */\n      dup2\n        /* \"#utility.yul\":641:665   */\n      tag_92\n      jump\t// in\n    tag_118:\n        /* \"#utility.yul\":634:639   */\n      dup2\n        /* \"#utility.yul\":631:666   */\n      eq\n        /* \"#utility.yul\":621:684   */\n      tag_119\n      jumpi\n        /* \"#utility.yul\":680:681   */\n      0x00\n        /* \"#utility.yul\":677:678   */\n      dup1\n        /* \"#utility.yul\":670:682   */\n      revert\n        /* \"#utility.yul\":621:684   */\n    tag_119:\n        /* \"#utility.yul\":568:690   */\n      pop\n      jump\t// out\n        /* \"#utility.yul\":696:835   */\n    tag_94:\n        /* \"#utility.yul\":742:747   */\n      0x00\n        /* \"#utility.yul\":780:786   */\n      dup2\n        /* \"#utility.yul\":767:787   */\n      calldataload\n        /* \"#utility.yul\":758:787   */\n      swap1\n      pop\n        /* \"#utility.yul\":796:829   */\n      tag_121\n        /* \"#utility.yul\":823:828   */\n      dup2\n        /* \"#utility.yul\":796:829   */\n      tag_93\n      jump\t// in\n    tag_121:\n        /* \"#utility.yul\":696:835   */\n      swap3\n      swap2\n      pop\n      pop\n      jump\t// out\n        /* \"#utility.yul\":841:1315   */\n    tag_16:\n        /* \"#utility.yul\":909:915   */\n      0x00\n        /* \"#utility.yul\":917:923   */\n      dup1\n        /* \"#utility.yul\":966:968   */\n      0x40\n        /* \"#utility.yul\":954:963   */\n      dup4\n        /* \"#utility.yul\":945:952   */\n      dup6\n        /* \"#utility.yul\":941:964   */\n      sub\n        /* \"#utility.yul\":937:969   */\n      slt\n        /* \"#utility.yul\":934:1053   */\n      iszero\n      tag_123\n      jumpi\n        /* \"#utility.yul\":972:1051   */\n      tag_124\n      tag_89\n      jump\t// in\n    tag_124:\n        /* \"#utility.yul\":934:1053   */\n    tag_123:\n        /* \"#utility.yul\":1092:1093   */\n      0x00\n        /* \"#utility.yul\":1117:1170   */\n      tag_125\n        /* \"#utility.yul\":1162:1169   */\n      dup6\n        /* \"#utility.yul\":1153:1159   */\n      dup3\n        /* \"#utility.yul\":1142:1151   */\n      dup7\n        /* \"#utility.yul\":1138:1160   */\n      add\n        /* \"#utility.yul\":1117:1170   */\n      tag_94\n      jump\t// in\n    tag_125:\n        /* \"#utility.yul\":1107:1170   */\n      swap3\n      pop\n        /* \"#utility.yul\":1063:1180   */\n      pop\n        /* \"#utility.yul\":1219:1221   */\n      0x20\n        /* \"#utility.yul\":1245:1298   */\n      tag_126\n        /* \"#utility.yul\":1290:1297   */\n      dup6\n        /* \"#utility.yul\":1281:1287   */\n      dup3\n        /* \"#utility.yul\":1270:1279   */\n      dup7\n        /* \"#utility.yul\":1266:1288   */\n      add\n        /* \"#utility.yul\":1245:1298   */\n      tag_94\n      jump\t// in\n    tag_126:\n        /* \"#utility.yul\":1235:1298   */\n      swap2\n      pop\n        /* \"#utility.yul\":1190:1308   */\n      pop\n        /* \"#utility.yul\":841:1315   */\n      swap3\n      pop\n      swap3\n      swap1\n      pop\n      jump\t// out\n        /* \"#utility.yul\":1321:1398   */\n    tag_95:\n        /* \"#utility.yul\":1358:1365   */\n      0x00\n        /* \"#utility.yul\":1387:1392   */\n      dup2\n        /* \"#utility.yul\":1376:1392   */\n      swap1\n      pop\n        /* \"#utility.yul\":1321:1398   */\n      swap2\n      swap1\n      pop\n      jump\t// out\n        /* \"#utility.yul\":1404:1522   */\n    tag_96:\n        /* \"#utility.yul\":1491:1515   */\n      tag_129\n        /* \"#utility.yul\":1509:1514   */\n      dup2\n        /* \"#utility.yul\":1491:1515   */\n      tag_95\n      jump\t// in\n    tag_129:\n        /* \"#utility.yul\":1486:1489   */\n      dup3\n        /* \"#utility.yul\":1479:1516   */\n      mstore\n        /* \"#utility.yul\":1404:1522   */\n      pop\n      pop\n      jump\t// out\n        /* \"#utility.yul\":1528:1750   */\n    tag_19:\n        /* \"#utility.yul\":1621:1625   */\n      0x00\n        /* \"#utility.yul\":1659:1661   */\n      0x20\n        /* \"#utility.yul\":1648:1657   */\n      dup3\n        /* \"#utility.yul\":1644:1662   */\n      add\n        /* \"#utility.yul\":1636:1662   */\n      swap1\n      pop\n        /* \"#utility.yul\":1672:1743   */\n      tag_131\n        /* \"#utility.yul\":1740:1741   */\n      0x00\n        /* \"#utility.yul\":1729:1738   */\n      dup4\n        /* \"#utility.yul\":1725:1742   */\n      add\n        /* \"#utility.yul\":1716:1722   */\n      dup5\n        /* \"#utility.yul\":1672:1743   */\n      tag_96\n      jump\t// in\n    tag_131:\n        /* \"#utility.yul\":1528:1750   */\n      swap3\n      swap2\n      pop\n      pop\n      jump\t// out\n        /* \"#utility.yul\":1756:1855   */\n    tag_97:\n        /* \"#utility.yul\":1808:1814   */\n      0x00\n        /* \"#utility.yul\":1842:1847   */\n      dup2\n        /* \"#utility.yul\":1836:1848   */\n      mload\n        /* \"#utility.yul\":1826:1848   */\n      swap1\n      pop\n        /* \"#utility.yul\":1756:1855   */\n      swap2\n      swap1\n      pop\n      jump\t// out\n        /* \"#utility.yul\":1861:2030   */\n    tag_98:\n        /* \"#utility.yul\":1945:1956   */\n      0x00\n        /* \"#utility.yul\":1979:1985   */\n      dup3\n        /* \"#utility.yul\":1974:1977   */\n      dup3\n        /* \"#utility.yul\":1967:1986   */\n      mstore\n        /* \"#utility.yul\":2019:2023   */\n      0x20\n        /* \"#utility.yul\":2014:2017   */\n      dup3\n        /* \"#utility.yul\":2010:2024   */\n      add\n        /* \"#utility.yul\":1995:2024   */\n      swap1\n      pop\n        /* \"#utility.yul\":1861:2030   */\n      swap3\n      swap2\n      pop\n      pop\n      jump\t// out\n        /* \"#utility.yul\":2036:2175   */\n    tag_99:\n        /* \"#utility.yul\":2125:2131   */\n      dup3\n        /* \"#utility.yul\":2120:2123   */\n      dup2\n        /* \"#utility.yul\":2115:2118   */\n      dup4\n        /* \"#utility.yul\":2109:2132   */\n      mcopy\n        /* \"#utility.yul\":2166:2167   */\n      0x00\n        /* \"#utility.yul\":2157:2163   */\n      dup4\n        /* \"#utility.yul\":2152:2155   */\n      dup4\n        /* \"#utility.yul\":2148:2164   */\n      add\n        /* \"#utility.yul\":2141:2168   */\n      mstore\n        /* \"#utility.yul\":2036:2175   */\n      pop\n      pop\n      pop\n      jump\t// out\n        /* \"#utility.yul\":2181:2283   */\n    tag_100:\n        /* \"#utility.yul\":2222:2228   */\n      0x00\n        /* \"#utility.yul\":2273:2275   */\n      0x1f\n        /* \"#utility.yul\":2269:2276   */\n      not\n        /* \"#utility.yul\":2264:2266   */\n      0x1f\n        /* \"#utility.yul\":2257:2262   */\n      dup4\n        /* \"#utility.yul\":2253:2267   */\n      add\n        /* \"#utility.yul\":2249:2277   */\n      and\n        /* \"#utility.yul\":2239:2277   */\n      swap1\n      pop\n        /* \"#utility.yul\":2181:2283   */\n      swap2\n      swap1\n      pop\n      jump\t// out\n        /* \"#utility.yul\":2289:2666   */\n    tag_101:\n        /* \"#utility.yul\":2377:2380   */\n      0x00\n        /* \"#utility.yul\":2405:2444   */\n      tag_137\n        /* \"#utility.yul\":2438:2443   */\n      dup3\n        /* \"#utility.yul\":2405:2444   */\n      tag_97\n      jump\t// in\n    tag_137:\n        /* \"#utility.yul\":2460:2531   */\n      tag_138\n        /* \"#utility.yul\":2524:2530   */\n      dup2\n        /* \"#utility.yul\":2519:2522   */\n      dup6\n        /* \"#utility.yul\":2460:2531   */\n      tag_98\n      jump\t// in\n    tag_138:\n        /* \"#utility.yul\":2453:2531   */\n      swap4\n      pop\n        /* \"#utility.yul\":2540:2605   */\n      tag_139\n        /* \"#utility.yul\":2598:2604   */\n      dup2\n        /* \"#utility.yul\":2593:2596   */\n      dup6\n        /* \"#utility.yul\":2586:2590   */\n      0x20\n        /* \"#utility.yul\":2579:2584   */\n      dup7\n        /* \"#utility.yul\":2575:2591   */\n      add\n        /* \"#utility.yul\":2540:2605   */\n      tag_99\n      jump\t// in\n    tag_139:\n        /* \"#utility.yul\":2630:2659   */\n      tag_140\n        /* \"#utility.yul\":2652:2658   */\n      dup2\n        /* \"#utility.yul\":2630:2659   */\n      tag_100\n      jump\t// in\n    tag_140:\n        /* \"#utility.yul\":2625:2628   */\n      dup5\n        /* \"#utility.yul\":2621:2660   */\n      add\n        /* \"#utility.yul\":2614:2660   */\n      swap2\n      pop\n        /* \"#utility.yul\":2381:2666   */\n      pop\n        /* \"#utility.yul\":2289:2666   */\n      swap3\n      swap2\n      pop\n      pop\n      jump\t// out\n        /* \"#utility.yul\":2672:2985   */\n    tag_23:\n        /* \"#utility.yul\":2785:2789   */\n      0x00\n        /* \"#utility.yul\":2823:2825   */\n      0x20\n        /* \"#utility.yul\":2812:2821   */\n      dup3\n        /* \"#utility.yul\":2808:2826   */\n      add\n        /* \"#utility.yul\":2800:2826   */\n      swap1\n      pop\n        /* \"#utility.yul\":2872:2881   */\n      dup2\n        /* \"#utility.yul\":2866:2870   */\n      dup2\n        /* \"#utility.yul\":2862:2882   */\n      sub\n        /* \"#utility.yul\":2858:2859   */\n      0x00\n        /* \"#utility.yul\":2847:2856   */\n      dup4\n        /* \"#utility.yul\":2843:2860   */\n      add\n        /* \"#utility.yul\":2836:2883   */\n      mstore\n        /* \"#utility.yul\":2900:2978   */\n      tag_142\n        /* \"#utility.yul\":2973:2977   */\n      dup2\n        /* \"#utility.yul\":2964:2970   */\n      dup5\n        /* \"#utility.yul\":2900:2978   */\n      tag_101\n      jump\t// in\n    tag_142:\n        /* \"#utility.yul\":2892:2978   */\n      swap1\n      pop\n        /* \"#utility.yul\":2672:2985   */\n      swap3\n      swap2\n      pop\n      pop\n      jump\t// out\n        /* \"#utility.yul\":2991:3113   */\n    tag_102:\n        /* \"#utility.yul\":3064:3088   */\n      tag_144\n        /* \"#utility.yul\":3082:3087   */\n      dup2\n        /* \"#utility.yul\":3064:3088   */\n      tag_95\n      jump\t// in\n    tag_144:\n        /* \"#utility.yul\":3057:3062   */\n      dup2\n        /* \"#utility.yul\":3054:3089   */\n      eq\n        /* \"#utility.yul\":3044:3107   */\n      tag_145\n      jumpi\n        /* \"#utility.yul\":3103:3104   */\n      0x00\n        /* \"#utility.yul\":3100:3101   */\n      dup1\n        /* \"#utility.yul\":3093:3105   */\n      revert\n        /* \"#utility.yul\":3044:3107   */\n    tag_145:\n        /* \"#utility.yul\":2991:3113   */\n      pop\n      jump\t// out\n        /* \"#utility.yul\":3119:3258   */\n    tag_103:\n        /* \"#utility.yul\":3165:3170   */\n      0x00\n        /* \"#utility.yul\":3203:3209   */\n      dup2\n        /* \"#utility.yul\":3190:3210   */\n      calldataload\n        /* \"#utility.yul\":3181:3210   */\n      swap1\n      pop\n        /* \"#utility.yul\":3219:3252   */\n      tag_147\n        /* \"#utility.yul\":3246:3251   */\n      dup2\n        /* \"#utility.yul\":3219:3252   */\n      tag_102\n      jump\t// in\n    tag_147:\n        /* \"#utility.yul\":3119:3258   */\n      swap3\n      swap2\n      pop\n      pop\n      jump\t// out\n        /* \"#utility.yul\":3264:3738   */\n    tag_26:\n        /* \"#utility.yul\":3332:3338   */\n      0x00\n        /* \"#utility.yul\":3340:3346   */\n      dup1\n        /* \"#utility.yul\":3389:3391   */\n      0x40\n        /* \"#utility.yul\":3377:3386   */\n      dup4\n        /* \"#utility.yul\":3368:3375   */\n      dup6\n        /* \"#utility.yul\":3364:3387   */\n      sub\n        /* \"#utility.yul\":3360:3392   */\n      slt\n        /* \"#utility.yul\":3357:3476   */\n      iszero\n      tag_149\n      jumpi\n        /* \"#utility.yul\":3395:3474   */\n      tag_150\n      tag_89\n      jump\t// in\n    tag_150:\n        /* \"#utility.yul\":3357:3476   */\n    tag_149:\n        /* \"#utility.yul\":3515:3516   */\n      0x00\n        /* \"#utility.yul\":3540:3593   */\n      tag_151\n        /* \"#utility.yul\":3585:3592   */\n      dup6\n        /* \"#utility.yul\":3576:3582   */\n      dup3\n        /* \"#utility.yul\":3565:3574   */\n      dup7\n        /* \"#utility.yul\":3561:3583   */\n      add\n        /* \"#utility.yul\":3540:3593   */\n      tag_94\n      jump\t// in\n    tag_151:\n        /* \"#utility.yul\":3530:3593   */\n      swap3\n      pop\n        /* \"#utility.yul\":3486:3603   */\n      pop\n        /* \"#utility.yul\":3642:3644   */\n      0x20\n        /* \"#utility.yul\":3668:3721   */\n      tag_152\n        /* \"#utility.yul\":3713:3720   */\n      dup6\n        /* \"#utility.yul\":3704:3710   */\n      dup3\n        /* \"#utility.yul\":3693:3702   */\n      dup7\n        /* \"#utility.yul\":3689:3711   */\n      add\n        /* \"#utility.yul\":3668:3721   */\n      tag_103\n      jump\t// in\n    tag_152:\n        /* \"#utility.yul\":3658:3721   */\n      swap2\n      pop\n        /* \"#utility.yul\":3613:3731   */\n      pop\n        /* \"#utility.yul\":3264:3738   */\n      swap3\n      pop\n      swap3\n      swap1\n      pop\n      jump\t// out\n        /* \"#utility.yul\":3744:3834   */\n    tag_104:\n        /* \"#utility.yul\":3778:3785   */\n      0x00\n        /* \"#utility.yul\":3821:3826   */\n      dup2\n        /* \"#utility.yul\":3814:3827   */\n      iszero\n        /* \"#utility.yul\":3807:3828   */\n      iszero\n        /* \"#utility.yul\":3796:3828   */\n      swap1\n      pop\n        /* \"#utility.yul\":3744:3834   */\n      swap2\n      swap1\n      pop\n      jump\t// out\n        /* \"#utility.yul\":3840:3949   */\n    tag_105:\n        /* \"#utility.yul\":3921:3942   */\n      tag_155\n        /* \"#utility.yul\":3936:3941   */\n      dup2\n        /* \"#utility.yul\":3921:3942   */\n      tag_104\n      jump\t// in\n    tag_155:\n        /* \"#utility.yul\":3916:3919   */\n      dup3\n        /* \"#utility.yul\":3909:3943   */\n      mstore\n        /* \"#utility.yul\":3840:3949   */\n      pop\n      pop\n      jump\t// out\n        /* \"#utility.yul\":3955:4165   */\n    tag_29:\n        /* \"#utility.yul\":4042:4046   */\n      0x00\n        /* \"#utility.yul\":4080:4082   */\n      0x20\n        /* \"#utility.yul\":4069:4078   */\n      dup3\n        /* \"#utility.yul\":4065:4083   */\n      add\n        /* \"#utility.yul\":4057:4083   */\n      swap1\n      pop\n        /* \"#utility.yul\":4093:4158   */\n      tag_157\n        /* \"#utility.yul\":4155:4156   */\n      0x00\n        /* \"#utility.yul\":4144:4153   */\n      dup4\n        /* \"#utility.yul\":4140:4157   */\n      add\n        /* \"#utility.yul\":4131:4137   */\n      dup5\n        /* \"#utility.yul\":4093:4158   */\n      tag_105\n      jump\t// in\n    tag_157:\n        /* \"#utility.yul\":3955:4165   */\n      swap3\n      swap2\n      pop\n      pop\n      jump\t// out\n        /* \"#utility.yul\":4171:4790   */\n    tag_35:\n        /* \"#utility.yul\":4248:4254   */\n      0x00\n        /* \"#utility.yul\":4256:4262   */\n      dup1\n        /* \"#utility.yul\":4264:4270   */\n      0x00\n        /* \"#utility.yul\":4313:4315   */\n      0x60\n        /* \"#utility.yul\":4301:4310   */\n      dup5\n        /* \"#utility.yul\":4292:4299   */\n      dup7\n        /* \"#utility.yul\":4288:4311   */\n      sub\n        /* \"#utility.yul\":4284:4316   */\n      slt\n        /* \"#utility.yul\":4281:4400   */\n      iszero\n      tag_159\n      jumpi\n        /* \"#utility.yul\":4319:4398   */\n      tag_160\n      tag_89\n      jump\t// in\n    tag_160:\n        /* \"#utility.yul\":4281:4400   */\n    tag_159:\n        /* \"#utility.yul\":4439:4440   */\n      0x00\n        /* \"#utility.yul\":4464:4517   */\n      tag_161\n        /* \"#utility.yul\":4509:4516   */\n      dup7\n        /* \"#utility.yul\":4500:4506   */\n      dup3\n        /* \"#utility.yul\":4489:4498   */\n      dup8\n        /* \"#utility.yul\":4485:4507   */\n      add\n        /* \"#utility.yul\":4464:4517   */\n      tag_94\n      jump\t// in\n    tag_161:\n        /* \"#utility.yul\":4454:4517   */\n      swap4\n      pop\n        /* \"#utility.yul\":4410:4527   */\n      pop\n        /* \"#utility.yul\":4566:4568   */\n      0x20\n        /* \"#utility.yul\":4592:4645   */\n      tag_162\n        /* \"#utility.yul\":4637:4644   */\n      dup7\n        /* \"#utility.yul\":4628:4634   */\n      dup3\n        /* \"#utility.yul\":4617:4626   */\n      dup8\n        /* \"#utility.yul\":4613:4635   */\n      add\n        /* \"#utility.yul\":4592:4645   */\n      tag_94\n      jump\t// in\n    tag_162:\n        /* \"#utility.yul\":4582:4645   */\n      swap3\n      pop\n        /* \"#utility.yul\":4537:4655   */\n      pop\n        /* \"#utility.yul\":4694:4696   */\n      0x40\n        /* \"#utility.yul\":4720:4773   */\n      tag_163\n        /* \"#utility.yul\":4765:4772   */\n      dup7\n        /* \"#utility.yul\":4756:4762   */\n      dup3\n        /* \"#utility.yul\":4745:4754   */\n      dup8\n        /* \"#utility.yul\":4741:4763   */\n      add\n        /* \"#utility.yul\":4720:4773   */\n      tag_103\n      jump\t// in\n    tag_163:\n        /* \"#utility.yul\":4710:4773   */\n      swap2\n      pop\n        /* \"#utility.yul\":4665:4783   */\n      pop\n        /* \"#utility.yul\":4171:4790   */\n      swap3\n      pop\n      swap3\n      pop\n      swap3\n      jump\t// out\n        /* \"#utility.yul\":4796:4882   */\n    tag_106:\n        /* \"#utility.yul\":4831:4838   */\n      0x00\n        /* \"#utility.yul\":4871:4875   */\n      0xff\n        /* \"#utility.yul\":4864:4869   */\n      dup3\n        /* \"#utility.yul\":4860:4876   */\n      and\n        /* \"#utility.yul\":4849:4876   */\n      swap1\n      pop\n        /* \"#utility.yul\":4796:4882   */\n      swap2\n      swap1\n      pop\n      jump\t// out\n        /* \"#utility.yul\":4888:5000   */\n    tag_107:\n        /* \"#utility.yul\":4971:4993   */\n      tag_166\n        /* \"#utility.yul\":4987:4992   */\n      dup2\n        /* \"#utility.yul\":4971:4993   */\n      tag_106\n      jump\t// in\n    tag_166:\n        /* \"#utility.yul\":4966:4969   */\n      dup3\n        /* \"#utility.yul\":4959:4994   */\n      mstore\n        /* \"#utility.yul\":4888:5000   */\n      pop\n      pop\n      jump\t// out\n        /* \"#utility.yul\":5006:5220   */\n    tag_41:\n        /* \"#utility.yul\":5095:5099   */\n      0x00\n        /* \"#utility.yul\":5133:5135   */\n      0x20\n        /* \"#utility.yul\":5122:5131   */\n      dup3\n        /* \"#utility.yul\":5118:5136   */\n      add\n        /* \"#utility.yul\":5110:5136   */\n      swap1\n      pop\n        /* \"#utility.yul\":5146:5213   */\n      tag_168\n        /* \"#utility.yul\":5210:5211   */\n      0x00\n        /* \"#utility.yul\":5199:5208   */\n      dup4\n        /* \"#utility.yul\":5195:5212   */\n      add\n        /* \"#utility.yul\":5186:5192   */\n      dup5\n        /* \"#utility.yul\":5146:5213   */\n      tag_107\n      jump\t// in\n    tag_168:\n        /* \"#utility.yul\":5006:5220   */\n      swap3\n      swap2\n      pop\n      pop\n      jump\t// out\n        /* \"#utility.yul\":5226:5555   */\n    tag_44:\n        /* \"#utility.yul\":5285:5291   */\n      0x00\n        /* \"#utility.yul\":5334:5336   */\n      0x20\n        /* \"#utility.yul\":5322:5331   */\n      dup3\n        /* \"#utility.yul\":5313:5320   */\n      dup5\n        /* \"#utility.yul\":5309:5332   */\n      sub\n        /* \"#utility.yul\":5305:5337   */\n      slt\n        /* \"#utility.yul\":5302:5421   */\n      iszero\n      tag_170\n      jumpi\n        /* \"#utility.yul\":5340:5419   */\n      tag_171\n      tag_89\n      jump\t// in\n    tag_171:\n        /* \"#utility.yul\":5302:5421   */\n    tag_170:\n        /* \"#utility.yul\":5460:5461   */\n      0x00\n        /* \"#utility.yul\":5485:5538   */\n      tag_172\n        /* \"#utility.yul\":5530:5537   */\n      dup5\n        /* \"#utility.yul\":5521:5527   */\n      dup3\n        /* \"#utility.yul\":5510:5519   */\n      dup6\n        /* \"#utility.yul\":5506:5528   */\n      add\n        /* \"#utility.yul\":5485:5538   */\n      tag_94\n      jump\t// in\n    tag_172:\n        /* \"#utility.yul\":5475:5538   */\n      swap2\n      pop\n        /* \"#utility.yul\":5431:5548   */\n      pop\n        /* \"#utility.yul\":5226:5555   */\n      swap3\n      swap2\n      pop\n      pop\n      jump\t// out\n        /* \"#utility.yul\":5561:5741   */\n    tag_108:\n        /* \"#utility.yul\":5609:5686   */\n      0x4e487b7100000000000000000000000000000000000000000000000000000000\n        /* \"#utility.yul\":5606:5607   */\n      0x00\n        /* \"#utility.yul\":5599:5687   */\n      mstore\n        /* \"#utility.yul\":5706:5710   */\n      0x22\n        /* \"#utility.yul\":5703:5704   */\n      0x04\n        /* \"#utility.yul\":5696:5711   */\n      mstore\n        /* \"#utility.yul\":5730:5734   */\n      0x24\n        /* \"#utility.yul\":5727:5728   */\n      0x00\n        /* \"#utility.yul\":5720:5735   */\n      revert\n        /* \"#utility.yul\":5747:6067   */\n    tag_59:\n        /* \"#utility.yul\":5791:5797   */\n      0x00\n        /* \"#utility.yul\":5828:5829   */\n      0x02\n        /* \"#utility.yul\":5822:5826   */\n      dup3\n        /* \"#utility.yul\":5818:5830   */\n      div\n        /* \"#utility.yul\":5808:5830   */\n      swap1\n      pop\n        /* \"#utility.yul\":5875:5876   */\n      0x01\n        /* \"#utility.yul\":5869:5873   */\n      dup3\n        /* \"#utility.yul\":5865:5877   */\n      and\n        /* \"#utility.yul\":5896:5914   */\n      dup1\n        /* \"#utility.yul\":5886:5967   */\n      tag_175\n      jumpi\n        /* \"#utility.yul\":5952:5956   */\n      0x7f\n        /* \"#utility.yul\":5944:5950   */\n      dup3\n        /* \"#utility.yul\":5940:5957   */\n      and\n        /* \"#utility.yul\":5930:5957   */\n      swap2\n      pop\n        /* \"#utility.yul\":5886:5967   */\n    tag_175:\n        /* \"#utility.yul\":6014:6016   */\n      0x20\n        /* \"#utility.yul\":6006:6012   */\n      dup3\n        /* \"#utility.yul\":6003:6017   */\n      lt\n        /* \"#utility.yul\":5983:6001   */\n      dup2\n        /* \"#utility.yul\":5980:6018   */\n      sub\n        /* \"#utility.yul\":5977:6061   */\n      tag_176\n      jumpi\n        /* \"#utility.yul\":6033:6051   */\n      tag_177\n      tag_108\n      jump\t// in\n    tag_177:\n        /* \"#utility.yul\":5977:6061   */\n    tag_176:\n        /* \"#utility.yul\":5798:6067   */\n      pop\n        /* \"#utility.yul\":5747:6067   */\n      swap2\n      swap1\n      pop\n      jump\t// out\n        /* \"#utility.yul\":6073:6253   */\n    tag_109:\n        /* \"#utility.yul\":6121:6198   */\n      0x4e487b7100000000000000000000000000000000000000000000000000000000\n        /* \"#utility.yul\":6118:6119   */\n      0x00\n        /* \"#utility.yul\":6111:6199   */\n      mstore\n        /* \"#utility.yul\":6218:6222   */\n      0x11\n        /* \"#utility.yul\":6215:6216   */\n      0x04\n        /* \"#utility.yul\":6208:6223   */\n      mstore\n        /* \"#utility.yul\":6242:6246   */\n      0x24\n        /* \"#utility.yul\":6239:6240   */\n      0x00\n        /* \"#utility.yul\":6232:6247   */\n      revert\n        /* \"#utility.yul\":6259:6453   */\n    tag_72:\n        /* \"#utility.yul\":6299:6303   */\n      0x00\n        /* \"#utility.yul\":6319:6339   */\n      tag_180\n        /* \"#utility.yul\":6337:6338   */\n      dup3\n        /* \"#utility.yul\":6319:6339   */\n      tag_95\n      jump\t// in\n    tag_180:\n        /* \"#utility.yul\":6314:6339   */\n      swap2\n      pop\n        /* \"#utility.yul\":6353:6373   */\n      tag_181\n        /* \"#utility.yul\":6371:6372   */\n      dup4\n        /* \"#utility.yul\":6353:6373   */\n      tag_95\n      jump\t// in\n    tag_181:\n        /* \"#utility.yul\":6348:6373   */\n      swap3\n      pop\n        /* \"#utility.yul\":6397:6398   */\n      dup3\n        /* \"#utility.yul\":6394:6395   */\n      dup3\n        /* \"#utility.yul\":6390:6399   */\n      sub\n        /* \"#utility.yul\":6382:6399   */\n      swap1\n      pop\n        /* \"#utility.yul\":6421:6422   */\n      dup2\n        /* \"#utility.yul\":6415:6419   */\n      dup2\n        /* \"#utility.yul\":6412:6423   */\n      gt\n        /* \"#utility.yul\":6409:6446   */\n      iszero\n      tag_182\n      jumpi\n        /* \"#utility.yul\":6426:6444   */\n      tag_183\n      tag_109\n      jump\t// in\n    tag_183:\n        /* \"#utility.yul\":6409:6446   */\n    tag_182:\n        /* \"#utility.yul\":6259:6453   */\n      swap3\n      swap2\n      pop\n      pop\n      jump\t// out\n        /* \"#utility.yul\":6459:6650   */\n    tag_86:\n        /* \"#utility.yul\":6499:6502   */\n      0x00\n        /* \"#utility.yul\":6518:6538   */\n      tag_185\n        /* \"#utility.yul\":6536:6537   */\n      dup3\n        /* \"#utility.yul\":6518:6538   */\n      tag_95\n      jump\t// in\n    tag_185:\n        /* \"#utility.yul\":6513:6538   */\n      swap2\n      pop\n        /* \"#utility.yul\":6552:6572   */\n      tag_186\n        /* \"#utility.yul\":6570:6571   */\n      dup4\n        /* \"#utility.yul\":6552:6572   */\n      tag_95\n      jump\t// in\n    tag_186:\n        /* \"#utility.yul\":6547:6572   */\n      swap3\n      pop\n        /* \"#utility.yul\":6595:6596   */\n      dup3\n        /* \"#utility.yul\":6592:6593   */\n      dup3\n        /* \"#utility.yul\":6588:6597   */\n      add\n        /* \"#utility.yul\":6581:6597   */\n      swap1\n      pop\n        /* \"#utility.yul\":6616:6619   */\n      dup1\n        /* \"#utility.yul\":6613:6614   */\n      dup3\n        /* \"#utility.yul\":6610:6620   */\n      gt\n        /* \"#utility.yul\":6607:6643   */\n      iszero\n      tag_187\n      jumpi\n        /* \"#utility.yul\":6623:6641   */\n      tag_188\n      tag_109\n      jump\t// in\n    tag_188:\n        /* \"#utility.yul\":6607:6643   */\n    tag_187:\n        /* \"#utility.yul\":6459:6650   */\n      swap3\n      swap2\n      pop\n      pop\n      jump\t// out\n\n    auxdata: 0xa264697066735822122048e2f5aedcf5a8b5de7ca6cec5012eb694ad841ec7642f1b6f0630ff2cc97ded64736f6c634300081a0033\n}\n",
				"bytecode": {
					"linkReferences": {},
					"object": "608060405234801561000f575f80fd5b50604051611132380380611132833981810160405281019061003191906102db565b835f908161003f919061057b565b50826001908161004f919061057b565b508160025f6101000a81548160ff021916908360ff1602179055508060038190555060035460045f3373ffffffffffffffffffffffffffffffffffffffff1673ffffffffffffffffffffffffffffffffffffffff1681526020019081526020015f20819055503373ffffffffffffffffffffffffffffffffffffffff163073ffffffffffffffffffffffffffffffffffffffff167fddf252ad1be2c89b69c2b068fc378daa952ba7f163c4a11628f55a4df523b3ef6003546040516101149190610659565b60405180910390a350505050610672565b5f604051905090565b5f80fd5b5f80fd5b5f80fd5b5f80fd5b5f601f19601f8301169050919050565b7f4e487b71000000000000000000000000000000000000000000000000000000005f52604160045260245ffd5b6101848261013e565b810181811067ffffffffffffffff821117156101a3576101a261014e565b5b80604052505050565b5f6101b5610125565b90506101c1828261017b565b919050565b5f67ffffffffffffffff8211156101e0576101df61014e565b5b6101e98261013e565b9050602081019050919050565b8281835e5f83830152505050565b5f610216610211846101c6565b6101ac565b9050828152602081018484840111156102325761023161013a565b5b61023d8482856101f6565b509392505050565b5f82601f83011261025957610258610136565b5b8151610269848260208601610204565b91505092915050565b5f60ff82169050919050565b61028781610272565b8114610291575f80fd5b50565b5f815190506102a28161027e565b92915050565b5f819050919050565b6102ba816102a8565b81146102c4575f80fd5b50565b5f815190506102d5816102b1565b92915050565b5f805f80608085870312156102f3576102f261012e565b5b5f85015167ffffffffffffffff8111156103105761030f610132565b5b61031c87828801610245565b945050602085015167ffffffffffffffff81111561033d5761033c610132565b5b61034987828801610245565b935050604061035a87828801610294565b925050606061036b878288016102c7565b91505092959194509250565b5f81519050919050565b7f4e487b71000000000000000000000000000000000000000000000000000000005f52602260045260245ffd5b5f60028204905060018216806103c557607f821691505b6020821081036103d8576103d7610381565b5b50919050565b5f819050815f5260205f209050919050565b5f6020601f8301049050919050565b5f82821b905092915050565b5f6008830261043a7fffffffffffffffffffffffffffffffffffffffffffffffffffffffffffffffff826103ff565b61044486836103ff565b95508019841693508086168417925050509392505050565b5f819050919050565b5f61047f61047a610475846102a8565b61045c565b6102a8565b9050919050565b5f819050919050565b61049883610465565b6104ac6104a482610486565b84845461040b565b825550505050565b5f90565b6104c06104b4565b6104cb81848461048f565b505050565b5b818110156104ee576104e35f826104b8565b6001810190506104d1565b5050565b601f82111561053357610504816103de565b61050d846103f0565b8101602085101561051c578190505b610530610528856103f0565b8301826104d0565b50505b505050565b5f82821c905092915050565b5f6105535f1984600802610538565b1980831691505092915050565b5f61056b8383610544565b9150826002028217905092915050565b61058482610377565b67ffffffffffffffff81111561059d5761059c61014e565b5b6105a782546103ae565b6105b28282856104f2565b5f60209050601f8311600181146105e3575f84156105d1578287015190505b6105db8582610560565b865550610642565b601f1984166105f1866103de565b5f5b82811015610618578489015182556001820191506020850194506020810190506105f3565b868310156106355784890151610631601f891682610544565b8355505b6001600288020188555050505b505050505050565b610653816102a8565b82525050565b5f60208201905061066c5f83018461064a565b92915050565b610ab38061067f5f395ff3fe608060405234801561000f575f80fd5b506004361061009c575f3560e01c8063313ce56711610064578063313ce5671461016c57806370a082311461018a57806395d89b41146101ba578063a9059cbb146101d8578063dd62ed3e146102085761009c565b8063024c2ddd146100a057806306fdde03146100d0578063095ea7b3146100ee57806318160ddd1461011e57806323b872dd1461013c575b5f80fd5b6100ba60048036038101906100b59190610744565b610238565b6040516100c7919061079a565b60405180910390f35b6100d8610258565b6040516100e59190610823565b60405180910390f35b6101086004803603810190610103919061086d565b6102e3565b60405161011591906108c5565b60405180910390f35b6101266102f9565b604051610133919061079a565b60405180910390f35b610156600480360381019061015191906108de565b6102ff565b60405161016391906108c5565b60405180910390f35b6101746103a4565b6040516101819190610949565b60405180910390f35b6101a4600480360381019061019f9190610962565b6103b6565b6040516101b1919061079a565b60405180910390f35b6101c26103cb565b6040516101cf9190610823565b60405180910390f35b6101f260048036038101906101ed919061086d565b610457565b6040516101ff91906108c5565b60405180910390f35b610222600480360381019061021d9190610744565b61046d565b60405161022f919061079a565b60405180910390f35b6005602052815f5260405f20602052805f5260405f205f91509150505481565b5f8054610264906109ba565b80601f0160208091040260200160405190810160405280929190818152602001828054610290906109ba565b80156102db5780601f106102b2576101008083540402835291602001916102db565b820191905f5260205f20905b8154815290600101906020018083116102be57829003601f168201915b505050505081565b5f6102ef3384846104ef565b6001905092915050565b60035481565b5f61030b8484846105d6565b61039984338460055f8973ffffffffffffffffffffffffffffffffffffffff1673ffffffffffffffffffffffffffffffffffffffff1681526020019081526020015f205f3373ffffffffffffffffffffffffffffffffffffffff1673ffffffffffffffffffffffffffffffffffffffff1681526020019081526020015f20546103949190610a17565b6104ef565b600190509392505050565b60025f9054906101000a900460ff1681565b6004602052805f5260405f205f915090505481565b600180546103d8906109ba565b80601f0160208091040260200160405190810160405280929190818152602001828054610404906109ba565b801561044f5780601f106104265761010080835404028352916020019161044f565b820191905f5260205f20905b81548152906001019060200180831161043257829003601f168201915b505050505081565b5f6104633384846105d6565b6001905092915050565b5f60055f8473ffffffffffffffffffffffffffffffffffffffff1673ffffffffffffffffffffffffffffffffffffffff1681526020019081526020015f205f8373ffffffffffffffffffffffffffffffffffffffff1673ffffffffffffffffffffffffffffffffffffffff1681526020019081526020015f2054905092915050565b8060055f8573ffffffffffffffffffffffffffffffffffffffff1673ffffffffffffffffffffffffffffffffffffffff1681526020019081526020015f205f8473ffffffffffffffffffffffffffffffffffffffff1673ffffffffffffffffffffffffffffffffffffffff1681526020019081526020015f20819055508173ffffffffffffffffffffffffffffffffffffffff168373ffffffffffffffffffffffffffffffffffffffff167f8c5be1e5ebec7d5bd14f71427d1e84f3dd0314c0f7b2291e5b200ac8c7c3b925836040516105c9919061079a565b60405180910390a3505050565b8060045f8573ffffffffffffffffffffffffffffffffffffffff1673ffffffffffffffffffffffffffffffffffffffff1681526020019081526020015f205f8282546106229190610a17565b925050819055508060045f8473ffffffffffffffffffffffffffffffffffffffff1673ffffffffffffffffffffffffffffffffffffffff1681526020019081526020015f205f8282546106759190610a4a565b925050819055508173ffffffffffffffffffffffffffffffffffffffff168373ffffffffffffffffffffffffffffffffffffffff167fddf252ad1be2c89b69c2b068fc378daa952ba7f163c4a11628f55a4df523b3ef836040516106d9919061079a565b60405180910390a3505050565b5f80fd5b5f73ffffffffffffffffffffffffffffffffffffffff82169050919050565b5f610713826106ea565b9050919050565b61072381610709565b811461072d575f80fd5b50565b5f8135905061073e8161071a565b92915050565b5f806040838503121561075a576107596106e6565b5b5f61076785828601610730565b925050602061077885828601610730565b9150509250929050565b5f819050919050565b61079481610782565b82525050565b5f6020820190506107ad5f83018461078b565b92915050565b5f81519050919050565b5f82825260208201905092915050565b8281835e5f83830152505050565b5f601f19601f8301169050919050565b5f6107f5826107b3565b6107ff81856107bd565b935061080f8185602086016107cd565b610818816107db565b840191505092915050565b5f6020820190508181035f83015261083b81846107eb565b905092915050565b61084c81610782565b8114610856575f80fd5b50565b5f8135905061086781610843565b92915050565b5f8060408385031215610883576108826106e6565b5b5f61089085828601610730565b92505060206108a185828601610859565b9150509250929050565b5f8115159050919050565b6108bf816108ab565b82525050565b5f6020820190506108d85f8301846108b6565b92915050565b5f805f606084860312156108f5576108f46106e6565b5b5f61090286828701610730565b935050602061091386828701610730565b925050604061092486828701610859565b9150509250925092565b5f60ff82169050919050565b6109438161092e565b82525050565b5f60208201905061095c5f83018461093a565b92915050565b5f60208284031215610977576109766106e6565b5b5f61098484828501610730565b91505092915050565b7f4e487b71000000000000000000000000000000000000000000000000000000005f52602260045260245ffd5b5f60028204905060018216806109d157607f821691505b6020821081036109e4576109e361098d565b5b50919050565b7f4e487b71000000000000000000000000000000000000000000000000000000005f52601160045260245ffd5b5f610a2182610782565b9150610a2c83610782565b9250828203905081811115610a4457610a436109ea565b5b92915050565b5f610a5482610782565b9150610a5f83610782565b9250828201905080821115610a7757610a766109ea565b5b9291505056fea264697066735822122048e2f5aedcf5a8b5de7ca6cec5012eb694ad841ec7642f1b6f0630ff2cc97ded64736f6c634300081a0033",
					"opcodes": "PUSH1 0x80 PUSH1 0x40 MSTORE CALLVALUE DUP1 ISZERO PUSH2 0xF JUMPI PUSH0 DUP1 REVERT JUMPDEST POP PUSH1 0x40 MLOAD PUSH2 0x1132 CODESIZE SUB DUP1 PUSH2 0x1132 DUP4 CODECOPY DUP2 DUP2 ADD PUSH1 0x40 MSTORE DUP2 ADD SWAP1 PUSH2 0x31 SWAP2 SWAP1 PUSH2 0x2DB JUMP JUMPDEST DUP4 PUSH0 SWAP1 DUP2 PUSH2 0x3F SWAP2 SWAP1 PUSH2 0x57B JUMP JUMPDEST POP DUP3 PUSH1 0x1 SWAP1 DUP2 PUSH2 0x4F SWAP2 SWAP1 PUSH2 0x57B JUMP JUMPDEST POP DUP2 PUSH1 0x2 PUSH0 PUSH2 0x100 EXP DUP2 SLOAD DUP2 PUSH1 0xFF MUL NOT AND SWAP1 DUP4 PUSH1 0xFF AND MUL OR SWAP1 SSTORE POP DUP1 PUSH1 0x3 DUP2 SWAP1 SSTORE POP PUSH1 0x3 SLOAD PUSH1 0x4 PUSH0 CALLER PUSH20 0xFFFFFFFFFFFFFFFFFFFFFFFFFFFFFFFFFFFFFFFF AND PUSH20 0xFFFFFFFFFFFFFFFFFFFFFFFFFFFFFFFFFFFFFFFF AND DUP2 MSTORE PUSH1 0x20 ADD SWAP1 DUP2 MSTORE PUSH1 0x20 ADD PUSH0 KECCAK256 DUP2 SWAP1 SSTORE POP CALLER PUSH20 0xFFFFFFFFFFFFFFFFFFFFFFFFFFFFFFFFFFFFFFFF AND ADDRESS PUSH20 0xFFFFFFFFFFFFFFFFFFFFFFFFFFFFFFFFFFFFFFFF AND PUSH32 0xDDF252AD1BE2C89B69C2B068FC378DAA952BA7F163C4A11628F55A4DF523B3EF PUSH1 0x3 SLOAD PUSH1 0x40 MLOAD PUSH2 0x114 SWAP2 SWAP1 PUSH2 0x659 JUMP JUMPDEST PUSH1 0x40 MLOAD DUP1 SWAP2 SUB SWAP1 LOG3 POP POP POP POP PUSH2 0x672 JUMP JUMPDEST PUSH0 PUSH1 0x40 MLOAD SWAP1 POP SWAP1 JUMP JUMPDEST PUSH0 DUP1 REVERT JUMPDEST PUSH0 DUP1 REVERT JUMPDEST PUSH0 DUP1 REVERT JUMPDEST PUSH0 DUP1 REVERT JUMPDEST PUSH0 PUSH1 0x1F NOT PUSH1 0x1F DUP4 ADD AND SWAP1 POP SWAP2 SWAP1 POP JUMP JUMPDEST PUSH32 0x4E487B7100000000000000000000000000000000000000000000000000000000 PUSH0 MSTORE PUSH1 0x41 PUSH1 0x4 MSTORE PUSH1 0x24 PUSH0 REVERT JUMPDEST PUSH2 0x184 DUP3 PUSH2 0x13E JUMP JUMPDEST DUP2 ADD DUP2 DUP2 LT PUSH8 0xFFFFFFFFFFFFFFFF DUP3 GT OR ISZERO PUSH2 0x1A3 JUMPI PUSH2 0x1A2 PUSH2 0x14E JUMP JUMPDEST JUMPDEST DUP1 PUSH1 0x40 MSTORE POP POP POP JUMP JUMPDEST PUSH0 PUSH2 0x1B5 PUSH2 0x125 JUMP JUMPDEST SWAP1 POP PUSH2 0x1C1 DUP3 DUP3 PUSH2 0x17B JUMP JUMPDEST SWAP2 SWAP1 POP JUMP JUMPDEST PUSH0 PUSH8 0xFFFFFFFFFFFFFFFF DUP3 GT ISZERO PUSH2 0x1E0 JUMPI PUSH2 0x1DF PUSH2 0x14E JUMP JUMPDEST JUMPDEST PUSH2 0x1E9 DUP3 PUSH2 0x13E JUMP JUMPDEST SWAP1 POP PUSH1 0x20 DUP2 ADD SWAP1 POP SWAP2 SWAP1 POP JUMP JUMPDEST DUP3 DUP2 DUP4 MCOPY PUSH0 DUP4 DUP4 ADD MSTORE POP POP POP JUMP JUMPDEST PUSH0 PUSH2 0x216 PUSH2 0x211 DUP5 PUSH2 0x1C6 JUMP JUMPDEST PUSH2 0x1AC JUMP JUMPDEST SWAP1 POP DUP3 DUP2 MSTORE PUSH1 0x20 DUP2 ADD DUP5 DUP5 DUP5 ADD GT ISZERO PUSH2 0x232 JUMPI PUSH2 0x231 PUSH2 0x13A JUMP JUMPDEST JUMPDEST PUSH2 0x23D DUP5 DUP3 DUP6 PUSH2 0x1F6 JUMP JUMPDEST POP SWAP4 SWAP3 POP POP POP JUMP JUMPDEST PUSH0 DUP3 PUSH1 0x1F DUP4 ADD SLT PUSH2 0x259 JUMPI PUSH2 0x258 PUSH2 0x136 JUMP JUMPDEST JUMPDEST DUP2 MLOAD PUSH2 0x269 DUP5 DUP3 PUSH1 0x20 DUP7 ADD PUSH2 0x204 JUMP JUMPDEST SWAP2 POP POP SWAP3 SWAP2 POP POP JUMP JUMPDEST PUSH0 PUSH1 0xFF DUP3 AND SWAP1 POP SWAP2 SWAP1 POP JUMP JUMPDEST PUSH2 0x287 DUP2 PUSH2 0x272 JUMP JUMPDEST DUP2 EQ PUSH2 0x291 JUMPI PUSH0 DUP1 REVERT JUMPDEST POP JUMP JUMPDEST PUSH0 DUP2 MLOAD SWAP1 POP PUSH2 0x2A2 DUP2 PUSH2 0x27E JUMP JUMPDEST SWAP3 SWAP2 POP POP JUMP JUMPDEST PUSH0 DUP2 SWAP1 POP SWAP2 SWAP1 POP JUMP JUMPDEST PUSH2 0x2BA DUP2 PUSH2 0x2A8 JUMP JUMPDEST DUP2 EQ PUSH2 0x2C4 JUMPI PUSH0 DUP1 REVERT JUMPDEST POP JUMP JUMPDEST PUSH0 DUP2 MLOAD SWAP1 POP PUSH2 0x2D5 DUP2 PUSH2 0x2B1 JUMP JUMPDEST SWAP3 SWAP2 POP POP JUMP JUMPDEST PUSH0 DUP1 PUSH0 DUP1 PUSH1 0x80 DUP6 DUP8 SUB SLT ISZERO PUSH2 0x2F3 JUMPI PUSH2 0x2F2 PUSH2 0x12E JUMP JUMPDEST JUMPDEST PUSH0 DUP6 ADD MLOAD PUSH8 0xFFFFFFFFFFFFFFFF DUP2 GT ISZERO PUSH2 0x310 JUMPI PUSH2 0x30F PUSH2 0x132 JUMP JUMPDEST JUMPDEST PUSH2 0x31C DUP8 DUP3 DUP9 ADD PUSH2 0x245 JUMP JUMPDEST SWAP5 POP POP PUSH1 0x20 DUP6 ADD MLOAD PUSH8 0xFFFFFFFFFFFFFFFF DUP2 GT ISZERO PUSH2 0x33D JUMPI PUSH2 0x33C PUSH2 0x132 JUMP JUMPDEST JUMPDEST PUSH2 0x349 DUP8 DUP3 DUP9 ADD PUSH2 0x245 JUMP JUMPDEST SWAP4 POP POP PUSH1 0x40 PUSH2 0x35A DUP8 DUP3 DUP9 ADD PUSH2 0x294 JUMP JUMPDEST SWAP3 POP POP PUSH1 0x60 PUSH2 0x36B DUP8 DUP3 DUP9 ADD PUSH2 0x2C7 JUMP JUMPDEST SWAP2 POP POP SWAP3 SWAP6 SWAP2 SWAP5 POP SWAP3 POP JUMP JUMPDEST PUSH0 DUP2 MLOAD SWAP1 POP SWAP2 SWAP1 POP JUMP JUMPDEST PUSH32 0x4E487B7100000000000000000000000000000000000000000000000000000000 PUSH0 MSTORE PUSH1 0x22 PUSH1 0x4 MSTORE PUSH1 0x24 PUSH0 REVERT JUMPDEST PUSH0 PUSH1 0x2 DUP3 DIV SWAP1 POP PUSH1 0x1 DUP3 AND DUP1 PUSH2 0x3C5 JUMPI PUSH1 0x7F DUP3 AND SWAP2 POP JUMPDEST PUSH1 0x20 DUP3 LT DUP2 SUB PUSH2 0x3D8 JUMPI PUSH2 0x3D7 PUSH2 0x381 JUMP JUMPDEST JUMPDEST POP SWAP2 SWAP1 POP JUMP JUMPDEST PUSH0 DUP2 SWAP1 POP DUP2 PUSH0 MSTORE PUSH1 0x20 PUSH0 KECCAK256 SWAP1 POP SWAP2 SWAP1 POP JUMP JUMPDEST PUSH0 PUSH1 0x20 PUSH1 0x1F DUP4 ADD DIV SWAP1 POP SWAP2 SWAP1 POP JUMP JUMPDEST PUSH0 DUP3 DUP3 SHL SWAP1 POP SWAP3 SWAP2 POP POP JUMP JUMPDEST PUSH0 PUSH1 0x8 DUP4 MUL PUSH2 0x43A PUSH32 0xFFFFFFFFFFFFFFFFFFFFFFFFFFFFFFFFFFFFFFFFFFFFFFFFFFFFFFFFFFFFFFFF DUP3 PUSH2 0x3FF JUMP JUMPDEST PUSH2 0x444 DUP7 DUP4 PUSH2 0x3FF JUMP JUMPDEST SWAP6 POP DUP1 NOT DUP5 AND SWAP4 POP DUP1 DUP7 AND DUP5 OR SWAP3 POP POP POP SWAP4 SWAP3 POP POP POP JUMP JUMPDEST PUSH0 DUP2 SWAP1 POP SWAP2 SWAP1 POP JUMP JUMPDEST PUSH0 PUSH2 0x47F PUSH2 0x47A PUSH2 0x475 DUP5 PUSH2 0x2A8 JUMP JUMPDEST PUSH2 0x45C JUMP JUMPDEST PUSH2 0x2A8 JUMP JUMPDEST SWAP1 POP SWAP2 SWAP1 POP JUMP JUMPDEST PUSH0 DUP2 SWAP1 POP SWAP2 SWAP1 POP JUMP JUMPDEST PUSH2 0x498 DUP4 PUSH2 0x465 JUMP JUMPDEST PUSH2 0x4AC PUSH2 0x4A4 DUP3 PUSH2 0x486 JUMP JUMPDEST DUP5 DUP5 SLOAD PUSH2 0x40B JUMP JUMPDEST DUP3 SSTORE POP POP POP POP JUMP JUMPDEST PUSH0 SWAP1 JUMP JUMPDEST PUSH2 0x4C0 PUSH2 0x4B4 JUMP JUMPDEST PUSH2 0x4CB DUP2 DUP5 DUP5 PUSH2 0x48F JUMP JUMPDEST POP POP POP JUMP JUMPDEST JUMPDEST DUP2 DUP2 LT ISZERO PUSH2 0x4EE JUMPI PUSH2 0x4E3 PUSH0 DUP3 PUSH2 0x4B8 JUMP JUMPDEST PUSH1 0x1 DUP2 ADD SWAP1 POP PUSH2 0x4D1 JUMP JUMPDEST POP POP JUMP JUMPDEST PUSH1 0x1F DUP3 GT ISZERO PUSH2 0x533 JUMPI PUSH2 0x504 DUP2 PUSH2 0x3DE JUMP JUMPDEST PUSH2 0x50D DUP5 PUSH2 0x3F0 JUMP JUMPDEST DUP2 ADD PUSH1 0x20 DUP6 LT ISZERO PUSH2 0x51C JUMPI DUP2 SWAP1 POP JUMPDEST PUSH2 0x530 PUSH2 0x528 DUP6 PUSH2 0x3F0 JUMP JUMPDEST DUP4 ADD DUP3 PUSH2 0x4D0 JUMP JUMPDEST POP POP JUMPDEST POP POP POP JUMP JUMPDEST PUSH0 DUP3 DUP3 SHR SWAP1 POP SWAP3 SWAP2 POP POP JUMP JUMPDEST PUSH0 PUSH2 0x553 PUSH0 NOT DUP5 PUSH1 0x8 MUL PUSH2 0x538 JUMP JUMPDEST NOT DUP1 DUP4 AND SWAP2 POP POP SWAP3 SWAP2 POP POP JUMP JUMPDEST PUSH0 PUSH2 0x56B DUP4 DUP4 PUSH2 0x544 JUMP JUMPDEST SWAP2 POP DUP3 PUSH1 0x2 MUL DUP3 OR SWAP1 POP SWAP3 SWAP2 POP POP JUMP JUMPDEST PUSH2 0x584 DUP3 PUSH2 0x377 JUMP JUMPDEST PUSH8 0xFFFFFFFFFFFFFFFF DUP2 GT ISZERO PUSH2 0x59D JUMPI PUSH2 0x59C PUSH2 0x14E JUMP JUMPDEST JUMPDEST PUSH2 0x5A7 DUP3 SLOAD PUSH2 0x3AE JUMP JUMPDEST PUSH2 0x5B2 DUP3 DUP3 DUP6 PUSH2 0x4F2 JUMP JUMPDEST PUSH0 PUSH1 0x20 SWAP1 POP PUSH1 0x1F DUP4 GT PUSH1 0x1 DUP2 EQ PUSH2 0x5E3 JUMPI PUSH0 DUP5 ISZERO PUSH2 0x5D1 JUMPI DUP3 DUP8 ADD MLOAD SWAP1 POP JUMPDEST PUSH2 0x5DB DUP6 DUP3 PUSH2 0x560 JUMP JUMPDEST DUP7 SSTORE POP PUSH2 0x642 JUMP JUMPDEST PUSH1 0x1F NOT DUP5 AND PUSH2 0x5F1 DUP7 PUSH2 0x3DE JUMP JUMPDEST PUSH0 JUMPDEST DUP3 DUP2 LT ISZERO PUSH2 0x618 JUMPI DUP5 DUP10 ADD MLOAD DUP3 SSTORE PUSH1 0x1 DUP3 ADD SWAP2 POP PUSH1 0x20 DUP6 ADD SWAP5 POP PUSH1 0x20 DUP2 ADD SWAP1 POP PUSH2 0x5F3 JUMP JUMPDEST DUP7 DUP4 LT ISZERO PUSH2 0x635 JUMPI DUP5 DUP10 ADD MLOAD PUSH2 0x631 PUSH1 0x1F DUP10 AND DUP3 PUSH2 0x544 JUMP JUMPDEST DUP4 SSTORE POP JUMPDEST PUSH1 0x1 PUSH1 0x2 DUP9 MUL ADD DUP9 SSTORE POP POP POP JUMPDEST POP POP POP POP POP POP JUMP JUMPDEST PUSH2 0x653 DUP2 PUSH2 0x2A8 JUMP JUMPDEST DUP3 MSTORE POP POP JUMP JUMPDEST PUSH0 PUSH1 0x20 DUP3 ADD SWAP1 POP PUSH2 0x66C PUSH0 DUP4 ADD DUP5 PUSH2 0x64A JUMP JUMPDEST SWAP3 SWAP2 POP POP JUMP JUMPDEST PUSH2 0xAB3 DUP1 PUSH2 0x67F PUSH0 CODECOPY PUSH0 RETURN INVALID PUSH1 0x80 PUSH1 0x40 MSTORE CALLVALUE DUP1 ISZERO PUSH2 0xF JUMPI PUSH0 DUP1 REVERT JUMPDEST POP PUSH1 0x4 CALLDATASIZE LT PUSH2 0x9C JUMPI PUSH0 CALLDATALOAD PUSH1 0xE0 SHR DUP1 PUSH4 0x313CE567 GT PUSH2 0x64 JUMPI DUP1 PUSH4 0x313CE567 EQ PUSH2 0x16C JUMPI DUP1 PUSH4 0x70A08231 EQ PUSH2 0x18A JUMPI DUP1 PUSH4 0x95D89B41 EQ PUSH2 0x1BA JUMPI DUP1 PUSH4 0xA9059CBB EQ PUSH2 0x1D8 JUMPI DUP1 PUSH4 0xDD62ED3E EQ PUSH2 0x208 JUMPI PUSH2 0x9C JUMP JUMPDEST DUP1 PUSH4 0x24C2DDD EQ PUSH2 0xA0 JUMPI DUP1 PUSH4 0x6FDDE03 EQ PUSH2 0xD0 JUMPI DUP1 PUSH4 0x95EA7B3 EQ PUSH2 0xEE JUMPI DUP1 PUSH4 0x18160DDD EQ PUSH2 0x11E JUMPI DUP1 PUSH4 0x23B872DD EQ PUSH2 0x13C JUMPI JUMPDEST PUSH0 DUP1 REVERT JUMPDEST PUSH2 0xBA PUSH1 0x4 DUP1 CALLDATASIZE SUB DUP2 ADD SWAP1 PUSH2 0xB5 SWAP2 SWAP1 PUSH2 0x744 JUMP JUMPDEST PUSH2 0x238 JUMP JUMPDEST PUSH1 0x40 MLOAD PUSH2 0xC7 SWAP2 SWAP1 PUSH2 0x79A JUMP JUMPDEST PUSH1 0x40 MLOAD DUP1 SWAP2 SUB SWAP1 RETURN JUMPDEST PUSH2 0xD8 PUSH2 0x258 JUMP JUMPDEST PUSH1 0x40 MLOAD PUSH2 0xE5 SWAP2 SWAP1 PUSH2 0x823 JUMP JUMPDEST PUSH1 0x40 MLOAD DUP1 SWAP2 SUB SWAP1 RETURN JUMPDEST PUSH2 0x108 PUSH1 0x4 DUP1 CALLDATASIZE SUB DUP2 ADD SWAP1 PUSH2 0x103 SWAP2 SWAP1 PUSH2 0x86D JUMP JUMPDEST PUSH2 0x2E3 JUMP JUMPDEST PUSH1 0x40 MLOAD PUSH2 0x115 SWAP2 SWAP1 PUSH2 0x8C5 JUMP JUMPDEST PUSH1 0x40 MLOAD DUP1 SWAP2 SUB SWAP1 RETURN JUMPDEST PUSH2 0x126 PUSH2 0x2F9 JUMP JUMPDEST PUSH1 0x40 MLOAD PUSH2 0x133 SWAP2 SWAP1 PUSH2 0x79A JUMP JUMPDEST PUSH1 0x40 MLOAD DUP1 SWAP2 SUB SWAP1 RETURN JUMPDEST PUSH2 0x156 PUSH1 0x4 DUP1 CALLDATASIZE SUB DUP2 ADD SWAP1 PUSH2 0x151 SWAP2 SWAP1 PUSH2 0x8DE JUMP JUMPDEST PUSH2 0x2FF JUMP JUMPDEST PUSH1 0x40 MLOAD PUSH2 0x163 SWAP2 SWAP1 PUSH2 0x8C5 JUMP JUMPDEST PUSH1 0x40 MLOAD DUP1 SWAP2 SUB SWAP1 RETURN JUMPDEST PUSH2 0x174 PUSH2 0x3A4 JUMP JUMPDEST PUSH1 0x40 MLOAD PUSH2 0x181 SWAP2 SWAP1 PUSH2 0x949 JUMP JUMPDEST PUSH1 0x40 MLOAD DUP1 SWAP2 SUB SWAP1 RETURN JUMPDEST PUSH2 0x1A4 PUSH1 0x4 DUP1 CALLDATASIZE SUB DUP2 ADD SWAP1 PUSH2 0x19F SWAP2 SWAP1 PUSH2 0x962 JUMP JUMPDEST PUSH2 0x3B6 JUMP JUMPDEST PUSH1 0x40 MLOAD PUSH2 0x1B1 SWAP2 SWAP1 PUSH2 0x79A JUMP JUMPDEST PUSH1 0x40 MLOAD DUP1 SWAP2 SUB SWAP1 RETURN JUMPDEST PUSH2 0x1C2 PUSH2 0x3CB JUMP JUMPDEST PUSH1 0x40 MLOAD PUSH2 0x1CF SWAP2 SWAP1 PUSH2 0x823 JUMP JUMPDEST PUSH1 0x40 MLOAD DUP1 SWAP2 SUB SWAP1 RETURN JUMPDEST PUSH2 0x1F2 PUSH1 0x4 DUP1 CALLDATASIZE SUB DUP2 ADD SWAP1 PUSH2 0x1ED SWAP2 SWAP1 PUSH2 0x86D JUMP JUMPDEST PUSH2 0x457 JUMP JUMPDEST PUSH1 0x40 MLOAD PUSH2 0x1FF SWAP2 SWAP1 PUSH2 0x8C5 JUMP JUMPDEST PUSH1 0x40 MLOAD DUP1 SWAP2 SUB SWAP1 RETURN JUMPDEST PUSH2 0x222 PUSH1 0x4 DUP1 CALLDATASIZE SUB DUP2 ADD SWAP1 PUSH2 0x21D SWAP2 SWAP1 PUSH2 0x744 JUMP JUMPDEST PUSH2 0x46D JUMP JUMPDEST PUSH1 0x40 MLOAD PUSH2 0x22F SWAP2 SWAP1 PUSH2 0x79A JUMP JUMPDEST PUSH1 0x40 MLOAD DUP1 SWAP2 SUB SWAP1 RETURN JUMPDEST PUSH1 0x5 PUSH1 0x20 MSTORE DUP2 PUSH0 MSTORE PUSH1 0x40 PUSH0 KECCAK256 PUSH1 0x20 MSTORE DUP1 PUSH0 MSTORE PUSH1 0x40 PUSH0 KECCAK256 PUSH0 SWAP2 POP SWAP2 POP POP SLOAD DUP2 JUMP JUMPDEST PUSH0 DUP1 SLOAD PUSH2 0x264 SWAP1 PUSH2 0x9BA JUMP JUMPDEST DUP1 PUSH1 0x1F ADD PUSH1 0x20 DUP1 SWAP2 DIV MUL PUSH1 0x20 ADD PUSH1 0x40 MLOAD SWAP1 DUP2 ADD PUSH1 0x40 MSTORE DUP1 SWAP3 SWAP2 SWAP1 DUP2 DUP2 MSTORE PUSH1 0x20 ADD DUP3 DUP1 SLOAD PUSH2 0x290 SWAP1 PUSH2 0x9BA JUMP JUMPDEST DUP1 ISZERO PUSH2 0x2DB JUMPI DUP1 PUSH1 0x1F LT PUSH2 0x2B2 JUMPI PUSH2 0x100 DUP1 DUP4 SLOAD DIV MUL DUP4 MSTORE SWAP2 PUSH1 0x20 ADD SWAP2 PUSH2 0x2DB JUMP JUMPDEST DUP3 ADD SWAP2 SWAP1 PUSH0 MSTORE PUSH1 0x20 PUSH0 KECCAK256 SWAP1 JUMPDEST DUP2 SLOAD DUP2 MSTORE SWAP1 PUSH1 0x1 ADD SWAP1 PUSH1 0x20 ADD DUP1 DUP4 GT PUSH2 0x2BE JUMPI DUP3 SWAP1 SUB PUSH1 0x1F AND DUP3 ADD SWAP2 JUMPDEST POP POP POP POP POP DUP2 JUMP JUMPDEST PUSH0 PUSH2 0x2EF CALLER DUP5 DUP5 PUSH2 0x4EF JUMP JUMPDEST PUSH1 0x1 SWAP1 POP SWAP3 SWAP2 POP POP JUMP JUMPDEST PUSH1 0x3 SLOAD DUP2 JUMP JUMPDEST PUSH0 PUSH2 0x30B DUP5 DUP5 DUP5 PUSH2 0x5D6 JUMP JUMPDEST PUSH2 0x399 DUP5 CALLER DUP5 PUSH1 0x5 PUSH0 DUP10 PUSH20 0xFFFFFFFFFFFFFFFFFFFFFFFFFFFFFFFFFFFFFFFF AND PUSH20 0xFFFFFFFFFFFFFFFFFFFFFFFFFFFFFFFFFFFFFFFF AND DUP2 MSTORE PUSH1 0x20 ADD SWAP1 DUP2 MSTORE PUSH1 0x20 ADD PUSH0 KECCAK256 PUSH0 CALLER PUSH20 0xFFFFFFFFFFFFFFFFFFFFFFFFFFFFFFFFFFFFFFFF AND PUSH20 0xFFFFFFFFFFFFFFFFFFFFFFFFFFFFFFFFFFFFFFFF AND DUP2 MSTORE PUSH1 0x20 ADD SWAP1 DUP2 MSTORE PUSH1 0x20 ADD PUSH0 KECCAK256 SLOAD PUSH2 0x394 SWAP2 SWAP1 PUSH2 0xA17 JUMP JUMPDEST PUSH2 0x4EF JUMP JUMPDEST PUSH1 0x1 SWAP1 POP SWAP4 SWAP3 POP POP POP JUMP JUMPDEST PUSH1 0x2 PUSH0 SWAP1 SLOAD SWAP1 PUSH2 0x100 EXP SWAP1 DIV PUSH1 0xFF AND DUP2 JUMP JUMPDEST PUSH1 0x4 PUSH1 0x20 MSTORE DUP1 PUSH0 MSTORE PUSH1 0x40 PUSH0 KECCAK256 PUSH0 SWAP2 POP SWAP1 POP SLOAD DUP2 JUMP JUMPDEST PUSH1 0x1 DUP1 SLOAD PUSH2 0x3D8 SWAP1 PUSH2 0x9BA JUMP JUMPDEST DUP1 PUSH1 0x1F ADD PUSH1 0x20 DUP1 SWAP2 DIV MUL PUSH1 0x20 ADD PUSH1 0x40 MLOAD SWAP1 DUP2 ADD PUSH1 0x40 MSTORE DUP1 SWAP3 SWAP2 SWAP1 DUP2 DUP2 MSTORE PUSH1 0x20 ADD DUP3 DUP1 SLOAD PUSH2 0x404 SWAP1 PUSH2 0x9BA JUMP JUMPDEST DUP1 ISZERO PUSH2 0x44F JUMPI DUP1 PUSH1 0x1F LT PUSH2 0x426 JUMPI PUSH2 0x100 DUP1 DUP4 SLOAD DIV MUL DUP4 MSTORE SWAP2 PUSH1 0x20 ADD SWAP2 PUSH2 0x44F JUMP JUMPDEST DUP3 ADD SWAP2 SWAP1 PUSH0 MSTORE PUSH1 0x20 PUSH0 KECCAK256 SWAP1 JUMPDEST DUP2 SLOAD DUP2 MSTORE SWAP1 PUSH1 0x1 ADD SWAP1 PUSH1 0x20 ADD DUP1 DUP4 GT PUSH2 0x432 JUMPI DUP3 SWAP1 SUB PUSH1 0x1F AND DUP3 ADD SWAP2 JUMPDEST POP POP POP POP POP DUP2 JUMP JUMPDEST PUSH0 PUSH2 0x463 CALLER DUP5 DUP5 PUSH2 0x5D6 JUMP JUMPDEST PUSH1 0x1 SWAP1 POP SWAP3 SWAP2 POP POP JUMP JUMPDEST PUSH0 PUSH1 0x5 PUSH0 DUP5 PUSH20 0xFFFFFFFFFFFFFFFFFFFFFFFFFFFFFFFFFFFFFFFF AND PUSH20 0xFFFFFFFFFFFFFFFFFFFFFFFFFFFFFFFFFFFFFFFF AND DUP2 MSTORE PUSH1 0x20 ADD SWAP1 DUP2 MSTORE PUSH1 0x20 ADD PUSH0 KECCAK256 PUSH0 DUP4 PUSH20 0xFFFFFFFFFFFFFFFFFFFFFFFFFFFFFFFFFFFFFFFF AND PUSH20 0xFFFFFFFFFFFFFFFFFFFFFFFFFFFFFFFFFFFFFFFF AND DUP2 MSTORE PUSH1 0x20 ADD SWAP1 DUP2 MSTORE PUSH1 0x20 ADD PUSH0 KECCAK256 SLOAD SWAP1 POP SWAP3 SWAP2 POP POP JUMP JUMPDEST DUP1 PUSH1 0x5 PUSH0 DUP6 PUSH20 0xFFFFFFFFFFFFFFFFFFFFFFFFFFFFFFFFFFFFFFFF AND PUSH20 0xFFFFFFFFFFFFFFFFFFFFFFFFFFFFFFFFFFFFFFFF AND DUP2 MSTORE PUSH1 0x20 ADD SWAP1 DUP2 MSTORE PUSH1 0x20 ADD PUSH0 KECCAK256 PUSH0 DUP5 PUSH20 0xFFFFFFFFFFFFFFFFFFFFFFFFFFFFFFFFFFFFFFFF AND PUSH20 0xFFFFFFFFFFFFFFFFFFFFFFFFFFFFFFFFFFFFFFFF AND DUP2 MSTORE PUSH1 0x20 ADD SWAP1 DUP2 MSTORE PUSH1 0x20 ADD PUSH0 KECCAK256 DUP2 SWAP1 SSTORE POP DUP2 PUSH20 0xFFFFFFFFFFFFFFFFFFFFFFFFFFFFFFFFFFFFFFFF AND DUP4 PUSH20 0xFFFFFFFFFFFFFFFFFFFFFFFFFFFFFFFFFFFFFFFF AND PUSH32 0x8C5BE1E5EBEC7D5BD14F71427D1E84F3DD0314C0F7B2291E5B200AC8C7C3B925 DUP4 PUSH1 0x40 MLOAD PUSH2 0x5C9 SWAP2 SWAP1 PUSH2 0x79A JUMP JUMPDEST PUSH1 0x40 MLOAD DUP1 SWAP2 SUB SWAP1 LOG3 POP POP POP JUMP JUMPDEST DUP1 PUSH1 0x4 PUSH0 DUP6 PUSH20 0xFFFFFFFFFFFFFFFFFFFFFFFFFFFFFFFFFFFFFFFF AND PUSH20 0xFFFFFFFFFFFFFFFFFFFFFFFFFFFFFFFFFFFFFFFF AND DUP2 MSTORE PUSH1 0x20 ADD SWAP1 DUP2 MSTORE PUSH1 0x20 ADD PUSH0 KECCAK256 PUSH0 DUP3 DUP3 SLOAD PUSH2 0x622 SWAP2 SWAP1 PUSH2 0xA17 JUMP JUMPDEST SWAP3 POP POP DUP2 SWAP1 SSTORE POP DUP1 PUSH1 0x4 PUSH0 DUP5 PUSH20 0xFFFFFFFFFFFFFFFFFFFFFFFFFFFFFFFFFFFFFFFF AND PUSH20 0xFFFFFFFFFFFFFFFFFFFFFFFFFFFFFFFFFFFFFFFF AND DUP2 MSTORE PUSH1 0x20 ADD SWAP1 DUP2 MSTORE PUSH1 0x20 ADD PUSH0 KECCAK256 PUSH0 DUP3 DUP3 SLOAD PUSH2 0x675 SWAP2 SWAP1 PUSH2 0xA4A JUMP JUMPDEST SWAP3 POP POP DUP2 SWAP1 SSTORE POP DUP2 PUSH20 0xFFFFFFFFFFFFFFFFFFFFFFFFFFFFFFFFFFFFFFFF AND DUP4 PUSH20 0xFFFFFFFFFFFFFFFFFFFFFFFFFFFFFFFFFFFFFFFF AND PUSH32 0xDDF252AD1BE2C89B69C2B068FC378DAA952BA7F163C4A11628F55A4DF523B3EF DUP4 PUSH1 0x40 MLOAD PUSH2 0x6D9 SWAP2 SWAP1 PUSH2 0x79A JUMP JUMPDEST PUSH1 0x40 MLOAD DUP1 SWAP2 SUB SWAP1 LOG3 POP POP POP JUMP JUMPDEST PUSH0 DUP1 REVERT JUMPDEST PUSH0 PUSH20 0xFFFFFFFFFFFFFFFFFFFFFFFFFFFFFFFFFFFFFFFF DUP3 AND SWAP1 POP SWAP2 SWAP1 POP JUMP JUMPDEST PUSH0 PUSH2 0x713 DUP3 PUSH2 0x6EA JUMP JUMPDEST SWAP1 POP SWAP2 SWAP1 POP JUMP JUMPDEST PUSH2 0x723 DUP2 PUSH2 0x709 JUMP JUMPDEST DUP2 EQ PUSH2 0x72D JUMPI PUSH0 DUP1 REVERT JUMPDEST POP JUMP JUMPDEST PUSH0 DUP2 CALLDATALOAD SWAP1 POP PUSH2 0x73E DUP2 PUSH2 0x71A JUMP JUMPDEST SWAP3 SWAP2 POP POP JUMP JUMPDEST PUSH0 DUP1 PUSH1 0x40 DUP4 DUP6 SUB SLT ISZERO PUSH2 0x75A JUMPI PUSH2 0x759 PUSH2 0x6E6 JUMP JUMPDEST JUMPDEST PUSH0 PUSH2 0x767 DUP6 DUP3 DUP7 ADD PUSH2 0x730 JUMP JUMPDEST SWAP3 POP POP PUSH1 0x20 PUSH2 0x778 DUP6 DUP3 DUP7 ADD PUSH2 0x730 JUMP JUMPDEST SWAP2 POP POP SWAP3 POP SWAP3 SWAP1 POP JUMP JUMPDEST PUSH0 DUP2 SWAP1 POP SWAP2 SWAP1 POP JUMP JUMPDEST PUSH2 0x794 DUP2 PUSH2 0x782 JUMP JUMPDEST DUP3 MSTORE POP POP JUMP JUMPDEST PUSH0 PUSH1 0x20 DUP3 ADD SWAP1 POP PUSH2 0x7AD PUSH0 DUP4 ADD DUP5 PUSH2 0x78B JUMP JUMPDEST SWAP3 SWAP2 POP POP JUMP JUMPDEST PUSH0 DUP2 MLOAD SWAP1 POP SWAP2 SWAP1 POP JUMP JUMPDEST PUSH0 DUP3 DUP3 MSTORE PUSH1 0x20 DUP3 ADD SWAP1 POP SWAP3 SWAP2 POP POP JUMP JUMPDEST DUP3 DUP2 DUP4 MCOPY PUSH0 DUP4 DUP4 ADD MSTORE POP POP POP JUMP JUMPDEST PUSH0 PUSH1 0x1F NOT PUSH1 0x1F DUP4 ADD AND SWAP1 POP SWAP2 SWAP1 POP JUMP JUMPDEST PUSH0 PUSH2 0x7F5 DUP3 PUSH2 0x7B3 JUMP JUMPDEST PUSH2 0x7FF DUP2 DUP6 PUSH2 0x7BD JUMP JUMPDEST SWAP4 POP PUSH2 0x80F DUP2 DUP6 PUSH1 0x20 DUP7 ADD PUSH2 0x7CD JUMP JUMPDEST PUSH2 0x818 DUP2 PUSH2 0x7DB JUMP JUMPDEST DUP5 ADD SWAP2 POP POP SWAP3 SWAP2 POP POP JUMP JUMPDEST PUSH0 PUSH1 0x20 DUP3 ADD SWAP1 POP DUP2 DUP2 SUB PUSH0 DUP4 ADD MSTORE PUSH2 0x83B DUP2 DUP5 PUSH2 0x7EB JUMP JUMPDEST SWAP1 POP SWAP3 SWAP2 POP POP JUMP JUMPDEST PUSH2 0x84C DUP2 PUSH2 0x782 JUMP JUMPDEST DUP2 EQ PUSH2 0x856 JUMPI PUSH0 DUP1 REVERT JUMPDEST POP JUMP JUMPDEST PUSH0 DUP2 CALLDATALOAD SWAP1 POP PUSH2 0x867 DUP2 PUSH2 0x843 JUMP JUMPDEST SWAP3 SWAP2 POP POP JUMP JUMPDEST PUSH0 DUP1 PUSH1 0x40 DUP4 DUP6 SUB SLT ISZERO PUSH2 0x883 JUMPI PUSH2 0x882 PUSH2 0x6E6 JUMP JUMPDEST JUMPDEST PUSH0 PUSH2 0x890 DUP6 DUP3 DUP7 ADD PUSH2 0x730 JUMP JUMPDEST SWAP3 POP POP PUSH1 0x20 PUSH2 0x8A1 DUP6 DUP3 DUP7 ADD PUSH2 0x859 JUMP JUMPDEST SWAP2 POP POP SWAP3 POP SWAP3 SWAP1 POP JUMP JUMPDEST PUSH0 DUP2 ISZERO ISZERO SWAP1 POP SWAP2 SWAP1 POP JUMP JUMPDEST PUSH2 0x8BF DUP2 PUSH2 0x8AB JUMP JUMPDEST DUP3 MSTORE POP POP JUMP JUMPDEST PUSH0 PUSH1 0x20 DUP3 ADD SWAP1 POP PUSH2 0x8D8 PUSH0 DUP4 ADD DUP5 PUSH2 0x8B6 JUMP JUMPDEST SWAP3 SWAP2 POP POP JUMP JUMPDEST PUSH0 DUP1 PUSH0 PUSH1 0x60 DUP5 DUP7 SUB SLT ISZERO PUSH2 0x8F5 JUMPI PUSH2 0x8F4 PUSH2 0x6E6 JUMP JUMPDEST JUMPDEST PUSH0 PUSH2 0x902 DUP7 DUP3 DUP8 ADD PUSH2 0x730 JUMP JUMPDEST SWAP4 POP POP PUSH1 0x20 PUSH2 0x913 DUP7 DUP3 DUP8 ADD PUSH2 0x730 JUMP JUMPDEST SWAP3 POP POP PUSH1 0x40 PUSH2 0x924 DUP7 DUP3 DUP8 ADD PUSH2 0x859 JUMP JUMPDEST SWAP2 POP POP SWAP3 POP SWAP3 POP SWAP3 JUMP JUMPDEST PUSH0 PUSH1 0xFF DUP3 AND SWAP1 POP SWAP2 SWAP1 POP JUMP JUMPDEST PUSH2 0x943 DUP2 PUSH2 0x92E JUMP JUMPDEST DUP3 MSTORE POP POP JUMP JUMPDEST PUSH0 PUSH1 0x20 DUP3 ADD SWAP1 POP PUSH2 0x95C PUSH0 DUP4 ADD DUP5 PUSH2 0x93A JUMP JUMPDEST SWAP3 SWAP2 POP POP JUMP JUMPDEST PUSH0 PUSH1 0x20 DUP3 DUP5 SUB SLT ISZERO PUSH2 0x977 JUMPI PUSH2 0x976 PUSH2 0x6E6 JUMP JUMPDEST JUMPDEST PUSH0 PUSH2 0x984 DUP5 DUP3 DUP6 ADD PUSH2 0x730 JUMP JUMPDEST SWAP2 POP POP SWAP3 SWAP2 POP POP JUMP JUMPDEST PUSH32 0x4E487B7100000000000000000000000000000000000000000000000000000000 PUSH0 MSTORE PUSH1 0x22 PUSH1 0x4 MSTORE PUSH1 0x24 PUSH0 REVERT JUMPDEST PUSH0 PUSH1 0x2 DUP3 DIV SWAP1 POP PUSH1 0x1 DUP3 AND DUP1 PUSH2 0x9D1 JUMPI PUSH1 0x7F DUP3 AND SWAP2 POP JUMPDEST PUSH1 0x20 DUP3 LT DUP2 SUB PUSH2 0x9E4 JUMPI PUSH2 0x9E3 PUSH2 0x98D JUMP JUMPDEST JUMPDEST POP SWAP2 SWAP1 POP JUMP JUMPDEST PUSH32 0x4E487B7100000000000000000000000000000000000000000000000000000000 PUSH0 MSTORE PUSH1 0x11 PUSH1 0x4 MSTORE PUSH1 0x24 PUSH0 REVERT JUMPDEST PUSH0 PUSH2 0xA21 DUP3 PUSH2 0x782 JUMP JUMPDEST SWAP2 POP PUSH2 0xA2C DUP4 PUSH2 0x782 JUMP JUMPDEST SWAP3 POP DUP3 DUP3 SUB SWAP1 POP DUP2 DUP2 GT ISZERO PUSH2 0xA44 JUMPI PUSH2 0xA43 PUSH2 0x9EA JUMP JUMPDEST JUMPDEST SWAP3 SWAP2 POP POP JUMP JUMPDEST PUSH0 PUSH2 0xA54 DUP3 PUSH2 0x782 JUMP JUMPDEST SWAP2 POP PUSH2 0xA5F DUP4 PUSH2 0x782 JUMP JUMPDEST SWAP3 POP DUP3 DUP3 ADD SWAP1 POP DUP1 DUP3 GT ISZERO PUSH2 0xA77 JUMPI PUSH2 0xA76 PUSH2 0x9EA JUMP JUMPDEST JUMPDEST SWAP3 SWAP2 POP POP JUMP INVALID LOG2 PUSH5 0x6970667358 0x22 SLT KECCAK256 BASEFEE 0xE2 CREATE2 0xAE 0xDC CREATE2 0xA8 0xB5 0xDE PUSH29 0xA6CEC5012EB694AD841EC7642F1B6F0630FF2CC97DED64736F6C634300 ADDMOD BYTE STOP CALLER "
				},
				"gasEstimates": {
					"creation": {
						"codeDepositCost": "547800",
						"executionCost": "infinite",
						"totalCost": "infinite"
					},
					"external": {
						"_allowances(address,address)": "infinite",
						"allowance(address,address)": "infinite",
						"approve(address,uint256)": "infinite",
						"balanceOf(address)": "2824",
						"decimals()": "2466",
						"name()": "infinite",
						"symbol()": "infinite",
						"totalSupply()": "2492",
						"transfer(address,uint256)": "infinite",
						"transferFrom(address,address,uint256)": "infinite"
					},
					"internal": {
						"_approve(address,address,uint256)": "infinite",
						"_transfer(address,address,uint256)": "infinite"
					}
				},
				"methodIdentifiers": {
					"_allowances(address,address)": "024c2ddd",
					"allowance(address,address)": "dd62ed3e",
					"approve(address,uint256)": "095ea7b3",
					"balanceOf(address)": "70a08231",
					"decimals()": "313ce567",
					"name()": "06fdde03",
					"symbol()": "95d89b41",
					"totalSupply()": "18160ddd",
					"transfer(address,uint256)": "a9059cbb",
					"transferFrom(address,address,uint256)": "23b872dd"
				}
			},
			"storageLayout": {
				"storage": [
					{
						"astId": 19,
						"contract": "contracts/erc20.sol:erc20",
						"label": "name",
						"offset": 0,
						"slot": "0",
						"type": "t_string_storage"
					},
					{
						"astId": 21,
						"contract": "contracts/erc20.sol:erc20",
						"label": "symbol",
						"offset": 0,
						"slot": "1",
						"type": "t_string_storage"
					},
					{
						"astId": 23,
						"contract": "contracts/erc20.sol:erc20",
						"label": "decimals",
						"offset": 0,
						"slot": "2",
						"type": "t_uint8"
					},
					{
						"astId": 25,
						"contract": "contracts/erc20.sol:erc20",
						"label": "totalSupply",
						"offset": 0,
						"slot": "3",
						"type": "t_uint256"
					},
					{
						"astId": 29,
						"contract": "contracts/erc20.sol:erc20",
						"label": "balanceOf",
						"offset": 0,
						"slot": "4",
						"type": "t_mapping(t_address,t_uint256)"
					},
					{
						"astId": 35,
						"contract": "contracts/erc20.sol:erc20",
						"label": "_allowances",
						"offset": 0,
						"slot": "5",
						"type": "t_mapping(t_address,t_mapping(t_address,t_uint256))"
					}
				],
				"types": {
					"t_address": {
						"encoding": "inplace",
						"label": "address",
						"numberOfBytes": "20"
					},
					"t_mapping(t_address,t_mapping(t_address,t_uint256))": {
						"encoding": "mapping",
						"key": "t_address",
						"label": "mapping(address => mapping(address => uint256))",
						"numberOfBytes": "32",
						"value": "t_mapping(t_address,t_uint256)"
					},
					"t_mapping(t_address,t_uint256)": {
						"encoding": "mapping",
						"key": "t_address",
						"label": "mapping(address => uint256)",
						"numberOfBytes": "32",
						"value": "t_uint256"
					},
					"t_string_storage": {
						"encoding": "bytes",
						"label": "string",
						"numberOfBytes": "32"
					},
					"t_uint256": {
						"encoding": "inplace",
						"label": "uint256",
						"numberOfBytes": "32"
					},
					"t_uint8": {
						"encoding": "inplace",
						"label": "uint8",
						"numberOfBytes": "1"
					}
				}
			},
			"userdoc": {
				"kind": "user",
				"methods": {},
				"version": 1
			}
		}
	}
}